:020000040000FA
:06000000020AAB0201CD73
:03002B0002075D6C
:030043000207832E
:03005300020102A5
:03006B000205414A
:10008300020161010105030101FF0F10FEFFD222EE
:1000930000000000A62100000000FF000000FF0098
:1000A300010124341201000004BF8103CF81002029
:1000B300FD000206FFFF010101040200ED1C000028
:1000C30000E8030000FFFFB61DE8030000640064BE
:1000D30000A0BB0D00A0BB0D00020008000005023C
:1000E300070101051E02051E020A0A01020803B8E0
:1000F3000B02803E0102E8030A050001FFFF14C062
:10010300E074F11203E4A2AFE433F509D2AF85A79B
:1001130008AFA1EF5508FE74105E600612175575FF
:10012300A1EF74085E600812175B75A1F78024EFD6
:10013300A2E092F0E508A2E082F05017906198E007
:10014300F89009B1E0C398A2D265D0335002E8F029
:1001530075A1FEE509A2E092AF7F02020443C0E06D
:1001630074F21203E4A2AFE433FED2AF9061A4E0D1
:10017300F8759B00E59158540860087591F71217BC
:10018300A38023E59158541060087591EF1217A9C5
:100193008014E591A2E092F0E8A2E082F05007E03B
:1001A300C2E0F01218F39061A3E0F8E5E9585404B3
:1001B300600E1218C975E9FB906193E0A2E640F264
:1001C300EEA2E092AF7F01020443C0E074F2120397
:1001D300E4A2AFE433FED2AF9061A5E0F8E5BF58E7
:1001E3005404600675BFFB12190B80D4C3E498F85E
:1001F300E499F91202308026C3E49AFAE49BFBE9FE
:1002030020E7E9120230E498F8E499F922C3E4986C
:10021300F8E499F9120230E498F8E499F9C3E49AFE
:10022300FAE49BFB22EB20E7CFE920E7E0B90010DB
:10023300BB0008E88AF084F8AAF022E4FBC8FA229B
:10024300EB70227B10C833C8C933C9335007C39A34
:10025300C3DBF280069A50012ADBEAC833F4C8C92B
:1002630033F4C9FA2275F008E4C833C8C933C93373
:10027300C99AC99B5004C92AC93BD5F0ECFBC833C2
:10028300F4C8E4C9FA22080808EAC0E0EBC0E08633
:10029300F0E7A4FA180986F0E7A42AFA180986F009
:1002A300E7A42AFA180986F0E7A42AFA1986F0E7E0
:1002B300A4FBE5F02AFA190886F0E7A42BFBE5F086
:1002C3003AFA190886F0E7A42BFBE5F03AFA181876
:1002D3000986F0E7A4C5F02BFBE43AFA1908E7C551
:1002E300F0C6A426F6E5F03BFBE43AFA1886F0E7FD
:1002F300A4F6E5F00826F6E43B08F6E43A08F6D05F
:10030300E0FBD0E0FA22E4CFC0E0E4CEC0E0E4CDED
:10031300C0E0E4CCC0E075F020E626F608E633F64C
:1003230008E633F608E633F6181818EC33FCED3319
:10033300FDEE33FEEF33FFC3EC9709ED9709EE971C
:1003430009EF97191919400FFFEC97FC09ED97FD79
:1003530009EE97FE191906D5F0BFECF709EDF70979
:10036300EEF709EFF7191919D0E0FCD0E0FDD0E062
:10037300FED0E0FF222518C582C0E0E51934FFC591
:1003830083C0E0E518C3958224F810AF088583196C
:100393008582188008858319858218D2AFCEF0A391
:1003A300E520F0A37808E608F0A3DEFAEFF0A3E572
:1003B3008124FAF8E608F0A3E608F0A3E608F0A320
:1003C3000808E608F0A3E608F0A315811581D0E03C
:1003D300FED0E0F8158115811581E8C0E0EEC0E09C
:1003E30022C0D02518C582C0E0E51934FFC583C0FB
:1003F300E0E518C3958224F310AF0885831985823D
:10040300188008858319858218D2AFC8F0A3E9F054
:10041300A3EAF0A3EBF0A37908E709F0A3D8FAEC79
:10042300F0A3EDF0A3EEF0A3EFF0A3D0E0F0A3D0A0
:10043300E0F0A3D0E0F0A3E520F0A3E5F0F0A322E1
:10044300851983851882E0C0E0A3E0F9A3E0FAA34D
:10045300E0FBA37808E0F608A3DFFAE0FCA3E0FDE5
:10046300A3E0FEA3E0FFA3E0C0E0A3E0C0E0A3E0BD
:10047300F5D0A3E0F520A3E0A3F5F010AF08858342
:10048300198582188008858319858218D2AFD08296
:10049300D083D0E0F8D0E032120B3DB90003020460
:1004A300DAE4900301783F791C8002F0A3D8FCD9E9
:1004B300FA7A3F7B1E900086787D79018015E4935C
:1004C300A3AD82AE838A828B83F0A3AA82AB838D92
:1004D300828E83D8E9D9E775827A7583AA74041268
:1004E30008467582EB758320740012084675F01078
:1004F3008E1A8F1B85821F85831E8518828519831B
:10050300E0CEA3E0CF851F82851E83EBC9EAC8ED49
:10051300CBECCAC3E833C8E933C9EA33CAEB33CBFC
:10052300C3EA9EF51DEB9FF51CB35004AB1CAA1D3B
:10053300EC33CCED33CDD5F0DAAE1AAF1B22C0E0ED
:1005430074EF1203E4A2AFE433FED2AF90052CE0C4
:10055300F8A3E0F9E849602990052EE0F508A3E047
:10056300F509E4F50AF50B780812086490052CE008
:10057300FAA3E0FB90052BE0F9121B457404120863
:100583007F758900C2C5EEA2E092AF7F04020443E7
:10059300D083D082ECC0E0EDC0E0E493A3FCE4930D
:1005A300A3FDED4C600D12066BEC24FFFCED34FF54
:1005B300FD80EFE493A3FCE493A3FDED4C600D12E7
:1005C3000708EC24FFFCED34FFFD80EFD0E0FDD005
:1005D300E0FCE493A3C0E0E493C0E02285198385A3
:1005E3001882E0A3FEE0A3F5207808E0A3F608DF75
:1005F300FAE0A3FFE0A3C0E0E0A3C0E0E0A3C0E013
:10060300E0A3C0E0E0A3C0E010AF088582188583B3
:10061300198008858218858319D2AFD083D08202CE
:10062300084CD083D082E9C0E0E493A3C386F0C52D
:10063300F095F0F908E493A386F0C5F095F0700BFC
:10064300E493A3C3994005E9048002A3E475F0028F
:10065300A42582F582E5F03583F583D0E0F9E493B0
:10066300A3C0E0E493C0E022C0E0C3E4939608741F
:1006730001939618400FE49366700808740193661B
:100683001870007019A3A3C3E4939608740193969A
:1006930018A3A3400DD0E0D0E0D0E00205CFA3A380
:1006A300A3A3A3A3D0E0227404800474028000CC2B
:1006B300C0E0EDC0E0E518C39CCCAD1950011D109E
:1006C300AF068C188D1980068C188D19D2AF1207BE
:1006D300C8D0E0FDD0E0FC2274028000CCC0E0ED85
:1006E300C0E0E518C39CCCAD1950011D10AF068CBA
:1006F300188D1980068C188D19D2AF1207A6D0E079
:10070300FDD0E0FC22C0E0C0F088F0E493667008FE
:100713000874019366187000A8F0A3A3700BD0F0BF
:10072300D0E0D0E0D0E00205CFA3A3D0F0D0E02208
:10073300D083D082CCC0E0E493A3600612082714D0
:1007430070FAE493A3600612092E1470FAD0E0FC49
:10075300E493A3C0E0E493C0E022C0E0C0D0E8C0CB
:10076300E0E9C0E0A9A8D2AFC2C7E9A2E7E433F841
:10077300E9A2E792AFD0E0F9D0E0F8D0D0D0E032F0
:10078300C0E074F21203E4A2AFE433FED2AFC2C0FE
:10079300E5D1A2E450031216CBEEA2E092AF7F01A3
:1007A300020443CAC0E0E493A3C582CCC582C583D7
:1007B300CDC583F0A3C582CCC582C583CDC583DAFD
:1007C300E5D0E0CA22CAC0E0E0A3C582CCC582C599
:1007D30083CDC583F0A3C582CCC582C583CDC58334
:1007E300DAE6D0E0CA22C008C3E096F50808A3E021
:1007F30096420808A3E096420808A3E096450870CD
:1008030001D3D008227009080808226016181818A6
:10081300C6C333C608C633C608C633C608C633C6FE
:10082300D5E0EA22C0E0E493A3D39C5010E493A361
:10083300C39C400AD0E0D0E0D0E0020750A3A3A3BA
:10084300D0E022C09FF59FE473D09F22D083D08253
:10085300C09FE493C0E0740193C0E0740293F59FDA
:10086300227404800A74038006740280027401C037
:10087300E0F40412089AD0E0120AE82200C0D0255E
:100883001810AF08F518500C05198008F518500218
:100893000519D2AFD0D0222518F58210AF08F5186C
:1008A300400C15198008F51840021519D2AF8519A7
:1008B3008322BB0102E722C082C08389828A83BB71
:1008C3000003E08002E493D083D0822260160808FC
:1008D30008C6C313C618C613C618C613C618C6134C
:1008E300C6D5E0EA222518F8E43519F9222518FAC5
:1008F300E43519FB222518FCE43519FD22C3E0C6B3
:1009030096F608A3E0C696F608A3E0C696F608A3F3
:10091300E0C696F622251810AF08F518400C1519F5
:100923008008F51840021519D2AF22C0E0E493A362
:100933006C7009D0E0D0E0D0E0020750A3A3D0E070
:1009430022C3E09608A3E09608A3E09608A3E096E6
:10095300A2D265D03322E066701008A3E066700A65
:1009630008A3E066700408A3E06622E76670100837
:1009730009E766700A0809E76670040809E7662252
:10098300C3E096F008A3E096F008A3E096F008A36E
:10099300E096F022C3E697F60809E697F60809E61B
:1009A30097F60809E697F622C3E493960874019331
:1009B300960874029396087403939622E627F60822
:1009C30009E637F60809E637F60809E637F622702E
:1009D3000422600D18C6C333C608C633C6D5E0F477
:1009E3001822E493F608740193F608740293F60848
:1009F300740393F622E657F60809E657F60809E664
:100A030057F60809E657F622E056F608A3E056F62D
:100A130008A3E056F608A3E056F622E056F008A332
:100A2300E056F008A3E056F008A3E056F022E026D3
:100A3300F608A3E036F608A3E036F608A3E036F698
:100A430022E647F60809E647F60809E647F60809E5
:100A5300E647F622E026F008A3E036F008A3E036E6
:100A6300F008A3E036F022E4C396F608E496F6080D
:100A7300E496F608E496F622C6F4C608C6F4C60859
:100A8300C6F4C608C6F4C622C3E7960809E7960863
:100A930009E7960809E79622C3E09608A3E09608BB
:100AA300A3E09608A3E0962275D00075813F7518E0
:100AB300017519030002049BE6F008A3E6F008A3FE
:100AC300E6F008A3E6F022600C08C6C313C618C6F6
:100AD30013C6D5E0F422E0F608A3E0F608A3E0F697
:100AE30008A3E0F622CAC0E0E6F0A308DAFAD0E0F1
:100AF300FA22E8F0A3E9F0A3EAF0A3EBF022E0F88E
:100B0300A3E0F9A3E0FAA3E0FB22ECF0A3EDF0A34A
:100B1300EEF0A3EFF022E0FCA3E0FDA3E0FEA3E0F0
:100B2300FF22EAF0A3EBF0A3ECF0A3EDF022E0FA4E
:100B3300A3E0FBA3E0FCA3E0FD22E5C754F84401D6
:100B4300F5C77901222518F582E43519F58322C208
:100B5300AF75D69F0200002212084FB1430012085E
:100B63004FBB430012084FC6430012084FEA43002D
:100B730012084F0E440012084F80440012084FC958
:100B8300440012084FE5440012084F56450012086E
:100B93004FA2450012084FEB450012084F294600AB
:100BA30012084FAA460012084F51470012084F205F
:100BB300490012084F85490012084FB34A00120832
:100BC3004FD94A0012084F214C0012084F5B4F00C7
:100BD30012084F59510012084F24530012084FBDF9
:100BE300530012084FBE550012084F7356001208E7
:100BF3004FAC560012084F12570012084F1C5700F3
:100C030012084F45590012084F845A0012084FDB4F
:100C13005A0012084F865B0012084F365D00120817
:100C23004F835E0012084FA35E0012084FF85E0068
:100C330012084FF95F0012084F21600012084F801D
:100C4300600012084F78610012084FEF610012082C
:100C53004F02630012084F70630012084F6F640065
:100C630012084FC9660012084FF2660012084F5867
:100C7300680012084FDA690012084F316A0012083F
:100C83004FDF6A0012084F846B0012084FDD6B00C0
:100C930012084F9B6C0012084F2D6D0012084F8CE9
:100CA3006D0012084FCE6D0012084FFF6D00120841
:100CB3004F566F0012084F00800212084F32800215
:100CC30012084F6B800212084F29820212084F6DDF
:100CD300820212084F41830212084FA083021208B6
:100CE3004FB6840212084F02850212084F90870202
:100CF30012084F6A8A0212084FB18B0212084F4939
:100D03008C0212084F558C0212084F9E8C02120857
:100D13004FE08D0212084FD68E0212084F008F0249
:100D230012084F568F0212084FAF8F0212084F223C
:100D3300900212084F58920212084FDA93021208D7
:100D43004FBF940212084F09960212084F419802AE
:100D530012084F3E9B0212084F4D9B0212084FE1AF
:100D63009B0212084F249C0212084FA39C021208F4
:100D73004F209F0212084F52A00212084F2AA102CD
:100D830012084FACA10212084FE1A50212084F103E
:100D9300A60212084F6BA60212084F9EA602120863
:100DA3004F22A70212084F72A70212084FDFA802B0
:100DB30012084F03A90212084F3AA90212084F471B
:100DC300A90212084F4AA90212084F79A902120870
:100DD3004F71AB0212084F30AC0212084F5FAC02E6
:100DE30012084FE8AD0212084F7CAE0212084F8B77
:100DF300AE0212084FFEAE0212084F22B1021208D1
:100E03004F81B10212084FD5B10212084F04B40248
:100E130012084FE7B40212084FA3B50212084FB7E6
:100E2300B50212084FE4B50212084F14B6021208B5
:100E33004F1BB80212084FC6B80212084F4AB90234
:100E430012084F91B90212084F03BA0212084F5801
:100E5300BB0212084F01BC0212084F19BC02120850
:100E63004FBCBC0212084F38BF0212084FE0C00249
:100E730012084FFEC00212084F5C820112084F9401
:100E8300820112084F94870112084FDA8701120872
:100E93004F10890112084F75890112084FEA8A0120
:100EA30012084FF48D0112084F1F8F0112084F32A1
:100EB300990112084FC2990112084FAC9C01120804
:100EC3004FB99D0112084F2C9E0112084F909F01AC
:100ED30012084F6FA00112084FDDA20112084F6FD5
:100EE300A40112084FFCA40112084F23A601120803
:100EF3004F4BA60112084FEBA60112084FD6A701CC
:100F030012084FA3A80112084FC0A80112084FE905
:100F1300A80112084F16A90112084F5DAB01120870
:100F23004F2CAC0112084F6BAC0112084FEDAC0112
:100F330012084F8EAD0112084FC0AD0112084F07C2
:100F4300AE0112084F3AAE0112084F7EAE011208ED
:100F53004FCDAE0112084FD2AE0112084F2EAF0192
:100F630012084F72AF0112084F4CB00112084FB173
:100F7300B00112084F17B10112084F92B1011208C4
:100F83004FFAB40112084FFDB50112084F7BB701A8
:100F930012084F91BA0112084F33BB0112084F7C5C
:100FA300BD0112084F37BE0112084F76BE01120869
:100FB3004F4EC00112084F6BC00112084F74C0019D
:100FC30012084F7DC00112084F88C00112084FA7B5
:100FD300C00112084F4BC20112084FA8C2011208E8
:100FE3004FB2C20112084FCCC20112084FDDC30138
:100FF30012084F26C40112084FE0C40112084FF72C
:10100300C50112084FCCC60112084F13C8011208BC
:101013004F17C90112084F10CA0112084F28CA01FD
:1010230012084F5FCA0112084F69CA0112084F74B0
:10103300CA0112084F92CA0112084FDACA011208F4
:101043004F38CB0112084F5FCB0112084F71CB0110
:1010530012084F26CC0112084F5FCC0112084F81B2
:10106300CD0112084FD4CD0112084FBACE01120898
:101073004FE1CE0112084F51CF0112084FCDCF01DE
:1010830012084F29D10112084F50D20112084F12F2
:10109300D30112084FE0D30112084F9ED401120866
:1010A3004F86D50112084F30D60112084F98D6014A
:1010B30012084F4DD70112084FA9D70112084F014B
:1010C300D80112084FC7D80112084FEAD8011208F5
:1010D3004FA5D90112084FC7D90112084F28DA01C9
:1010E30012084F58DC0112084F51DD0112084FFD61
:1010F300DD0112084F1EE00112084F67E0011208DC
:101103004FB2E00112084F0EE10112084F6CE101EA
:1011130012084F90E10112084FB4E10112084FE9A0
:10112300E10112084F11E20112084F56E2011208C1
:101133004FAAE20112084F03E30112084FFDE30136
:1011430012084F9BE50112084FE0E50112084F0911
:10115300E60112084F92E60112084F05E701120853
:101163004F13E70112084F37E70112084F8DE701CC
:1011730012084FA8E70112084F63E80112084F8FC6
:10118300E80112084FD2E80112084F35E9011208AD
:101193004F43EB0112084F6FEB0112084F2AEC018A
:1011A30012084F0EED0112084FA2ED0112084F0A6B
:1011B300DE0312084F42DE0312084F63DE031208F8
:1011C3004FA5DE0312084F09DF0312084F13DF0395
:1011D30012084F23DF0312084F5ADF0312084F038D
:1011E300E30312084FCBE40312084FAFE6031208E0
:1011F3004F51E70312084FDBE70312084F8EC1027A
:1012030012084F37C20212084F16C30212084F22A8
:10121300C40212084F42C40212084F64C5021208E6
:101223004F14C70212084F81C70212084F52C80257
:1012330012084F58C90212084FD0C90212084F0BA7
:10124300CA0212084F64CA0212084F9FCA02120848
:101253004FE8CA0212084F7CCB0212084F12CC028D
:1012630012084FE7CC0212084FBACD0212084F48BA
:10127300CE0212084F6ECE0212084F9BCE02120806
:101283004FCCCE0212084F99CF0212084FA9CF02BA
:1012930012084FFCCF0212084F09D00212084F1652
:1012A300D00212084F1FD00212084F83D002120837
:1012B3004FE1D00212084F2CD10212084F47D1023E
:1012C30012084F6ED10212084F8BD10212084F97AA
:1012D300D10212084F28D30212084F41D302120839
:1012E3004FBDD30212084FD0D30212084FE0D302EE
:1012F30012084F84D40212084FF0D50212084F038C
:10130300D70212084FA3D70212084FADD702120813
:101313004F2CD80212084F3DD80212084F7CD80236
:1013230012084FAAD80212084F77D90212084FCEDB
:10133300D90212084F07DA0212084F5DDA021208C7
:101343004F7BDA0212084FC9DA0212084F94DB020C
:1013530012084FE2DB0212084F2FDC0212084FB2D1
:10136300DC0212084FDCDC0212084F12DD02120805
:101373004F21DD0212084F80DD0212084FF8DD0213
:1013830012084F39DE0212084F89DE0212084FB4E9
:10139300DE0212084FCEDE0212084FE8DE02120808
:1013A3004FBDDF0212084FC7DF0212084F08E002E9
:1013B30012084F59E00212084F6DE00212084F8FD6
:1013C300E10212084FA4E10212084F37E2021208A9
:1013D3004FABE20212084F50E30212084F5BE302E5
:1013E30012084FBEE40212084FDAE40212084F2635
:1013F300E50212084F94E50212084FC6E5021208EF
:101403004FE0E50212084F40E60212084FDFE60202
:1014130012084F2AE70212084F7DE90212084F15FE
:10142300EA0212084F8CEA0212084FE9EC02120892
:101433004F01ED0212084F04ED0212084F10ED02A6
:1014430012084F24ED0212084F2CED0212084F63CD
:10145300ED0212084F57EE0212084FE1EE02120896
:101463004F63EF0212084FE3EF0212084FBAF00284
:1014730012084FDCF00212084F75F10212084FD226
:10148300F10212084FD5F10212084F44F20212087A
:101493004F90F30212084FA3F40212084F2EF502E5
:1014A30012084F41F60212084F08F70212084F398B
:1014B300F70212084F5FF70212084F68F70212088B
:1014C3004F97F70212084F47F80212084FF7F80236
:1014D30012084F6AF90212084F0DFA0212084F80E0
:1014E300FA0212084FBFFA0212084F08FB02120851
:1014F3004F42D30312084FAFD30312084FFBD3035A
:1015030012084F4DD40312084FCDD40312084FCA0B
:10151300D60312084FDDD80312084F16DC03120856
:101523004F45DC0312084F63DC0312084FCDDC0385
:1015330012084FF5DC0312084F28DD0312084F5D34
:10154300DD0312084FBFDD0312084F5DB604120816
:101553004FA2B60412084FB2B60412084FAB3C00B8
:1015630012084F3AB70412084F0BA20412084F7D1A
:10157300A20412084F8BA30412084FB7A304120846
:101583004F2DA40412084FB1A40412084F63EE01B7
:1015930012084FDFEE0112084F0DEF0112084F52F0
:1015A300EF0112084FB3F00112084FCFF0011208F8
:1015B3004F05F10112084F7EF10112084FCCF101E2
:1015C30012084F4C430012084F34F30112084F85A1
:1015D300F30112084FEAF30112084F5DF4011208F8
:1015E3004FA1F40112084FF9F40112084F1BF50142
:1015F30012084FABF50112084F3CF60112084F7465
:10160300F60112084F9DF60112084FDEF60112088B
:101613004F7FF80112084F61F90112084F3DFA019B
:1016230012084F93BE0412084FA4BE0412084FFCC5
:10163300FF0112084FE8FF0312084F857F001208CD
:101643004F957F0012084FAA7F0012084FF37F00C7
:1016530012084FA6B80412084F2AB90412084F9073
:10166300B90412084FFC7F0012084FDCBE041208B5
:101673004FDFBE0412084FE2BE0412084FE5BE045A
:1016830012084FE8BE0412084F1A9B0412084F2891
:101693009B0412084FA19B0412084F769C04120866
:1016A3004F489E0412084F2FBE0412084F17FB0128
:1016B30012084F84FB0112084F3CFC0112084F2F04
:1016C300FD0112084F8CFE0112084FE2FE011208C1
:1016D3004F3DFF0112084F46FF0112084F58FF010B
:1016E30012084FBFFF0112084FD2FF0112084F67C4
:1016F300F90312084F93F90312084F29FC03120848
:101703004F69FC0312084FA5FC0312084FB9FC03F1
:1017130012084FD2FC0312084FC3FD0312084F7582
:10172300FE0312084F89FE0312084FA3B3041208E5
:101733004FC7B30412084FE0B30412084F1EB4049A
:1017430012084F54B40412084F87B40412084FF31D
:10175300B40412084FF6B40412084F00B50412087B
:101763004F0DB50412084FCEA70412084FF1A7047A
:1017730012084F3CA80412084F5AA80412084F75C8
:10178300A80412084FDBA80412084FE7A8041208A4
:101793004F44A90412084F68A90412084F2EAA0443
:1017A30012084F3BAA0412084F4CAA0412084F7B9D
:1017B300BC0412084F93BC0412084FBFBC041208A8
:1017C3004F85FB0212084FE9FC0212084FF7FC0297
:1017D30012084F0BFD0212084F28FD0212084F3D5D
:1017E300FD0212084F50FD0212084FD2FD021208EB
:1017F3004F37FE0212084FCDFE0212084FA6FF021A
:1018030012084FB6FF0212084FC5FF0212084FB06D
:10181300BA0412084FD4BA0412084FFCBA041208CF
:101823004F24BB0412084F54AF0412084F7BAF047C
:1018330012084F99AF0412084F0EB00412084F025A
:10184300A50412084F1BA50412084F32A504120861
:101853004F3BA50412084F53A50412084F5DA5047E
:1018630012084F67A50412084F7AA50412084F0007
:10187300A60412084F75A60412084FA3A604120863
:101883004FF4A60412084F40A70412084F5BA704A5
:1018930012084F65A70412084F76A70412084FB920
:1018A300A70412084F08BD0412084F8AE803120860
:1018B3004FB6E80312084FD9E80312084FECE803C8
:1018C30012084F07E90312084F6BE90312084F99F7
:1018D300E90312084FA2ED0312084FF7EE031208B3
:1018E3004F29EF0312084F94EF0312084FFBF00345
:1018F30012084F23F10312084F38F10312084F481F
:10190300F10312084F88F10312084FCAF1031208BA
:101913004FDAF10312084F9DFE0312084FADFE0389
:1019230012084FD1FE0312084FFAFE0312084F2488
:10193300FF0312084F48FF0312084F5FFF0312080B
:101943004F8DFF0312084FB0FF0312084FEBBD0486
:1019530012084F74970412084F84970412084FA279
:10196300980412084FD6980412084FF898041208E6
:101973004F20990412084F39990412084F7599049E
:1019830012084FD7990412084F1C9A0412084F618A
:101993009A0412084F8E9A0412084FC69A0412082A
:1019A3004F85B10412084FA5B10412084F8AB2043F
:1019B30012084F73B30412084F49BB0412084F8631
:1019C300BB0412084FC8BB0412084FD8BB0412084B
:1019D3004FE2BB0412084F00800412084F0A800430
:1019E30012084F44800412084FAD800412084FCCF4
:1019F300800412084F6E810412084F778104120885
:101A03004FC8810412084FF1810412084FFE81046C
:101A130012084F6F820412084FFD820412084F4BC5
:101A2300830412084F81830412084FE283041208CF
:101A33004F0A840412084F81840412084FDD840482
:101A430012084F20850412084F5D850412084F6F5A
:101A5300850412084F81850412084FA085041208DB
:101A63004FA9850412084F77860412084FC38604D2
:101A730012084F17B50412084F0FAD0412084F4553
:101A8300AD0412084F94AD0412084FEDAE041208D2
:101A93004F7BB30312084FACB40312084FE8B403EF
:101AA30012084FA2B60312084FCCB60312084F45D3
:101AB300B90312084F85B90312084F1ABB03120862
:101AC3004FB9BB0312084F11BC0312084F97BC0355
:101AD30012084FCFBC0312084F11BD0312084F82E7
:101AE300BE0312084F02C00312084F43C203120879
:101AF3004F71C20312084F9DC20312084FA6C203BF
:101B030012084FFCC20312084F8CC30312084FCABA
:101B1300C60312084F4CC70312084FDCFF0112081B
:101B23004FF2FF0112084FA0BD0412084F988F0413
:101B330012084FAD8F0412084F60900412084FA093
:101B4300900412084FB9900412084FEC9004120845
:101B53004F39910412084F6D910412084FAF91044D
:101B630012084FA5930412084FA9B90412084F088D
:101B7300BA0412084F46BA0412084F87BA0412086F
:101B83004F409E0312084F859E0312084F109F0378
:101B930012084F75A00312084F52A10312084FCD2C
:101BA300A10312084F1EA20312084F8FA2031208AB
:101BB3004FD3A20312084F13A30312084F1FA4030A
:101BC30012084F7AA40312084F9DA40312084FED85
:101BD300A40312084F26A50312084F45A5031208B4
:101BE3004F90A50312084FB0A50312084F6BA6032D
:101BF30012084F50A70312084FABA70312084FEB6D
:101C0300A70312084F07A80312084F83AA03120859
:101C13004F9FAA0312084F1BAB0312084F40AB039D
:101C230012084FC1AB0312084F9DAC0312084FEAD1
:101C3300AC0312084F4EAD0312084F04AE03120853
:101C43004F07AE0312084F11AE0312084F1BAE032A
:101C530012084F1EAE0312084F9EAE0312084FD751
:101C6300AE0312084FEAAE0312084F11AF03120876
:101C73004F35AF0312084F70AF0312084FE3AF03A2
:101C830012084FE6AF0312084FF0AF0312084F31AB
:101C9300B00312084F5AB00312084F7AB003120868
:101CA3004FC3B00312084FFAB00312084FFAB1033F
:101CB30012084F29B30312084F48B30312084F53B6
:101CC300BD0412084F6BBD0412084F9DB7041208E0
:101CD3004F0AF20312084F59F20312084F17F40385
:101CE30012084FD2F50312084F10F60312084F3FA4
:101CF300F70312084F4AF80312084F6CF80312084F
:101D03004FB6F80312084F37F90312084F00800348
:101D130012084F1F800312084FB1800312084FFAB5
:101D2300800312084F54810312084FC6810312081F
:101D33004F33820312084F84820312084FF8820341
:101D430012084F7F830312084FF7830312084F349F
:101D5300840312084F6D880312084FC08A031208C8
:101D63004F448B0312084FBB8B0312084FFC8B03AA
:101D730012084FDE8D0312084FE38F0312084FAD95
:101D8300900312084F48930312084FB493031208A9
:101D93004FC1940312084FDE970312084FEE9703C7
:101DA30012084F86990312084F0A9A0312084F34F8
:101DB3009B0312084FA49C0312084FE29C031208D2
:101DC3004F929D0312084FB26F0012084F527000DA
:101DD30012084FBF700012084F7E710012084FDDCA
:101DE300710012084F8B720012084F4D75001208D4
:101DF3004F65760012084FDB760012084FBD78005E
:101E030012084F5F790012084F047A0012084F8CB2
:101E13007B0012084F9A7C0012084F277D0012089E
:101E23004F477E0012084FA9C70312084F0EC8037D
:101E330012084F56C80312084FA9C80312084F06C9
:101E4300C90312084F5CC90312084FD7C90312080C
:101E53004FE8CA0312084F10CB0312084FF6CB0307
:101E630012084F07CC0312084F1FCC0312084F244C
:101E7300CD0312084F6ECD0312084F77CD0312081E
:101E83004F8ECD0312084F9FCD0312084FD2CD03BF
:101E930012084FE9CD0312084FD1CE0312084F8623
:101EA300CF0312084F98CF0312084F9AD00312089A
:101EB3004F85D10312084F27D20312084F97D2033D
:101EC30012084FACD20312084FAD9E0412084F689C
:101ED300A00412084F30A10412084F85A104120870
:101EE3004FB2930412084FD0930412084F14940472
:101EF30012084F3A940412084F61940412084F7960
:101F0300940412084F91940412084F349504120854
:101F13004F76950412084F98960412084FA1960421
:101F230012084FAA960412084FB3960412084FBD25
:101F3300960412084F01870412084FF58A04120809
:101F43004F038B0412084F088B0412084F9CAB04F9
:101F530012084F67BE0412084F6F8B0412084FE537
:101F6300BB0412084F0FBC0412084FBEBE04120874
:101F73004F6F3C0012084FEB3B0012084FBD3A0075
:101F830012084FAD3A0012084F1B3A0012084FFFD8
:101F9300390012084FE1390012084FC938001208FE
:101FA3004FA4380012084FB4370012084F193700F6
:101FB30012084FA7360012084F82360012084F9EB0
:101FC300350012084F7C340012084F2734001208E2
:101FD3004F54330012084F8E320012084F52320012
:101FE30012084FE5310012084FDD310012084F523D
:101FF300310012084FE2300012084F33300012084C
:102003004F41430012084F28300012084F19430074
:1020130012084F0E430012084FA1420012084F97B7
:10202300420012084F7E420012084F744200120809
:102033004F6A420012084F60420012084F193000E5
:1020430012084FF82F0012084FC42F0012084F56E2
:10205300420012084F982F0012084F6A2E001208F0
:102063004F5E2C0012084F2F2C0012084F424200E3
:1020730012084F132C0012084F5CF20112084FA3F1
:102083002B0012084FD62A0012084F5A2A001208B2
:102093004FB2290012084F0B290012084FAD280038
:1020A30012084F82280012084F33280012084FF5F8
:1020B300270012084FD2270012084FB92700120831
:1020C3004F71270012084FBB260012084F2F26001E
:1020D30012084F853E0012084FC3250012084F6CAB
:1020E300250012084F1CB70400000080FBE47300B6
:1020F3000136360101000102010001030100010460
:1021030001060605020000070100340801000F095B
:102113000401010D0100FF0E080000170200001961
:102123000100FF1A0100011B0100FE1C0100081D34
:102133000200001F01000120010001210200002311
:1021430001000F24020000260100012701000828D6
:102153000200FF2A0100072B0102402C0100002D81
:102163000100012E0100012F0100FF30010B1D3181
:102173000800003A0100083B01000F3C0100013D4B
:102183000100FF3E04000042040000460400004A30
:102193000400004E04000052040000560400005ADC
:1021A300040000010371030103010301030103019F
:1021B30003220302030103100300030003000300CF
:1021C3000300030003000342030003240306030088
:1021D300030003040312032503230325032303043A
:1021E3000304030003000300034403000300032369
:1021F3000300036503210035038103000305030086
:1022030003000300030003250323030304710402F3
:1022130004600411047004020402040104020410A3
:102223000461040004140463047304720462044329
:10223300040004130406040004000404041204004C
:1022430004000400040004510464000004000400BA
:10225300044404000400040004000465040004357D
:102263000481046400050400048304000403027170
:1022730002300160021102700201020202020280B6
:1022830002100261023A00410063027302720262A9
:102293000243020002130238000002000204021289
:1022A30002000200020002000204020402370037A7
:1022B300003C0244020002390000020002650200F1
:1022C3000235028102000205028202830200020338
:1022D30000710030016000110070003102200350D2
:1022E300048000100061000000140063007300729A
:1022F3000062004300000013000600000000000419
:102303000012000000000000000000040004003779
:102313000037003C0244000000000000000000659C
:10232300000000350081000000050000008300006C
:1023330000010171010101010111010101310101DB
:102343000101018001100161013B0014006301736D
:10235300017201620143010001130106013D0135D0
:102363000004011201000100010001000104010445
:1023730001330133013C0144013201360000010005
:10238300016501000135008101000105018201831E
:1023930001000136000100060000000F00000000EC
:1023A30000000000000000000003FFFF0000040322
:1023B300FFFF0000FFFF0FF4010005C4040320002A
:1023C3000100000B000000000000000003010F00EB
:1023D30000000000000000000000000000000000FA
:1023E30000000000000000000000000000000000EA
:1023F300000A0000000200000004000000080000C2
:1024030000100000002000000040000000800000D9
:1024130000000100000002000000040000000800AA
:10242300000010000000200000004000000000E554
:102433001D13006D1D1F00731D1F80791D0100E515
:102443001D0200311D0300371D04003D1D0500431F
:102453001D06004F1D3600611DFFFF000001B50E74
:1024630006E50E08DF0E0BF10E10690C02BB0E051C
:10247300D30E07C10E0C9D0E0DA90E64C51FFF00E0
:102483000007ECFDFDFDECDCDCCCBCACAC9C9C8C17
:102493007C7C6C6C5C5C5C4C4C3C3C2C2C1C1C03B2
:1024A300EAF5E5D5D5C5B5A59595858575756565B4
:1024B300555545453535252515150500160F0000DD
:1024C3000B150B020002220F3300000E0103050758
:1024D300090B0D0F00020406080A0C0D5A69674226
:1024E3006565416C6C69616E63653039303017180E
:1024F3001921301B1D1F3000393D3F373C3C362C22
:10250300442D0C0E020B040B0A0708000F00034AAC
:1025130049434E181A2505020001191618161618F4
:10252300230300303016181920231A1C1E3002040E
:1025330002010101010902000000000000E803009C
:102543000000BE040A000000007F00E8030E001034
:102553000C0A030C080908040001FF1E1E280505C8
:1025630009040400081503030CC082C08379001218
:10257300645FC082C083900301125D13D083D08255
:10258300C3E09CA3E09D500DEA240B1225BB12254A
:102593009B60027901023A14EA75F00BA4FAA8F0E1
:1025A30075F00BEBA428FB900303E02AF8A3E03BB0
:1025B3008882F583E0540F22F582E43B124F5322C5
:1025C30074F71203788908124662122901ACF07578
:1025D300F00BE9A42CF9900303E028F8A3E039F900
:1025E300E8FEE9FF7401650860067402650870225D
:1025F3008A828B83122AB7740265087021EA240346
:10260300FA50010B1220B5E970148E828F83E4F027
:10261300800CEA2403FCE43B122AAE1220BB8E8218
:102623008F83E0D2E7F0121C4D02425174F412037F
:1026330078122B8879008E828F83E06078890A89EB
:102643000B8063E50A75F00BA4FAA8F075F00BE5AF
:102653000B1225A77048E50A75F00BA4F8AAF075CC
:10266300F00BE50B122ACB8E828F83E085088285DF
:102673000983123C55122A2CEE2403FCE43F122753
:10268300661220BB124466E50AF0A3E50B1237A1DC
:10269300D2E7F0121C4D7901900301123520050A8F
:1026A300E50A7002050B900301125656C3E50A9A18
:1026B300E50B9B408E0237AB74F5120378EAFEEB11
:1026C300FF750A01740B120B48126170EC4D601513
:1026D300EC1253203D122B9679011220D9E50845BF
:1026E3000960758023E5084509604412531E3509C6
:1026F300122B961227671220B5E96401701BEEFABC
:10270300EFFB1220CDE9F50A850882850983122A99
:10271300247902AA08AB098011122AAF1220B5E965
:10272300640170347903EEFAEFFB1220D980298E0D
:10273300828F83A3E064FE7003A3E0F4700B122A7C
:10274300AF1220B5E96401700CEEFAEFFB1220CD55
:10275300E9F50A8003750A000230DBE50A2403FC6D
:10276300E4350BFDE5082403FAE43509FB2274F78D
:10277300120378900301124596EA4B602FEA75F035
:102783000BA4FAA8F075F00BEBA428FBEAFEEBFF11
:10279300121A859003031245969003031243AB600C
:1027A30012EEFCEFFD79001219E98007900303E4B0
:1027B300F0A3F0024251C082C083EC4D6005121BAE
:1027C3007B80097C087D0079001219E9023A14C064
:1027D30082C0837900EA4B60167800E8FCEA2C1289
:1027E300466E60047901780808E8C3940840EC0257
:1027F3003A1474F712037874F3120918ECFEEDFF20
:10280300851882851983E4F004120B48EAF0A3EBE0
:102813001249061220977403120B48AC82AD83EE63
:10282300FAEFFB1220BBEEFAEFFB1220B502424C8B
:1028330074F712037874F3120918ECFEEDFF851890
:1028430082851983E4F0EAFCEBFD7403120B48AABA
:1028530082AB831220BBAA18AB1912209174011208
:102863000B48123C668E828F8312455274FE687049
:102873000374FF69600479018002790002424C7499
:10288300F7120378EAFEEBFF1220DFE9F508740183
:10289300650870111228ECF4FA88828983E05A449F
:1028A30080F0121C4DA90802425174F7120378EA12
:1028B300FEEBFF7508008E828F83E0602A1220DF13
:1028C300E9F50874016508701E1228ECFA888289FC
:1028D30083E05A70128E828F83E04480FA88828963
:1028E30083E04AF0121C4D80BC124309F8122901FF
:1028F300122BF8F8A3E039F98E828F83E022A3E04C
:10290300F9E875F00BA4F82274F41203788A088BA3
:10291300097C007D00EA1227691220BBE508122A10
:10292300467900850882850983A3E064FE7003A3CA
:10293300E0F460787E007F008065EEFAEFFB1225FD
:102943009B6057EEFAEFFBEA75F00BA4FAA8F0755B
:10295300F00BEBA428FB900303E02AF50AA3E03B6A
:10296300F50B850882850983125655850A82850BE6
:1029730083A3E06A7003A3E06B701FE50A2403FAE4
:10298300E4350BFB1220B5E96401700612275E12D1
:1029930020BB122A3B7901125E7A0EEE70010F9072
:1029A3000301125656C3EE9AEF9B408E0237AB7467
:1029B300F31203788A088B098A828B83122A24EA0A
:1029C300122A46750C00EA1227691220B5E9640140
:1029D30070477E007F00803C122BEAFAA3E0398A1D
:1029E30082F583E0540F6027122BEAF50AA3E0393E
:1029F300F50B12275E121B75E964017012850A82BA
:102A0300850B83122A2C122A3B750C01125E7A0E57
:102A1300EE70010F122C0740BFA90C7F050205DFE2
:102A2300A3A374FEF0A304F022A312423D850882FF
:102A3300850983A3123AA722E508122A50EEF0A3D0
:102A4300EFF022122A5074FEF0A304F022240BF5B7
:102A530082E43509F5832274F5120378EAFEEBFF6D
:102A63008E828F83122A247C007D00122AAF1220CB
:102A7300BBEEFAEFFB1220DFE9F50A7401650A7079
:102A830027124236122ABF850882F583122AB7120B
:102A930027671220B5E96401700EE5082403FCE4FE
:102AA3003509122AAE1220BB0230DBFDEE2403FAF5
:102AB300E43FFB22A3125664123AA722E875F00BF7
:102AC300A4F8AAF075F00BE9122BFEF508A3E03980
:102AD300F5092274F212037874E6120918122B888E
:102AE300750A01750800750900750C00750D0085E0
:102AF3001882851983E4F0EE2403FCE43FFD74039C
:102B0300120B48AA82AB831220BBAA18AB1912205E
:102B130091E96401701F740B120B48122B98740116
:102B2300120B4812565E7003A3E069604AA818A905
:102B33001988088909740D120B48123C54A3123CDE
:102B430066740E120B48124552740D1208F01220CF
:102B530097E964017009740D1208E8880C890D78EF
:102B63000C12086CAC08AD09EEFAEFFB1220C77427
:102B73000212087FE9F50AEEFAEFFB12209DA90A7B
:102B8300741A024478EAFEEBFF12446A74FEF0A35F
:102B930004F022F583125644F912446A123AA7222A
:102BA300C082C08378007900800508E8700109902D
:102BB300030112357EE99B5029E8FAE9FBEA75F037
:102BC3000BA4FAACF075F00BEBA42CFB900303E021
:102BD3002AFCA3E03B8C82F583E0540F70CC790090
:102BE30080027901023A14EEF8EFF9E875F00BA4CC
:102BF300F8122BF822AAF075F00BE9A42AF9900336
:102C030003E0282290030112423DC3EE98EF99227C
:102C1300C082C083902568E49375F01CA4FCADF0DA
:102C230079FF7A417B0A1219E9023A1474F7120305
:102C330078E9FCEAFD7A007B008010EB1232899C74
:102C43004008E0F8EDC39840010A0B902568E4932F
:102C5300F8EBC39840E57B0002425174EC12037811
:102C630074F31209188A0C8B0D8C088D09890AECF0
:102C730045096016AA08AB091220078A0E8B0FAE0E
:102C83000EAF0FEE4F6003022D5C7A0080010A90B5
:102C9300256812559B500F122E5170F2744128FE75
:102CA300740A39FF80047E007F00EE4F7003022E0A
:102CB3000590254A122E2260257403650A60067466
:102CC30004650A70197A0479031220678A0E8B0F40
:102CD300902568E493F890254A122E3B502D9025B9
:102CE30048122E22602C7401650A60067402650A7C
:102CF30070207A0279011220678A0E8B0F90256863
:102D0300E493F8902548122E3B40077A007B00029B
:102D13002E1D8518828519837401F0120B48E50C6A
:102D2300F0A3E50DF0AC08AD097403120B48AA82B9
:102D3300AB831220BBAA18AB19122085740B120B9C
:102D430048123AA08E828F83A3A3A3A3A3A3E41262
:102D53005D0FAA0CAB0D1211137800E50A6007C3CF
:102D63009405500278048E828F83E50CF0A3E50D61
:102D730012314CA3A3E50AF0E88E828F83A3A3A3A9
:102D8300A3A31259215001097A027B0012022812CF
:102D93003559A3123893123585E50A605BC3940352
:102DA3005056901EA9E070189023F4780C1209E590
:102DB300123530120ABB9023F4780C1209E58027F0
:102DC300F508750900740278081209D2122E2C1224
:102DD30009E59082147810120AD9780C791012023E
:102DE30089123530120ABBEE2413123533120ABB93
:102DF300EE241B125918800912353C122A27A3F01E
:102E0300A3F07A04790012206712313D4005901E29
:102E130040E4F0120FE7EEFAEFFB740D023A8EE492
:102E230093F8740193F9E8492274F42508F5827440
:102E3300233509F583780C22E493FA740193FBE8B4
:102E4300C39AF8E49BF9C3E50E98E50F9922EA12B9
:102E53002E57F42275F01CA4F8A9F0744528F582C6
:102E6300740A39F583E02274EE12037874F31209BD
:102E730018EAFEEBFF8C108D11750800AA10AB1138
:102E8300122007EA4B7003022F858A828B83E06E40
:102E93007003A3E06F7003022F858A828B83A3A341
:102EA300A3A3E0C394054003022F858A828B831278
:102EB3005E68E060728A828B83A3A3A3A3E0C394BA
:102EC300035064901EA9E070219023F4780812093E
:102ED300E5122F8C120ABB9023F478081209E5EA55
:102EE3002413122F8F120ABB8030F5087509007462
:102EF3000278081209D2122E2C1209E59082147856
:102F030008120AD9780C7908120289123676120A45
:102F1300BBEA2413123679120ABBEA241BF582E4B6
:102F23003BF583E4F0801B7508FE7509FF750AFF06
:102F3300750BFF122F8C120ABBEA2413122F8F1268
:102F43000ABB750800750900750A00750B00EA24B1
:102F53000C122F8F120ABB8518828519837401F016
:102F6300120B48EEF0A3EFF0AC10AD117403120B8B
:102F730048AA82AB831220BBAA18AB19122085750D
:102F83000801A908740D025E60EA2417F582E43B88
:102F9300F58378082274F612037812203D8A088B91
:102FA30009A808A909E849601488828983A3A3A30F
:102FB300A3E06009C394055004790180027900807D
:102FC3002F74F612037812203D8A088B09A808A9EA
:102FD30009E849601488828983A3A3A3A3E0600955
:102FE300C394035004790180027900800312087F9F
:102FF3007F020205DF74F612037812203D8A828B6A
:1030030083E5824583600BA3A3A3A3E07004790146
:103013008002790080DAC082C083EAFCEBFD7A008B
:103023007B00023A11C082C0837C007D00023A110A
:1030330074F512037874F3120918EAFEEBFF8C0897
:103043008D09C3EC94F8ED94FF4004EE4F60657571
:103053000A00801974FF6508700474FF6509600B2A
:103063001264597004A3E06509603B050A90256862
:10307300E493F8E50AC398503BE50A122E5260EB3D
:10308300EE4F60D01230C2120B4812490212208B4D
:10309300E960D87403120B48AC82AD83EEFAEFFB00
:1030A300121B75E960C5E50A75F01CA4F8A9F012B6
:1030B300328080047A007B00740D12087F801B85A8
:1030C30018828519837401F0744328F582740A39D0
:1030D300F58312423D740B22A90A7F030205DF74B4
:1030E300F412037874F31209187508001220078A82
:1030F3000A8B0BAE0AAF0BEE4F602585188285193C
:103103008312314A1230D5120B481249021220A3FE
:103113007C1C7D0079FFEEFAEFFB1219E9750801BB
:103123007A04790012206712313D5009901E4074D1
:1031330001F0120FE7A9080237A6902568E493F877
:10314300C3EA98EB9400227401123C59A3A322749E
:10315300F7120378E9FE74FE6A700374FF6B7C0058
:10316300700380240C1231B5501EEC122E5260F401
:1031730012334F7003A3E06B70EA800BEC1231CA79
:103183006019E0640360140C1231B5501EEE60EC5C
:10319300EC1231BF60F1C3940550ECEC75F01CA444
:1031A300FCADF01269CF12565680047AFE7BFF0203
:1031B3004251902568E493F8ECC3982275F01CA45F
:1031C300F8A9F0122E5E2275F01CA4F8A9F0122EB5
:1031D3005E640122121FEF023A14C082C083790198
:1031E30080F274F01203788A0A8B0B7A0479011245
:1031F30020678A0C8B0DEA450D6040EA2AFAEB330F
:10320300FB121A858A088B09AE08AF09EE4F6026B8
:103213007AFE7BFF121FE974FE6A700374FF6B6012
:103223001E850882850983124596E5082402F50860
:1032330050E2050980DE750C0080047E007F008566
:103243000A82850B83E50CF0EEFAEFFB023516C01C
:1032530082C0837C008009EA24FF1AEB34FFFB0C55
:103263001231B55011EC123289940550F2EA4B70C9
:10327300E612328080047A007B00023A14744128FB
:10328300FA740A39FB22122E57C32274F7120378F9
:1032930074F31209187E00807DEF75F017A4F8A966
:1032A300F0123340125656EE75F01CA4F8A9F01232
:1032B300334F7003A3E06B603DEF75F017A4F8AADA
:1032C300F0EAF9123340123C667401120B48E068CD
:1032D3007003A3E069601FEF75F017A4F8EAF974AF
:1032E3008F28FC740C39FD7403120B48AA82AB833C
:1032F300121B75E96013EF75F017A4F8A9F0748D2C
:1033030028FA740C39FB12111F0F902552E493F81D
:10331300EFC39840840E1269BC501FEE126F30F455
:103323007003A3E0F460EE1230C2120B481249029C
:1033330012208BE960DF7F0080D002424C123344BD
:1033430022748D28F582740C39F58322126F3B6A3F
:103353002274F412037874F31209187E00803890F3
:1033630082047808120AD9EE75F01CA4F8A9F07447
:103373005428F582740A39F58378081209596016BE
:103383009082487808120AD9EE75F01CA4F812341A
:103393001C7808120A570E1269BC507AEE1231BF1C
:1033A30060F4C3940350EF12341C120B01E8494A32
:1033B3004B70AC901EA8E06401702D900409124379
:1033C300AB6025EE75F01CA4F8A9F0744128F874DD
:1033D3000A39F91234721206AA88828983123507D0
:1033E3001220F0740412087F8518828519837401F2
:1033F300F0EE75F01CA4F8A9F01230CB120B4812B2
:10340300490212208BE9608E7403120B48AA82AB27
:1034130083121FF580800237A6745828F582740A38
:1034230039F5832274F612037812203D8A088B093A
:10343300A808A909E849603288828983A3A3A3A3C2
:10344300E06023C39403501E123472120B19E82454
:1034530017F582E439F583120B0DE8241BF582E49A
:1034630039F5837401F0790180027900022FF3E8C2
:103473002413F582E439F5832274F0120378EAFE0B
:10348300EBFF9004031243AB60729004091243AB49
:10349300606A90040D1243AB60621268481220F018
:1034A300E97059901EA9E0700A9023F47808120974
:1034B300E58028F508750900740278081209D2120C
:1034C3006A2A742312682978081209E5908214780D
:1034D3000C120AD97808790C120289780812086448
:1034E3001235011220F0740412087FE96401700C94
:1034F3008E828F83A3A31268361220F080158E82EA
:103503008F83A3A3124F5590040912684022740DB0
:1035130012087F7F080205DF125D17EC22E0F50A2F
:10352300A3E0F50B22E493F8E508C39822EE2417F1
:10353300F582E43FF583780C2212354F74FEF0A335
:1035430004F0A3F0A3F0123E6374FE22EE2417F5F9
:1035530082E43FF58322E88E828F83A3A3A3A3A3F0
:10356300A3A3A31242117401124211A374AAF0EE91
:103573002410F582E43FF583E4F022124F55C3E8AB
:103583009A22A3F012446AE4F0EE240CF582E43F9D
:10359300F583E4F0A3F0A3F0A3F02274F012037810
:1035A30074F3120918EAFEEBFF7A0279011220671D
:1035B300EA8E828F83F0700302366975F00CA4FAE9
:1035C300ABF0121A858A088B09EA450970030236A3
:1035D3006FAE08AF09750A00801C9082481206AAD4
:1035E300EEFAEFFB121A67740412087F8A0C8B0D34
:1035F300AE0CAF0D050A902568E493F8E50AC3986D
:10360300506AE50A1231CA6005E0640270E61230BE
:10361300C2120B4812490212208BE960187403127C
:103623000B48AC82AD83EEFAEFFB121B7B8A0C8B4B
:103633000DAE0CAF0DE50A75F01CA4F8A9F0745C8F
:1036430028F582740A1266A76401708E123280EA2A
:103653002413123679120AD9123676120900780C1D
:103663001208640235E3750800750900AA08AB095E
:10367300023511EA2417F582E43BF583780C22C066
:1036830082C08390030C74CDF0A3740EF090030EEC
:1036930074C7F0A3740EF0900312744FF0A3742058
:1036A300F0023A1474F7120378EAFEEBFF90037DFD
:1036B300E06408601FE06404601A8E828F83E05424
:1036C3000364017044124305F8A3E0F5838882E0A4
:1036D300640670358E828F83A3A3E064FE7003A318
:1036E300E0F460258E828F83A3A3125D207003A371
:1036F300E0697008EE2415125D076005120F7B80E8
:1037030003120F81E9F50880037508C2EEFAEFFB97
:10371300121A8B0228A874F41203788A088B098A78
:10372300828B83E0FAA3E0F8EA28FAE43400FB1280
:103733001A858A0A8B0BAE0AAF0BEE4F605A8508C7
:1037430082850983E0FC7D0079001219E98E828F5E
:1037530083122A23120FB78E828F83A3A3A3A3EA14
:10376300F0A3EB1237A1F8EE28F8E43F122B9B8568
:103773000882850983A3E0C0E012590BD0E0F01260
:103783000FC9EE240EF582E43FF583E9123BE1E035
:10379300C0E0123A96D0E0F0EEFAEFFB800A123B5B
:1037A300D9E022740D12087F7F040205DF741880AC
:1037B300F474F412037874E8120918EAFEEBFF902C
:1037C30003051243AB600302388E7A077B00121A9B
:1037D300859003051245969003051243AB700302CF
:1037E300388A8E828F83120B01900305E0FCA3E0DD
:1037F300F5838C82120AF5EE2404F50AE43FF50BF7
:10380300850A82F583E0C0E0900305124F2AA3A343
:10381300A3D0E0F0EE2405F508E43FF5098508821E
:10382300F583E0C0E0900305124F3BD0E0123893DC
:10383300E0C0E0900305125644C82406F582E4383C
:10384300F583D0E01238981219E98E828F83120B18
:1038530001851882851983120AF5850A82850B83EF
:10386300E0C0E07405120B48D0E01237A1C0E07449
:1038730004120B48D0E0F07407120B48E412490617
:10388300121F05E9F980067910800279010237B029
:103893001262EAA322F07C187D007900AA18AB1902
:1038A30022C082C0839003051243AB6010900305CE
:1038B300125656121A8B900305E4F0A3F0120EEB86
:1038C3001210C5023A1474F412037874E81209183A
:1038D3008A0A8B0BECFEEDFF89087428120B48E073
:1038E300FD7429120B48E0FC740F6D7005740F6CA6
:1038F3006012901EA4E064026005EDC39C5005793C
:10390300C10239DE7424120B48120B0190037E129C
:103913000AF5E508900384F0ED900382F0ECA3F040
:10392300742A120B48E0900385F074FF650A700453
:1039330074FF650B7024901EB8E0F47003A3E0F4E9
:10394300700C1219F590037BEAF0A3EB8015901E1F
:10395300B81266BDE8F0A3E9800990037BE50AF09D
:10396300A3E50BF0EE4F6017EEFAEFFB121179E9C6
:103973006401700BEEFCEFFD7A8F7B03121B7B90CF
:10398300036EE4F0A3F0900371F0A3F090038EF0C4
:10399300901EA4E064027008900382740FF0A3F0F9
:1039A30090037D74051238981219E97404120B48B8
:1039B300E4F090037E120B01851882851983120AA5
:1039C300F5900384E0C0E07405120B48D0E0F07476
:1039D30007120B48E4124906121F050237B074F7A9
:1039E300120378E990030BF07A807B009003C8E020
:1039F300F9121B51121F897900024251C082C08300
:103A030090030BE07003121D67121F898003121FBE
:103A1300FBD083D08202084C74F012037890030B1E
:103A2300E0901E3F700FE060057900121C17901E96
:103A33003FE4F0804AE06401600890030BE0F91270
:103A43001C17901E3F7401F090030BE0F46030E00C
:103A5300F50CE4F50DF50EF50FF0908228780812B9
:103A63000AD9780C7908120289780C1208647A80D2
:103A73007B009003C8E0F9121B45740412087F7A97
:103A83003F7B1E7941121EF302351612087F7F0C0D
:103A93000205DFEE2411F582E43FF583221259403B
:103AA300123AA722E8F0A3E9F02274F7120378EBA5
:103AB300900385F0120ED902425174F61203787402
:103AC300E91209188A088B097E008A828B83A3A3D3
:103AD300A3E0C0E07406120B48D0E0F08A828B8327
:103AE300A3A3E0C0E07408120B48D0E0F0740912FD
:103AF3000B487401F08A828B831243AB600D8A8278
:103B03008B831256561220B5E970357407120B4891
:103B1300E4F0120FB17404120B4812459690037D22
:103B2300E06404700E120FBD7402120B48EAF0A396
:103B3300EB804E7402120B4874FDF0A374FF8041B6
:103B4300AC18AD198508828509831256561220A92F
:103B5300850882850983A3A3A3A3E07031740712A8
:103B63000B487401123C5F7402120B4812455285D4
:103B73000882850983123C667404120B48E8F0A39B
:103B8300E9F074021208F0121005E9FE8041123CBC
:103B930060740A120B481245527414120B487401D4
:103BA300123BE1A3E0C0E07415120B48D0E0F074BF
:103BB30016120B48E4123BD9125D13740C120B4816
:103BC300AA82AB83121B7B740A1208F0121C2FEE1D
:103BD300F97417022FF0F085088285098322123BBE
:103BE300E522123BD9A3A32274F712037874F812C7
:103BF3000918EAFEEBFF790090037DE06408600595
:103C0300E06404704785188285198374FDF0A374FA
:103C1300FFF0120FB17402120B481245967405128D
:103C23000B48123C54A3E0C0E07404120B48D0E0EC
:103C3300123C55E0C0E07406120B48D0E0F0740764
:103C4300120B48E4124906121005E9F974080242FE
:103C53004EE4123C5922F08E828F8322F085188223
:103C630085198312423D227F070205DF74F4120394
:103C73007874F91209188A088B098C0A8D0B851838
:103C8300828519837808120ABB7404120B48E9F081
:103C93007405120B48E4F07406120B48E41249064B
:103CA300121FA774070237A874F51203788A088BCA
:103CB300098A828B83125E7DEE4F7003023E5C9015
:103CC300032C1243AB60178A828B83A3A3E0F9EE24
:103CD300FAEFFB90032DE0F58388821220F08E82A9
:103CE3008F83A3A3A3A3A3A3A3A3A3E0640260035B
:103CF300023DC68E828F83A3A3A3A3A3A3E0540292
:103D03007003023DEA850882850983A3A3E064E981
:103D13007003023DEA850882850983A3A3E064CD8D
:103D23007003023DEA850882850983A3A3E064F05A
:103D33007003023DEAEE240D1241F26028EE2413D3
:103D4300125D0760208E828F83A3A3A3A3A3A3A3E3
:103D5300A3A3A3123E7B121035E9701D7A307B01B9
:103D6300121CCB8014901EAAE0048E828F83A3A31F
:103D7300A3A3A3A3A3A3A3A3F0850882850983A375
:103D8300A3E0701F750A0080097A367B01121CCBF1
:103D9300050A850882850983A3A3A3E0F8E50AC37E
:103DA3009840E6EE240A1255A2C0E0123E5FD0E02E
:103DB30012420D7404F0901EAB12593AE8123E6D94
:103DC300121A3D8E828F83A3A3A3A3A3A3A3A3A3AA
:103DD300E0640260128E828F83A3A3A3A3A3A3A391
:103DE300A3A3E0640670728E828F83A3A3A3A3A30D
:103DF300A3E0A2E05063850882850983A3A3E0F9C9
:103E0300EEFAEFFB120E1F8E828F83A3A3A3A3A34D
:103E1300A3E054FE123E7B121035E9850882850922
:103E230083A3A3702AE070237A2F7B01121CCB7E1D
:103E330000850882850983A3A3A3E0F8EEC3985005
:103E4300187A367B01121CCB0E80E67A318005E0AE
:103E530070077A2D7B01121CCB0230DD123E6322E8
:103E6300EE2413F582E43FF58322F0A3E9F07A20F0
:103E73007B009003C8E0F922123C59126840124FAC
:103E8300552274EC12037874BD120918EAFEEBFF95
:103E93008C108D11750C00750E00AC18AD19120D38
:103EA3006B740D120B48E070087410120B48E0603D
:103EB30014851882851983E0A2E6500E1256491222
:103EC3001035E960057A35023FE685188285198346
:103ED300E0540C64047005750D018003750D00E05A
:103EE300A2E5503D750E01E50DA2E04034120FB777
:103EF3001242287003A3E06970051241EF706B1240
:103F03000FB71242287003A3E06960151241EF70E6
:103F130010125D2DAC18AD19120E01E96003023FBA
:103F2300E41241EF702C851882851983E0A2E650D4
:103F3300217401120B48E054037017851882851908
:103F430083E0540C640C600AE0540C64086003754D
:103F53000C01851882851983E05403F87402687094
:103F630019125D29120D7D0241EA12564912423699
:103F73007415120B48124552809A7401687047E514
:103F83000CA2E0500B1241EF7006125D29120D7165
:103F9300741A120B48E518F0A3E519124235741789
:103FA300120B481245528E828F83A3A3A3A3A3A30C
:103FB300E0C0E07419120B48D0E0F074171208F057
:103FC300120CCF0241EAE860030241EA900365E084
:103FD300640170178E828F83A3A3A3A3A3A3E070AE
:103FE3000A7A347B01121CCB0241EA7442120B4859
:103FF3007402124235743A120B481241FCE05480A9
:1040030070030241067424120B48740212420D120B
:104013003C66741C120B481245527403120B48E0A1
:10402300C0E07425120B48D0E0F07402120B48E094
:10403300C0E07426120B48D0E0F090037B123C667C
:104043007427120B481245527406120B48123C6631
:104053007429120B481245527408120B48123C661D
:10406300742B120B481245527410120B48E0F8746B
:104073002D120B48E8F0A3E4F0740E120B48123C27
:1040830066742F120B481241FC123C667431120BFA
:1040930048124219E0C0E07433120B48D0E01262B8
:1040A300F9C0E07434120B48D0E0F0125D04C0E0B4
:1040B3007435120B48D0E0F07411120B48E0C0E0E5
:1040C3007436120B48D0E0F07413120B48E0C0E0D2
:1040D3007437120B48D0E0F0EE2423125D07C0E0E2
:1040E3007438120B48D0E0F0EE2425125D07C0E0CF
:1040F3007439120B48D0E0F0741C1208F0120D83CF
:104103000241EA7457120B487808120AD9E50DA246
:10411300E040030241A2EE240F125D07C0E07412D7
:10412300120B48D0E0F090032E1243AB7003024110
:10413300EA120FB78A128B13A812A913743A120B3F
:1041430048E0687003A3E06960030241EAEE2423B8
:10415300125D07F50D780D1208701242031206AEB8
:104163007808120864E50EF50878081208708E8244
:104173008F83A3A3A3A3E0F508780812087078102F
:1041830012086CA90C740B1208F874451208F0900D
:10419300032E12565A1220F0740B12087F8048E542
:1041A3000CA2E05006125D29120D71125D04F50C8C
:1041B300780C1208707808120864E50EF508780880
:1041C300120870781012086C90037B1206AEEE246E
:1041D30012125D07F974441208F8740A1208F012F7
:1041E3000E2B740A12087F7443023A8EEE2421F5D3
:1041F30082E43FF583E0548022123AA7124203225D
:10420300EE2421F582E43FF5832212421122126249
:10421300EEA3A3A3A322E8F0A3E9F0EE240FF58213
:10422300E43FF583228A088B09A808A909124309E8
:104233006822F012446A12423D22125644F9227453
:10424300F7120378121BF98005740D12087F7F01A2
:104253000205DF74F7120378121BFF80F174F71263
:104263000378121C0B80E7C082C083121C05023A3C
:104273001474F7120378121C1180D374F7120378A5
:104283007409120B48E0F5087808120870121C2311
:10429300740180B7C082C083121C2F023A1474F6D3
:1042A300120378EAFEEBFF900368E0A2E150498E27
:1042B300828F83A3A3A3A3A3A3A3A3A3A3E06401C4
:1042C3006036120FBD8A088B09A808A9098E828F50
:1042D30083E0687003A3E069601E12430564016014
:1042E300178E828F83125656122049E9600A8E82F6
:1042F3008F83125656120F75EEFAEFFB121C35021E
:104303002FF31243092212446EE02274F71203784A
:10431300121C3B02425174F7120378EAFEEBFF8949
:10432300087401650870147900120C3390255EE45B
:1043330093FC7900EEFAEFFB120BA902425174F7DA
:10434300120378121C2902425174F412037874F98F
:10435300120918E9FE8A088B098C0A8D0B901D76C9
:104363001243AB602BEE851882851983F07401121A
:104373000B487808120ABB7413120B48123C66747C
:1043830005120B48124902901D7612565A1220F05C
:10439300023CA6E50E75F006A4F8AAF0EAF9741932
:1043A30028F582740F39F58312423DE84922C08211
:1043B300C083121C83023A1474F7120378121C4749
:1043C30002425174F7120378901E42E0F97800809C
:1043D3000B124676540D6401700119081245E3501F
:1043E30003E970ED02425174F7120378901E43E023
:1043F300F97800800B124676548D64817001190898
:104403001245E35003E970ED02425174F21203784E
:10441300890BE975F006A4A9F0240FF508E439F532
:1044230009E5082AFAE43509FB121A858A0C8B0D73
:10443300AE0CAF0DEE4F6025AC08AD097900121933
:10444300E9124466E50BF0EE2508F8EF3509F98E1D
:10445300828F83A3A3A3A3A3A3A3124550EEFAEFD2
:10446300FB801512446A2212446E22EE240BF5825D
:10447300E43FF5832212087F7F060205DF74F612FC
:104483000378EAFEEBFF120B7FE9F8901E41E0F997
:10449300E8C3994009900314125656120B85EE2473
:1044A30002F8E43FF988088909900316125A4190EB
:1044B3000316E004F0EEFAEFFB120B8B85088285FE
:1044C3000983E0025B70C082C0837900900314808B
:1044D30001091256568A828B83E582458370F20264
:1044E3003A1474F7120378EAFEEBFFEE4F605B9029
:1044F30003141243AB6053888289837A007B00EEF6
:1045030065827003EF65836013AA82AB83123C66F6
:1045130088828983E5824583603080E390031412A7
:104523003C66EE687002EF698E828F837008123CDE
:1045330066900314800312682E124552EEFAEFFBC5
:10454300120CFFEEFAEFFB121A8B024251A3A312D5
:104553003AA722C082C0839003148004888289838F
:104563001243AB600A8882898312351B4D70ED8A32
:10457300828B83E4F0A3F0E8496006888289838014
:1045830003900314124596023A14EE241AF582E4BA
:104593003FF583EAF0A3EBF022124F55EA4B227466
:1045A300F712037890031480048A828B8312459C4C
:1045B300602778008001081245E350EDE875F006A6
:1045C300A4FCADF0EA2CFCEB3DFDEC2413F582E4F6
:1045D3003DF583E06970DF80047A007B000242517D
:1045E300124667FCE8C39C2274F7120378E9FE7D48
:1045F3000080010D124662EDC3985023ED75F0065D
:10460300A4F8AFF0EFF912465870E8ED75F006A480
:10461300F81246994CF0E8240FFAE439FB80047A47
:10462300007B0002425174F6120378E9FEEAFF129E
:104633000B91EA4B601C7C008010EC75F006A4F82B
:10464300A9F01246587002EFF00C124662ECC398C0
:1046530040E8022FF312469124131246A26E22124F
:104663004667F822EA240B12466E22F582E43BF5F4
:1046730083E022E875F006A4FCADF0EA2CFCEB3DE8
:10468300FDEC2414F582E43DF583E022EFF9EA28FA
:10469300F8EB39F9E82212468F24141246A222F5C8
:1046A30082E439F583E02274F6120378120C9F7AC0
:1046B300008016EA75F006A4F8A9F0125A71E41204
:1046C3005B74F0A312615AF00A90256B12559B405C
:1046D300E27A00801C8A08750900740378081209BD
:1046E300D2124742A374FEF0A304125931A3E4F09B
:1046F3000A90255912559B40DC7900801A89087568
:104703000900740378081209D274B5126A2C740F65
:10471300126829122A250990255812615340DE9008
:10472300255CE493900318F09082281206AA7A106D
:104733007B009003C8E0F9121B4B7404022FF07442
:10474300752508F8740F3509F9888289832274F076
:1047530012037874F51209188A088B09890A8C0BDD
:10476300E9A2E050147508FC7509FFA2E15005D2D7
:10477300E4024812D2E3024812120C878A0C8B0D12
:10478300A80CA90D90036EE0687003A3E069600EA6
:10479300AC0A7902AA08AB09120C81E97005790009
:1047A3000248E2E50AF50C780C12087079027CFEE7
:1047B3007DFFAA08AB09120BFD740112087FE960A3
:1047C300030248E0E50AC2E5F50AA2E640437403A2
:1047D3001208F8AA08AB091220AFE9702E124F3461
:1047E3001211018A0C8B0DAE0CAF0DEE4F6022EE51
:1047F3002402FAE43FFB1220B5E96015EE2402FC23
:10480300E43FFD74031208F0121B7BE50AD2E5F5C1
:104813000A900317E0F50C90036E124AAB780E1260
:10482300086C7D017C00900317E0F9AA0EAB0F1210
:104833000C3F740212087FE9F8900317E004F0E8D4
:1048430060030248E0E50AA2E55004740E80027496
:1048530006C0E07401120B48D0E012490612101D85
:104863008A0E8B0FAE0EAF0FEE4F606D125915F01F
:10487300120FB112458D12490C7401F07478550A68
:10488300A3125A13A3E50C125A13A3A3E508F0E5E8
:10489300091248E7E4F0E50AA2E5500F7403120891
:1048A300F8E82406FAE439FB121B7B8E828F83A37C
:1048B300A374FDF0A374FFF0E50B601290255FE491
:1048C30093F8E50BC3985006123E5FE50BF0EEFA42
:1048D300EFFB121FB3E9F980067910800279C774E0
:1048E3000B02351388828983A3A3A3A31248F3225F
:1048F3001248F722F088828983A3A3A3A3A322E803
:10490300F0A3E9F0AA18AB1922EE1264693F124929
:104913001522F583125644F9888289832274F4128E
:1049230003787A007B109003C8E0F9121B57EA4B17
:104933004C4D60089003DA7401F08043901E27E029
:104943006401901EA57006E0FC79018004E0FC7907
:10495300037A007B00120BA990254EE493F50874AB
:104963000193F509E4F50AF50B78081208647A0057
:104973007B109003C8E0F9121B45740412087F02F0
:1049830037AB74F0120378EAFEEBFF8C0A8D0B89C8
:104993000C121035E960057AFF024A7B901EA4E0F1
:1049A30064026003024AA190256AE493F9EEFAEFE8
:1049B300FB120CB1E96003024A9B7900EEFAEFFBAC
:1049C300120C87A90C120C7B8A088B09EA45097023
:1049D30003024AA18A828B83A3A3A3A3A3126076B3
:1049E300707E125656850882850983A3A3A3A3A3C9
:1049F300A3E05418604F90255DE4938508828509F0
:104A030083A3A3A3A3F07410120B48125D137412B3
:104A1300120B48124AABEA650A7003EB650B60128E
:104A2300EA6C7002EB6D600AEA650E7003EB650FCA
:104A33007022780E12086CAA0AAB0B12113D740295
:104A430012087F800F90036DE0850882850983A398
:104A5300A3A3A3F074FE6A700374FF6B601E80450A
:104A6300A3A3A3E0640360248A828B83A3A3A3A3E9
:104A7300A3E0640470067AFE7BFF802985088285A3
:104A83000983A3A3A3A3A3E0640260127907EEFA48
:104A9300EFFB120CB1E96006EEFAEFFB8007EEFACA
:104AA300EFFB120BBB023516E0F50EA3E0F50F2268
:104AB30074F7120378EAFEEBFF122055E9700AEE51
:104AC300FAEFFB122043E96006EEFAEFFB80047A6B
:104AD300FE7BFF02425174EE120378EAFEEBFF8C79
:104AE3000C8D0D890E750800121035E979006003ED
:104AF300024C1EEEFAEFFB120C87A90E120C7B8AF6
:104B03000A8B0BEA450B607D8A828B83A3A3A3A345
:104B1300A3E0640360238A828B83A3A3A3A3A3E0FC
:104B230064016003024C1C79078A828B83125654FA
:104B3300120CB1E96003024C1C750902850A8285D7
:104B43000B83A3A3A3A3A3A3E054186003024BD333
:104B53007900AA0CAB0D120C878A0A8B0BA80AA941
:104B63000B90036EE0687003A3E0696003024C00DE
:104B730090255EE493FCA90EEEFAEFFB120BA975E8
:104B83000801024C1CEEFAEFFB120BBB12203D8A0C
:104B93000A8B0BA80AA90BE849607E88828983A344
:104BA300A3A3A3A3E0A2E05070750901A2E15012F0
:104BB3007901EEFCEFFDAA0CAB0D120BD9E9709055
:104BC300805788828983A3A3A3A3A3D2E1F0808023
:104BD300750801850A82850B83A3A31206AE750AA5
:104BE300FE750BFF780A12086C7900EEFCEFFDAA44
:104BF3000CAB0D120C93740412087F801CA909EEF0
:104C0300FCEFFDAA0CAB0D120BD9E9700C75080172
:104C1300A90EEEFAEFFB120C33A908025E6374E9E6
:104C230012037874F01209188A0C8B0D8C088D0905
:104C3300750B06124F3412112B8A108B11EA451192
:104C4300600B8A828B83A3E07003024DC8E50C24BA
:104C53001DF50EE4350DF50F850E82125133F51651
:104C630088828983A3A3A3E0FA88828983A3A3A369
:104C7300A3E0F8E4C8F9EA28FEE439FFAA08AB097F
:104C8300120C39E9F9850E82850F83124F3BE02917
:104C9300F50EE50AA2E55003750B0E7487550A70ED
:104CA3000F7418550A64186007125118650B600ACF
:104CB3007AD37B00121CCB024DC8530A78780812B2
:104CC300086C7D00AC0EA916124F4A120C3F7402F9
:104CD30012087FE9F87403687003024DC874271241
:104CE3000B48E0F512A3E0F513E86003024DB97435
:104CF30018550A7003024DCDE50AD2E0F50AA2E485
:104D03005004D2E1F50AA90A124F4A120C7B8A1405
:104D13008B15A814A915E849605788828983A3A332
:104D2300A3A3A3A3E05418604888828983A3A3A301
:104D3300A3A3E06401703AE51045116034125D10DD
:104D43008882898312565412112B8A148B15A81446
:104D5300A915E849601B88828983A3E06013851045
:104D630082851183A3E0FA88828983A3E0C39A40F2
:104D730054E50AF50B780B120870124F44120BFD21
:104D8300740112087FE9702E7C007D0085128285F4
:104D9300138374FFF0A3125A21A3A3A3A3A3A3A372
:104DA300A3E0600AE50C2415124F20125D13A90E2F
:104DB300124F4A122001851282851383E0F4700397
:104DC300A3E0F460487900024F12900367E0601497
:104DD300E50AF50B780B120870124F44120BFD74A1
:104DE3000112087FE50AF50B780B12087079027C33
:104DF300FE7DFFEEFAEFFB120BFD740112087FE953
:104E030070B485128285138374FFF0A3F0780812BF
:104E1300086C7D01AC0EA916124F4A120C3F7402A6
:104E230012087FA90AEEFAEFFB120C878A088B0996
:104E3300A808A90990036EE0687003A3E069600302
:104E4300024F06EEFAEFFB12203D8A088B09A808F1
:104E5300A909E849602788828983A3A3A3A3E064FF
:104E630001600D88828983A3A3A3A3E06402700D6C
:104E7300AC18AD19EEFAEFFB1220AF8012120FB18E
:104E83008A088B09AC08AD09AA18AB19121B7B85DC
:104E93000C82850D83A3A3A3A3A3A3A3A3E064010F
:104EA3007012E50C2415124F20125D1374081208BA
:104EB300F0121B7BE50C241DF582E4350D124F28FF
:104EC300E04430F508780812087074011208E88885
:104ED300088909780812086C740B1208E888088995
:104EE30009780812086CE516F50878081208707935
:104EF30000EEFCEFFD124F4A120BD3740612087F2B
:104F0300024DC8124F1C124F3BE50EF0120FC9742D
:104F13001012087F7F0F0205DFE50C241DF582E4E4
:104F2300350DF58322F583E0F8A3E0F5838882A3AA
:104F33002290037B12514F22126840A3A3A3A3A381
:104F4300227901AC08AD09126467350D124F532263
:104F5300F583E0FAA3E0FB2274EC12037874F012F9
:104F630009188A0C8B0DECFAEDFB750F08125D1016
:104F730012112B8A088B09AC08AD09EC4D601F8C0C
:104F8300828D83A3E070171259265001097A027BA0
:104F930000120228E88C828D83F0A37407F0E50CDD
:104FA300241DF582E4350D125133F50E8882898371
:104FB300125125E0FAE4CAFBEC2AFEE43BFF8882A7
:104FC3008983A3A3125125A3A3E0FBECF508E43BDB
:104FD300F50988828983A3A3A3A3A3A3A3E0F50B65
:104FE300E50AA2E45003750F10A2E55006740825E4
:104FF3000FF50F748F550A7007125118650F600A69
:105003007AD37B00121CCB025113530A707800E54C
:105013000AA2E4501C124F1CE02408FCA3E0340055
:10502300FD74081208F0121B7B7808E50AC2E4F548
:105033000AE50AA2E5501F124F1CE028F8A3E0344A
:1050430000F9E82408FCE439FDAA18AB19121B7B0C
:10505300E50AC2E5F50AA90EEEFAEFFB120C75E9B3
:10506300F510902559126153502989127513007454
:105073000378121209D2747A2512F582740F35134C
:10508300F583E0F8E50BC3985007E50BF078008053
:1050930004807D780490036EE06E7003A3E06F607C
:1050A3005FE87019E50AF50F780F12087012514284
:1050B300120BFD740112087FE970558005740468B2
:1050C300704E780A12087074011208E8880C890D72
:1050D300780C12086C740B1208E8880C890D780C94
:1050E30012086CE50EF50A780A120870A90BAC08D1
:1050F300AD09EEFAEFFB120BD3740612087F801092
:10510300780A120870125142120BFD740112087FC3
:105113007410023A8EE50C2417F582E4350DF583FD
:10512300E022A3A3A3E0FC88828983A3A3A3A322F1
:10513300124915A3E0F50A88828983A3A3E02279A3
:1051430001126467350DF58312514F22E0FCA3E091
:10515300FDAA08AB092274EB12037874F51209183F
:10516300EAFEEBFF8C088D0989147420120B48E0CA
:10517300F511F9120C75E9F50A902559126153508E
:105183001B750B007403780A1209D27478250AF58B
:1051930082740F350BF583124AAB8006750EFE75CC
:1051A3000FFF7401120B487408F07425120B48E0CA
:1051B300F510A2E450087401120B487410F0E510C6
:1051C300A2E550097401120B48E02408F0AA18ABB9
:1051D3001912101D8A0C8B0DEA450D70030252FB48
:1051E300EA2417125309120FB1E50C241AF582E4CD
:1051F300350D1245947421120B48E0F512A3E0F526
:105203001374031208F8AA0EAB0F1220AFE960154E
:1052130012530574031208E8E50C2418124F20E812
:10522300F0A3E98020E510A2E4501BE50E6E7003A5
:10523300E50F6F7011125305E50C2418124F20E58A
:1052430012F0A3E513F0E50C125320124F2312358D
:1052530020850A82F5837402F0A3E510125314E546
:1052630011F0EE850A82850B83A3A3A3F0EF850AD1
:1052730082850B83A3A3A3A3125314A3A3A3E508BB
:10528300F0E509850A82850B83A3A3A3A3A3A3F057
:10529300AA0EAB0F120C39E92514850A82850B83FC
:1052A300A3A3A3A3A3A3A3F07800E510A2E4501241
:1052B300AC12AD13E50A2408FAE4350BFB121B7B91
:1052C3007808E510A2E5501A7423120B48125D13F7
:1052D300E50A28F8E4350BF9E82408FAE439FB1267
:1052E3001B7B850C82850D83A3A3E50EF0A3E50F3D
:1052F300F0AA0CAB0D121FB3740B12087F7F0D02C3
:1053030005DFE50C2416F582E4350DF5837401F011
:1053130022F0850A82850B83A3A322E50812646920
:105323002274F41203788A088B09ECFEEDFF750BE7
:105333000190036EE065087004A3E06509601375CE
:105343000B00780B120870121077740112087FE9B2
:10535300F50B7900AA08AB09120C878A088B09A8F8
:1053630008A90990036EE0687003A3E069704679A9
:1053730000EEFAEFFB120C7BEA4B60308A828B83E0
:10538300A3A3A3A3A3A3E0541860217508FE750982
:10539300FF780812086C8A828B83A3A31206AE12CD
:1053A3006C8B120C93740412087F80097901EEFA56
:1053B300EFFB12200DA90B0237AB74F21203787EB8
:1053C300FD7F0D7A107B009003C8E0F9121B57EAAA
:1053D3004B4C4D70179082281206AA7A107B0090CE
:1053E30003C8E0F9121B4B740412087F900318E002
:1053F30014F0600302549F90255CE493900318F02B
:105403007C0079057A007B00120F398A088B090228
:1054130054967C007905AA08AB09120F398A0A8BC6
:105423000B850882850983A3A3A3A31243AB605D05
:10543300E5082404F8E4124749E024FFF0A3E0342C
:10544300FF12615A1243AB7044850882850983A316
:10545300A3A3A3A3A3E0540460138508828509834F
:10546300A3A3A3A3A3A3A3A3E0F9120C63850882B8
:10547300850983A3A3A3A3A3A3A3A3A37406F07A79
:10548300F08508828509831261E0120E91850A086E
:10549300850B09E50845096003025415750800806A
:1054A300668E828F83A3A3A3A3E06052F4604FEEC2
:1054B30024041255A270478E828F83A3A3A3A3A3B0
:1054C300E06403701379028E828F83125D138E82E0
:1054D3008F83125654120BD98E828F83A3A3A3A357
:1054E300A3E0640160188E828F8374FEF0A304121C
:1054F300314C14F0A3041262E6E4123893F0050869
:10550300EE2407FE50010F90256012352840927E4D
:1055130000803D120F5D8E08750900740378081230
:1055230009D274752508FC740F3509FD7AE57B0BE8
:10553300120F4BEA4B70DC8E087509007403780870
:105543001209D2124742122A2488828983E4F00E78
:105553009025591269BF50258E0875090074037888
:10556300081209D274752508F8740F3509F9E8246F
:1055730007F582E41266A714F070D480997A00804C
:1055830009EA1255AC600214F00A90256B12559B80
:1055930040EF02447B902558E493F8EAC39822F540
:1055A30082E43FF583E014F02275F006A4F8A9F035
:1055B300741528F582740F1246A52274F712037826
:1055C30074DA120918ECFEEDFF750800EE4F606AFD
:1055D3008A828B83125644C8241FF582E43812430F
:1055E300A960578A828B83125656AC18AD19EA24E8
:1055F3001E12466EF9EA241F1225BB120F99740B73
:10560300120B4812565E7003A3E069702D740212E8
:105613000B48E064017023741D120B4812565AE0C4
:1056230064017016741D120B48124F2CA3E0F88E00
:10563300828F83E0687003750801A908742602420B
:105643004EE0F8A3E0228E828F83A3A3A3A3A3A398
:10565300A3A3A3124F552212684022125664E06896
:105663002212566822E0F8A3E0F98E828F83A322E8
:1056730074F4120378E9701E7900120BF18A0A8B15
:105683000BAE0AAF0B74FE6E700374FF6F70149051
:105693002566E493600D7901120BF18A0A8B0BAE38
:1056A3000AAF0B120FE702379B74F612037874F3F9
:1056B3001209181219F58A088B09AE08AF0990036D
:1056C3006EE06E7003A3E06F60E9120FBDEA6E70C7
:1056D30002EB6F60DEEEFAEFFB121035E970D4EEE9
:1056E3004F60D0851882851983E4F004120B48EECD
:1056F300F0A3EF124906122097E970B774FE6E709B
:105703000374FF6F60ADEEFAEFFB740D022FF0C070
:1057130082C083120FE7023A1474F2120378EAFE8E
:10572300EBFF8C0A8D0B890874FC6E700374FF6F9A
:1057330070030259067900120C878A0C8B0DAE0C8C
:10574300AF0D740E120B48E0F50990036EE06E7016
:1057530003A3E06F7009E509A2E64003025906A915
:1057630009120C7B8A0C8B0DA80CA90DE849704516
:1057730079007AFE7BFF120C7B8A0C8B0DA80CA997
:105783000DE84970307418550970030258367A00D1
:1057930080010A90256012559B4003025836EA7532
:1057A300F007A4F8A9F0126AD4541870E574FD2820
:1057B300F8740D39F988828983EEF0A3EFF074FE53
:1057C300650A700474FF650B600D88828983A3A347
:1057D300E50AF0A3E50BF088828983A3A3A3A3A31F
:1057E300A3E509F0A2E0500D88828983A3A3A3A3B4
:1057F300A3A3D2E2F07401650888828983A3A3A3DB
:10580300A3A3703A7401125931E05418602A902509
:105813005DE49388828983A3A3A3A3125D0FAA0ADD
:10582300AB0B12112B8B0DEA450D60030259067A5F
:10583300008036790202590890036DE080D5E06458
:1058430001700302590688828983A3A3A3A3A3A398
:10585300E05418600790255DE493800490036CE0A6
:105863001248E7E5080259050A90255212559B4054
:10587300030259067B008029EB75F007A4F8A9F011
:1058830074FF28F582740D39F583125D13EA75F000
:1058930017A4F8A9F01266AB6C7003A3E06D60C89F
:1058A3000B902560E493F8EBC39840CCE4936B70C2
:1058B300B7EA75F017A4F8A9F0748D28FE740C39B3
:1058C300FF7C177D007900EEFAEFFB1219E98E8257
:1058D3008F83E50AF0A3E50BF090037B12593AA3FB
:1058E300A3A3A3A3A312421974AAF0EE240E125980
:1058F300181259215001097A027B00120228125909
:105903000BE8F0790002447BEE240DF582E43FF5C9
:105913008322EE2417F582E43FF583740122F0120B
:10592300592622902555E49379002401F82212592F
:1059330035221248F7A322125940A3A32212566814
:10594300A32274ED1203788A088B09890A12614C29
:1059530040057905025A0E121C89AA08AB09120CDC
:105963000FE9F50E90256BE493650E700A7AFE7BC2
:10597300FF120C0FE9F50E90256B126F1D40030209
:105983005A0C1243966009125A5D125656121A8B1C
:10599300E50A601CE50E125A29AA0AEA2AFAE43338
:1059A300FB121A85125A171243AB70147901805BEC
:1059B300E50E75F006A4F8A9F0125A66E4F0A3F018
:1059C300E50E125A48E508F0A3E509125A13AA8214
:1059D300AB83E50A125A3D8A828B83E06027124328
:1059E3009660228E108F117512007810120868AC21
:1059F3000AEC2CFCE433FD125A5D1256561219DDE3
:105A0300740312087F7900800279077F0B0205DF98
:105A1300125A7D22850C82850D83EAF0A3EBF08573
:105A23000C82850D832275F006A4F8A9F0125B7D24
:105A3300E82404F50CE439F50D22F0901EA6E08865
:105A4300828983F02275F006A4F8A9F0125A532232
:105A5300125B7D88828983A3A322E50E75F006A4D9
:105A6300F8EAF9741928F582740F39F58322125A6A
:105A73005374FE125A7A22F0A304F088828983A316
:105A83002274F7120378ECFEEDFF120C0FE9F89085
:105A9300256BE493F9E8C399502DE875F006A4F853
:105AA300A9F0125B79125ACF88828983A3A3A3A397
:105AB300123C667409120B48E0FAA3E0F5838A826C
:105AC3001245527900800279040242518882898307
:105AD300A3E08E828F83F02274F61203787E008017
:105AE3001BEE75F006A4F8A9F0741728F582740F5D
:105AF3001266A76A7003A3E06B60710E90256B12A8
:105B030069BF40DDE4936E706374FE6A700374FFD3
:105B13006B70597E0080010E90256B1269BF504C4B
:105B2300EE75F006A4F8AAF0EAF91255B370E8127C
:105B33005B79A3A374FEF0A304125B741243AB60FE
