:020000040000FA
:06000000020AAB0201CD73
:03002B0002075D6C
:030043000207832E
:03005300020102A5
:03006B000205414A
:10008300020161010105030101FF0F10FEFFDE22E2
:1000930000000000B22100000000FF000000FF008C
:1000A300010124341201000004BF8103CF81002029
:1000B300FD000206FFFF010101040200EF1C000026
:1000C30000E8030000FFFFB81DE8030000640064BC
:1000D30000A0BB0D00A0BB0D00020008000005023C
:1000E300070101051E02051E020A0A01020803B8E0
:1000F3000B02803E0102E8030A050001FFFF14C062
:10010300E074F11203E4A2AFE433F509D2AF85A79B
:1001130008AFA1EF5508FE74105E600612175575FF
:10012300A1EF74085E600812175B75A1F78024EFD6
:10013300A2E092F0E508A2E082F05017906198E007
:10014300F89009B1E0C398A2D265D0335002E8F029
:1001530075A1FEE509A2E092AF7F02020443C0E06D
:1001630074F21203E4A2AFE433FED2AF9061A4E0D1
:10017300F8759B00E59158540860087591F71217BC
:10018300A38023E59158541060087591EF1217A9C5
:100193008014E591A2E092F0E8A2E082F05007E03B
:1001A300C2E0F01218FF9061A3E0F8E5E9585404A7
:1001B300600E1218D575E9FB906193E0A2E640F258
:1001C300EEA2E092AF7F01020443C0E074F2120397
:1001D300E4A2AFE433FED2AF9061A5E0F8E5BF58E7
:1001E3005404600675BFFB12191780D4C3E498F852
:1001F300E499F91202308026C3E49AFAE49BFBE9FE
:1002030020E7E9120230E498F8E499F922C3E4986C
:10021300F8E499F9120230E498F8E499F9C3E49AFE
:10022300FAE49BFB22EB20E7CFE920E7E0B90010DB
:10023300BB0008E88AF084F8AAF022E4FBC8FA229B
:10024300EB70227B10C833C8C933C9335007C39A34
:10025300C3DBF280069A50012ADBEAC833F4C8C92B
:1002630033F4C9FA2275F008E4C833C8C933C93373
:10027300C99AC99B5004C92AC93BD5F0ECFBC833C2
:10028300F4C8E4C9FA22080808EAC0E0EBC0E08633
:10029300F0E7A4FA180986F0E7A42AFA180986F009
:1002A300E7A42AFA180986F0E7A42AFA1986F0E7E0
:1002B300A4FBE5F02AFA190886F0E7A42BFBE5F086
:1002C3003AFA190886F0E7A42BFBE5F03AFA181876
:1002D3000986F0E7A4C5F02BFBE43AFA1908E7C551
:1002E300F0C6A426F6E5F03BFBE43AFA1886F0E7FD
:1002F300A4F6E5F00826F6E43B08F6E43A08F6D05F
:10030300E0FBD0E0FA22E4CFC0E0E4CEC0E0E4CDED
:10031300C0E0E4CCC0E075F020E626F608E633F64C
:1003230008E633F608E633F6181818EC33FCED3319
:10033300FDEE33FEEF33FFC3EC9709ED9709EE971C
:1003430009EF97191919400FFFEC97FC09ED97FD79
:1003530009EE97FE191906D5F0BFECF709EDF70979
:10036300EEF709EFF7191919D0E0FCD0E0FDD0E062
:10037300FED0E0FF222518C582C0E0E51934FFC591
:1003830083C0E0E518C3958224F810AF088583196C
:100393008582188008858319858218D2AFCEF0A391
:1003A300E520F0A37808E608F0A3DEFAEFF0A3E572
:1003B3008124FAF8E608F0A3E608F0A3E608F0A320
:1003C3000808E608F0A3E608F0A315811581D0E03C
:1003D300FED0E0F8158115811581E8C0E0EEC0E09C
:1003E30022C0D02518C582C0E0E51934FFC583C0FB
:1003F300E0E518C3958224F310AF0885831985823D
:10040300188008858319858218D2AFC8F0A3E9F054
:10041300A3EAF0A3EBF0A37908E709F0A3D8FAEC79
:10042300F0A3EDF0A3EEF0A3EFF0A3D0E0F0A3D0A0
:10043300E0F0A3D0E0F0A3E520F0A3E5F0F0A322E1
:10044300851983851882E0C0E0A3E0F9A3E0FAA34D
:10045300E0FBA37808E0F608A3DFFAE0FCA3E0FDE5
:10046300A3E0FEA3E0FFA3E0C0E0A3E0C0E0A3E0BD
:10047300F5D0A3E0F520A3E0A3F5F010AF08858342
:10048300198582188008858319858218D2AFD08296
:10049300D083D0E0F8D0E032120B3DB90003020460
:1004A300DAE49003017841791C8002F0A3D8FCD9E7
:1004B300FA7A417B1E900086787D79018015E4935A
:1004C300A3AD82AE838A828B83F0A3AA82AB838D92
:1004D300828E83D8E9D9E77582B87583AA7404122A
:1004E30008467582F7758320740012084675F0106C
:1004F3008E1A8F1B85821F85831E8518828519831B
:10050300E0CEA3E0CF851F82851E83EBC9EAC8ED49
:10051300CBECCAC3E833C8E933C9EA33CAEB33CBFC
:10052300C3EA9EF51DEB9FF51CB35004AB1CAA1D3B
:10053300EC33CCED33CDD5F0DAAE1AAF1B22C0E0ED
:1005430074EF1203E4A2AFE433FED2AF90052CE0C4
:10055300F8A3E0F9E849602990052EE0F508A3E047
:10056300F509E4F50AF50B780812086490052CE008
:10057300FAA3E0FB90052BE0F9121B517404120857
:100583007F758900C2C5EEA2E092AF7F04020443E7
:10059300D083D082ECC0E0EDC0E0E493A3FCE4930D
:1005A300A3FDED4C600D12066BEC24FFFCED34FF54
:1005B300FD80EFE493A3FCE493A3FDED4C600D12E7
:1005C3000708EC24FFFCED34FFFD80EFD0E0FDD005
:1005D300E0FCE493A3C0E0E493C0E02285198385A3
:1005E3001882E0A3FEE0A3F5207808E0A3F608DF75
:1005F300FAE0A3FFE0A3C0E0E0A3C0E0E0A3C0E013
:10060300E0A3C0E0E0A3C0E010AF088582188583B3
:10061300198008858218858319D2AFD083D08202CE
:10062300084CD083D082E9C0E0E493A3C386F0C52D
:10063300F095F0F908E493A386F0C5F095F0700BFC
:10064300E493A3C3994005E9048002A3E475F0028F
:10065300A42582F582E5F03583F583D0E0F9E493B0
:10066300A3C0E0E493C0E022C0E0C3E4939608741F
:1006730001939618400FE49366700808740193661B
:100683001870007019A3A3C3E4939608740193969A
:1006930018A3A3400DD0E0D0E0D0E00205CFA3A380
:1006A300A3A3A3A3D0E0227404800474028000CC2B
:1006B300C0E0EDC0E0E518C39CCCAD1950011D109E
:1006C300AF068C188D1980068C188D19D2AF1207BE
:1006D300C8D0E0FDD0E0FC2274028000CCC0E0ED85
:1006E300C0E0E518C39CCCAD1950011D10AF068CBA
:1006F300188D1980068C188D19D2AF1207A6D0E079
:10070300FDD0E0FC22C0E0C0F088F0E493667008FE
:100713000874019366187000A8F0A3A3700BD0F0BF
:10072300D0E0D0E0D0E00205CFA3A3D0F0D0E02208
:10073300D083D082CCC0E0E493A3600612082714D0
:1007430070FAE493A3600612092E1470FAD0E0FC49
:10075300E493A3C0E0E493C0E022C0E0C0D0E8C0CB
:10076300E0E9C0E0A9A8D2AFC2C7E9A2E7E433F841
:10077300E9A2E792AFD0E0F9D0E0F8D0D0D0E032F0
:10078300C0E074F21203E4A2AFE433FED2AFC2C0FE
:10079300E5D1A2E450031216CBEEA2E092AF7F01A3
:1007A300020443CAC0E0E493A3C582CCC582C583D7
:1007B300CDC583F0A3C582CCC582C583CDC583DAFD
:1007C300E5D0E0CA22CAC0E0E0A3C582CCC582C599
:1007D30083CDC583F0A3C582CCC582C583CDC58334
:1007E300DAE6D0E0CA22C008C3E096F50808A3E021
:1007F30096420808A3E096420808A3E096450870CD
:1008030001D3D008227009080808226016181818A6
:10081300C6C333C608C633C608C633C608C633C6FE
:10082300D5E0EA22C0E0E493A3D39C5010E493A361
:10083300C39C400AD0E0D0E0D0E0020750A3A3A3BA
:10084300D0E022C09FF59FE473D09F22D083D08253
:10085300C09FE493C0E0740193C0E0740293F59FDA
:10086300227404800A74038006740280027401C037
:10087300E0F40412089AD0E0120AE82200C0D0255E
:100883001810AF08F518500C05198008F518500218
:100893000519D2AFD0D0222518F58210AF08F5186C
:1008A300400C15198008F51840021519D2AF8519A7
:1008B3008322BB0102E722C082C08389828A83BB71
:1008C3000003E08002E493D083D0822260160808FC
:1008D30008C6C313C618C613C618C613C618C6134C
:1008E300C6D5E0EA222518F8E43519F9222518FAC5
:1008F300E43519FB222518FCE43519FD22C3E0C6B3
:1009030096F608A3E0C696F608A3E0C696F608A3F3
:10091300E0C696F622251810AF08F518400C1519F5
:100923008008F51840021519D2AF22C0E0E493A362
:100933006C7009D0E0D0E0D0E0020750A3A3D0E070
:1009430022C3E09608A3E09608A3E09608A3E096E6
:10095300A2D265D03322E066701008A3E066700A65
:1009630008A3E066700408A3E06622E76670100837
:1009730009E766700A0809E76670040809E7662252
:10098300C3E096F008A3E096F008A3E096F008A36E
:10099300E096F022C3E697F60809E697F60809E61B
:1009A30097F60809E697F622C3E493960874019331
:1009B300960874029396087403939622E627F60822
:1009C30009E637F60809E637F60809E637F622702E
:1009D3000422600D18C6C333C608C633C6D5E0F477
:1009E3001822E493F608740193F608740293F60848
:1009F300740393F622E657F60809E657F60809E664
:100A030057F60809E657F622E056F608A3E056F62D
:100A130008A3E056F608A3E056F622E056F008A332
:100A2300E056F008A3E056F008A3E056F022E026D3
:100A3300F608A3E036F608A3E036F608A3E036F698
:100A430022E647F60809E647F60809E647F60809E5
:100A5300E647F622E026F008A3E036F008A3E036E6
:100A6300F008A3E036F022E4C396F608E496F6080D
:100A7300E496F608E496F622C6F4C608C6F4C60859
:100A8300C6F4C608C6F4C622C3E7960809E7960863
:100A930009E7960809E79622C3E09608A3E09608BB
:100AA300A3E09608A3E0962275D00075813F7518E0
:100AB300017519030002049BE6F008A3E6F008A3FE
:100AC300E6F008A3E6F022600C08C6C313C618C6F6
:100AD30013C6D5E0F422E0F608A3E0F608A3E0F697
:100AE30008A3E0F622CAC0E0E6F0A308DAFAD0E0F1
:100AF300FA22E8F0A3E9F0A3EAF0A3EBF022E0F88E
:100B0300A3E0F9A3E0FAA3E0FB22ECF0A3EDF0A34A
:100B1300EEF0A3EFF022E0FCA3E0FDA3E0FEA3E0F0
:100B2300FF22EAF0A3EBF0A3ECF0A3EDF022E0FA4E
:100B3300A3E0FBA3E0FCA3E0FD22E5C754F84401D6
:100B4300F5C77901222518F582E43519F58322C208
:100B5300AF75D69F0200002212084FB64300120859
:100B63004FC0430012084FCB430012084FEF43001E
:100B730012084F13440012084F85440012084FCE49
:100B8300440012084FEA440012084F5B4500120864
:100B93004FA7450012084FF0450012084F2E46009C
:100BA30012084FAF460012084F56470012084F2550
:100BB300490012084F8A490012084FB84A00120828
:100BC3004FDE4A0012084F264C0012084F604F00B8
:100BD30012084F5E510012084F29530012084FC2EA
:100BE300530012084FC3550012084F7856001208DD
:100BF3004FB1560012084F17570012084F215700E4
:100C030012084F4A590012084F895A0012084FE040
:100C13005A0012084F8B5B0012084F3B5D0012080D
:100C23004F885E0012084FA85E0012084FFD5E0059
:100C330012084FFE5F0012084F26600012084F850E
:100C4300600012084F7D610012084FF46100120822
:100C53004F07630012084F75630012084F74640056
:100C630012084FCE660012084FF7660012084F5D58
:100C7300680012084FDF690012084F366A00120835
:100C83004FE46A0012084F896B0012084FE26B00B1
:100C930012084FA06C0012084F326D0012084F91DA
:100CA3006D0012084FD36D0012084F046E00120836
:100CB3004F5B6F0012084F00800212084F32800210
:100CC30012084F6B800212084F29820212084F6DDF
:100CD300820212084F41830212084FA083021208B6
:100CE3004FB6840212084F02850212084F90870202
:100CF30012084F6A8A0212084FB18B0212084F4939
:100D03008C0212084F558C0212084F9E8C02120857
:100D13004FE08D0212084FD68E0212084F008F0249
:100D230012084F568F0212084FAF8F0212084F223C
:100D3300900212084F58920212084FDA93021208D7
:100D43004FBF940212084F09960212084F419802AE
:100D530012084F3E9B0212084F4D9B0212084FE1AF
:100D63009B0212084F249C0212084FA39C021208F4
:100D73004F209F0212084F52A00212084F2AA102CD
:100D830012084FACA10212084FE1A50212084F103E
:100D9300A60212084F6BA60212084F9EA602120863
:100DA3004F22A70212084F72A70212084FDFA802B0
:100DB30012084F03A90212084F3AA90212084F471B
:100DC300A90212084F4AA90212084F79A902120870
:100DD3004F71AB0212084F30AC0212084F5FAC02E6
:100DE30012084FE8AD0212084F7CAE0212084F8B77
:100DF300AE0212084FFEAE0212084F22B1021208D1
:100E03004F81B10212084FD5B10212084F04B40248
:100E130012084FE7B40212084FA3B50212084FB7E6
:100E2300B50212084FE4B50212084F14B6021208B5
:100E33004F1BB80212084FC6B80212084F4AB90234
:100E430012084F91B90212084F03BA0212084F5801
:100E5300BB0212084F01BC0212084F19BC02120850
:100E63004FBCBC0212084F38BF0212084FE0C00249
:100E730012084FFEC00212084F59820112084F9107
:100E8300820112084F91870112084FD78701120878
:100E93004F0D890112084F72890112084FE78A0129
:100EA30012084FF18D0112084F1C8F0112084F2FAA
:100EB300990112084FBF990112084FA99C0112080A
:100EC3004FB69D0112084F299E0112084F8D9F01B5
:100ED30012084F6CA00112084FDAA20112084F6CDE
:100EE300A40112084FF9A40112084F20A601120809
:100EF3004F48A60112084FE8A60112084FD3A701D5
:100F030012084FA0A80112084FBDA80112084FE60E
:100F1300A80112084F13A90112084F5AAB01120876
:100F23004F29AC0112084F68AC0112084FEAAC011B
:100F330012084F8BAD0112084FBDAD0112084F04CB
:100F4300AE0112084F37AE0112084F7BAE011208F3
:100F53004FCAAE0112084FCFAE0112084F2BAF019B
:100F630012084F6FAF0112084F49B00112084FAE7C
:100F7300B00112084F14B10112084F8FB1011208CA
:100F83004FF7B40112084FFAB50112084F78B701B1
:100F930012084F8EBA0112084F30BB0112084F7965
:100FA300BD0112084F34BE0112084F73BE0112086F
:100FB3004F4BC00112084F68C00112084F71C001A6
:100FC30012084F7AC00112084F85C00112084FA4BE
:100FD300C00112084F48C20112084FA5C2011208EE
:100FE3004FAFC20112084FC9C20112084FDAC30141
:100FF30012084F23C40112084FDDC40112084FF435
:10100300C50112084FC9C60112084F10C8011208C2
:101013004F14C90112084F0DCA0112084F25CA0106
:1010230012084F5CCA0112084F66CA0112084F71B9
:10103300CA0112084F8FCA0112084FD7CA011208FA
:101043004F35CB0112084F5CCB0112084F6ECB0119
:1010530012084F23CC0112084F5CCC0112084F7EBB
:10106300CD0112084FD1CD0112084FB7CE0112089E
:101073004FDECE0112084F4ECF0112084FCACF01E7
:1010830012084F26D10112084F4DD20112084F0FFB
:10109300D30112084FDDD30112084F9BD40112086C
:1010A3004F83D50112084F2DD60112084F95D60153
:1010B30012084F4AD70112084FA6D70112084FFE54
:1010C300D70112084FC4D80112084FE7D8011208FC
:1010D3004FA2D90112084FC4D90112084F25DA01D2
:1010E30012084F55DC0112084F4EDD0112084FFA6A
:1010F300DD0112084F1BE00112084F64E0011208E2
:101103004FAFE00112084F0BE10112084F69E101F3
:1011130012084F8DE10112084FB1E10112084FE6A9
:10112300E10112084F0EE20112084F53E2011208C7
:101133004FA7E20112084F00E30112084FFAE3013F
:1011430012084F98E50112084FDDE50112084F061A
:10115300E60112084F8FE60112084F02E701120859
:101163004F10E70112084F34E70112084F8AE701D5
:1011730012084FA5E70112084F60E80112084F8CCF
:10118300E80112084FCFE80112084F32E9011208B3
:101193004F40EB0112084F6CEB0112084F27EC0193
:1011A30012084F0BED0112084F9FED0112084F0A71
:1011B300DE0312084F42DE0312084F63DE031208F8
:1011C3004FA5DE0312084F09DF0312084F13DF0395
:1011D30012084F23DF0312084F5ADF0312084F038D
:1011E300E30312084FCBE40312084FAFE6031208E0
:1011F3004F51E70312084FDBE70312084F8EC1027A
:1012030012084F37C20212084F16C30212084F22A8
:10121300C40212084F42C40212084F64C5021208E6
:101223004F14C70212084F81C70212084F52C80257
:1012330012084F58C90212084FD0C90212084F0BA7
:10124300CA0212084F64CA0212084F9FCA02120848
:101253004FE8CA0212084F7CCB0212084F12CC028D
:1012630012084FE7CC0212084FBACD0212084F48BA
:10127300CE0212084F6ECE0212084F9BCE02120806
:101283004FCCCE0212084F99CF0212084FA9CF02BA
:1012930012084FFCCF0212084F09D00212084F1652
:1012A300D00212084F1FD00212084F83D002120837
:1012B3004FE1D00212084F2CD10212084F47D1023E
:1012C30012084F6ED10212084F8BD10212084F97AA
:1012D300D10212084F28D30212084F41D302120839
:1012E3004FBDD30212084FD0D30212084FE0D302EE
:1012F30012084F84D40212084FF0D50212084F038C
:10130300D70212084FA3D70212084FADD702120813
:101313004F2CD80212084F3DD80212084F7CD80236
:1013230012084FAAD80212084F77D90212084FCEDB
:10133300D90212084F07DA0212084F5DDA021208C7
:101343004F7BDA0212084FC9DA0212084F94DB020C
:1013530012084FE2DB0212084F2FDC0212084FB2D1
:10136300DC0212084FDCDC0212084F12DD02120805
:101373004F21DD0212084F80DD0212084FF8DD0213
:1013830012084F39DE0212084F89DE0212084FB4E9
:10139300DE0212084FCEDE0212084FE8DE02120808
:1013A3004FBDDF0212084FC7DF0212084F08E002E9
:1013B30012084F59E00212084F6DE00212084F8FD6
:1013C300E10212084FA4E10212084F37E2021208A9
:1013D3004FABE20212084F50E30212084F5BE302E5
:1013E30012084FBEE40212084FDAE40212084F2635
:1013F300E50212084F94E50212084FC6E5021208EF
:101403004FE0E50212084F40E60212084FDFE60202
:1014130012084F2AE70212084F7DE90212084F15FE
:10142300EA0212084F8CEA0212084FE9EC02120892
:101433004F01ED0212084F04ED0212084F10ED02A6
:1014430012084F24ED0212084F2CED0212084F63CD
:10145300ED0212084F57EE0212084FE1EE02120896
:101463004F63EF0212084FE3EF0212084FBAF00284
:1014730012084FDCF00212084F75F10212084FD226
:10148300F10212084FD5F10212084F44F20212087A
:101493004F90F30212084FA3F40212084F2EF502E5
:1014A30012084F41F60212084F08F70212084F398B
:1014B300F70212084F5FF70212084F68F70212088B
:1014C3004F97F70212084F47F80212084FF7F80236
:1014D30012084F6AF90212084F0DFA0212084F80E0
:1014E300FA0212084FBFFA0212084F08FB02120851
:1014F3004F42D30312084FAFD30312084FFBD3035A
:1015030012084F4DD40312084FCDD40312084FCA0B
:10151300D60312084FDDD80312084F16DC03120856
:101523004F45DC0312084F63DC0312084FCDDC0385
:1015330012084FF5DC0312084F28DD0312084F5D34
:10154300DD0312084FBFDD0312084F9FB6041208D4
:101553004FE4B60412084FF4B60412084F5EB70402
:1015630012084FB03C0012084F0BA50412084F7D20
:10157300A50412084F8BA60412084FB7A60412083D
:101583004F2DA70412084FB1A70412084F60EE01B4
:1015930012084FDCEE0112084F0AEF0112084F4FF9
:1015A300EF0112084FB0F00112084FCCF0011208FE
:1015B3004F02F10112084F7BF10112084FC9F101EB
:1015C30012084F59F20112084F51430012084F827B
:1015D300F30112084FE7F30112084F5AF4011208FE
:1015E3004F9EF40112084FF6F40112084F18F5014B
:1015F30012084FA8F50112084F39F60112084F716E
:10160300F60112084F9AF60112084FDBF601120891
:101613004F7CF80112084F5EF90112084F3AFA01A4
:1016230012084F5CBF0412084F6DBF0412084FF736
:101633007F0012084FA1BF0412084FF2BD04120825
:101643004F02BE0412084F17BE0412084F60BE04B7
:1016530012084FE8B80412084F6CB90412084FD2AD
:10166300B90412084FFA7F0012084FF0FF02120864
:101673004FF3FF0212084FF6FF0212084FF9FF0261
:1016830012084FFCFF0212084F1A9B0412084F283E
:101693009B0412084FA19B0412084F769C04120866
:1016A3004F489E0412084FF8BE0412084F14FB0162
:1016B30012084F81FB0112084F39FC0112084F2C0D
:1016C300FD0112084F89FE0112084FDFFE011208C7
:1016D3004F3AFF0112084F43FF0112084F55FF0114
:1016E30012084FBCFF0112084FCFFF0112084F84AD
:1016F300F90312084FB0F90312084F46FC0312080E
:101703004F86FC0312084FC2FC0312084FD6FC039A
:1017130012084FEFFC0312084FE0FD0312084F922B
:10172300FE0312084FA6FE0312084FE0B30412088B
:101733004F04B40412084F1DB40412084F5BB404E1
:1017430012084F91B40412084FC4B40412084F3066
:10175300B50412084F33B50412084F3DB5041208FF
:101763004F4AB50412084F0CA80412084F2FA804BF
:1017730012084F7AA80412084F98A80412084FB30E
:10178300A80412084F19A90412084F25A904120826
:101793004F82A90412084FA6A90412084F6CAA0489
:1017A30012084F79AA0412084F8AAA0412084F6D2F
:1017B300BD0412084F85BD0412084FB1BD041208C1
:1017C3004F85FB0212084FE3FC0212084FF1FC02A3
:1017D30012084F05FD0212084F22FD0212084F376F
:1017E300FD0212084F4AFD0212084FCCFD021208F7
:1017F3004F31FE0212084FC7FE0212084FA0FF022C
:1018030012084FB0FF0212084FBFFF0212084FA287
:10181300BB0412084FC6BB0412084FEEBB041208E8
:101823004F16BC0412084F91AF0412084FB8AF040F
:1018330012084FD6AF0412084F4BB00412084F0BD7
:10184300A20412084F24A20412084F3BA204120858
:101853004F44A20412084F5CA20412084F66A2046C
:1018630012084F70A20412084F83A20412084F0DEE
:10187300A30412084F82A30412084FB0A304120852
:101883004F04A40412084F50A40412084F6BA4047D
:1018930012084F75A40412084F9BA40412084F00AA
:1018A300A50412084FEBBA0412084F0DBB0412082B
:1018B3004F87BF0412084F8AE80312084FB6E803A4
:1018C30012084FD9E80312084FECE80312084F0738
:1018D300E90312084F6BE90312084F99E903120851
:1018E3004FA6ED0312084FFBEE0312084F2DEF0333
:1018F30012084F98EF0312084F18F10312084F40D4
:10190300F10312084F55F10312084F65F103120852
:101913004FA5F10312084FE7F10312084FF7F10344
:1019230012084F54B50412084F64B50412084F88C7
:10193300B50412084FB1B50412084FDBB504120801
:101943004FFFB50412084F16B60412084F44B604ED
:1019530012084F67B60412084FB4BE0412084F743E
:10196300970412084F84970412084FA29804120890
:101973004FD6980412084FF8980412084F20990480
:1019830012084F39990412084F75990412084FD75A
:10199300990412084F1C9A0412084F619A04120802
:1019A3004F8E9A0412084FC69A0412084FC2B1040C
:1019B30012084FE2B10412084FC7B20412084FB025
:1019C300B30412084F3BBC0412084F78BC0412083E
:1019D3004FBABC0412084FCABC0412084FD4BC044B
:1019E30012084F00800412084F0A800412084F4463
:1019F300800412084FAD800412084FCC80041208F3
:101A03004F6E810412084F77810412084FC8810476
:101A130012084FF1810412084FFE810412084F6F20
:101A2300820412084FFD820412084F4B83041208EC
:101A33004F81830412084FE2830412084F0A84047F
:101A430012084F81840412084FDD840412084F20CA
:101A5300850412084F5D850412084F6F8504120830
:101A63004F81850412084FA0850412084FA98504ED
:101A730012084F77860412084FC3860412084FBA20
:101A8300FE0312084F4CAD0412084F82AD04120836
:101A93004FD1AD0412084F2AAF0412084F7BB30392
:101AA30012084FACB40312084FE8B40312084FA254
:101AB300B60312084FCCB60312084F45B9031208F8
:101AC3004F85B90312084F1ABB0312084FB9BB0362
:101AD30012084F11BC0312084F97BC0312084FCFD3
:101AE300BC0312084F11BD0312084F82BE03120834
:101AF3004F02C00312084F43C20312084F71C203BF
:101B030012084F9DC20312084FA6C20312084FFCCE
:101B1300C20312084F8CC30312084FCAC60312082C
:101B23004F4CC70312084FD77F0012084FED7F00B9
:101B330012084F69BE0412084F988F0412084FAD64
:101B43008F0412084F60900412084FA090041208EB
:101B53004FB9900412084FEC900412084F399104C6
:101B630012084F6D910412084FAF910412084FA54C
:101B7300930412084FEBB90412084F4ABA0412082F
:101B83004F88BA0412084FC9BA0412084F409E0383
:101B930012084F859E0312084F109F0312084F75BA
:101BA300A00312084F52A10312084FCDA10312083C
:101BB3004F1EA20312084F8FA20312084FD3A20392
:101BC30012084F13A30312084F1FA40312084F7ADE
:101BD300A40312084F9DA40312084FEDA403120897
:101BE3004F26A50312084F45A50312084F90A503DE
:101BF30012084FB0A50312084F6BA60312084F50EB
:101C0300A70312084FABA70312084FEBA703120851
:101C13004F07A80312084F83AA0312084F9FAA0372
:101C230012084F1BAB0312084F40AB0312084FC1FE
:101C3300AB0312084F9DAC0312084FEAAC03120822
:101C43004F4EAD0312084F04AE0312084F07AE0305
:101C530012084F11AE0312084F1BAE0312084F1E9A
:101C6300AE0312084F9EAE0312084FD7AE031208FD
:101C73004FEAAE0312084F11AF0312084F35AF03FB
:101C830012084F70AF0312084FE3AF0312084FE679
:101C9300AF0312084FF0AF0312084F31B00312081D
:101CA3004F5AB00312084F7AB00312084FC3B00360
:101CB30012084FFAB00312084FFAB10312084F2962
:101CC300B30312084F48B30312084F8A7F00120868
:101CD3004FA27F0012084FDFB70412084F27F20309
:101CE30012084F76F20312084F34F40312084FEF31
:101CF300F50312084F2DF60312084F5CF703120881
:101D03004F67F80312084F89F80312084FD3F803FB
:101D130012084F54F90312084F00800312084F1F93
:101D2300800312084FB1800312084FFA8003120890
:101D33004F54810312084FC6810312084F338203A5
:101D430012084F84820312084FF8820312084F7F50
:101D5300830312084FF7830312084F3484031208D6
:101D63004F6D880312084FC08A0312084F448B0338
:101D730012084FBB8B0312084FFC8B0312084FDE74
:101D83008D0312084FE38F0312084FAD900312081F
:101D93004F48930312084FB4930312084FC194039F
:101DA30012084FDE970312084FEE970312084F866F
:101DB300990312084F0A9A0312084F349B0312081F
:101DC3004FA49C0312084FE29C0312084F929D03F9
:101DD30012084FB76F0012084F57700012084FC414
:101DE300700012084F83710012084FE2710012084D
:101DF3004F90720012084F52750012084F6A760016
:101E030012084FE0760012084FC2780012084F64A0
:101E1300790012084F097A0012084F917B001208CB
:101E23004F9F7C0012084F2C7D0012084F4C7E0000
:101E330012084FA9C70312084F0EC80312084F56C2
:101E4300C80312084FA9C80312084F06C903120892
:101E53004F5CC90312084FD7C90312084FE8CA03DE
:101E630012084F10CB0312084FF6CB0312084F078B
:101E7300CC0312084F1FCC0312084F24CD031208C2
:101E83004F6ECD0312084F77CD0312084F8ECD034B
:101E930012084F9FCD0312084FD2CD0312084FE90A
:101EA300CD0312084FD1CE0312084F86CF03120879
:101EB3004F98CF0312084F9AD00312084F85D103CE
:101EC30012084F27D20312084F97D20312084FACC0
:101ED300D20312084FAD9E0412084F68A0041208E3
:101EE3004F30A10412084F85A10412084FB2930486
:101EF30012084FD0930412084F14940412084F3A57
:101F0300940412084F61940412084F799404120840
:101F13004F91940412084F34950412084F76950498
:101F230012084F98960412084FA1960412084FAA5C
:101F3300960412084FB3960412084FBD9604120874
:101F43004F01870412084FF58A0412084F038B04CC
:101F530012084F088B0412084FD9AB0412084F30F4
:101F6300BF0412084F6F8B0412084FD7BC0412082A
:101F73004F01BD0412084FD9FF0112084F743C00F2
:101F830012084FF03B0012084FC23A0012084FB23A
:101F93003A0012084F203A0012084F043A00120880
:101FA3004FE6390012084FCE380012084FA9380007
:101FB30012084FB9370012084F1E370012084FACF2
:101FC300360012084F87360012084FA33500120857
:101FD3004F81340012084F2C340012084F5933003C
:101FE30012084F93320012084F57320012084FEA7B
:101FF300310012084FE2310012084F573100120826
:102003004FE7300012084F38300012084F464300A4
:1020130012084F2D300012084F1E430012084F13B1
:10202300430012084FA6420012084F9C42001208B8
:102033004F83420012084F79420012084F6F42004B
:1020430012084F65420012084F1E300012084FFD60
:102053002F0012084FC92F0012084F5B42001208CD
:102063004F9D2F0012084F6F2E0012084F632C0054
:1020730012084F342C0012084F47420012084F1821
:102083002C0012084F31F30112084FA82B0012083D
:102093004FDB2A0012084F5F2A0012084FB72900AE
:1020A30012084F10290012084FB2280012084F8758
:1020B300280012084F38280012084FFA2700120888
:1020C3004FD7270012084FBE270012084F7627006C
:1020D30012084FC0260012084F34260012084F8AF8
:1020E3003E0012084FC8250012084F712500120840
:1020F3004F7CB70400000080FBE473000136360117
:1021030001000102010001030100010401060605AB
:10211300020000070100340801000F090401010D4A
:102123000100FF0E08000017020000190100FF1A4A
:102133000100011B0100FE1C0100081D0200001F1D
:1021430001000120010001210200002301000F24EE
:102153000200002601000127010008280200FF2ACF
:102163000100072B0102402C0100002D0100012E6C
:102173000100012F0100FF30010B1D310800003A5F
:102183000100083B01000F3C0100013D0100FF3E3F
:1021930004000042040000460400004A0400004E0C
:1021A30004000052040000560400005A0400000119
:1021B300037103010301030103010301032203026A
:1021C30003010310030003000300030003000300E3
:1021D3000300034203000324030603000300030474
:1021E300031203250323032503230304030403002A
:1021F30003000300034403000300032303000365F8
:1022030003210035038103000305030003000300DA
:102213000300032503230303047104020460041170
:1022230004700402040204010402041004610400A3
:102233000414046304730472046204430400041367
:10224300040604000400040404120400040004004F
:102253000400045104640000040004000444040066
:1022630004000400040004650400043504810464CC
:1022730000050400048304000403027102300160BA
:1022830002110270020102020202028002100261C4
:10229300023A0041006302730272026202430200C7
:1022A30002130238000002000204021202000200BC
:1022B300020002000204020402370037003C024419
:1022C30002000239000002000265020002350281A9
:1022D3000200020502820283020002030071003041
:1022E30001600011007000310220035004800010CF
:1022F3000061000000140063007300720062004379
:10230300000000130006000000000004001200009B
:102313000000000000000004000400370037003C08
:1023230002440000000000000000006500000035CA
:10233300008100000005000000830000000101711E
:1023430001010101011101010131010101010180BB
:1023530001100161013B001400630173017201620A
:102363000143010001130106013D0135000401127F
:1023730001000100010001000104010401330133E4
:10238300013C0144013201360000010001650100F6
:10239300013500810100010501820183010001363D
:1023A300000100060000000F000000000000000014
:1023B300000000000003FFFF00000403FFFF000014
:1023C300FFFF0FF4010005C4040320000100000B0C
:1023D300000000000000000003010F0000000000E7
:1023E30000000000000000000000000000000000EA
:1023F300000000000000000000000000000A0000D0
:1024030000020000000400000008000000100000AB
:1024130000200000004000000080000000000100D8
:10242300000002000000040000000800000010008B
:102433000000200000004000000000F11D1300799F
:102443001D1F007F1D1F80851D0100F11D02003D22
:102453001D0300431D0400491D05004F1D06005BBD
:102463001D36006D1DFFFF000001B50E06E50E08C9
:10247300DF0E0BF10E10690C02BB0E05D30E07C164
:102483000E0C9D0E0DA90E64D11FFF000007ECFD7D
:10249300FDFDECDCDCCCBCACAC9C9C8C7C7C6C6C27
:1024A3005C5C5C4C4C3C3C2C2C1C1C00160F000050
:1024B3000B150B020002220F3300000E0103050768
:1024C300090B0D0F00020406080A0C0D5A69674236
:1024D3006565416C6C69616E63653039140AE5D5D5
:1024E300C5B5A5A5958585756530301718192130B3
:1024F3001B1D1F3000034A49434E181A25050200CD
:10250300011916181616182303000C0E020B040BE0
:102513000A0708000F00393D3F373C3C362C442D59
:10252300303016181920231A1C1E30020402010130
:102533000101090200000000000000BE040AE803D4
:102543000000DF24FA067F00E8030E009024000059
:1025530000000C0810280A0303080900040009FFFF
:102563001E1E0305010C040405081500FF0CC082A0
:10257300C0837900126464C082C083900301125D3A
:1025830018D083D082C3E09CA3E09D500DEA240BB6
:102593001225C01225A060027901023A19EA75F0EA
:1025A3000BA4FAA8F075F00BEBA428FB900303E04F
:1025B3002AF8A3E03B8882F583E0540F22F582E4F6
:1025C3003B124F582274F712037889081246671298
:1025D3002906ACF075F00BE9A42CF9900303E0286D
:1025E300F8A3E039F9E8FEE9FF74016508600674B1
:1025F30002650870228A828B83122ABC74026508E2
:102603007021EA2403FA50010B1220C1E970148EE1
:10261300828F83E4F0800CEA2403FCE43B122AB3A8
:102623001220C78E828F83E0D2E7F0121C59024238
:102633005674F4120378122B8D79008E828F83E007
:102643006078890A890B8063E50A75F00BA4FAA800
:10265300F075F00BE50B1225AC7048E50A75F00B2D
:10266300A4F8AAF075F00BE50B122AD08E828F83A3
:10267300E0850882850983123C5A122A31EE24032D
:10268300FCE43F12276B1220C712446BE50AF0A348
:10269300E50B1237A6D2E7F0121C5979019003011A
:1026A300123525050AE50A7002050B90030112563F
:1026B3005BC3E50A9AE50B9B408E0237B074F512B3
:1026C3000378EAFEEBFF750A01740B120B481261E3
:1026D30075EC4D6015EC1253253D122B9B790112BD
:1026E30020E5E508450960758023E5084509604450
:1026F3001253233509122B9B12276C1220C1E96454
:1027030001701BEEFAEFFB1220D9E9F50A85088266
:10271300850983122A297902AA08AB098011122A92
:10272300B41220C1E9640170347903EEFAEFFB12AD
:1027330020E580298E828F83A3E064FE7003A3E0EB
:10274300F4700B122AB41220C1E96401700CEEFA82
:10275300EFFB1220D9E9F50A8003750A000230E085
:10276300E50A2403FCE4350BFDE5082403FAE4350C
:1027730009FB2274F712037890030112459BEA4B7D
:10278300602FEA75F00BA4FAA8F075F00BEBA42800
:10279300FBEAFEEBFF121A9190030312459B900391
:1027A300031243B06012EEFCEFFD79001219F580BD
:1027B30007900303E4F0A3F0024256C082C083EC07
:1027C3004D6005121B8780097C087D007900121972
:1027D300F5023A19C082C0837900EA4B601678008B
:1027E300E8FCEA2C12467360047901780808E8C310
:1027F300940840EC023A1974F712037874F312093F
:1028030018ECFEEDFF851882851983E4F004120BA2
:1028130048EAF0A3EB12490B1220A37403120B48EE
:10282300AC82AD83EEFAEFFB1220C7EEFAEFFB1298
:1028330020C102425174F712037874F3120918ECA1
:10284300FEEDFF851882851983E4F0EAFCEBFD7445
:1028530003120B48AA82AB831220C7AA18AB191222
:10286300209D7401120B48123C6B8E828F8312459C
:102873005774FE68700374FF6960047901800279FC
:102883000002425174F7120378EAFEEBFF1220EBC9
:10289300E9F5087401650870111228F1F4FA8882C9
:1028A3008983E05A4480F0121C59A90802425674E5
:1028B300F7120378EAFEEBFF7508008E828F83E040
:1028C300602A1220EBE9F50874016508701E1228CE
:1028D300F1FA88828983E05A70128E828F83E044F2
:1028E30080FA88828983E04AF0121C5980BC124323
:1028F3000EF8122906122BFDF8A3E039F98E828F08
:1029030083E022A3E0F9E875F00BA4F82274F41233
:1029130003788A088B097C007D00EA12276E122057
:10292300C7E508122A4B7900850882850983A3E04D
:1029330064FE7003A3E0F460787E007F008065EEA0
:10294300FAEFFB1225A06057EEFAEFFBEA75F00BE6
:10295300A4FAA8F075F00BEBA428FB900303E02A7C
:10296300F50AA3E03BF50B85088285098312565AC5
:10297300850A82850B83A3E06A7003A3E06B701F53
:10298300E50A2403FAE4350BFB1220C1E964017064
:10299300061227631220C7122A407901125E7F0EA6
:1029A300EE70010F90030112565BC3EE9AEF9B404A
:1029B3008E0237B074F31203788A088B098A828BEC
:1029C30083122A29EA122A4B750C00EA12276E1287
:1029D30020C1E9640170477E007F00803C122BEF29
:1029E300FAA3E0398A82F583E0540F6027122BEFB4
:1029F300F50AA3E039F50B122763121B81E9640181
:102A03007012850A82850B83122A31122A40750CB3
:102A130001125E7F0EEE70010F122C0C40BFA90C49
:102A23007F050205DFA3A374FEF0A304F022A31223
:102A33004242850882850983A3123AAC22E5081233
:102A43002A55EEF0A3EFF022122A5574FEF0A304E8
:102A5300F022240BF582E43509F5832274F5120381
:102A630078EAFEEBFF8E828F83122A297C007D0099
:102A7300122AB41220C7EEFAEFFB1220EBE9F50A93
:102A83007401650A702712423B122AC4850882F535
:102A930083122ABC12276C1220C1E96401700EE56F
:102AA300082403FCE43509122AB31220C70230E0DC
:102AB300FDEE2403FAE43FFB22A3125669123AAC5B
:102AC30022E875F00BA4F8AAF075F00BE9122C03B9
:102AD300F508A3E039F5092274F212037874E612BB
:102AE3000918122B8D750A01750800750900750CFC
:102AF30000750D00851882851983E4F0EE2403FC2C
:102B0300E43FFD7403120B48AA82AB831220C7AAC9
:102B130018AB1912209DE96401701F740B120B4846
:102B2300122B9D7401120B481256637003A3E069C4
:102B3300604AA818A91988088909740D120B48124C
:102B43003C59A3123C6B740E120B48124557740D7B
:102B53001208F01220A3E964017009740D1208E849
:102B6300880C890D780C12086CAC08AD09EEFAEFED
:102B7300FB1220D3740212087FE9F50AEEFAEFFB89
:102B83001220A9A90A741A02447DEAFEEBFF12443B
:102B93006F74FEF0A304F022F583125649F9124430
:102BA3006F123AAC22C082C0837800790080050896
:102BB300E8700109900301123583E99B5029E8FA73
:102BC300E9FBEA75F00BA4FAACF075F00BEBA42C5F
:102BD300FB900303E02AFCA3E03B8C82F583E054E3
:102BE3000F70CC790080027901023A19EEF8EFF9FF
:102BF300E875F00BA4F8122BFD22AAF075F00BE98F
:102C0300A42AF9900303E02822900301124242C34D
:102C1300EE98EF9922C082C08390256DE49375F0FE
:102C23001CA4FCADF079FF7A437B0A1219F5023A32
:102C33001974F7120378E9FCEAFD7A007B0080102F
:102C4300EB12328E9C4008E0F8EDC39840010A0B6A
:102C530090256DE493F8EBC39840E57B0002425660
:102C630074EC12037874F31209188A0C8B0D8C0818
:102C73008D09890AEC45096016AA08AB09122013CD
:102C83008A0E8B0FAE0EAF0FEE4F6003022D617AEB
:102C93000080010A90256D1255A0500F122E567018
:102CA300F2744328FE740A39FF80047E007F00EE2D
:102CB3004F7003022E0A902551122E2760257403AC
:102CC300650A60067404650A70197A047903122090
:102CD300738A0E8B0F90256DE493F8902551122E75
:102CE30040502D902553122E27602C7401650A60E5
:102CF300067402650A70207A0279011220738A0E23
:102D03008B0F90256DE493F8902553122E404007C6
:102D13007A007B00022E228518828519837401F0C4
:102D2300120B48E50CF0A3E50DF0AC08AD097403F4
:102D3300120B48AA82AB831220C7AA18AB19122020
:102D430091740B120B48123AA58E828F83A3A3A30F
:102D5300A3A3A3E4125D14AA0CAB0D121113780004
:102D6300E50A6007C39405500278048E828F83E5D9
:102D73000CF0A3E50D123151A3A3E50AF0E88E820E
:102D83008F83A3A3A3A3A31259265001097A027B1D
:102D93000012022812355EA312389812358AE50A0A
:102DA300605BC394035056901EABE07018902400F0
:102DB300780C1209E5123535120ABB902400780C01
:102DC3001209E58027F508750900740278081209CD
:102DD300D2122E311209E59082117810120AD97895
:102DE3000C7910120289123535120ABBEE24131224
:102DF3003538120ABBEE241B12591D8009123541C6
:102E0300122A2CA3F0A3F07A047900122073123152
:102E1300424005901E42E4F0120FE7EEFAEFFB7416
:102E23000D023A93E493F8740193F9E8492274008C
:102E33002508F58274243509F583780C22E493FA86
:102E4300740193FBE8C39AF8E49BF9C3E50E98E594
:102E53000F9922EA122E5CF42275F01CA4F8A9F053
:102E6300744728F582740A39F583E02274EE12035D
:102E73007874F3120918EAFEEBFF8C108D117508B4
:102E830000AA10AB11122013EA4B7003022F8A8A97
:102E9300828B83E06E7003A3E06F7003022F8A8A34
:102EA300828B83A3A3A3A3E0C394054003022F8AC9
:102EB3008A828B83125E6DE060728A828B83A3A306
:102EC300A3A3E0C394035064901EABE0702190244D
:102ED3000078081209E5122F91120ABB902400789A
:102EE300081209E5EA2413122F94120ABB8030F565
:102EF30008750900740278081209D2122E311209DA
:102F0300E59082117808120AD9780C79081202899F
:102F130012367B120ABBEA241312367E120ABBEA6C
:102F2300241BF582E43BF583E4F0801B7508FE75F2
:102F330009FF750AFF750BFF122F91120ABBEA24D2
:102F430013122F94120ABB750800750900750A0045
:102F5300750B00EA240C122F94120ABB8518828584
:102F630019837401F0120B48EEF0A3EFF0AC10AD2F
:102F7300117403120B48AA82AB831220C7AA18ABA1
:102F830019122091750801A908740D025E65EA24DF
:102F930017F582E43BF58378082274F6120378125E
:102FA30020498A088B09A808A909E849601488827E
:102FB3008983A3A3A3A3E06009C394055004790103
:102FC30080027900802F74F61203781220498A0850
:102FD3008B09A808A909E849601488828983A3A3F7
:102FE300A3A3E06009C3940350047901800279002C
:102FF300800312087F7F020205DF74F61203781242
:1030030020498A828B83E5824583600BA3A3A3A314
:10301300E0700479018002790080DAC082C083EA1B
:10302300FCEBFD7A007B00023A16C082C0837C0071
:103033007D00023A1674F512037874F3120918EA44
:10304300FEEBFF8C088D09C3EC94F8ED94FF40046C
:10305300EE4F6065750A00801974FF65087004748B
:10306300FF6509600B12645E7004A3E06509603BB1
:10307300050A90256DE493F8E50AC398503BE50AE9
:10308300122E5760EBEE4F60D01230C7120B48126E
:103093004907122097E960D87403120B48AC82AD3C
:1030A30083EEFAEFFB121B81E960C5E50A75F01C9C
:1030B300A4F8A9F012328580047A007B00740D1203
:1030C300087F801B8518828519837401F074452855
:1030D300F582740A39F583124242740B22A90A7FDE
:1030E300030205DF74F412037874F31209187508E8
:1030F300001220138A0A8B0BAE0AAF0BEE4F60252A
:1031030085188285198312314F1230DA120B481257
:1031130049071220AF7C1C7D0079FFEEFAEFFB120A
:1031230019F57508017A047900122073123142509F
:1031330009901E427401F0120FE7A9080237AB9001
:10314300256DE493F8C3EA98EB9400227401123CD2
:103153005EA3A32274F7120378E9FE74FE6A700378
:1031630074FF6B7C00700380240C1231BA501EEC88
:10317300122E5760F41233547003A3E06B70EA808D
:103183000BEC1231CF6019E0640360140C1231BAF6
:10319300501EEE60ECEC1231C460F1C3940550ECA8
:1031A300EC75F01CA4FCADF01269D412565B8004DC
:1031B3007AFE7BFF02425690256DE493F8ECC398A8
:1031C3002275F01CA4F8A9F0122E632275F01CA43A
:1031D300F8A9F0122E63640122121FFB023A19C0F0
:1031E30082C083790180F274F01203788A0A8B0B10
:1031F3007A0479011220738A0C8B0DEA450D604025
:10320300EA2AFAEB33FB121A918A088B09AE08AF4C
:1032130009EE4F60267AFE7BFF121FF574FE6A707B
:103223000374FF6B601E85088285098312459BE545
:10323300082402F50850E2050980DE750C008004BD
:103243007E007F00850A82850B83E50CF0EEFAEFA2
:10325300FB02351BC082C0837C008009EA24FF1A6D
:10326300EB34FFFB0C1231BA5011EC12328E940581
:1032730050F2EA4B70E612328580047A007B00023A
:103283003A19744328FA740A39FB22122E5CC322BA
:1032930074F712037874F31209187E00807DEF75BA
:1032A300F017A4F8A9F012334512565BEE75F01C23
:1032B300A4F8A9F01233547003A3E06B603DEF75DB
:1032C300F017A4F8AAF0EAF9123345123C6B740123
:1032D300120B48E0687003A3E069601FEF75F017F5
:1032E300A4F8EAF9749128FC740C39FD7403120BE9
:1032F30048AA82AB83121B81E96013EF75F017A410
:10330300F8A9F0748F28FA740C39FB12111F0F906F
:103313002557E493F8EFC39840840E1269C1501FF8
:10332300EE126F35F47003A3E0F460EE1230C712AF
:103333000B48124907122097E960DF7F0080D00213
:10334300425112334922748F28F582740C39F58364
:1033530022126F406A2274F412037874F31209186C
:103363007E0080389082017808120AD9EE75F01C2D
:10337300A4F8A9F0745628F582740A39F5837808FD
:1033830012095960169082457808120AD9EE75F031
:103393001CA4F81234217808120A570E1269C1507E
:1033A3007AEE1231C460F4C3940350EF1234211245
:1033B3000B01E8494A4B70AC901EAAE06401702DE2
:1033C3009004091243B06025EE75F01CA4F8A9F02F
:1033D300744328F8740A39F91234771206AA8882DA
:1033E300898312350C1220FC740412087F8518821D
:1033F3008519837401F0EE75F01CA4F8A9F012305E
:10340300D0120B48124907122097E9608E740312F9
:103413000B48AA82AB8312200180800237AB745A17
:1034230028F582740A39F5832274F6120378122080
:10343300498A088B09A808A909E849603288828962
:1034430083A3A3A3A3E06023C39403501E12347782
:10345300120B19E82417F582E439F583120B0DE8F2
:10346300241BF582E439F5837401F0790180027934
:1034730000022FF8E82413F582E439F5832274F06F
:10348300120378EAFEEBFF9004031243B0607290DC
:1034930004091243B0606A90040D1243B0606212D3
:1034A300684D1220FCE97059901EABE0700A90241D
:1034B3000078081209E58028F50875090074027878
:1034C300081209D2126A2F742412682E780812097E
:1034D300E5908211780C120AD97808790C120289C6
:1034E30078081208641235061220FC740412087F4F
:1034F300E96401700C8E828F83A3A312683B1220B0
:10350300FC80158E828F83A3A3124F5A9004091255
:10351300684522740D12087F7F080205DF125D1CC7
:10352300EC22E0F50AA3E0F50B22E493F8E508C3E7
:103533009822EE2417F582E43FF583780C221235A6
:103543005474FEF0A304F0A3F0A3F0123E6874FEDB
:1035530022EE2417F582E43FF58322E88E828F83DF
:10356300A3A3A3A3A3A3A3A31242167401124216F7
:10357300A374AAF0EE2410F582E43FF583E4F0226D
:10358300124F5AC3E89A22A3F012446FE4F0EE24D8
:103593000CF582E43FF583E4F0A3F0A3F0A3F0225B
:1035A30074F012037874F3120918EAFEEBFF7A023F
:1035B3007901122073EA8E828F83F0700302366ED4
:1035C30075F00CA4FAABF0121A918A088B09EA453C
:1035D300097003023674AE08AF09750A00801C90A7
:1035E30082451206AAEEFAEFFB121A73740412084C
:1035F3007F8A0C8B0DAE0CAF0D050A90256DE493FD
:10360300F8E50AC398506AE50A1231CF6005E06411
:103613000270E61230C7120B48124907122097E9CD
:1036230060187403120B48AC82AD83EEFAEFFB1201
:103633001B878A0C8B0DAE0CAF0DE50A75F01CA42D
:10364300F8A9F0745E28F582740A1266AC640170FE
:103653008E123285EA241312367E120AD912367B71
:10366300120900780C1208640235E8750800750920
:1036730000AA08AB09023516EA2417F582E43BF5E4
:1036830083780C22C082C08390030C74CDF0A374A2
:103693000EF090030E74C7F0A3740EF0900312742F
:1036A3005BF0A37420F0023A1974F7120378EAFE70
:1036B300EBFF90037DE06408601FE06404601A8EF2
:1036C300828F83E054036401704412430AF8A3E039
:1036D300F5838882E0640670358E828F83A3A3E02E
:1036E30064FE7003A3E0F460258E828F83A3A3128C
:1036F3005D257003A3E0697008EE2415125D0C606C
:1037030005120F7B8003120F81E9F508800375080A
:10371300C2EEFAEFFB121A970228AD74F412037883
:103723008A088B098A828B83E0FAA3E0F8EA28FAF5
:10373300E43400FB121A918A0A8B0BAE0AAF0BEE2C
:103743004F605A850882850983E0FC7D0079001269
:1037530019F58E828F83122A28120FB78E828F83D8
:10376300A3A3A3A3EAF0A3EB1237A6F8EE28F8E489
:103773003F122BA0850882850983A3E0C0E012597C
:1037830010D0E0F0120FC9EE240EF582E43FF5836A
:10379300E9123BE6E0C0E0123A9BD0E0F0EEFAEF2C
:1037A300FB800A123BDEE022740D12087F7F0402C5
:1037B30005DF741880F474F412037874E81209189E
:1037C300EAFEEBFF9003051243B060030238937ADD
:1037D300077B00121A9190030512459B9003051273
:1037E30043B0700302388F8E828F83120B019003D4
:1037F30005E0FCA3E0F5838C82120AF5EE2404F5C0
:103803000AE43FF50B850A82F583E0C0E0900305E7
:10381300124F2FA3A3A3D0E0F0EE2405F508E43F55
:10382300F509850882F583E0C0E0900305124F4057
:10383300D0E0123898E0C0E0900305125649C8243E
:1038430006F582E438F583D0E012389D1219F58E1F
:10385300828F83120B01851882851983120AF585DD
:103863000A82850B83E0C0E07405120B48D0E01296
:1038730037A6C0E07404120B48D0E0F07407120BB3
:1038830048E412490B121F11E9F9800679108002EE
:1038930079010237B51262EFA322F07C187D00791B
:1038A30000AA18AB1922C082C0839003051243B04B
:1038B300601090030512565B121A97900305E4F00B
:1038C300A3F0120EEB1210C5023A1974F412037826
:1038D30074E81209188A0A8B0BECFEEDFF89087451
:1038E30028120B48E0FD7429120B48E0FC740F6D9D
:1038F3007005740F6C6012901EA6E064026005ED03
:10390300C39C500579C10239E37424120B48120B8E
:103913000190037E120AF5E508900384F0ED90030D
:1039230082F0ECA3F0742A120B48E0900385F07444
:10393300FF650A700474FF650B7024901EBAE0F4EF
:103943007003A3E0F4700C121A0190037BEAF0A356
:10395300EB8015901EBA1266C2E8F0A3E9800990C5
:10396300037BE50AF0A3E50BF0EE4F6017EEFAEFE9
:10397300FB121179E96401700BEEFCEFFD7A8F7B8A
:1039830003121B8790036EE4F0A3F0900371F0A37E
:10399300F090038EF0901EA6E064027008900382FC
:1039A300740FF0A3F090037D740512389D1219F57E
:1039B3007404120B48E4F090037E120B0185188205
:1039C300851983120AF5900384E0C0E07405120B95
:1039D30048D0E0F07407120B48E412490B121F1190
:1039E3000237B574F7120378E990030BF07A807B02
:1039F300009003C8E0F9121B5D121F957900024283
:103A030056C082C08390030BE07003121D73121F14
:103A1300958003122007D083D08202084C74F012E1
:103A2300037890030BE0901E41700FE0600579006E
:103A3300121C23901E41E4F0804AE0640160089068
:103A4300030BE0F9121C23901E417401F090030B49
:103A5300E0F46030E0F50CE4F50DF50EF50FF090B1
:103A630082257808120AD9780C7908120289780C11
:103A73001208647A807B009003C8E0F9121B51742A
:103A83000412087F7A417B1E7941121EFF02351B07
:103A930012087F7F0C0205DFEE2411F582E43FF567
:103AA3008322125945123AAC22E8F0A3E9F02274BA
:103AB300F7120378EB900385F0120ED90242567485
:103AC300F612037874E91209188A088B097E008AB2
:103AD300828B83A3A3A3E0C0E07406120B48D0E05B
:103AE300F08A828B83A3A3E0C0E07408120B48D052
:103AF300E0F07409120B487401F08A828B8312433D
:103B0300B0600D8A828B8312565B1220C1E9703537
:103B13007407120B48E4F0120FB17404120B48122D
:103B2300459B90037DE06404700E120FBD74021276
:103B33000B48EAF0A3EB804E7402120B4874FDF0BD
:103B4300A374FF8041AC18AD1985088285098312DF
:103B5300565B1220B5850882850983A3A3A3A3E03E
:103B630070317407120B487401123C647402120B17
:103B730048124557850882850983123C6B740412E9
:103B83000B48E8F0A3E9F074021208F0121005E9FB
:103B9300FE8041123C65740A120B48124557741497
:103BA300120B487401123BE6A3E0C0E07415120B3C
:103BB30048D0E0F07416120B48E4123BDE125D1895
:103BC300740C120B48AA82AB83121B87740A120867
:103BD300F0121C3BEEF97417022FF5F0850882856D
:103BE300098322123BEA22123BDEA3A32274F712BB
:103BF300037874F8120918EAFEEBFF790090037D4D
:103C0300E064086005E064047047851882851983C1
:103C130074FDF0A374FFF0120FB17402120B48127B
:103C2300459B7405120B48123C59A3E0C0E0740491
:103C3300120B48D0E0123C5AE0C0E07406120B4865
:103C4300D0E0F07407120B48E412490B121005E997
:103C5300F97408024253E4123C5E22F08E828F8391
:103C630022F0851882851983124242227F070205BA
:103C7300DF74F412037874F91209188A088B098C1B
:103C83000A8D0B8518828519837808120ABB740480
:103C9300120B48E9F07405120B48E4F07406120B9A
:103CA30048E412490B121FB374070237AD74F512BF
:103CB30003788A088B098A828B83125E82EE4F70A7
:103CC30003023E6190032C1243B060178A828B83F8
:103CD300A3A3E0F9EEFAEFFB90032DE0F5838882CE
:103CE3001220FC8E828F83A3A3A3A3A3A3A3A3A3C6
:103CF300E064026003023DCB8E828F83A3A3A3A360
:103D0300A3A3E054027003023DEF85088285098373
:103D1300A3A3E064E97003023DEF8508828509836C
:103D2300A3A3E064CD7003023DEF85088285098378
:103D3300A3A3E064F07003023DEFEE240D1241F7FC
:103D43006028EE2413125D0C60208E828F83A3A360
:103D5300A3A3A3A3A3A3A3A3123E80121035E970C8
:103D63001D7A307B01121CD78014901EACE0048EA8
:103D7300828F83A3A3A3A3A3A3A3A3A3A3F08508D1
:103D830082850983A3A3E0701F750A0080097A3630
:103D93007B01121CD7050A850882850983A3A3A387
:103DA300E0F8E50AC39840E6EE240A1255A7C0E0FE
:103DB300123E64D0E01242127404F0901EAD125908
:103DC3003FE8123E72121A498E828F83A3A3A3A3E4
:103DD300A3A3A3A3A3E0640260128E828F83A3A391
:103DE300A3A3A3A3A3A3A3E0640670728E828F830D
:103DF300A3A3A3A3A3A3E0A2E0506385088285093C
:103E030083A3A3E0F9EEFAEFFB120E1F8E828F83DA
:103E1300A3A3A3A3A3A3E054FE123E80121035E98B
:103E2300850882850983A3A3702AE070237A2F7BF8
:103E330001121CD77E00850882850983A3A3A3E012
:103E4300F8EEC39850187A367B01121CD70E80E621
:103E53007A318005E070077A2D7B01121CD702307E
:103E6300E2123E6822EE2413F582E43FF58322F04A
:103E7300A3E9F07A207B009003C8E0F922123C5EAC
:103E8300126845124F5A2274EC12037874BD12095A
:103E930018EAFEEBFF8C108D11750C00750E00AC4B
:103EA30018AD19120D6B740D120B48E070087410E5
:103EB300120B48E06014851882851983E0A2E6504E
:103EC3000E12564E121035E960057A35023FEB8526
:103ED3001882851983E0540C64047005750D018004
:103EE30003750D00E0A2E5503D750E01E50DA2E05E
:103EF3004034120FB712422D7003A3E0697005120C
:103F030041F4706B120FB712422D7003A3E0696086
:103F1300151241F47010125D32AC18AD19120E0176
:103F2300E96003023FE91241F4702C851882851978
:103F330083E0A2E650217401120B48E0540370178A
:103F4300851882851983E0540C640C600AE0540CD4
:103F530064086003750C01851882851983E0540396
:103F6300F87402687019125D2E120D7D0241EF1272
:103F7300564E12423B7415120B48124557809A74E1
:103F830001687047E50CA2E0500B1241F470061271
:103F93005D2E120D71741A120B48E518F0A3E51982
:103FA30012423A7417120B481245578E828F83A31D
:103FB300A3A3A3A3A3E0C0E07419120B48D0E0F0BD
:103FC30074171208F0120CCF0241EFE860030241AC
:103FD300EF900365E0640170178E828F83A3A3A320
:103FE300A3A3A3E0700A7A347B01121CD70241EF2A
:103FF3007442120B48740212423A743A120B48127A
:104003004201E05480700302410B7424120B487484
:1040130002124212123C6B741C120B481245577465
:1040230003120B48E0C0E07425120B48D0E0F07493
:1040330002120B48E0C0E07426120B48D0E0F09067
:10404300037B123C6B7427120B48124557740612FC
:104053000B48123C6B7429120B4812455774081213
:104063000B48123C6B742B120B48124557741012F9
:104073000B48E0F8742D120B48E8F0A3E4F0740E3B
:10408300120B48123C6B742F120B48124201123C64
:104093006B7431120B4812421EE0C0E07433120BF2
:1040A30048D0E01262FEC0E07434120B48D0E0F056
:1040B300125D09C0E07435120B48D0E0F0741112A0
:1040C3000B48E0C0E07436120B48D0E0F0741312D2
:1040D3000B48E0C0E07437120B48D0E0F0EE242325
:1040E300125D0CC0E07438120B48D0E0F0EE2425CA
:1040F300125D0CC0E07439120B48D0E0F0741C124E
:1041030008F0120D830241EF7457120B487808121E
:104113000AD9E50DA2E040030241A7EE240F125D88
:104123000CC0E07412120B48D0E0F090032E12433F
:10413300B070030241EF120FB78A128B13A812A9B2
:1041430013743A120B48E0687003A3E0696003023A
:1041530041EFEE2423125D0CF50D780D1208701259
:1041630042081206AE7808120864E50EF5087808CE
:104173001208708E828F83A3A3A3A3E0F5087808A7
:10418300120870781012086CA90C740B1208F874DA
:10419300451208F090032E12565F1220FC740B1286
:1041A300087F8048E50CA2E05006125D2E120D71C7
:1041B300125D09F50C780C1208707808120864E592
:1041C3000EF5087808120870781012086C90037BBB
:1041D3001206AEEE2412125D0CF974441208F87440
:1041E3000A1208F0120E2B740A12087F7443023A63
:1041F30093EE2421F582E43FF583E0548022123AC2
:10420300AC12420822EE2421F582E43FF583221208
:104213004216221262F3A3A3A3A322E8F0A3E9F0B8
:10422300EE240FF582E43FF583228A088B09A80860
:10423300A90912430E6822F012446F12424222125D
:104243005649F92274F7120378121C058005740D80
:1042530012087F7F010205DF74F7120378121C0B2B
:1042630080F174F7120378121C1780E7C082C083B1
:10427300121C11023A1974F7120378121C1D80D311
:1042830074F71203787409120B48E0F508780812E2
:104293000870121C2F740180B7C082C083121C3BAC
:1042A300023A1974F6120378EAFEEBFF900368E012
:1042B300A2E150498E828F83A3A3A3A3A3A3A3A3A5
:1042C300A3A3E064016036120FBD8A088B09A80816
:1042D300A9098E828F83E0687003A3E069601E12D0
:1042E300430A640160178E828F8312565B12205536
:1042F300E9600A8E828F8312565B120F75EEFAEF16
:10430300FB121C41022FF812430E22124473E022C7
:1043130074F7120378121C4702425674F71203789B
:10432300EAFEEBFF89087401650870147900120C2A
:1043330033902563E493FC7900EEFAEFFB120BA9AB
:1043430002425674F7120378121C3502425674F473
:1043530012037874F9120918E9FE8A088B098C0A8A
:104363008D0B901D781243B0602BEE851882851952
:1043730083F07401120B487808120ABB7413120BF2
:1043830048123C6B7405120B48124907901D7812B2
:10439300565F1220FC023CABE50E75F006A4F8AAAA
:1043A300F0EAF9741B28F582740F39F5831242423F
:1043B300E84922C082C083121C8F023A1974F71293
:1043C3000378121C5302425674F7120378901E446A
:1043D300E0F97800800B12467B540D6401700119DB
:1043E300081245E85003E970ED02425674F71203D0
:1043F30078901E45E0F97800800B12467B548D645B
:1044030081700119081245E85003E970ED02425624
:1044130074F2120378890BE975F006A4A9F0240F4E
:10442300F508E439F509E5082AFAE43509FB121A17
:10443300918A0C8B0DAE0CAF0DEE4F6025AC08AD21
:104443000979001219F512446BE50BF0EE2508F813
:10445300EF3509F98E828F83A3A3A3A3A3A3A3128A
:104463004555EEFAEFFB801512446F221244732276
:10447300EE240BF582E43FF5832212087F7F0602C8
:1044830005DF74F6120378EAFEEBFF120B7FE9F8FF
:10449300901E43E0F9E8C399400990031412565B58
:1044A300120B85EE2402F8E43FF98808890990038A
:1044B30016125A46900316E004F0EEFAEFFB120BC5
:1044C3008B850882850983E0025B75C082C083798E
:1044D3000090031480010912565B8A828B83E58264
:1044E300458370F2023A1974F7120378EAFEEBFF80
:1044F300EE4F605B9003141243B06053888289834C
:104503007A007B00EE65827003EF65836013AA82F5
:10451300AB83123C6B88828983E58245836030805C
:10452300E3900314123C6BEE687002EF698E828F86
:10453300837008123C6B9003148003126833124596
:1045430057EEFAEFFB120CFFEEFAEFFB121A97028B
:104553004256A3A3123AAC22C082C08390031480B4
:1045630004888289831243B0600A88828983123562
:10457300204D70ED8A828B83E4F0A3F0E849600656
:1045830088828983800390031412459B023A19EEB3
:10459300241AF582E43FF583EAF0A3EBF022124FED
:1045A3005AEA4B2274F712037890031480048A8228
:1045B3008B831245A1602778008001081245E850DB
:1045C300EDE875F006A4FCADF0EA2CFCEB3DFDEC48
:1045D3002413F582E43DF583E06970DF80047A00FB
:1045E3007B0002425612466CFCE8C39C2274F7120D
:1045F3000378E9FE7D0080010D124667EDC39850F4
:1046030023ED75F006A4F8AFF0EFF912465D70E8FC
:10461300ED75F006A4F812469E4CF0E8240FFAE478
:1046230039FB80047A007B0002425674F612037849
:10463300E9FEEAFF120B91EA4B601C7C008010EC50
:1046430075F006A4F8A9F012465D7002EFF00C12A3
:104653004667ECC39840E8022FF8124696241312DB
:1046630046A76E2212466CF822EA240B12467322E6
:10467300F582E43BF583E022E875F006A4FCADF097
:10468300EA2CFCEB3DFDEC2414F582E43DF583E0DC
:1046930022EFF9EA28F8EB39F9E8221246942414B8
:1046A3001246A722F582E439F583E02274F6120359
:1046B30078120C9F7A008016EA75F006A4F8A9F028
:1046C300125A76E4125B79F0A312615FF00A902527
:1046D300551255A040E27A00801C8A0875090074BF
:1046E3000378081209D2124747A374FEF0A30412F9
:1046F3005936A3E4F00A9025561255A040DC790000
:10470300801A8908750900740378081209D274B7EE
:10471300126A31740F12682E122A2A0990255D122B
:10472300615840DE902567E493900318F09082254A
:104733001206AA7A107B009003C8E0F9121B577483
:1047430004022FF574772508F8740F3509F9888268
:1047530089832274F012037874F51209188A088B7E
:1047630009890A8C0BE9A2E050147508FC7509FF4E
:10477300A2E15005D2E4024817D2E3024817120C13
:10478300878A0C8B0DA80CA90D90036EE06870034B
:10479300A3E069600EAC0A7902AA08AB09120C8186
:1047A300E9700579000248E7E50AF50C780C120870
:1047B3007079027CFE7DFFAA08AB09120BFD740120
:1047C30012087FE960030248E5E50AC2E5F50AA29B
:1047D300E6404374031208F8AA08AB091220BBE9A8
:1047E300702E124F391211018A0C8B0DAE0CAF0DC6
:1047F300EE4F6022EE2402FAE43FFB1220C1E9608F
:1048030015EE2402FCE43FFD74031208F0121B872B
:10481300E50AD2E5F50A900317E0F50C90036E1252
:104823004AB0780E12086C7D017C00900317E0F902
:10483300AA0EAB0F120C3F740212087FE9F8900323
:1048430017E004F0E860030248E5E50AA2E5500436
:10485300740E80027406C0E07401120B48D0E0129B
:10486300490B12101D8A0E8B0FAE0EAF0FEE4F6069
:104873006D12591AF0120FB11245921249117401B7
:10488300F07478550AA3125A18A3E50C125A18A308
:10489300A3E508F0E5091248ECE4F0E50AA2E550C7
:1048A3000F74031208F8E82406FAE439FB121B8795
:1048B3008E828F83A3A374FDF0A374FFF0E50B60D6
:1048C30012902564E493F8E50BC3985006123E64F6
:1048D300E50BF0EEFAEFFB121FBFE9F98006791042
:1048E300800279C7740B02351888828983A3A3A336
:1048F300A31248F8221248FC22F088828983A3A3DA
:10490300A3A3A322E8F0A3E9F0AA18AB1922EE129D
:10491300646E3F12491A22F583125649F988828937
:10492300832274F41203787A007B109003C8E0F9B1
:10493300121B63EA4B4C4D60089003DA7401F0805C
:1049430043901E29E06401901EA77006E0FC7901E4
:104953008004E0FC79037A007B00120BA990254BBD
:10496300E493F508740193F509E4F50AF50B780867
:104973001208647A007B109003C8E0F9121B51748B
:104983000412087F0237B074F0120378EAFEEBFFDB
:104993008C0A8D0B890C121035E960057AFF024AE7
:1049A30080901EA6E064026003024AA690255BE4A1
:1049B30093F9EEFAEFFB120CB1E96003024AA07916
:1049C30000EEFAEFFB120C87A90C120C7B8A088B02
:1049D30009EA45097003024AA68A828B83A3A3A32B
:1049E300A3A312607B707E12565B850882850983C0
:1049F300A3A3A3A3A3A3E05418604F902562E49359
:104A0300850882850983A3A3A3A3F07410120B481E
:104A1300125D187412120B48124AB0EA650A700349
:104A2300EB650B6012EA6C7002EB6D600AEA650ECF
:104A33007003EB650F7022780E12086CAA0AAB0B99
:104A430012113D740212087F800F90036DE08508F8
:104A530082850983A3A3A3A3F074FE6A700374FF82
:104A63006B601E8045A3A3A3E0640360248A828B4A
:104A730083A3A3A3A3A3E0640470067AFE7BFF8051
:104A830029850882850983A3A3A3A3A3E064026005
:104A9300127907EEFAEFFB120CB1E96006EEFAEFBA
:104AA300FB8007EEFAEFFB120BBB02351BE0F50EA2
:104AB300A3E0F50F2274F7120378EAFEEBFF12204E
:104AC30061E9700AEEFAEFFB12204FE96006EEFA95
:104AD300EFFB80047AFE7BFF02425674EE120378EA
:104AE300EAFEEBFF8C0C8D0D890E75080012103554
:104AF300E979006003024C23EEFAEFFB120C87A95D
:104B03000E120C7B8A0A8B0BEA450B607D8A828B23
:104B130083A3A3A3A3A3E0640360238A828B83A359
:104B2300A3A3A3A3E064016003024C2179078A8253
:104B33008B83125659120CB1E96003024C2175099B
:104B430002850A82850B83A3A3A3A3A3A3E054181E
:104B53006003024BD87900AA0CAB0D120C878A0AAA
:104B63008B0BA80AA90B90036EE0687003A3E0699E
:104B73006003024C05902563E493FCA90EEEFAEF63
:104B8300FB120BA9750801024C21EEFAEFFB120B85
:104B9300BB1220498A0A8B0BA80AA90BE849607E3D
:104BA30088828983A3A3A3A3A3E0A2E0507075091D
:104BB30001A2E150127901EEFCEFFDAA0CAB0D123C
:104BC3000BD9E97090805788828983A3A3A3A3A3F9
:104BD300D2E1F08080750801850A82850B83A3A347
:104BE3001206AE750AFE750BFF780A12086C79007F
:104BF300EEFCEFFDAA0CAB0D120C93740412087FAC
:104C0300801CA909EEFCEFFDAA0CAB0D120BD9E930
:104C1300700C750801A90EEEFAEFFB120C33A9080C
:104C2300025E6874E912037874F01209188A0C8B17
:104C33000D8C088D09750B06124F3912112B8A1032
:104C43008B11EA4511600B8A828B83A3E070030208
:104C53004DCDE50C241DF50EE4350DF50F850E82C3
:104C6300125138F51688828983A3A3A3E0FA8882B8
:104C73008983A3A3A3A3E0F8E4C8F9EA28FEE439EF
:104C8300FFAA08AB09120C39E9F9850E82850F8357
:104C9300124F40E029F50EE50AA2E55003750B0E0D
:104CA3007487550A700F7418550A641860071251F7
:104CB3001D650B600A7AD37B00121CD7024DCD53BE
:104CC3000A78780812086C7D00AC0EA916124F4FB3
:104CD300120C3F740212087FE9F874036870030230
:104CE3004DCD7427120B48E0F512A3E0F513E860ED
:104CF30003024DBE7418550A7003024DD2E50AD261
:104D0300E0F50AA2E45004D2E1F50AA90A124F4FD2
:104D1300120C7B8A148B15A814A915E849605788CF
:104D2300828983A3A3A3A3A3A3E054186048888222
:104D33008983A3A3A3A3A3E06401703AE5104511FB
:104D43006034125D158882898312565912112B8A99
:104D5300148B15A814A915E849601B88828983A3BD
:104D6300E06013851082851183A3E0FA888289832A
:104D7300A3E0C39A4054E50AF50B780B12087012AE
:104D83004F49120BFD740112087FE9702E7C007DE0
:104D93000085128285138374FFF0A3125A26A3A3FE
:104DA300A3A3A3A3A3A3E0600AE50C2415124F2534
:104DB300125D18A90E124F4F12200D851282851312
:104DC30083E0F47003A3E0F460487900024F179086
:104DD3000367E06014E50AF50B780B120870124FB5
:104DE30049120BFD740112087FE50AF50B780B12CB
:104DF300087079027CFE7DFFEEFAEFFB120BFD7467
:104E03000112087FE970B485128285138374FFF061
:104E1300A3F0780812086C7D01AC0EA916124F4F4F
:104E2300120C3F740212087FA90AEEFAEFFB120C70
:104E3300878A088B09A808A90990036EE0687003A4
:104E4300A3E0696003024F0BEEFAEFFB1220498ADD
:104E5300088B09A808A909E849602788828983A3E0
:104E6300A3A3A3E06401600D88828983A3A3A3A302
:104E7300E06402700DAC18AD19EEFAEFFB1220BB23
:104E83008012120FB18A088B09AC08AD09AA18ABBE
:104E930019121B87850C82850D83A3A3A3A3A3A348
:104EA300A3A3E064017012E50C2415124F25125DD3
:104EB3001874081208F0121B87E50C241DF582E410
:104EC300350D124F2DE04430F50878081208707440
:104ED300011208E888088909780812086C740B1213
:104EE30008E888088909780812086CE516F5087837
:104EF300081208707900EEFCEFFD124F4F120BD32E
:104F0300740612087F024DCD124F21124F40E50E59
:104F1300F0120FC9741012087F7F0F0205DFE50C32
:104F2300241DF582E4350DF58322F583E0F8A3E033
:104F3300F5838882A32290037B1251542212684581
:104F4300A3A3A3A3A3227901AC08AD0912646C3512
:104F53000D124F5822F583E0FAA3E0FB2274EC1202
:104F6300037874F01209188A0C8B0DECFAEDFB75BB
:104F73000F08125D1512112B8A088B09AC08AD09B5
:104F8300EC4D601F8C828D83A3E0701712592B5058
:104F930001097A027B00120228E88C828D83F0A338
:104FA3007407F0E50C241DF582E4350D125138F534
:104FB3000E8882898312512AE0FAE4CAFBEC2AFEA6
:104FC300E43BFF88828983A3A312512AA3A3E0FBB6
:104FD300ECF508E43BF50988828983A3A3A3A3A383
:104FE300A3A3E0F50BE50AA2E45003750F10A2E5B5
:104FF30050067408250FF50F748F550A7007125168
:105003001D650F600A7AD37B00121CD70251185317
:105013000A707800E50AA2E4501C124F21E024082C
:10502300FCA3E03400FD74081208F0121B87780813
:10503300E50AC2E4F50AE50AA2E5501F124F21E092
:1050430028F8A3E03400F9E82408FCE439FDAA18A1
:10505300AB19121B87E50AC2E5F50AA90EEEFAEFB2
:10506300FB120C75E9F510902556126158502989E9
:1050730012751300740378121209D2747C2512F589
:1050830082740F3513F583E0F8E50BC3985007E5F9
:105093000BF078008004807D780490036EE06E70DE
:1050A30003A3E06F605FE87019E50AF50F780F124C
:1050B3000870125147120BFD740112087FE97055F5
:1050C3008005740468704E780A120870740112081F
:1050D300E8880C890D780C12086C740B1208E888A8
:1050E3000C890D780C12086CE50EF50A780A120883
:1050F30070A90BAC08AD09EEFAEFFB120BD37406E3
:1051030012087F8010780A120870125147120BFDA3
:10511300740112087F7410023A93E50C2417F58288
:10512300E4350DF583E022A3A3A3E0FC8882898301
:10513300A3A3A3A32212491AA3E0F50A88828983B1
:10514300A3A3E022790112646C350DF58312515447
:1051530022E0FCA3E0FDAA08AB092274EB1203785A
:1051630074F5120918EAFEEBFF8C088D0989147493
:1051730020120B48E0F511F9120C75E9F50A902598
:1051830056126158501B750B007403780A1209D22A
:10519300747A250AF582740F350BF583124AB080B1
:1051A30006750EFE750FFF7401120B487408F07438
:1051B30025120B48E0F510A2E450087401120B48C5
:1051C3007410F0E510A2E550097401120B48E024B5
:1051D30008F0AA18AB1912101D8A0C8B0DEA450DA5
:1051E3007003025300EA241712530E120FB1E50C99
:1051F300241AF582E4350D1245997421120B48E007
:10520300F512A3E0F51374031208F8AA0EAB0F12FC
:1052130020BBE9601512530A74031208E8E50C2455
:1052230018124F25E8F0A3E98020E510A2E4501BF3
:10523300E50E6E7003E50F6F701112530AE50C242F
:1052430018124F25E512F0A3E513F0E50C125325D0
:10525300124F28123525850A82F5837402F0A3E5DF
:1052630010125319E511F0EE850A82850B83A3A36F
:10527300A3F0EF850A82850B83A3A3A3A31253197B
:10528300A3A3A3E508F0E509850A82850B83A3A3FD
:10529300A3A3A3A3F0AA0EAB0F120C39E92514851F
:1052A3000A82850B83A3A3A3A3A3A3A3F07800E59A
:1052B30010A2E45012AC12AD13E50A2408FAE43547
:1052C3000BFB121B877808E510A2E5501A74231212
:1052D3000B48125D18E50A28F8E4350BF9E82408B1
:1052E300FAE439FB121B87850C82850D83A3A3E5A2
:1052F3000EF0A3E50FF0AA0CAB0D121FBF740B1237
:10530300087F7F0D0205DFE50C2416F582E4350DD9
:10531300F5837401F022F0850A82850B83A3A3220F
:10532300E50812646E2274F41203788A088B09EC80
:10533300FEEDFF750B0190036EE065087004A3E0BA
:1053430065096013750B00780B12087012107774DF
:105353000112087FE9F50B7900AA08AB09120C8743
:105363008A088B09A808A90990036EE0687003A353
:10537300E06970467900EEFAEFFB120C7BEA4B60B2
:10538300308A828B83A3A3A3A3A3A3E05418602131
:105393007508FE7509FF780812086C8A828B83A34F
:1053A300A31206AE126C90120C93740412087F8041
:1053B300097901EEFAEFFB122019A90B0237B07439
:1053C300F21203787EFF7F0D7A107B009003C8E012
:1053D300F9121B63EA4B4C4D70179082251206AAF3
:1053E3007A107B009003C8E0F9121B57740412086B
:1053F3007F900318E014F060030254A4902567E43F
:1054030093900318F07C0079057A007B00120F3922
:105413008A088B0902549B7C007905AA08AB091200
:105423000F398A0A8B0B850882850983A3A3A3A35B
:105433001243B0605DE5082404F8E412474EE0240B
:10544300FFF0A3E034FF12615F1243B0704485089C
:1054530082850983A3A3A3A3A3A3E05404601385B4
:105463000882850983A3A3A3A3A3A3A3A3E0F9129B
:105473000C63850882850983A3A3A3A3A3A3A3A382
:10548300A37406F07AF08508828509831261E51218
:105493000E91850A08850B09E50845096003025446
:1054A3001A75080080668E828F83A3A3A3A3E0608E
:1054B30052F4604FEE24041255A770478E828F83F7
:1054C300A3A3A3A3A3E06403701379028E828F8343
:1054D300125D188E828F83125659120BD98E828FCA
:1054E30083A3A3A3A3A3E0640160188E828F8374B4
:1054F300FEF0A30412315114F0A3041262EBE41280
:105503003898F00508EE2407FE50010F9025581235
:10551300352D40927E00803D120F5D8E0875090087
:10552300740378081209D274772508FC740F3509BF
:10553300FD7AE57B0B120F4BEA4B70DC8E08750985
:1055430000740378081209D2124747122A29888265
:105553008983E4F00E9025561269C450258E087590
:105563000900740378081209D274772508F8740FB8
:105573003509F9E82407F582E41266AC14F070D417
:1055830080997A008009EA1255B1600214F00A90FA
:1055930025551255A040EF02448090255DE493F811
:1055A300EAC39822F582E43FF583E014F02275F014
:1055B30006A4F8A9F0741728F582740F1246AA22DC
:1055C30074F712037874DA120918ECFEEDFF75080C
:1055D30000EE4F606A8A828B83125649C8241FF5F6
:1055E30082E4381243AE60578A828B8312565BACD7
:1055F30018AD19EA241E124673F9EA241F1225C0B6
:10560300120F99740B120B481256637003A3E069CF
:10561300702D7402120B48E064017023741D120B89
:105623004812565FE064017016741D120B48124F46
:1056330031A3E0F88E828F83E0687003750801A9B7
:10564300087426024253E0F8A3E0228E828F83A3DC
:10565300A3A3A3A3A3A3A3A3124F5A221268452271
:10566300125669E0682212566D22E0F8A3E0F98E23
:10567300828F83A32274F4120378E9701E790012D7
:105683000BF18A0A8B0BAE0AAF0B74FE6E700374B8
:10569300FF6F701490255EE493600D7901120BF196
:1056A3008A0A8B0BAE0AAF0B120FE70237A074F610
:1056B30012037874F3120918121A018A088B09AEBF
:1056C30008AF0990036EE06E7003A3E06F60E91208
:1056D3000FBDEA6E7002EB6F60DEEEFAEFFB1210A5
:1056E30035E970D4EE4F60D0851882851983E4F0D4
:1056F30004120B48EEF0A3EF12490B1220A3E9703A
:10570300B774FE6E700374FF6F60ADEEFAEFFB7457
:105713000D022FF5C082C083120FE7023A1974F20B
:10572300120378EAFEEBFF8C0A8D0B890874FC6E7A
:10573300700374FF6F700302590B7900120C878A90
:105743000C8B0DAE0CAF0D740E120B48E0F50990E7
:10575300036EE06E7003A3E06F7009E509A2E640F3
:105763000302590BA909120C7B8A0C8B0DA80CA9F7
:105773000DE849704579007AFE7BFF120C7B8A0C99
:105783008B0DA80CA90DE8497030741855097003E6
:1057930002583B7A0080010A9025581255A0400315
:1057A30002583BEA75F007A4F8A9F0126AD9541815
:1057B30070E574FF28F8740D39F988828983EEF057
:1057C300A3EFF074FE650A700474FF650B600D8827
:1057D300828983A3A3E50AF0A3E50BF0888289837A
:1057E300A3A3A3A3A3A3E509F0A2E0500D88828994
:1057F30083A3A3A3A3A3A3D2E2F0740165088882C1
:105803008983A3A3A3A3A3703A7401125936E05466
:1058130018602A902562E49388828983A3A3A3A3B3
:10582300125D14AA0AAB0B12112B8B0DEA450D6006
:105833000302590B7A008036790202590D90036DE9
:10584300E080D5E06401700302590B88828983A349
:10585300A3A3A3A3A3E054186007902562E4938055
:105863000490036CE01248ECE50802590A0A9025FB
:10587300571255A0400302590B7B008029EB75F0AA
:1058830007A4F8A9F0740128F582740E39F5831280
:105893005D18EA75F017A4F8A9F01266B06C7003EE
:1058A300A3E06D60C80B902558E493F8EBC39840D0
:1058B300CCE4936B70B7EA75F017A4F8A9F0748F72
:1058C30028FE740C39FF7C177D007900EEFAEFFB9C
:1058D3001219F58E828F83E50AF0A3E50BF090038E
:1058E3007B12593FA3A3A3A3A3A312421E74AAF03E
:1058F300EE240E12591D1259265001097A027B001B
:10590300120228125910E8F07900024480EE240DA7
:10591300F582E43FF58322EE2417F582E43FF58315
:10592300740122F012592B2290255AE49379002412
:1059330001F82212593A221248FCA322125945A314
:10594300A32212566DA32274ED1203788A088B09E1
:10595300890A12615140057905025A13121C95AA4E
:1059630008AB09120C0FE9F50E902555E493650E6B
:10597300700A7AFE7BFF120C0FE9F50E9025551283
:105983006F224003025A1112439B6009125A62129A
:10599300565B121A97E50A601CE50E125A2EAA0AE4
:1059A300EA2AFAE433FB121A91125A1C1243B0701A
:1059B300147901805BE50E75F006A4F8A9F0125A7C
:1059C3006BE4F0A3F0E50E125A4DE508F0A3E509E8
:1059D300125A18AA82AB83E50A125A428A828B832F
:1059E300E0602712439B60228E108F11751200789E
:1059F30010120868AC0AEC2CFCE433FD125A621254
:105A0300565B1219E9740312087F79008002790743
:105A13007F0B0205DF125A8222850C82850D83EAF1
:105A2300F0A3EBF0850C82850D832275F006A4F8B4
:105A3300A9F0125B82E82404F50CE439F50D22F099
:105A4300901EA8E088828983F02275F006A4F8A945
:105A5300F0125A5822125B8288828983A3A322E51B
:105A63000E75F006A4F8EAF9741B28F582740F3951
:105A7300F58322125A5874FE125A7F22F0A304F0BF
:105A830088828983A32274F7120378ECFEEDFF1258
:105A93000C0FE9F8902555E493F9E8C399502DE8E4
:105AA30075F006A4F8A9F0125B7E125AD488828995
:105AB30083A3A3A3A3123C6B7409120B48E0FAA3BC
:105AC300E0F5838A82124557790080027904024205
:105AD3005688828983A3E08E828F83F02274F61224
:105AE30003787E00801BEE75F006A4F8A9F0741904
:105AF30028F582740F1266AC6A7003A3E06B6071C1
:105B03000E9025551269C440DDE4936E706374FEF4
:105B13006A700374FF6B70597E0080010E902555E7
:105B23001269C4504CEE75F006A4F8AAF0EAF91213
:105B330055B870E8125B7EA3A374FEF0A304125B56
