:020000040000FA
:06000000020AA30201C385
:03002B0002075574
:0300430002077B36
:030053000200F8B0
:03006B0002053952
:1000830002015705030101FF901E00000000641DDB
:1000930000000000FF000000FF00010124341201F2
:1000A3000000045F810357810020FD00020612FF58
:1000B300FF0101010400BF14000000E8030000FF7A
:1000C300FF6615E803000064006400B801A0BB0DDF
:1000D30000A0BB0D00020200080000050207010595
:1000E3001E02051E0A0803B80B020102E8030A05F3
:1000F3000001FFFF02C0E074F11203DAA2AFE433A0
:10010300F509D2AF85A708AFA1EF5508FE74105EBD
:10011300600612142375A1EF74085E600812142997
:1001230075A1F78024EFA2E092F0E508A2E082F047
:100133005017906198E0F890094FE0C398A2D265F8
:10014300D0335002E8F075A1FEE509A2E092AF7F3B
:1001530002020439C0E074F21203DAA2AFE433FE00
:10016300D2AF9061A4E0F8759B00E5915854086004
:10017300087591F71214718023E5915854106008A3
:100183007591EF1214778014E591A2E092F0E8A242
:10019300E082F05007E0C2E0F01215CD9061A3E0D9
:1001A300F8E5E9585404600E1215A375E9FB906154
:1001B30093E0A2E640F2EEA2E092AF7F010204399F
:1001C300C0E074F21203DAA2AFE433FED2AF90615F
:1001D300A5E0F8E5BF585404600675BFFB1215E5AA
:1001E30080D4C3E498F8E499F91202268026C3E484
:1001F3009AFAE49BFBE920E7E9120226E498F8E483
:1002030099F922C3E498F8E499F9120226E498F8DC
:10021300E499F9C3E49AFAE49BFB22EB20E7CFE9E4
:1002230020E7E0B90010BB0008E88AF084F8AAF0E0
:1002330022E4FBC8FA22EB70227B10C833C8C9330F
:10024300C9335007C39AC3DBF280069A50012ADBF5
:10025300EAC833F4C8C933F4C9FA2275F008E4C80C
:1002630033C8C933C933C99AC99B5004C92AC93B86
:10027300D5F0ECFBC833F4C8E4C9FA22080808EA4D
:10028300C0E0EBC0E086F0E7A4FA180986F0E7A423
:100293002AFA180986F0E7A42AFA180986F0E7A4CF
:1002A3002AFA1986F0E7A4FBE5F02AFA190886F082
:1002B300E7A42BFBE5F03AFA190886F0E7A42BFB39
:1002C300E5F03AFA18180986F0E7A4C5F02BFBE429
:1002D3003AFA1908E7C5F0C6A426F6E5F03BFBE4B5
:1002E3003AFA1886F0E7A4F6E5F00826F6E43B08A8
:1002F300F6E43A08F6D0E0FBD0E0FA22E4CFC0E01F
:10030300E4CEC0E0E4CDC0E0E4CCC0E075F020E68C
:1003130026F608E633F608E633F608E633F6181849
:1003230018EC33FCED33FDEE33FEEF33FFC3EC97F4
:1003330009ED9709EE9709EF97191919400FFFEC8B
:1003430097FC09ED97FD09EE97FE191906D5F0BF45
:10035300ECF709EDF709EEF709EFF7191919D0E0F2
:10036300FCD0E0FDD0E0FED0E0FF222518C582C01E
:10037300E0E51934FFC583C0E0E518C3958224F88E
:1003830010AF0885831985821880088583198582B3
:1003930018D2AFCEF0A3E520F0A37808E608F0A3C7
:1003A300DEFAEFF0A3E58124FAF8E608F0A3E60805
:1003B300F0A3E608F0A30808E608F0A3E608F0A314
:1003C30015811581D0E0FED0E0F8158115811581E6
:1003D300E8C0E0EEC0E022C0D02518C582C0E0E549
:1003E3001934FFC583C0E0E518C3958224F310AF29
:1003F300088583198582188008858319858218D218
:10040300AFC8F0A3E9F0A3EAF0A3EBF0A37908E700
:1004130009F0A3D8FAECF0A3EDF0A3EEF0A3EFF00C
:10042300A3D0E0F0A3D0E0F0A3D0E0F0A3E520F068
:10043300A3E5F0F0A322851983851882E0C0E0A329
:10044300E0F9A3E0FAA3E0FBA37808E0F608A3DF52
:10045300FAE0FCA3E0FDA3E0FEA3E0FFA3E0C0E01D
:10046300A3E0C0E0A3E0F5D0A3E0F520A3E0A3F56B
:10047300F010AF0885831985821880088583198554
:100483008218D2AFD082D083D0E0F8D0E032120B02
:100493001DB900030204D0E490030178F1791380BD
:1004A30002F0A3D8FCD9FA7AF17B15900086787311
:1004B30079018015E493A3AD82AE838A828B83F0A6
:1004C300A3AA82AB838D828E83D8E9D9E77582E2B2
:1004D3007583A2740312083E7582AB75831C740086
:1004E30012083EE47375F0108E1A8F1B85821F85E8
:1004F300831E851882851983E0CEA3E0CF851F82F2
:10050300851E83EBC9EAC8EDCBECCAC3E833C8E95F
:1005130033C9EA33CAEB33CBC3EA9EF51DEB9FF530
:100523001CB35004AB1CAA1DEC33CCED33CDD5F07A
:10053300DAAE1AAF1B22C0E074EF1203DAA2AFE403
:1005430033FED2AF9004CAE0F8A3E0F9E84960298A
:100553009004CCE0F508A3E0F509E4F50AF50B787F
:100563000812085C9004CAE0FAA3E0FB9004C9E017
:10057300F91218197404120877758900C2C5EEA21E
:10058300E092AF7F04020439D083D082ECC0E0ED67
:10059300C0E0E493A3FCE493A3FDED4C600D1206CD
:1005A30063EC24FFFCED34FFFD80EFE493A3FCE454
:1005B30093A3FDED4C600D120700EC24FFFCED341A
:1005C300FFFD80EFD0E0FDD0E0FCE493A3C0E0E4C6
:1005D30093C0E022851983851882E0A3FEE0A3F58A
:1005E300207808E0A3F608DFFAE0A3FFE0A3C0E069
:1005F300E0A3C0E0E0A3C0E0E0A3C0E0E0A3C0E06C
:1006030010AF088582188583198008858218858331
:1006130019D2AFD083D082020844D083D082E9C0FC
:10062300E0E493A3C386F0C5F095F0F908E493A33F
:1006330086F0C5F095F0700BE493A3C3994005E9E8
:10064300048002A3E475F002A42582F582E5F03567
:1006530083F583D0E0F9E493A3C0E0E493C0E02200
:10066300C0E0C3E49396087401939618400FE49393
:1006730066700808740193661870007019A3A3C309
:10068300E49396087401939618A3A3400DD0E0D089
:10069300E0D0E00205C7A3A3A3A3A3A3D0E02274E1
:1006A30004800474028000CCC0E0EDC0E0E518C310
:1006B3009CCCAD1950011D10AF068C188D19800606
:1006C3008C188D19D2AF1207C0D0E0FDD0E0FC2208
:1006D30074028000CCC0E0EDC0E0E518C39CCCAD53
:1006E3001950011D10AF068C188D1980068C188DBA
:1006F30019D2AF12079ED0E0FDD0E0FC22C0E0C0CB
:10070300F088F0E49366700808740193661870002B
:10071300A8F0A3A3700BD0F0D0E0D0E0D0E00205A6
:10072300C7A3A3D0F0D0E022D083D082CCC0E0E432
:1007330093A3600612081F1470FAE493A3600612D1
:1007430009261470FAD0E0FCE493A3C0E0E493C05C
:10075300E022C0E0C0D0E8C0E0E9C0E0A9A8D2AF81
:10076300C2C7E9A2E7E433F8E9A2E792AFD0E0F920
:10077300D0E0F8D0D0D0E032C0E074F21203DAA2B5
:10078300AFE433FED2AFC2C0E5D1A2E45003121CE2
:1007930039EEA2E092AF7F01020439CAC0E0E493CC
:1007A300A3C582CCC582C583CDC583F0A3C582CC46
:1007B300C582C583CDC583DAE5D0E0CA22CAC0E0CD
:1007C300E0A3C582CCC582C583CDC583F0A3C58212
:1007D300CCC582C583CDC583DAE6D0E0CA22C00882
:1007E300C3E096F50808A3E096420808A3E0964202
:1007F3000808A3E09645087001D3D00822700908C1
:100803000808226016181818C6C333C608C633C6AC
:1008130008C633C608C633C6D5E0EA22C0E0E4936F
:10082300A3D39C5010E493A3C39C400AD0E0D0E030
:10083300D0E0020748A3A3A3D0E022C09FF59FE422
:1008430073D09F22D083D082C09FE493C0E0740111
:1008530093C0E0740293F59F227404800A740380AA
:1008630006740280027401C0E0F404120892D0E01E
:10087300120AE02200C0D0251810AF08F518500C5A
:1008830005198008F51850020519D2AFD0D02225DA
:1008930018F58210AF08F518400C15198008F518E3
:1008A30040021519D2AF85198322BB0102E722C08A
:1008B30082C08389828A83BB0003E08002E493D0F1
:1008C30083D082226016080808C6C313C618C6134D
:1008D300C618C613C618C613C6D5E0EA222518F8EB
:1008E300E43519F9222518FAE43519FB222518FCF9
:1008F300E43519FD22C3E0C696F608A3E0C696F6D2
:1009030008A3E0C696F608A3E0C696F622251810BB
:10091300AF08F518400C15198008F5184002151991
:10092300D2AF22C0E0E493A36C7009D0E0D0E0D052
:10093300E0020748A3A3D0E022C3E09608A3E09611
:1009430008A3E09608A3E096A2D265D03322E0661E
:10095300701008A3E066700A08A3E066700408A399
:10096300E06622E76670100809E766700A0809E77F
:100973006670040809E76622C3E096F008A3E096D0
:10098300F008A3E096F008A3E096F022C3E697F6FA
:100993000809E697F60809E697F60809E697F622A6
:1009A300C3E49396087401939608740293960874AB
:1009B30003939622E627F60809E637F60809E63791
:1009C300F60809E637F622700422600D18C6C33311
:1009D300C608C633C6D5E0F41822E493F6087401BA
:1009E30093F608740293F608740393F622E657F617
:1009F3000809E657F60809E657F60809E657F62206
:100A0300E056F608A3E056F608A3E056F608A3E07E
:100A130056F622E056F008A3E056F008A3E056F09D
:100A230008A3E056F022E026F608A3E036F608A372
:100A3300E036F608A3E036F622E647F60809E6476D
:100A4300F60809E647F60809E647F622E026F00825
:100A5300A3E036F008A3E036F008A3E036F022E482
:100A6300C396F608E496F608E496F608E496F622AA
:100A7300C6F4C608C6F4C608C6F4C608C6F4C62239
:100A8300C3E7960809E7960809E7960809E7962257
:100A9300C3E09608A3E09608A3E09608A3E0962295
:100AA30075D00075813F7518017519030002049113
:100AB300E6F008A3E6F008A3E6F008A3E6F0226058
:100AC3000C08C6C313C618C613C6D5E0F422E0F655
:100AD30008A3E0F608A3E0F608A3E0F622CAC0E004
:100AE300E6F0A308DAFAD0E0FA22E8F0A3E9F0A3EB
:100AF300EAF0A3EBF022E0F8A3E0F9A3E0FAA3E025
:100B0300FB22EAF0A3EBF0A3ECF0A3EDF022E0FA72
:100B1300A3E0FBA3E0FCA3E0FD22E5C754F84401F6
:100B2300F5C77901222518F582E43519F58322C228
:100B3300AF75D69F0200002212084722A1021208B5
:100B4300479EA1021208470A82011208473C82010C
:100B5300120847708201120847248401120847F8DB
:100B630084011208475785011208476D8601120850
:100B730047B98601120847568901120847CB8B01F2
:100B8300120847178D01120847AF8D01120847BBA2
:100B93008D01120847048E01120847378E0112088F
:100BA30047C38E01120847D58F01120847169101DA
:100BB3001208471592011208473F9201120847AAEB
:100BC3009201120847039301120847769301120812
:100BD30047AC95011208473297011208471B980149
:100BE300120847699901120847A19B011208479807
:100BF3009E01120847A79E011208473B9F01120856
:100C0300477E9F01120847EE9F0112084765A20124
:100C130012084797A30112084766A401120847E880
:100C2300A40112084734A90112084763A901120855
:100C330047BEA901120847F1A90112084712AA01E8
:100C430012084762AA01120847B2AB01120847DC37
:100C5300AB011208470EAC011208471BAC01120886
:100C6300471EAC011208474DAC011208473CAE01C8
:100C730012084705AF0112084746AF011208479C07
:100C8300B0011208472BB10112084745B101120800
:100C930047A9B101120847CAB30112084729B40191
:100CA300120847FFB40112084713B501120847277A
:100CB300B50112084754B50112084784B50112085B
:100CC3004728B70112084725B80112084773B8012E
:100CD30012084700B90112084747B901120847B47F
:100CE300B90112084709BB01120847B2BB01120838
:100CF30047CABB011208476DBC01120847E9BE0190
:100D030012084791C001120847B5C0011208478F66
:100D13002000120847C1200012084741250012088D
:100D230047902500120847D6250012084779260068
:100D3300120847DE260012084722270012084789B7
:100D43002800120847B52900120847B22D001208DF
:100D530047312E00120847572F00120847BA2F00B9
:100D63001208470631001208479E33001208472B2A
:100D730034001208473534001208475D3400120866
:100D830047253500120847BA3500120847E33500F6
:100D93001208471036001208476538001208473218
:100DA3003900120847713900120847F33900120855
:100DB300479E3A00120847D03A001208471B3B00EF
:100DC300120847543B00120847A33B00120847FF91
:100DD3003B00120847813C00120847E63C0012081A
:100DE300475E3D00120847073F00120847FF3F00D8
:100DF300120847404100120847944400120847F084
:100E03004600120847A94700120847F14700120895
:100E130047D249001208470D4A00120847164A00F4
:100E23001208471F4A001208472A4A001208474976
:100E33004A00120847FC4A00120847594B0012089F
:100E430047634B00120847BA4B00120847814C0016
:100E5300120847AB4D00120847D64E00120847CC84
:100E63004F00120847E44F001208471850001208B9
:100E7300473650001208477E5000120847B750000B
:100E83001208476E51001208472F5200120847A25A
:100E930052001208471E5300120847BA53001208A3
:100EA30047E054001208479C55001208473C56007F
:100EB300120847295700120847815700120847476D
:100EC30058001208476A58001208477F5900120851
:100ED30047CA5900120847265A001208478E5A007B
:100EE300120847B25A00120847DA5A001208471F7D
:100EF3005B00120847435B00120847C75B001208F8
:100F030047B05C00120847F55C001208471E5D00FD
:100F1300120847BC5D00120847275E0012084753BA
:100F23005E00120847345F001208474FD9021208C7
:100F33004787D902120847A8D902120847EAD902FB
:100F43001208474EDA0212084758DA0212084768B5
:100F5300DA021208479FDA0212084748DE02120833
:100F63004710E002120847F4E10212084796E20232
:100F730012084720E30212084724C20112084788D7
:100F8300C201120847E6C20112084731C301120821
:100F9300474CC30112084773C30112084790C301AA
:100FA3001208479CC3011208472DC5011208474682
:100FB300C501120847C2C501120847D5C501120869
:100FC30047E5C50112084789C601120847F5C7015D
:100FD30012084708C901120847A8C901120847B2F5
:100FE300C90112084731CA0112084742CA0112084F
:100FF3004781CA01120847AFCA011208477CCB01D7
:10100300120847D3CB011208470CCC0112084762E0
:10101300CC0112084780CC01120847CECC0112083C
:101023004799CD01120847E7CD0112084734CE0195
:10103300120847B7CE01120847E1CE01120847173D
:10104300CF0112084726CF0112084785CF011208A6
:1010530047FDCF011208473ED0011208478ED00149
:10106300120847B9D001120847D3D001120847ED3F
:10107300D001120847C2D101120847CCD10112088E
:101083004707D20112084717D20112084720D2019D
:1010930012084771D20112084785D201120847A7E7
:1010A300D301120847BCD3011208474FD4011208D9
:1010B30047C3D40112084768D50112084773D50105
:1010C300120847D3D601120847EFD6011208473B4F
:1010D300D701120847A9D701120847DBD701120825
:1010E30047F5D70112084737D8011208478ADA01B2
:1010F30012084722DB0112084799DB01120847F661
:10110300DD011208470EDE0112084711DE01120845
:10111300471DDE0112084731DE0112084739DE019F
:1011230012084770DE0112084764DF01120847EE18
:10113300DF0112084770E001120847F0E0011208CE
:1011430047C7E101120847E9E10112084782E201BA
:10115300120847DFE201120847E2E2011208475191
:10116300E3011208479DE401120847B0E5011208A4
:10117300473BE6011208474EE70112084713E8010F
:1011830012084744E8011208476AE8011208477346
:10119300E801120847A2E80112084752E9011208C0
:1011A3004702EA0112084775EA0112084718EB01E2
:1011B3001208478BEB01120847CAEB0112084713C9
:1011C300EC0112084787CE02120847F4CE02120838
:1011D3004740CF0212084792CF0212084712D002AB
:1011E3001208470FD20212084722D4021208475BA3
:1011F300D7021208478AD702120847A8D702120853
:101203004712D8021208473AD8021208476DD8028B
:10121300120847A2D80212084704D902120847F15C
:10122300AD0312084736AE0312084746AE03120851
:1012330047B0AE03120847CEAE03120847359D03ED
:10124300120847A79D03120847B59E03120847E1FA
:101253009E03120847579F03120847DB9F03120898
:101263004728B602120847A4B602120847D2B602AC
:1012730012084717B70212084778B80212084794B2
:10128300B802120847CAB80212084743B902120843
:101293004791B90212084721BA02120847F9BA0264
:1012A3001208474ABB02120847AFBB021208472283
:1012B300BC0212084766BC02120847BEBC021208F1
:1012C30047E0BC0212084770BD0212084701BE0284
:1012D30012084739BE0212084762BE02120847A32A
:1012E300BE0212084744C00212084726C102120870
:1012F3004702C202120847C5FF02120847D6FF027F
:10130300120847FBFF011208470DB703120847BE37
:10131300B503120847CEB503120847E3B503120815
:10132300472CB6031208473AB003120847BEB0036E
:10133300120847BE9802120847F0FF02120847EF4F
:10134300FF01120847F2FF01120847F5FF011208D7
:1013530047F8FF011208474B9003120847599003BF
:10136300120847D29003120847A79103120847793E
:101373009303120847C77F0012084799F402120823
:101383004706F502120847BEF502120847B1F602F6
:101393001208470EF80212084782A002120847BF3C
:1013A300F802120847C8F802120847DAF8021208CE
:1013B3004741F90212084754F9021208478DFA010E
:1013C300120847B9FA011208474FFD011208478F67
:1013D300FD01120847CBFD01120847DFFD0112088A
:1013E30047F8FD01120847E9FE011208479BFF0178
:1013F300120847AFFF01120847ECA9031208471070
:10140300AA0312084729AA0312084767AA03120866
:10141300479DAA03120847D0AA031208473CAB030F
:101423001208473FAB0312084749AB03120847565C
:10143300AB0312084736A00312084759A00312084A
:1014430047A4A003120847C2A003120847DDA00364
:1014530012084743A1031208474FA103120847ACE0
:10146300A103120847D0A10312084796A20312084A
:1014730047A3A203120847B4A203120847BCB4034C
:10148300120847D4B40312084700B503120847A64D
:10149300F90212084704FB0212084712FB02120862
:1014A3004726FB0212084743FB0212084758FB0278
:1014B3001208476BFB02120847EDFB021208475262
:1014C300FC02120847E8FC02120847C1FD02120899
:1014D30047D1FD02120847E0FD02120847F4B203A8
:1014E30012084718B30312084740B30312084768AA
:1014F300B303120847BBA703120847E2A703120866
:101503004700A80312084775A803120847359A0332
:101513001208474E9A03120847659A031208476E4A
:101523009A03120847869A03120847909A031208EF
:10153300479A9A03120847AD9A03120847379B0349
:10154300120847AC9B03120847DA9B031208472E85
:101553009C031208477A9C03120847959C031208C0
:10156300479F9C03120847C59C031208472A9D0303
:101573001208473DB2031208475FB203120847DD62
:10158300B603120847CFE302120847FBE30212082F
:10159300471EE40212084731E4021208474CE402F2
:1015A300120847B0E402120847DEE402120847EBD0
:1015B300E80212084740EA0212084772EA021208D8
:1015C30047DDEA021208475DEC0212084785EC0288
:1015D3001208479AEC02120847AAEC02120847EADB
:1015E300EC021208472CED021208473CED021208E8
:1015F3004760AB0312084770AB0312084794AB0371
:10160300120847BDAB03120847E7AB031208470BA9
:10161300AC0312084722AC0312084750AC0312086C
:101623004773AC031208477BB603120847A58C0324
:10163300120847B58C03120847D38D0312084707D6
:101643008E03120847298E03120847518E0312088E
:10165300476A8E03120847A68E03120847088F03B2
:101663001208474D8F03120847928F03120847BF92
:101673008F03120847F78F0312084711FE0212085F
:101683004723FE0212084708FF0212084795FF028C
:101693001208478DB303120847CAB3031208470C55
:1016A300B4031208471CB4031208476CED02120876
:1016B3004776ED02120847B0ED0212084719EE0211
:1016C30012084738EE02120847DAEE02120847E31F
:1016D300EE0212084734EF021208475DEF021208C8
:1016E300476AEF02120847DBEF0212084769F0026C
:1016F300120847B7F002120847EDF0021208474EEE
:10170300F10212084776F102120847EDF1021208BE
:101713004749F2021208478CF202120847C9F20243
:10172300120847DBF202120847EDF2021208470CD7
:10173300F30212084715F302120847E3F3021208F3
:10174300472FF4021208476DF402120847ABAC03AB
:1017530012084776A503120847ACA503120847FBF6
:10176300A50312084754A703120847FAA102120857
:10177300472BA30212084767A30212084721A502B9
:101783001208474BA502120847C4A70212084704D0
:10179300A80212084799A90212084738AA02120898
:1017A3004790AA0212084716AB021208474EAB0233
:1017B30012084790AB0212084701AD021208478195
:1017C300AE02120847C2B002120847F0B002120874
:1017D300471CB10212084725B1021208477BB10228
:1017E3001208470BB20212084749B502120847CB49
:1017F300B502120847F7B60312084735B6031208B5
:10180300478B8803120847A08803120847538903AC
:10181300120847938903120847AC8903120847DF6C
:1018230089031208472C8A03120847608A031208A7
:1018330047A28A03120847988C031208473DB10355
:101843001208479CB103120847DAB1031208471B79
:10185300B203120847F55F001208473A6000120806
:1018630047C06000120847C86100120847106200B1
:10187300120847826200120847D362001208470920
:101883006300120847B565001208474D6600120849
:1018930047846600120847BC6600120847FD6800CB
:1018A3001208474D69001208478F690012084769FB
:1018B3006A00120847A26A00120847C16A001208A8
:1018C300470C6B001208472C6B00120847D36B00C0
:1018D300120847586C00120847B36C00120847F30C
:1018E3006C00120847096E001208477B700012084B
:1018F300478D7100120847D371001208479B72008D
:10190300120847E07200120847E37200120847ED1D
:101913007200120847F0720012084774730012082D
:1019230047AD7300120847DA7300120847017400C9
:10193300120847257400120847C07400120847CCE8
:101943007400120847F97400120847197500120849
:10195300475C75001208479375001208479276009A
:10196300120847C1770012084741B5031208474DD3
:10197300B50312084789B50312084731AF031208AC
:101983004748EC011208476BEC0112084762ED016E
:10199300120847B4ED0112084716EE011208476812
:1019A300EE01120847B0EE0112084719EF011208C1
:1019B300479EEF011208471AF00112084760F00131
:1019C3001208478AF401120847DDF601120847E7B7
:1019D300F7011208476EF801120847DCC202120829
:1019E300477CC302120847E8C302120847A7C40290
:1019F3001208470BC5021208474EC6021208475D7C
:101A0300C702120847DFC702120847B7C902120804
:101A13004759CA0212084799CB021208472CCC0235
:101A230012084749CD02120847EA770012084753C4
:101A330078001208479B7800120847EE78001208D6
:101A4300474B7900120847A17900120847247A000E
:101A5300120847587A00120847837A0012084795FC
:101A63007A00120847EF7A00120847B37B00120886
:101A730047D77B00120847E47B00120847DE7C004F
:101A8300120847C97D001208476B7E00120847DB26
:101A93007E00120847F07E00120847917F0012086B
:101AA30047DE930312084799950312084758960394
:101AB300120847AD96031208473397031208474E9F
:101AC3009703120847929703120847B8970312081F
:101AD30047DF9703120847F797031208479A9803BB
:101AE300120847AF9803120847D19903120847DA3F
:101AF3009903120847E39903120847EC9903120864
:101B030047008003120847F48303120847F983034D
:101B1300120847FB830312084703A403120847C3B1
:101B2300FF0112084762840312084726B403120810
:101B33004750B403120847BFB603120847F396028F
:101B4300120847729602120847349602120847EBAE
:101B530095021208479F95021208472E9502120814
:101B630047129502120847C9940212084757940274
:101B73001208473394021208470F940212084704CD
:101B83009402120847D69302120847A79302120839
:101B9300479D93021208479493021208478B9302BE
:101BA3001208478193021208477193021208475D96
:101BB3009302120847928F02120847B88D02120847
:101BC30047478D02120847268C021208474DA00290
:101BD3001208473D8A02120847A89F02120847FAD3
:101BE3009E02120847A59E02120847609E02120831
:101BF300472D9D02120847059D02120847348A02A9
:101C0300120847278A021208472A8902120847B096
:101C13009C02120847058902120847158802120818
:101C230047AB8702120847128702120847259A0218
:101C3300120847A0860212084764F8021208478F69
:101C430086021208476A8502120847EE84021208C8
:101C5300474684021208479F8302120847418302C2
:101C6300120847168302120847C7820212084789DF
:101C730082021208476682021208474D8202120846
:101C8300470582021208474F8102120847C38002A8
:101C93001208475D9902120847578002120847004D
:101CA300800212084724B10300000080FB000136C4
:101CB30036010100010201000103010001040106D4
:101CC3000605020000070100340801000F090401A2
:101CD300010D0100FF0E08000017020000190100AA
:101CE300FF1A0100011B0100FE1C0100081D020078
:101CF300001F010001200100012102000023010057
:101D03000F24020000260100012701000828020019
:101D1300FF2A0100072B0102402C0100002D0100C6
:101D2300012E0100012F0100FF30010B1D310800BE
:101D3300003A0100083B01000F3C0100013D010096
:101D4300FF3E04000042040000460400004A040071
:101D5300004E04000052040000560400005A040020
:101D630000010371030103010301030103010322C2
:101D73000302030103100300030003000300030035
:101D830003000300034203000324030603000300CC
:101D9300030403120325032303250323030403047A
:101DA30003000300030003440300030003230300B1
:101DB30003650321003503810300030503000300CA
:101DC30003000300032503230303027102300160B0
:101DD3000211027002010202020202800210026179
:101DE300023A00410063027302720262024302007C
:101DF3000213023800000200020402120200020071
:101E0300020002000204020402370037003C0244CD
:101E1300020002390000020002650200023502815D
:101E23000200020502820283020002010171010124
:101E330001010111010101310101010101800110C1
:101E43000161013B001400630173017201620143EC
:101E5300010001130106013D0135000401120100D7
:101E63000100010001000104010401330133013CBD
:101E73000144013201360000010001650100013512
:101E8300008101000105018201830100010300714A
:101E93000030016000110070003102200350048003
:101EA3000010006100000014006300730072006200
:101EB30000430000001300060000000000040012AD
:101EC3000000000000000000000400040037003799
:101ED300003C024400000000000000000065000018
:101EE300003500810000000500000083000000367B
:101EF300000100060000000F0000000000000000C9
:101F0300000000000003FFFF00000403FFFF0000C8
:101F1300FFFF0FF4010005C4040320000100000BC0
:101F2300000000000000000003010F00000000009B
:101F3300000000000000000000000000000000009E
:101F4300000000000000000000000000000A000084
:101F53000002000000040000000800000010000060
:101F6300002000000040000000800000000001008D
:101F73000000020000000400000008000000100040
:101F830000002000000040000007ECFDFDFDECDC3C
:101F9300DCCCBCACAC9C9C8C7C7C6C6C5C5C5C4C8E
:101FA3004C3C3C2C2C1C1C0100F31902009F190310
:101FB30000A5190400AB190500B1190600BD19FFEE
:101FC300FF00000A810D02510D05630D07570D0C2B
:101FD300390D0D450DFF000000160F00000B150B0A
:101FE300020002220F3300000E5A69674265654101
:101FF3006C6C69616E6365303901030507090B0D6C
:102003000F00020406080A0C0D140AE5D5C5B5A590
:10201300A59585857565303017181921301B1D1F4F
:102023003000393D3F373C3C362C442D00034A49B0
:10203300434E181A250502000119161816161823FF
:1020430003000C0E020B040B0A0708000F303016B6
:10205300181920231A1C1E30020402010101010970
:102063000200000000000000BE040AE8030000FABA
:10207300060E008C1FE8030C2000030309040CFF69
:102083001E1EFF040404082805080A0C74F7120333
:102093006EE99003C0F0900375E4F012167B900391
:1020A300C9E4F0A3F09003C1F0A3F0120ECB121613
:1020B30081900305E4F0A3F0121AE9023BFA74ECF1
:1020C30012036E74D7120910EAFEEBFF54806068A6
:1020D3009003C0E0F91216E78A088B09EA45096004
:1020E3004F7C0080010CEC75F003A4F8A9F074C6D2
:1020F30028F582741F39F583E493F4602CE493F894
:102103008508828B83E06870DCAA08EC75F003A471
:10211300F874C728F582741F39F583E493C0E0741B
:102123000193F583D0821204E6AA08AB091216D5EF
:10213300EEFAEF6480022523EF5420601E120DDBBC
:102143008A088B09EA4509600A120D45AA08AB09FA
:102153001216D5EEFAEF6420022523EEA2E0501FFB
:1021630090037AE0640F70117900120D1BE9600986
:10217300901631120B11120D33EE64010224F8EFA5
:102183005440604F901621E064067028740BF09061
:102193001649E0F9750801750900750A00750B0009
:1021A300900368E07808120800AA08AB09AC0AADEE
:1021B3000B121C099015D81206A27A007B409003DB
:1021C300C0E0F912181F7404120877EEFAEF6440A6
:1021D300022523EE542070030224FC7A207B009016
:1021E30003C0E0F912182BEA4B4C4D701A9003C54B
:1021F300120AF9E8494A4B700E750C01750D00750A
:102203000E00750F008061750C00750D00750E00D2
:10221300750F001218378A088B098C0A8D0B9003EF
:10222300C5120AF9E8494A4B602A9003C578081297
:1022330007E1400E750CFF750DFF750EFF750FFF5F
:10224300801285080C85090D8C0E8D0F9003C578BF
:102253000C1208F87401780C1208C7E50C450D45FB
:102263000E450F70030224297C0079047A007B0059
:10227300120DB78A088B09022350851882851983AA
:1022830074FFF07401120B2874FFF07402120B2810
:1022930074FF1230E9FAA3E0FB74031208F0124F43
:1022A300B1124A06120DF9E964016003022332E513
:1022B30008123FF21238394480F8A3E0F97424126B
:1022C3000B28E8F0A3E9124971A3A3A3E0C0E074CB
:1022D30026120B28D0E0124DA3A3E0540860167415
:1022E30024120B28A3E0440112253BC0E0742812FA
:1022F3000B28D0E0F0125B9C35091250AF60181226
:102303005B9C124927A3E0C8125EB3E0F874121273
:102313000B28E8F0A3E4F09081B91206A27404122A
:1023230008F074071208E8121BB5740412087785C5
:102333000882850983A3A3A3A3A3A3A3A3A37406CA
:1023430012253BF9120D99850A08850B09E5084505
:102353000970030224297C007904AA08AB09120D31
:10236300B78A0A8B0B850882850983A3A3A3A3E0FD
:10237300F510A3E0F511E4F512F513780C791012BA
:102383000A834029E5082404F8E43509F9850C108B
:10239300850D1188828983C3E09510F0A3E0951120
:1023A300122884F8A3E0F9E849709C800E8508821E
:1023B300850983A3A3A3A3E4F0A3F0850882850979
:1023C30083A3A3A3A3A3A3A3A3A3A3E06401850857
:1023D30082850983A3A3A3A3A3A3702BE054046062
:1023E3000302227D850882850983A3A3A3A3A3A354
:1023F300A3A3A37406F07AB78508828509831226FE
:1024030070120D2D02234AA3A3A3A3E060030222AB
:102413007D850882850983A3A3A3A3A3A3A3A3A361
:102423007401F002234A120D877C0079017A007B44
:1024330000120DB78B09EA4509600C7A207B0090E6
:1024430003C0E0F9121711850C0A850D0B7C007986
:10245300047A007B00120DB7EA4B701580538A8211
:102463008B83A3A3A3A3125947E50898E5099940D1
:10247300078A828B83123C657C007904120DB78B2B
:102483000DA90DEA4970D7C3E50A9508E50B95092F
:102493005013C3E508950AF508E509950BF509E519
:1024A30008450970167A207B009003C0E0F91217E3
:1024B300119003C5122534A3F08037E50825E0F514
:1024C30008E50933F509E4F50AF50B780812085C09
:1024D3007A207B009003C0E0F912181974041208E3
:1024E30077121837EAF8EBF9ECFAEDFB9003C51213
:1024F3000AEDEE6420FAEF8027EF5402600A120E11
:10250300C5EEFAEF64028018EF54046016124C64AF
:102513007901900373124A08121BA3EEFAEF6404C5
:10252300FB80047A007B0074291208777F0C020574
:10253300D7E4F0A3F0A3F022124975A3E022C082EE
:10254300C08374EA1209107C167D007900AA18ABC7
:10255300191216BD7408120B287402F09003691245
:102563004FC21225847409120B28124ED074131211
:102573000B28E4124BB4121ADD74161208770249C1
:10258300E8E8F0A3E9F09003731244852274F7128C
:10259300036E74DA120910EAFEEBFFEE4F602DAC06
:1025A30018AD19120DF97406120B28E0601E74178A
:1025B300120B28E0FD7401120B28E0FCEEFAEFFB8E
:1025C3007900120D03E9600479A48002790074266E
:1025D300023BF774F712036EEAFEEBFF8E828F83E2
:1025E300A3A3A3A3A3A3E05440601712590B124A59
:1025F30008120E71E960067AFF7BFF801512590BF2
:102603008003900369124A0874FE6A700374FF6BB7
:10261300604712590B1254DA120E71E98E828F83BE
:10262300600E12412E123FF238F583E4F0A38003CB
:10263300125EDEF07C217D0D8E828F83124A08129A
:102643001AE3E9F5087015EE4F60097901EEFAEF28
:10265300FB120D93A908023BFA7508CDAA081226AE
:102663006C120D2DE960E080EB8E828F8312413274
:10267300125E96E0F92274F612036EE9FEEAFF7A1F
:102683000F7B001216CFEA4B601F8A828B83740C78
:10269300F0EEA3A3F0EF8A828B831239D79003C0A5
:1026A300E0F91216DB7900802FEEF9120DBD8A08CE
:1026B3008B09A808A909E849601C88828983A3A318
:1026C300A3A3A3A3A3A3A37406125BA4E0F9121B01
:1026D300EBEEF9120D997910024B7274F412036E3A
:1026E3008A088B098C0A8D0B90037AE0640F702C97
:1026F300EA4509450A450B6023900375E0640860C9
:1027030005E064047016780812085C7A017B009077
:1027130003C0E0F912181974041208770229B0747F
:10272300F412036E74FC120910EAFEEBFF8E828F23
:1027330083A3A3E0F9120DBD8A088B09EA4509704A
:102743000302285F8E828F83A3A882A983E0C0E05F
:10275300EA240B124924D0E012288464F160288E05
:10276300828F83A3E064CD601E8E828F83A3E06497
:102773001A60148E828F83A3E064E9600A8E828FCD
:1027830083A3E064E170367900120D93E9602EE5CE
:10279300082404F50AE43509F50B850882850983C5
:1027A300122870A3E0F9850A82850B83124A081266
:1027B300168D850A82850B831254DA806E8E828F82
:1027C30083A3E0C0E07402120B28D0E0123392120C
:1027D3005F20123384C0E07403120B28D0E0F0E5CD
:1027E30008240C123836AA18AB197005121BBB80CB
:1027F30003120E597402120B28E064E9702D850848
:10280300828509831230FE750A01780A12086875F9
:102813000AE9780A12086812382C123374123C3908
:10282300124A08120E2F740212087785088285094E
:1028330083A3A3A3A3A3A3A3A3A3E064027012850A
:102843000882850983A3A3A3A3A3A3A3A3A37406B5
:10285300F08E828F83A3A3E0F9120D99120D879056
:102863001637122DA0120D3374040229ADA3A3A3AE
:10287300A3A3A312287A22E0FCA3E0FD8E828F8318
:1028830022125BB4E02274F412036EEAFEEBFF75CE
:1028930008008E828F83A3A3A3A3A3E060487508D7
:1028A300088E828F83A3A3A3A3A3A3A3A3A3124AE4
:1028B3000879FF120BFB8B0BEA450B601075082C94
:1028C3008E828F83A3A3A3A3A3E0D2E0F08E828F93
:1028D30083A3A3A3A3A3E05403640160030229A970
:1028E3004308110229A9EE2418123EEE6038EE24A3
:1028F3001A123EEE6003F470131258317003A3E012
:102903006960030229A97508220229A9EE241B1272
:102913005719EE241A123EEEFAEE2419123EEEF97E
:10292300121C0F0229A98E828F83A3A3A3A3A3A39F
:10293300A3A3A3124A08120E71E964027003750877
:10294300011258317003A3E0697006E508D2E1F57E
:1029530008E50860158E828F83A3A3E07006E5085F
:10296300D2E58004E508D2E6F5088E828F83A3A31F
:10297300A3A3A3A3A3A3A3124A08120E71E964019C
:102983007006E508D2E0F5088E828F83A3A3E0608A
:1029930015EE241D123D4CF9120E5FE96401600629
:1029A300E508C2E0F508A90880031208777F04024E
:1029B30005D774F012036E74D7120910EAFEEBFF09
:1029C3008E828F83A3A3A3A3E060119016351250C8
:1029D300B16009901635122DA0120D33740312083D
:1029E300F08E828F83A3A3A3A3123365124A081226
:1029F3000DF9E97003022B4E78017405120B28E0E0
:102A0300C39402400278007407120B28E0C39402B7
:102A130040027800740C120B28E064F87003A3E002
:102A2300F47003022B4E740C120B28E064F970034C
:102A3300A3E0F47003022B4E740C120B28E064FA2B
:102A43007003A3E0F47003022B4E740C120B28E006
:102A530064FB7003A3E0F47003022B4E7406120BA5
:102A630028E0F9900363E0696003022B4EE8A2E0DB
:102A73004003022B4E7427120B28E06003022B4EF7
:102A8300EE241312447B7422120B28124D8B241C48
:102A930012447B7410120B28124ED07409120B28A7
:102AA300E0601F741A120B28E0FD7404120B28E077
:102AB300FC8E828F83A3A3124A087901120D03E9C6
:102AC300703D74031208E8120D3FE9F5087409120A
:102AD3000B28E0702E90035DE06028742255086493
:102AE30022602074425508644270147420120B282B
:102AF300122DAC600E7420120B28122D8960047AFB
:102B0300CF804AE9A2E6504D7420120B28123D52A1
:102B130024FD600F14600C24FD600824FD60042470
:102B2300FE70287420120B28122D82700E7420124E
:102B33000B28124B6DA3E0640D601A74031208E8AE
:102B4300120E89E96401700D022D757AD37B001290
:102B5300197B022D75EE242DF582E43FF5831230A7
:102B6300DC7003A3E0697022750900780912086814
:102B73007809120868EE242F123EEEF9122D9012F6
:102B83004A02120E2F74021208777409120B28E0FE
:102B93007003022C31122D90124A02120EEF8A0A90
:102BA3008B0BEA450B7003022CCE7404120B28E046
:102BB300F88E828F83A3A3E028F8A3E03400F9E81A
:102BC300240D122D7AF88A828B83A3A3A3E0686075
:102BD3000EE88A828B83A3A3A31239D012253579F9
:102BE30004E9120B2812335CE02AF8A3E0340088CE
:102BF30082F583A3AA82AB831216C38A0C8B0D8C36
:102C03000E8D0F850A82850B83A3A3A3A3780C12D1
:102C130007E14003022D759081ED780C120A298596
:102C23000A82850B83A3A3A3A3780C120AB3900390
:102C330075E064046008E064096003022D75E5082B
:102C4300A2E54003022D08EE242F123EEE851882E2
:102C5300851983F0EE2430123EEEC0E07401120BAE
:102C630028D0E0F0EE2431123EEEC0E07402120BE5
:102C730028D0E0F07414120B28E06401702C740E59
:102C8300120B281238462413123EEE687003A3E099
:102C9300697017740C120B28124A08120E71E9643A
:102CA3000270077414120B28E4F0EE2425F582E475
:102CB3003FF5831206A274041208F074071208E8A1
:102CC300121BB57404120877022D759003BAE064E1
:102CD300016003022C317420120B28122DAC7009F1
:102CE300E508A2E65003022C317410120B28E0F41D
:102CF3007003A3E0F4607BEEFCEFFD74031208E8BD
:102D0300120D4B806DA2E650697420120B28124FEE
:102D1300987016741A120B28E0640270557403122B
:102D230008E87900120E5380497420120B28122DE3
:102D3300897014741A120B28E0640470357403123A
:102D430008E8120E47802B7420120B28122D827074
:102D53000C790074031208E8120E95801574201282
:102D63000B28124B6DE0640C700874031208E81210
:102D73000EAD742902385DF582E439F583E0221241
:102D83005915E0640322125915E0640722EE242B3F
:102D9300F582E43FF583125723EE241322E0F5086E
:102DA300A3E0AA08FBE4FCFD22123C55640622744E
:102DB300F412036EEAFEEBFF8C088D099015D3E045
:102DC300600F1258317003A3E0697005121333804A
:102DD3005A79008E828F83A3A3A3A3A3A3A3A3A340
:102DE300124A08121BDF8A828B83E5824583603394
:102DF300A3A3A3A3A3A3E054186028E508241C12EB
:102E030049241206A6E50824131249241206A6EE45
:102E13002418123EEEF91249EF12139974041208A2
:102E230077800879001249EF121C930229B074F7D6
:102E330012036E74F7120910EAFEEBFF900375E0BC
:102E43006403600DE064016008E064096003022F1D
:102E5300498E828F83A3E06003022F0F7C007D00E5
:102E63007A027B001216871259518A828B8312448D
:102E730081900366124ED07953121ACB900375E0FA
:102E830064096009900373124A08120EE9851882D7
:102E93008519837401124BB47942121ACB900375CE
:102EA3007404F074011208E8794A121AC574011205
:102EB30008F07A6B7B0312184F901621E0640B70B5
:102EC300057406F0800B7900900373124A08121BF5
:102ED300A390036612571F7A037B00121687900391
:102EE3006912571F7A047B00121687900360E0A2D1
:102EF300E35004D2F08002C2F0124BAA7952121AA4
:102F0300CB901631120B11120D338037FC7D007AF2
:102F1300037B10121687901621E0640B7003740A6A
:102F2300F09015D6E4F0FA7B409003C0E0F9121854
:102F3300258E828F83122F50124A08121BA39003EF
:102F430075E4F0120D757409023BF7E0F8A3E0F99C
:102F530090037322C082C0839003051250B1701F87
:102F6300900375E014600924FC600A14600C800F60
:102F730090030F803490030B802F90030D802AE879
:102F830049600890030612336E700C8A828B83A308
:102F9300E0F9121BAF801D900305124F9E6402706F
:102FA30005120EB9800E9003E41250B16006124B65
:102FB3006E1204E60249E874F412036E74FE1209F9
:102FC300108A088B097A007B049003C0E0F9121879
:102FD30025AA18AB197950121AC57A0F7B0012165D
:102FE300CF8A0A8B0BAE0AAF0BEE4F6020850882A7
:102FF300850983A3E07016900373E0F47003A3E0E4
:10300300F4603B1230D67003A3E069603185088217
:10301300850983A374EA12338A121ACB7A697B0374
:10302300794B121ACB7A737B037950121ACB7A68D5
:103033007B0379E1121ACBEE4F70030230CA8E8202
:103043008F837402F0900373E0F47003A3E0F460E1
:103053000A1230D67003A3E069704F851882851970
:1030630083122F4EE8F0A3E912338A121AC5900394
:103073006612384B124ED07A697B03794B121AC50C
:103083007A687B0379E1121AC5750A00780A120877
:1030930068780A12086890161B122F511235AB126A
:1030A3004A08120E2F740212087785088285098355
:1030B3001230CFA3F09003757403F0EEFAEFFB9098
:1030C30003C0E0F91216DB74020229ADA3E08E827D
:1030D3008F8322851882851983124485900373E0B8
:1030E3006822E8F0A3E91230ED22F0850882850911
:1030F30083E022F582E43BF583E022124485E8FA7B
:10310300E9FB2274F512036E74D11209108A088B3D
:10311300098A828B83123D44741C1208F08A828BC5
:1031230083A3A3A3A3A3A3A3A3123374124A0812D2
:103133000D7B741C120B28E0702C85088285098393
:10314300A3A3A3A3A3A3A3A3E0C3940B40188E82BA
:103153008F83A3A3A3A3A3A3A3A3E0640270071273
:103163004EBCE0F46003023357900375E0640270D1
:103173000302323EE06406700302323E90030512FE
:1031830050B1600812336E700302326E900375E023
:1031930064086008E064046003023357741E120B72
:1031A3002812335CA3A3A3A3123D44900305E0F8C4
:1031B300496007124FA464026077900373E06E7056
:1031C30003A3E06F600302335774016A601674232C
:1031D300120B28AC82AD837A877B03121849E9600E
:1031E300030233577A007B029003C0E0F912182BD5
:1031F300EA4B4C4D6003023357900376120AF9856C
:103203001882851983120AED90037CE0C0E07404F0
:10321300120B28D0E0F07405120B287401F0740629
:10322300120B287402124BB4121C1BE96003023305
:1032330054EEFAEFFB120EB302335790030512500C
:10324300B1702875080078081208687808120868B1
:10325300EE2410F582E43FF583123365A312287040
:10326300124A08120E2F74021208778E828F83126D
:1032730044817407120B28E8F0A3E9123851124471
:10328300817409120B28124D8B12441AC0E0740B7F
:10329300120B28D0E0123384F508A3E0F509740F6C
:1032A3007808120AC2740C120B28E508F074201275
:1032B3000B28E0C0E0740D120B28D0E0F07422124A
:1032C3000B28E0C0E0740E120B28D0E0F0741D123E
:1032D3000B28E0C0E07410120B28D0E0F0741E122B
:1032E3000B28E0C0E0740F120B28D0E0F0EE24109E
:1032F300123EEEC0E07411120B28D0E0F0742112DC
:103303000B28E0C0E07412120B28D0E0F0742E12E8
:103313000B28E0C0E07413120B28D0E0F0742312E2
:103323000B28A982AA8389088A09750A00780812DA
:1033330008607C087D007417120B28AA82AB8312E5
:1033430016B1740312087774071208E8121BA980D8
:1033530003121C15742F023D56E0FA8E828F83A34D
:10336300A322E0F98E828F83A3A322124FA56401C7
:1033730022E0F98A828B83A3A3A3A3A3A3A3A3A37A
:1033830022F0124EC0E022F07A667B0379532212B8
:10339300339622F08518828519832274F212036E04
:1033A30074F8120910EAFEEBFF8C0A8D0B890D905D
:1033B3008197AC18AD1974081207C0750C00EEFCA8
:1033C300EFFDAA18AB19121849E97003750C0190A7
:1033D30003C1801AEEFCEFFDE508240BFAE435097E
:1033E300FB121849E97023E5082414124924123406
:1033F300236024E50CA2E040DB850882850983E095
:10340300650A7004A3E0650B70DD85088285098376
:10341300A3A3E0650D70D0AA08AB0974080239EBC9
:10342300123C6DE508450922C082C0839003C102A6
:1034330049E574F712036E9003C1125BC2800C124C
:10344300530F123D47121765EEFAEFFBEA4B70EF8D
:103453009003C1E4F0A3F0023BFA74F112036EEAA5
:10346300FEEBFF890A8C088D098E828F83E08C82A4
:103473008D83124449AE82AF83E012478E12499581
:10348300C412478E12351CE0124795124993A2E2EB
:10349300E4338C828D83124992131313541F124702
:1034A3008E124991A2E7E4338C828D83A3A3A3A355
:1034B30012351C8E0C8F0D750E00780C1208607C73
:1034C300087D00E5082407FAE43509FB1216B174F8
:1034D30003120877EE2408FE50010F8E0C8F0D782F
:1034E3000C1208607C037D00E508240FFAE435091B
:1034F300FB1216B17403120877E50AC3940F401147
:103503008E828F83A3A3A3E0C0E0124920D0E08082
:1035130004124920E4F002594CA3A312444D0EAF08
:10352300832274F512036E8A088B098A828B83A324
:10353300AE82AF83E0F9121B8B8E828F83E064EB44
:103543006024850882850983A3E064E16018850807
:1035530082850983A3E064F1600C85088285098371
:10356300A3E0641A7009850882850983A3E4F090B7
:103573001631120B11120D33750A01780A120868FD
:10358300850882850983A3E0F5087808120868791D
:10359300009003731235AB124A08120E2F740212F5
:1035A3000877120D87023D5912572390036922EAC7
:1035B300F0A3EBF00249E874F612036E9003C4E043
:1035C300701B7C0079017A007B00120DB7EA4B6017
:1035D3000C8A828B831250B16003120D27024B7247
:1035E300C082C0837904120DB1E9F890208BE49373
:1035F300C398401079FF120DB1E9F890208EE4933F
:10360300C39850047901800279000249E874F012EA
:10361300036E8A088B09890B750C008A828B83A33E
:10362300A3A3A3A3A3A3A3E0F9120DBD8A0E8B0F3B
:10363300AE0EAF0F750A01EE4F600302370A85081D
:1036430082850983A3A3A3A3A3A312571F8508827B
:10365300850983A3A3A3A3A3A3A3A3E0F985088256
:10366300850983124A08120DA58A0C8B0DAE0CAF87
:103673000DEE4F70030238258E828F83A3A3A3A37D
:10368300E4F0A3F0E508240CFAE43509FB8A828B05
:1036930083E0C0E012382CD0E0F0E508240D1238A6
:1036A3003F240D124ECA120E77EE240F1254D4E5A6
:1036B30008241112383F2411124ECAE508241312AC
:1036C3003836C0E0124D74D0E0F0750C01EE2406DC
:1036D30012440E547FF0A3E054FC12288454046077
:1036E3000302377F901643E0F508750900740778E5
:1036F300081209CA8E828F83A3A3A3A3A3A3E045C1
:1037030008F0A3E04509F08E828F83A3A3123C65E2
:1037130074077808120AC2E5085407FCE50B606CCD
:103723008E828F83A3A3A3A3A3A3A3A3A374021231
:103733004996123B10600B90036112384BA3A312FE
:103743004ED0EC70030237F3EE2406125E9F547FD3
:10375300F508A3E054FCF509EC24FFF50EE434FF6F
:10376300F50F7407780E1209CAE508450EF8E50946
:10377300450FF98A828B83124ED080748E828F8399
:10378300A3A3A3A3A3A3E04480023709EC700575A8
:103793000A00805C8E828F83A3A3A3A3A3A3E05418
:1037A30020600C1216C9EA547F7900245F80198EB9
:1037B300828F83A3A3A3A3A3A3E05410601A1216BA
:1037C300C9EA540F7900240A5001098E828F83A31A
:1037D300A3A3A3F0A3E9800D8E828F83A3A3A3A346
:1037E3007401F0A3E41238517404123A93121711BE
:1037F300E50CA2E0502F8E828F83A3A3A3A31252C2
:1038030095E0F9EEFAEFFB120DABE960181250A840
:103813006009EE240F124A02121765EEFAEFFB124B
:103823001765750A00A90A8034EE240CF582E43F7B
:10383300F58322F582E43509F583E022F582E43548
:1038430009F583124485EE22125975A3A322123877
:1038530055221246D1A3A3A3A3221208777F0802FD
:1038630005D774F412036E74F71209107E00120D5B
:10387300BDEA4B700302392B8A828B83A3A3A3A3D4
:10388300A3A3A3A3A3E06406600302392B8A828B5C
:1038930083A3A3A3A3A3A3A3E0FF8A828B83125EC4
:1038A300C3E0C0E07408120B28D0E0123C4CF8A32C
:1038B300E0F9851882851983124ED0120DCFEF548B
:1038C30008606385188285198312571F7A007B006D
:1038D300120D9F8B0BEA450B704C125F12121AF5F7
:1038E3007C007D007A007B0080288E828F83123DCE
:1038F30052F47003A3E0F4602D9003731228761240
:103903004A08121AEFE9641A601C7C007D00EEFA83
:10391300EFFB120D9F8A0A8B0BAE0AAF0BEE4F70B3
:10392300C97900121AFB7E01EEF974090229ADC0B0
:1039330082C083EA4B70059003C980068A828B8319
:10394300A3A3123B4860208A828B83A3A3A3A3A3D0
:10395300A3A3E0540860E5EC4D6010123B4F7003E5
:10396300A3E06D70D780047A007B000249E874F20B
:1039730012036EEAFEEBFF890A8C088D097A147B29
:103983000012175FEA4B603A8A828B83A3A3A3A337
:10399300A3A3A3A3A3E4123C41A3E50A12591CA3C6
:1039A300125F1E1239D0123C5F1239D78A828B8381
:1039B300125939EA125B9E3BF583E4F01239C7F0E2
:1039C300A3F08027A3F08A828B83A3A3221259300A
:1039D300E4F0A322A3F01239E23BF583E4F022EAF8
:1039E300124B9922A90A74031208777F060205D79E
:1039F30074F412036EEAFEEBFF89088C0A8D0BEE5A
:103A03004F7003023A8E7401650870127901120D2A
:103A1300B1E9F890208CE493C39850228016740483
:103A2300650870147904120DB1E9F890208BE493C2
:103A3300C398500A7911805574026508704D8E82BF
:103A43008F83A3A3A3A3A3A3A3A3A3E5081244491A
:103A5300A3125573E4F0A3F09003C91250B1601A96
:103A63008003E0F8A3E0F988828983A3A3123B488B
:103A730088828983A3A370EA80039003C9EEF0A32D
:103A8300EF123A931217117900800279C10229B01B
:103A9300F07A207B009003C0E0F922C082C083E962
:103AA300F879009003C9801D8A828B83A3A3A3A303
:103AB300A3A3A3A3A3E068600574FF687001098A48
:103AC300828B83A3A3123B4870DE0249E874F7128A
:103AD300036EEA4B70059003C980068A828B83A329
:103AE300A3123B4860208A828B83A3A3A3A3A3A32F
:103AF300A3A3A3E06970E4EC60108A828B83E012D5
:103B03003B1070D780047A007B00023BFAF8A3E0F5
:103B1300C8125EEAE0540422C082C0839003C980C5
:103B2300068A828B83A3A3123B4860128A828B830B
:103B3300A3A3A3A3A3A3A3A3E06970E580047A00CE
:103B43007B000249E8125BC2FBEA4B22123C516C38
:103B53002274F212036E8A0A8B0B8C0C8D0D75087E
:103B630000750900EA450B60309003C980068E8218
:103B73008F83A3A3123D47EE4F601EAC0CAD0DEE39
:103B8300FAEFFB850A82850B831204E6E964017070
:103B9300DDEEF8EFF988088909AA08AB090239EEC6
:103BA30074F712036E9003C91244817C007D008078
:103BB3000DE8FCE9FD88828983A3A3124481E849C7
:103BC3006030EA687002EB6970E79003C9124A0833
:103BD300E86A7002E96B88828983A3A370081244A0
:103BE300819003C980091244818C828D83A3A3121F
:103BF3004ED080031208777F010205D774F71203B2
:103C03006EEAFEEBFFEE4F602B120DC9123C7512EC
:103C13004A061217658E828F83124A08121765129D
:103C230050A86009EE240F124A02121765EEFAEF4C
:103C3300FB12176580C11257238A828B8322123CA1
:103C43004522125934A3A3A322F0123C51228A82A3
:103C53008B83E0F8A3E0F5838882E022123C45A33E
:103C6300A322A3A3A3A3123C6D22E0F508A3E0F5CE
:103C730009228E828F831241321241283822C08258
:103C8300C083EAFCEBFDEC4D6017EC24FBF582ED01
:103C930034FF1250AF7007123CDBE0F460071216DA
:103CA300D5790580309003C0E0C0E0123CDBD0E062
:103CB300F090208DE493F97ACB7B0312170BE96420
:103CC3000170107A007B209003C0E0F9121711797C
:103CD30000800279040249E8EC24FFF582ED34FF09
:103CE300F5832274F412036EA2AFE433F508C2AF76
:103CF3009003CB123D47EE4F603AEE24FBF582EF83
:103D030034FF1250AF7A007B209003C06007E0F9C4
:103D13001217118005E0F9121717E4F50AF50B786D
:103D23000A120864EEFCEFFD7ACB7B0312170574CD
:103D330002120877E508A2E092AFEEFAEFFB022940
:103D4300B0A3A3A312558BFF22F582E43FF58312A0
:103D53003C55221208777F030205D774F212036ED3
:103D630074FA120910EAFEEBFF750AFE750BFF12D7
:103D73000D8DE960057911023EE6EE2415123EEE43
:103D83006035901659E0C43354E0F8E0333354FC03
:103D930048C0E0124697D0E0125EF3FAA3E0FB7945
:103DA300FF120BFB8B09EA4509600C750AFF124DE4
:103DB30078124C5ED2E0F08E828F83A3A3124A085E
:103DC300120E71E96006EE2412124B81EE241312D7
:103DD3003EEE700D902084E493C0E0124D74D0E069
:103DE300F08E828F83E0A2E7500454038019EE24FF
:103DF30014123EEE7012900352E0C0E0124404D05D
:103E0300E0F0900352E004F0123EEB640170169070
:103E1300164CE0600D90035DE0700A8E828F83E0A4
:103E23007003124B7E8E828F83E064017011EE2447
:103E33000B123D4C64027007123F02E04440F0ACA9
:103E430018AD19EEFAEFFB120DF38A088B0974FE15
:103E5300650A700374FFF4700D8E828F83A3A3E051
:103E6300F50AA3E0F50BEA450960748E828F83E0BF
:103E7300C0E07401120B28D0E0F07404120B281276
:103E83005939EE241E12447B7402120B28124ED0B1
:103E930074011208E0880C890D780C120864EE2472
:103EA30020123EF6120868123F021206A6EE240EF6
:103EB300123EF61208689003661206A67408120BE7
:103EC30028E0F9AC0AAD0B120DED7408120877E97E
:103ED300FE74106E700BAA08AB0912176580027E80
:103EE30010EEF974060239EBEE2411F582E43FF586
:103EF30083E022F582E43FF583E0F50C780C22EEB3
:103F0300124D8022C082C08374D7120910908000A2
:103F130074031208F074261207C08A828B83A3A34A
:103F2300A3A3124481740E120B28E8F0A3E91239FB
:103F3300C8124481740C120B28123FF8123FF2127C
:103F430030F9C0E0741A120B28D0E0F012531912A2
:103F5300447F7420120B28123FF824151230F6C048
:103F6300E07408120B28D0E0F0EA241CF582E43B4D
:103F730012447F7412120B28123FF824111230F6E8
:103F8300C0E07409120B28D0E0F0EA24121230F6D4
:103F9300C0E07407120B28D0E0F0EA241EF582E497
:103FA3003B12447F7424120B28123FF82420123052
:103FB300F6C0E07426120B28D0E012339274FFF09F
:103FC3007401120B2874FFF07402120B2874FFF0B3
:103FD3009081B91206A274041208F074071208E85B
:103FE300121BB574041208777900742902257E2404
:103FF3000DF582E422E8F0A3E9F0EA2274F4120357
:104003006E74EC120910EAFEEBFF8C0A8D0B890922
:104013007508107A217B0012175F85188285198332
:104023001254DA8518828519831250B17003024144
:10403300217C217D007900851882851983E0FA129D
:1040430016BD900373124A0885188285198312419D
:104053002E2409F582E4381254D87420120B281246
:1040630044817411120B28E8F0A3E9124138125E5F
:10407300AD124138125ECA740212448BF8124B6DB2
:10408300E50AF0A3E50B124138125EBAE509F074B4
:1040930022120B28E0F8851882851983E0F9A3E042
:1040A300C9240CF582E439F583E812448BF9A3E0C3
:1040B300C912412839F5831259397423120B281276
:1040C3004A087406120B281254DA7408120B28E8F3
:1040D300F07426120B2812590FC082C083740C127D
:1040E3000B28AC82AD83D083D08274051207C074D1
:1040F30025120B28E0C0E07413120B28D0E0F079EE
:1041030000AA18AB19120D93E96401700575080034
:10411300800C851882851983124A08121765A9082D
:1041230074140229AD241FF582E42212413222E0E5
:10413300F8A3E0C82212448FF8A3E0C82274EE1259
:10414300036EEAFEEBFF8C088D098E828F83A374C6
:1041530008124B9FE060088E828F83A37410F0EEE9
:104163002417123EEE60098E828F83A3E02408F0A9
:10417300EE2415123EEE60088E828F83A3E004F0D6
:104183008E828F83A3A3A3A3A3A3E060198E828F40
:1041930083A3A3A3A3A3A3A3E0C3332402F88E8220
:1041A3008F83A3E028F0123EEB6005750B0E8003AE
:1041B300750B009015DCE0640170168E828F83E02E
:1041C3006401600D9015D6E060071243FA74018014
:1041D300041243FAE4124449E012441828250B8CD4
:1041E300828D83F0123EEB601390035EE0F9120DB3
:1041F30009E9F8850882850983E029F08508828525
:104203000983E0C3947540097508007509000243EA
:10421300F3E0FA7B0012175F8A088B09EA450970FD
:10422300030243F38E828F83E0FA900363124442C6
:104233007402780C1209CAEA450CFAAB0DEE24128B
:10424300123EEE5403F50C750D007406780C12093A
:10425300CAEA450CFCEBFDEE2415123EEE60047831
:104263000180027800EE2416FAE43FFBE8F9ED49F9
:10427300FD123EEBF50C7409780C1209CAED450DDD
:10428300FD8A828B83124442740B780C1209CAEDA7
:10429300450DFDEE241712443C740C780C1209CA28
:1042A300ED450DFD8E828F83A3A3A3A3A3A3124485
:1042B30042740A780C1209CAED450DFDEE2423124F
:1042C300443C740D780C1209CAECF8ED450DF9E87D
:1042D300850882850983F0E9A3F0EE240212440ED7
:1042E300850882850983124464F0EE2404F8E43FD0
:1042F300F988828983124938A3124464A3A3125E06
:10430300F9124435F0124404124435A3F0750A0837
:104313008A828B83E06015EE2418125719E508246E
:1043230008FAE43509FB12184F750A10EE24171228
:104333003EEE6019EE241A125719A80AE50828FA66
:10434300E43509FB12184F7408250AF50A8E828F8B
:1043530083A3A3A3A3A3A3E06058EE2407F510E46B
:104363003FF511851082F583E0C0E012441FD0E0D1
:10437300124454E0C0E008124421D0E0124454A394
:1043830012442C120860851082851183E025E0FC1D
:10439300E433FDA80AE50828FAE43509FB1216B14F
:1043A3007403120877851082851183E0C333250ACD
:1043B300F50AEE2415123EEE6008C0E012441FD049
:1043C300E0F0124EBC12442C120860124419FC7D1A
:1043D30000A80B8E828F83A3E0FAE5082AFAE4355E
:1043E30009FBEA28FAE43BFB1216B17403120877BF
:1043F300AA08AB090246EBEE2423F582E43FF583DA
:1044030022EE2414F582E43FF58322F8E43FF98891
:10441300828983E022F8EE125D9EE022A80AE50875
:1044230028F582E43509F5832212593F750E007889
:104433000C2212446DA3A3A322F582E43FF583E08B
:10444300F50C750D002212444D22F08E828F83A34A
:1044530022F0050A8E828F83A3A3A3A3A3A3A3A3FE
:1044630022A3A3125BAF12446D2212493CA3A322E1
:1044730074030229ADEE240BF582E43FF583124465
:104483008522E0F8A3E0F92212448F22123396E04A
:104493002274EE12036E8A0A8B0B8910ECFEEDFF79
:1044A300750F017C267D007900EEFAEFFB1216BD35
:1044B300E510C39408500302462B8E828F83E510C8
:1044C300F0EEFCEFFD850A82850B83124963120D22
:1044D300FFE96003750F001249458E828F831249ED
:1044E3009D124B93124987C0E0EE2411F582E43FFD
:1044F300F583D0E012497FC0E0EE2412F582E43F59
:10450300F583D0E012444974081246C9A3A3E060BE
:1045130018E50A2408F8E4350BF9EE2413124ECA01
:104523008E828F83A3E02408F08E828F83A3A3A3BC
:10453300A3A3A3A3A3E060178E828F83A38582081E
:104543008583091249581246971230E52408F0EE84
:104553002419124B81EE241B124B81A31246C9E08E
:10456300600F1246B08E828F83A3A3A3A3A3124628
:10457300DCEE2418123EEE700302461B1246B0FA1C
:10458300EE2419F582E43FF583EA1246DCF8E50AE6
:1045930028F582E4125F0CF8EE241AF582E43FF565
:1045A30083E81246DCE8C39AEE50682419123EEE03
:1045B300F8902081E493C398500575110C8008EEA0
:1045C3002419123EEEF5118E828F83A3E0F8E50ADB
:1045D30028F50CE4350BF50D750E00780C12086008
:1045E300AC11EC2CFCE433FD7A557B0B1216B17441
:1045F30003120877EE241BF582E43FF5837455F02C
:10460300A3740BF0E511C333F8850882850983E0B1
:10461300288004124B77E4F08E828F83A3E0F88E18
:10462300828F83E0C398500479008066A3E0FAE5A3
:104633000A28F8E4350B1246A5E8F0A3E9124996D7
:10464300C39AC0E0EE2417F582E43FF583D0E0126D
:1046530046E2603CEE2417F8E43FF98808890988AC
:1046630082F583E024F2F0EE241D12440E240EFAA8
:10467300A3E03400FB888289831254DA90035EE05E
:10468300F9120D09E9F8850882850983E0C398F0DA
:10469300A90F805412469B22EE2415F582E43FF5C0
:1046A3008322F9EE241DF582E43FF583228E828F67
:1046B30083A3858208858309E0F8E50A28F582E467
:1046C300350BF583E0221246CD221246D122F08E1D
:1046D300828F83A3A3A3A3A3221230ED04F022129B
:1046E30046CDA3E0221208777F0A0205D774F4129D
:1046F300036E8A088B09EA124795A3A3F0EA131302
:10470300543F12478EA3A3A3F0EAC4131312479591
:1047130012479F7409780A120AC2124785A3A3A3FA
:10472300A3A3A3F0EB12478712479E740A780A12D9
:104733000AC2E50A5401C0E0EC1254BB3DF583D034
:10474300E01247A3740B780A120AC2124785124774
:104753009C740C780A120AC2124785A312479C74F0
:104763000D780A120AC2E50A5401C0E0EC2424F5CC
:1047730082E43DF583D0E0F0740E7808120AC20299
:1047830029A9E50A54018C828D8322540F8C828DD2
:10479300832254038C828D8322A3A3A3A3A3A3A365
:1047A300F08A0A8B0B22C082C08379008A828B83B2
:1047B300A3A3A3A3A3A3E090035D600EE0702C8AE0
:1047C300828B83A3A3E07023801FE0601E8A828B09
:1047D30083A3A3A3A3A3A3A3A3A3124A089003663B
:1047E300E06A7003A3E06B600279010249E874F2A6
:1047F30012036E8A0A8B0B890C8C088D098A828BB3
:1048030083124963120DFF12494585088285098386
:1048130012499D124918124987C0E0E50824111274
:104823004924D0E012497FC0E0124920D0E0124D64
:10483300927408124971E06017E50A2408F8E43518
:104843000BF9E508241312492C124D92E02408F0C9
:10485300850882850983A3A3A3A3A3A3A3A3E060DD
:1048630017850882850983A3124954E50824151284
:10487300492C1249962408F0850882850983A3A34D
:10488300A3A3A3E06019850882850983A3AE82AF41
:10489300831246BB85088285098312499104F0AAD5
:1048A30008AB09120E05E9F50D705B8508828509D1
:1048B30083A3A3A3A3A3A31249387016E0FAE50ABE
:1048C3002AF8E4350BF912490E124ECEE50CC39AC1
:1048D3008028124954E8240EF850010912490E1297
:1048E3004ECE90035EE0F9120D09E9F88E828F83B4
:1048F300E0F9E50CC39924F2C398C0E0E508241756
:10490300124924D0E0F0A90D0239EEE508241DF583
:1049130082E4350922E5081239E3350922E5082442
:1049230012F582E43509F58322F582E43509F5832E
:10493300E8F0A3E92212493C22E085088285098335
:10494300A322850A82850B83A3A31249B3E0F9EA64
:1049530022AE82AF83E0F8E50A28F8E4350BF922AA
:10496300E0FAA3E0F8E4C8F9EA28E439FB221249A3
:104973007522124D9AA3A3A3A3A3A3221249C6A3EC
:10498300A3A3E022F583E81249BFA3A3E022A3A3D4
:10499300A3A3A3F08E828F83E022A3A3A3A3A3A345
:1049A300A3A3A31249BF1249B3A3A3E0F9EAF822D0
:1049B300E0FA850A82850B83A3A3A322F0A3E9125D
:1049C30049C622F0850A82850B83A3A3A3A322C031
:1049D30082C0837AD97B0379E2121AC57AD97B0321
:1049E3008003124A08D083D0820208448E828F83C8
:1049F300A3A3A3A3A3A3A3A3A3125723EE240BF55B
:104A030082E43FF583125BC2FB22C082C083900322
:104A13006680CFC082C08390036980C6C082C08392
:104A2300794A121AC580BE74F612036E9003E1E050
:104A3300FE04F0EEF9120DBD8B09EA450970EDEEA7
:104A430060EAF9024B7274F212036EEAFEEBFF8C1A
:104A5300088D09890A120EEF8A0C8B0DAC0CAD0D73
:104A6300740E120B28E0F9740F120B28E0F8EC4DCA
:104A73007012E8701BA90AAC08AD09EEFAEFFB123D
:104A83000F0D8072E86017E970068C828D83E4F065
:104A93007401687061E99003E67028E48022E9708C
:104AA30055EC2402F582E43DF583E0A80A28F8E4F6
:104AB300340013E813F0703E8C828D83A3A374013A
:104AC300F08033E004F0901644E0F89003E6E0C38E
:104AD300984023E4F0900369E06E7003A3E06F70E5
:104AE30015EEFAEFFB7901121B917A017B0090031B
:104AF300C0E0F91218250239EE74F412036E8A0825
:104B03008B098C0A8D0B9081ED7808120951700E78
:104B13007A017B009003C0E0F912171180359016DB
:104B2300317808120AB3EA4509450A450B6018783B
:104B33000812085C7A017B009003C0E0F91218198F
:104B43007404120877800C7A017B009003C0E0F9AB
:104B53001218250229B0C082C0839016350235B2DF
:104B6300C082C0839016370235B2A3125916227F32
:104B7300020205D71254BB3FF58322EE2411F582BE
:104B8300E43FF583E4F022124B93F583124C542255
:104B9300124B983F22EE240BF582E422F0EE24160A
:104BA300F582E43FF58322A2F0E433851882851968
:104BB30083F0AA18AB192274F412036EEAFEEBFF1A
:104BC3007A007B049003C0E0F9121825124C64901C
:104BD30003757409F0120E118A088B09AC08AD092C
:104BE300EE2413124A02121849E9640170587A0F2D
:104BF3007B001216CF8A088B09EA450960488A822E
:104C03008B837402F01259593F124C4CFC888289F1
:104C130083A3A3E0FBEC8A82850983A3A31254DB5D
:104C230088828983A3A3A3E08A82850983A3124C84
:104C33005EFAA3E0FB794A121ACBAA08AB099003E8
:104C4300C0E0F91216DB0229B0124C52A3E022F5A0
:104C530083E0F8A3E0F98882898322F012469BE07F
:104C630022900307124485901637E8F0A3E9F090E9
:104C73000309124485901635E8F0A3E9F02274F491
:104C830012036E74FD1209108A088B097401120B4A
:104C9300287402124BB4120E658A0A8B0BAE0AAF4C
:104CA3000BEE4F7003024D6F125ED3E4124D92A3CD
:104CB300A3A3E06401700888828983A37420F0852C
:104CC3000882850983A3A3A3A3A3E06401700988D1
:104CD300828983A3E0D2E6F0850882850983A3A3B2
:104CE300A3A3A3A3E06401700A88828983A3E0D20B
:104CF300E78005124D747401124DA3E06401701E28
:104D0300850882850983A3A31250B16003125960F9
:104D1300850882850983A3A3124481124EC785089F
:104D230082850983A3A3A3A3A3A3A3E064017007BC
:104D3300125D91F0A3E4F0850882850983124A0885
:104D4300120E71E96004124D78F0EE2417125963C4
:104D5300120E111254D185088285098312597112DA
:104D63004D89FAEFFB121C33E9F9800279100244F2
:104D730073125F0222124D7FE0440422EE240FF5EA
:104D830082E43FF58322A3A3E8F0A3E9F0EE221225
:104D93004D9622124D9A22F0850882850983A3221B
:104DA300124D96A3A3A3A32274F512036E74F312F8
:104DB3000910890AEAFEEBFF7508007509007C0DEE
:104DC3007D007900AA18AB191216BD1246A6124F20
:104DD30091741F58600C7AD37B0012197B790002FF
:104DE3004EB7E8A2E55008740C120B287401F0E8E2
:104DF300A2E75008740B120B287401F0E8A2E674C2
:104E03000A5008120B287401F08008120B28E06482
:104E13000170138E828F83A3A3A3A3A3A3A3E06034
:104E230032EE241380128E828F83A3A3A3A3A3A3A2
:104E3300A3A3E0601EEE2415F582E43FF58312344C
:104E4300236010AC08AD097402120B28AA82AB834D
:104E530012184F124EBC124FC2124ED0740A120BCC
:104E630028E0640170458E828F83A3A3A3A3A3A329
:104E7300A3A3A3124A08120E71E970361244789064
:104E83000369E0687003A3E0697027E508450960DA
:104E93001A120E118A088B09AC08AD097402120BA1
:104EA30028AA82AB83121849E96007AA18AB191222
:104EB3001B97A90A740D023D56124EC022124B983D
:104EC3003FF58322EE2418F582E43FF583E8F0A34F
:104ED300E9F02274F712036E74CD120910EAFEEBA7
:104EE300FF8E828F83124F9EA2E04003024F8C8E6F
:104EF300828F83124B8FA3A3A3A3A3A3E054FE1219
:104F03005BBA740D1208F0124FB1124A06120E0B5F
:104F1300E97076742A120B28124F98706C7C0D7D01
:104F2300007900AA18AB191216BD7416120B2812B9
:104F33004FC2124ED0742A120B28124F91A2E55081
:104F430008740B120B287401F0E8A2E75008740AE6
:104F5300120B287401F0E8A2E65004742080027456
:104F630022120B2812571F7402120B28AA82AB833A
:104F730012184F8E828F83A3A3E0C0E0740C120B30
:104F830028D0E0124BB4121B9D7433023BF7125925
:104F930013A3E0F822123C55640422E0F8124FA454
:104FA30022A3E0C82406F582E438F583E022EA244C
:104FB3001EF582E43BF583E0F9EA1241283B221215
:104FC300448585188285198322E9F8790074046879
:104FD300600A740A68600574036870027901020844
:104FE3004474F612036E8A828B837424F0A3A37431
:104FF30001F0121C278A088B09AE08AF09EE4F6037
:105003000D8E828F83125632120E111254D1EEFA84
:10501300EFFB024B72C082C0839003CD7401F0E9B1
:10502300A2E350037403F0E9A2E15004E0D2E2F0FA
:105033000249E874F612036E79007C008A088B0932
:10504300780812061DF8FF076B50695069506950C4
:105053006950615065506B505D507C01800A7C043F
:1050630080067C0280027C089003CDE05C600479BA
:10507300028005EC60027901024B7274F612036E32
:105083008A828B83E07017A3A3A31250B1600F8AA7
:10509300828B83A3A3A3124A08120C4380047A00D1
:1050A3007B00024B72EE240FF582E43FF58312443A
:1050B30085E84922C082C0837C00EC75F003A4F824
:1050C300ADF0EDF91251617003A3E06B70189020FD
:1050D30080E493C0E074D028F58274033DF583D057
:1050E300E0F079C580620CECC3940340CD7C00EC06
:1050F30075F003A4F8A9F074D128F5827403122D76
:105103007D64FE7003A3E0F4600F0CECC3940340D2
:10511300DE7C00EC12514E7026EC75F003A4FCAD5E
:10512300F074D02CF874033DF988828983A3125458
:10513300DA902080E49388828983F0790080090CD7
:10514300ECC3940340CD79C70249E875F003A4F892
:10515300A9F074D028F582740339F583E02274D161
:1051630028F582740339F583E06A2274F412036E1E
:1051730074F31209108A088B09ECFEEDFF750A120D
:10518300EA45097005790002522A900366E0650832
:105193007004A3E06509701D120E118A0A8B0BAC13
:1051A3000AAD0BEEFAEFFB121849E97005750A0117
:1051B3008003750A00851882851983E4F004120BB5
:1051C30028125F20124BB4121C57E9602A74031291
:1051D3000B28AA82AB83121C75E964017019750A46
:1051E300017403120B28AC82AD83EEFAEFFB1218A5
:1051F30049E96003750A00EEFCEFFDAA08AB09124A
:105203000EF5E9F8740A687005750A01801774A031
:10521300687012EEFCEFFDAA08AB09120F01AA0891
:10522300AB09120F13A90A740D0229AD74F7120307
:105233006EEAFEEBFF8E828F83A3A3A3A3A3A3A394
:10524300A3E060131246971249FC120E83E964012E
:105253007005124EBC802C8E828F83A3A3A3A3A3BD
:10526300A3A3E06028124D74125295124A08120E3D
:1052730083E9640170178E828F83A3A3A3A3A3A3DF
:10528300A3A3A3124A08120E7D79018002790002BA
:105293003BFA12287AA3A3A3A3A3A3A3A3A32274D1
:1052A300F212036E74FD1209108A088B09ECFEEDED
:1052B300FF890B750A017401120B287404124BB495
:1052C300120E65EA4B60427411120B28E06014124F
:1052D300561DE41259298A828B83E0D2E7F01253D8
:1052E3000FE4F0125319124B8D74031254CBEE8852
:1052F300828983A3A3F0EF88828983A3A31239C78A
:10530300125F19121C33E9F50A0239E7EA2414F58E
:1053130082E43BF583221239E23B2274F412036EDA
:10532300EAFEEBFF890A1246A612590FA3E0F50B1A
:10533300EE2417123EEE640460097AD37B0012193F
:105343007B806FE50B12072B01000E56530053535E
:10535300750A001246A6A3E0F9EE2409F508E43F16
:10536300F50988828983A3A3E0FA88828983A3A3AA
:10537300A3E0F8E4C8F9EA28FCE439FDA90B8508A1
:1053830082850983124A08121B7F85088285098357
:10539300124A08120E71E96019123EEBC3940240DF
:1053A30011124EBC12583E7003A3E0696004A90AAF
:1053B300800279000229B074EE12036E74F51209AB
:1053C300108A0A8B0B890D8C0E8D0F7E01EE120B4A
:1053D30028740AF0741D120B28E0F50CE9700FE530
:1053E3000CC333240AC0E0EE120B28D0E0F0AA1855
:1053F300AB19120E658A088B09EA4509700302543A
:10540300B4EA12491A1255807409F0A3E50DC433A6
:1054130054E0450C125595AC0EAD0FEEFAEFFB12AE
:10542300184FEE2408FE50010FE50D702F7C007419
:105433001E120B281230FE801D1254C1EA28F8EB0D
:1054430039F988828983125590888289831230CFF3
:10545300F0A30EAF830CECC3950C40DDE5082417D5
:105463001249247401F0120E11E508241AF582E49E
:1054730035091254D874031208F0AA0AAB0B121C94
:105483006FE96019E50824161249247401F07403C6
:105493001208E0E5081254BB3509124ECE85088286
:1054A300850983A3A31254C9AA08AB09121C33E9C3
:1054B300FEEEF9740B0246E82418F582E422EC258B
:1054C300E0F8E433F922E50AF0A3E50BF022EE2439
:1054D3001AF582E43FF583EAF0A3EBF02274F012AD
:1054E300036E8A0A8B0B890D8C088D09901529127E
:1054F30050B160797410120B28E0F50C1254C2E815
:10550300240EFAE439FB1216CF8A0E8B0FAE0EAFC0
:105513000FEE4F60588E828F8374D4F0125573A3AD
:10552300A3E50DF0AC08AD09EE2405FAE43FFB1248
:10553300184FEE123FF23FF583E50CF07411120B96
:10554300281259047808120860AC0CEC2CFCE433E4
:10555300FDEE240EFAE43FFB1216B1740312087732
:10556300EEFAEFFB90152912590F1204E602386088
:10557300A3A3E50AF0A3E50B12444DA322F583127E
:10558300558BFF8E828F8322E0FEA3E022E08E8282
:105593008F83F0A3AE82AF832274F012036E74FD87
:1055A3001209108A0A8B0B8C088D09890D750C0161
:1055B3007401120B287403124BB4120E658A0E8BFE
:1055C3000FAE0EAF0FEE4F603D124B8A740BF0A37C
:1055D300E50D1256167413120B2812561012563478
:1055E300120E111254D1125960EE1254BB3F125FC6
:1055F300178E828F83A3A3E50AF0A3E50B12562728
:10560300121C33E9F50CA90C740302385DE088829F
:10561300898322F0A3A882A98322EA2417F582E4CE
:105623003BF58322125EFD7401F0EEFAEFFB227468
:1056330001F0EE24171259672274F012036EEA1276
:10564300595A3B125708F8A3E0FEE86003025705D6
:1056530074016E600874026E6003025705EE9015C4
:10566300D6F07508D675091578081208647508010F
:1056730075090078081208647C007D007A517B006C
:105683001217E3740412087774026E707590165340
:10569300E0700A901F5078081209DD8028F508741D
:1056A3000278081209CA74502508F582741F12493A
:1056B3002778081209DD9081CD780C120AD1780879
:1056C300790C12027F908201780C120AD178087942
:1056D3000C1202FF9081F1780C120AD17808790C30
:1056E30012027F9015D87808120AB39015D81206C3
:1056F300A27A007B409003C0E0F912181F740412D1
:105703000877023860F583E02401F8A3E03400F958
:1057130088828983E022F582E43FF58312572322AE
:10572300E0FCA3E0FD2274F612036EEAFEEBFF90A9
:1057330003CE801388828983E06E7003A3E06F60D9
:105743003A88828983A3A31250B170E87A047B005C
:1057530012175F8A088B09A808A909E849601C8801
:105763008289831259399003CE124A088882898329
:10577300A3A31254DA9003CE124ED0024B7274F4E8
:1057830012036E7E009003CE80070E8A828B83A362
:10579300A3123B4870F4EE25E0FAE433FB12175FE3
:1057A3008A088B09EA4509607F7C009003CE80223A
:1057B3008A828B83E0F50AA3E0F50B1254C1E50856
:1057C30028F582E50939F5831254C90C8A828B8343
:1057D300A3A3123B4870D99003BB12583E7003A396
:1057E300E0697808701C120864EEF50A780A12085A
:1057F300687C877D0379009003BB124A08120EA1CF
:10580300801A120864EEF50A780A1208687C877D0C
:105813000379009003BB124A08120E9B740312080B
:1058230077AA08AB09121765121C150229B08E82DC
:105833008F83A3A3A3A3A3A3A3A3A312448590032A
:1058430066E06822C082C08380128A828B83A3A30E
:105853001244819003CE124ED01217659003CE12DC
:105863003B4870E60249E874F512036E9003731225
:105873003D479003E2122F4E124ED07AE27B03791A
:1058830050121ACB9003E21259048013125B097071
:1058930004A3E065096006125B16120EE3050A9085
:1058A3002086E493F8E50AC3985020E50A75F017BB
:1058B300A4F8A9F0125A066E7003A3E06F70CD74BA
:1058C300EB28F5827409125F1680D29003E2123D31
:1058D3004790152B1250B160257A067B001216CF24
:1058E300EA4B601A8A828B8374D5F0A3A3E412591E
:1058F3001C0412592990152B12590F1204E6023D6C
:1059030059123C6D750A00228E828F83125913221D
:10591300E0F8A3E0F58388822212592022F08A82DC
:105923008B83A3A3A322125930125939221259345B
:1059330022125920A322EEF0A3EFF022E0F50CA3EC
:10594300E0F50D22124485C3227F070205D7EE241A
:1059530002FAE43FFB22EE241DF582E422EE241634
:1059630012596722F582E43FF5837401F02212593C
:105973007522E0F8A3E0F98E828F832274F7120375
:105983006E7E008008EE125B0F120EE30E1259C0FA
:1059930040F37E00EE75F003A4F8A9F074D028F864
:1059A300740339F988828983A374FEF0A304125B1C
:1059B300B4E4F00EEEC3940340DA023BFA9020867F
:1059C300E493F8EEC3982274F712036E7E0080010D
:1059D3000E1259C05026EE125A166A7003A3E06BDA
:1059E30070EE125A066C7003A3E06D600A74FF6CCC
:1059F300700374FF6D70D9125B1680047A007B000C
:105A0300023BFA125A0A2274EB28F582740939F51B
:105A130083E02275F017A4F8A9F0125A2122125C30
:105A230099E02274F612036E7CFF7DFF7AFE7BFF02
:105A3300120ED1EA4B703C7508008032E50875F010
:105A430017A4F8A9F074F028F5827409122D7D606B
:105A530005125CA4701674E128FE740939FF8E8266
:105A63008F83124A08120B3BEEFAEFFB0508125A1A
:105A73007940C9024B72902086E493F8E508C398F5
:105A830022902086E493F8ECC3982274F412036EF8
:105A93008A088B09ECFEEDFF800B120EE3EEFCEFA0
:105AA300FDAA08AB09120ED1EA4B70EE0229B074BD
:105AB300F712036EEAFEEBFFEE4F60187C177D00D2
:105AC30079001216BD8E828F8374FEF0A304125DDB
:105AD300B7F0A3F0023BFA74F612036E8A088B093F
:105AE3007E00801AEE75F017A4F8A9F0125B097016
:105AF30004A3E065096006125B16120EE30E125949
:105B0300C040E1024B72125A0A65082275F017A4CD
:105B1300F8A9F074E128FA740939FB2274F6120328
:105B23006E120ED18A088B09A808A909E8496009F1
:105B3300E8240DFAE439FB80047A007B00024B72FF
