:020000040000FA
:06000000020AA30201C385
:03002B0002075574
:0300430002077B36
:030053000200F8B0
:03006B0002053952
:1000830002015705030101FF221E00000000581D55
:1000930000000000FF000000FF00010124341201F2
:1000A30000000477810357810020FD00020612FF40
:1000B300FF0101010400BD14000000E8030000FF7C
:1000C300FF6415E803000064006400B801A0BB0DE1
:1000D30000A0BB0D00020200080000050207010595
:1000E3001E02051E0A0803B80B020102E8030A05F3
:1000F3000001FFFF02C0E074F11203DAA2AFE433A0
:10010300F509D2AF85A708AFA1EF5508FE74105EBD
:10011300600612142375A1EF74085E600812142997
:1001230075A1F78024EFA2E092F0E508A2E082F047
:100133005017906198E0F890094FE0C398A2D265F8
:10014300D0335002E8F075A1FEE509A2E092AF7F3B
:1001530002020439C0E074F21203DAA2AFE433FE00
:10016300D2AF9061A4E0F8759B00E5915854086004
:10017300087591F71214718023E5915854106008A3
:100183007591EF1214778014E591A2E092F0E8A242
:10019300E082F05007E0C2E0F01215C19061A3E0E5
:1001A300F8E5E9585404600E12159775E9FB906160
:1001B30093E0A2E640F2EEA2E092AF7F010204399F
:1001C300C0E074F21203DAA2AFE433FED2AF90615F
:1001D300A5E0F8E5BF585404600675BFFB1215D9B6
:1001E30080D4C3E498F8E499F91202268026C3E484
:1001F3009AFAE49BFBE920E7E9120226E498F8E483
:1002030099F922C3E498F8E499F9120226E498F8DC
:10021300E499F9C3E49AFAE49BFB22EB20E7CFE9E4
:1002230020E7E0B90010BB0008E88AF084F8AAF0E0
:1002330022E4FBC8FA22EB70227B10C833C8C9330F
:10024300C9335007C39AC3DBF280069A50012ADBF5
:10025300EAC833F4C8C933F4C9FA2275F008E4C80C
:1002630033C8C933C933C99AC99B5004C92AC93B86
:10027300D5F0ECFBC833F4C8E4C9FA22080808EA4D
:10028300C0E0EBC0E086F0E7A4FA180986F0E7A423
:100293002AFA180986F0E7A42AFA180986F0E7A4CF
:1002A3002AFA1986F0E7A4FBE5F02AFA190886F082
:1002B300E7A42BFBE5F03AFA190886F0E7A42BFB39
:1002C300E5F03AFA18180986F0E7A4C5F02BFBE429
:1002D3003AFA1908E7C5F0C6A426F6E5F03BFBE4B5
:1002E3003AFA1886F0E7A4F6E5F00826F6E43B08A8
:1002F300F6E43A08F6D0E0FBD0E0FA22E4CFC0E01F
:10030300E4CEC0E0E4CDC0E0E4CCC0E075F020E68C
:1003130026F608E633F608E633F608E633F6181849
:1003230018EC33FCED33FDEE33FEEF33FFC3EC97F4
:1003330009ED9709EE9709EF97191919400FFFEC8B
:1003430097FC09ED97FD09EE97FE191906D5F0BF45
:10035300ECF709EDF709EEF709EFF7191919D0E0F2
:10036300FCD0E0FDD0E0FED0E0FF222518C582C01E
:10037300E0E51934FFC583C0E0E518C3958224F88E
:1003830010AF0885831985821880088583198582B3
:1003930018D2AFCEF0A3E520F0A37808E608F0A3C7
:1003A300DEFAEFF0A3E58124FAF8E608F0A3E60805
:1003B300F0A3E608F0A30808E608F0A3E608F0A314
:1003C30015811581D0E0FED0E0F8158115811581E6
:1003D300E8C0E0EEC0E022C0D02518C582C0E0E549
:1003E3001934FFC583C0E0E518C3958224F310AF29
:1003F300088583198582188008858319858218D218
:10040300AFC8F0A3E9F0A3EAF0A3EBF0A37908E700
:1004130009F0A3D8FAECF0A3EDF0A3EEF0A3EFF00C
:10042300A3D0E0F0A3D0E0F0A3D0E0F0A3E520F068
:10043300A3E5F0F0A322851983851882E0C0E0A329
:10044300E0F9A3E0FAA3E0FBA37808E0F608A3DF52
:10045300FAE0FCA3E0FDA3E0FEA3E0FFA3E0C0E01D
:10046300A3E0C0E0A3E0F5D0A3E0F520A3E0A3F56B
:10047300F010AF0885831985821880088583198554
:100483008218D2AFD082D083D0E0F8D0E032120B02
:100493001DB900030204D0E490030178EF791380BF
:1004A30002F0A3D8FCD9FA7AEF7B15900086787313
:1004B30079018015E493A3AD82AE838A828B83F0A6
:1004C300A3AA82AB838D828E83D8E9D9E77582A4F0
:1004D3007583A2740312083E75829F75831C740092
:1004E30012083EE47375F0108E1A8F1B85821F85E8
:1004F300831E851882851983E0CEA3E0CF851F82F2
:10050300851E83EBC9EAC8EDCBECCAC3E833C8E95F
:1005130033C9EA33CAEB33CBC3EA9EF51DEB9FF530
:100523001CB35004AB1CAA1DEC33CCED33CDD5F07A
:10053300DAAE1AAF1B22C0E074EF1203DAA2AFE403
:1005430033FED2AF9004CAE0F8A3E0F9E84960298A
:100553009004CCE0F508A3E0F509E4F50AF50B787F
:100563000812085C9004CAE0FAA3E0FB9004C9E017
:10057300F912180D7404120877758900C2C5EEA22A
:10058300E092AF7F04020439D083D082ECC0E0ED67
:10059300C0E0E493A3FCE493A3FDED4C600D1206CD
:1005A30063EC24FFFCED34FFFD80EFE493A3FCE454
:1005B30093A3FDED4C600D120700EC24FFFCED341A
:1005C300FFFD80EFD0E0FDD0E0FCE493A3C0E0E4C6
:1005D30093C0E022851983851882E0A3FEE0A3F58A
:1005E300207808E0A3F608DFFAE0A3FFE0A3C0E069
:1005F300E0A3C0E0E0A3C0E0E0A3C0E0E0A3C0E06C
:1006030010AF088582188583198008858218858331
:1006130019D2AFD083D082020844D083D082E9C0FC
:10062300E0E493A3C386F0C5F095F0F908E493A33F
:1006330086F0C5F095F0700BE493A3C3994005E9E8
:10064300048002A3E475F002A42582F582E5F03567
:1006530083F583D0E0F9E493A3C0E0E493C0E02200
:10066300C0E0C3E49396087401939618400FE49393
:1006730066700808740193661870007019A3A3C309
:10068300E49396087401939618A3A3400DD0E0D089
:10069300E0D0E00205C7A3A3A3A3A3A3D0E02274E1
:1006A30004800474028000CCC0E0EDC0E0E518C310
:1006B3009CCCAD1950011D10AF068C188D19800606
:1006C3008C188D19D2AF1207C0D0E0FDD0E0FC2208
:1006D30074028000CCC0E0EDC0E0E518C39CCCAD53
:1006E3001950011D10AF068C188D1980068C188DBA
:1006F30019D2AF12079ED0E0FDD0E0FC22C0E0C0CB
:10070300F088F0E49366700808740193661870002B
:10071300A8F0A3A3700BD0F0D0E0D0E0D0E00205A6
:10072300C7A3A3D0F0D0E022D083D082CCC0E0E432
:1007330093A3600612081F1470FAE493A3600612D1
:1007430009261470FAD0E0FCE493A3C0E0E493C05C
:10075300E022C0E0C0D0E8C0E0E9C0E0A9A8D2AF81
:10076300C2C7E9A2E7E433F8E9A2E792AFD0E0F920
:10077300D0E0F8D0D0D0E032C0E074F21203DAA2B5
:10078300AFE433FED2AFC2C0E5D1A2E450031213EB
:1007930099EEA2E092AF7F01020439CAC0E0E4936C
:1007A300A3C582CCC582C583CDC583F0A3C582CC46
:1007B300C582C583CDC583DAE5D0E0CA22CAC0E0CD
:1007C300E0A3C582CCC582C583CDC583F0A3C58212
:1007D300CCC582C583CDC583DAE6D0E0CA22C00882
:1007E300C3E096F50808A3E096420808A3E0964202
:1007F3000808A3E09645087001D3D00822700908C1
:100803000808226016181818C6C333C608C633C6AC
:1008130008C633C608C633C6D5E0EA22C0E0E4936F
:10082300A3D39C5010E493A3C39C400AD0E0D0E030
:10083300D0E0020748A3A3A3D0E022C09FF59FE422
:1008430073D09F22D083D082C09FE493C0E0740111
:1008530093C0E0740293F59F227404800A740380AA
:1008630006740280027401C0E0F404120892D0E01E
:10087300120AE02200C0D0251810AF08F518500C5A
:1008830005198008F51850020519D2AFD0D02225DA
:1008930018F58210AF08F518400C15198008F518E3
:1008A30040021519D2AF85198322BB0102E722C08A
:1008B30082C08389828A83BB0003E08002E493D0F1
:1008C30083D082226016080808C6C313C618C6134D
:1008D300C618C613C618C613C6D5E0EA222518F8EB
:1008E300E43519F9222518FAE43519FB222518FCF9
:1008F300E43519FD22C3E0C696F608A3E0C696F6D2
:1009030008A3E0C696F608A3E0C696F622251810BB
:10091300AF08F518400C15198008F5184002151991
:10092300D2AF22C0E0E493A36C7009D0E0D0E0D052
:10093300E0020748A3A3D0E022C3E09608A3E09611
:1009430008A3E09608A3E096A2D265D03322E0661E
:10095300701008A3E066700A08A3E066700408A399
:10096300E06622E76670100809E766700A0809E77F
:100973006670040809E76622C3E096F008A3E096D0
:10098300F008A3E096F008A3E096F022C3E697F6FA
:100993000809E697F60809E697F60809E697F622A6
:1009A300C3E49396087401939608740293960874AB
:1009B30003939622E627F60809E637F60809E63791
:1009C300F60809E637F622700422600D18C6C33311
:1009D300C608C633C6D5E0F41822E493F6087401BA
:1009E30093F608740293F608740393F622E657F617
:1009F3000809E657F60809E657F60809E657F62206
:100A0300E056F608A3E056F608A3E056F608A3E07E
:100A130056F622E056F008A3E056F008A3E056F09D
:100A230008A3E056F022E026F608A3E036F608A372
:100A3300E036F608A3E036F622E647F60809E6476D
:100A4300F60809E647F60809E647F622E026F00825
:100A5300A3E036F008A3E036F008A3E036F022E482
:100A6300C396F608E496F608E496F608E496F622AA
:100A7300C6F4C608C6F4C608C6F4C608C6F4C62239
:100A8300C3E7960809E7960809E7960809E7962257
:100A9300C3E09608A3E09608A3E09608A3E0962295
:100AA30075D00075813F7518017519030002049113
:100AB300E6F008A3E6F008A3E6F008A3E6F0226058
:100AC3000C08C6C313C618C613C6D5E0F422E0F655
:100AD30008A3E0F608A3E0F608A3E0F622CAC0E004
:100AE300E6F0A308DAFAD0E0FA22E8F0A3E9F0A3EB
:100AF300EAF0A3EBF022E0F8A3E0F9A3E0FAA3E025
:100B0300FB22EAF0A3EBF0A3ECF0A3EDF022E0FA72
:100B1300A3E0FBA3E0FCA3E0FD22E5C754F84401F6
:100B2300F5C77901222518F582E43519F58322C228
:100B3300AF75D69F0200002212084722A1021208B5
:100B4300479EA1021208470D82011208473F820106
:100B5300120847738201120847278401120847FBD2
:100B630084011208475A850112084770860112084A
:100B730047BC8601120847598901120847CE8B01E9
:100B83001208471A8D01120847B28D01120847BE99
:100B93008D01120847078E011208473A8E01120889
:100BA30047C68E01120847D88F01120847199101D1
:100BB300120847189201120847429201120847ADE2
:100BC300920112084706930112084779930112080C
:100BD30047AF95011208473597011208471E980140
:100BE3001208476C9901120847A49B011208479BFE
:100BF3009E01120847AA9E011208473E9F01120850
:100C030047819F01120847F19F0112084768A2011B
:100C13001208479AA30112084769A401120847EB77
:100C2300A40112084737A90112084766A90112084F
:100C330047C1A901120847F4A90112084715AA01DF
:100C430012084765AA01120847B5AB01120847DF2E
:100C5300AB0112084711AC011208471EAC01120880
:100C63004721AC0112084750AC011208473FAE01BF
:100C730012084708AF0112084749AF011208479FFE
:100C8300B0011208472EB10112084748B1011208FA
:100C930047ACB101120847CDB3011208472CB40188
:100CA30012084702B50112084716B5011208472A70
:100CB300B50112084757B50112084787B501120855
:100CC300472BB70112084728B80112084776B80125
:100CD30012084703B9011208474AB901120847B776
:100CE300B9011208470CBB01120847B5BB01120832
:100CF30047CDBB0112084770BC01120847ECBE0187
:100D030012084794C001120847B8C0011208478A65
:100D13002000120847BC20001208473C2500120897
:100D2300478B2500120847D1250012084774260077
:100D3300120847D926001208471D270012084784C6
:100D43002800120847B02900120847AD2D001208E9
:100D5300472C2E00120847522F00120847B52F00C8
:100D63001208470131001208479933001208472639
:100D73003400120847303400120847583400120870
:100D830047203500120847B53500120847DE350005
:100D93001208470B36001208476038001208472D27
:100DA30039001208476C3900120847EE390012085F
:100DB30047993A00120847CB3A00120847163B00FE
:100DC3001208474F3B001208479E3B00120847FAA0
:100DD3003B001208477C3C00120847E13C00120824
:100DE30047593D00120847023F00120847FA3F00E7
:100DF3001208473B41001208478F4400120847EB93
:100E03004600120847A44700120847EC470012089F
:100E130047CD4900120847084A00120847114A0003
:100E23001208471A4A00120847254A001208474485
:100E33004A00120847F74A00120847544B001208A9
:100E4300475E4B00120847B54B001208477C4C0025
:100E5300120847A64D00120847D14E00120847C793
:100E63004F00120847DF4F001208471350001208C3
:100E730047315000120847795000120847B250001A
:100E83001208476951001208472A52001208479D69
:100E93005200120847195300120847B553001208AD
:100EA30047DB54001208479755001208473756008E
:100EB3001208472457001208477C5700120847427C
:100EC30058001208476558001208477A590012085B
:100ED30047C55900120847215A00120847895A008A
:100EE300120847AD5A00120847D55A001208471A8C
:100EF3005B001208473E5B00120847C25B00120802
:100F030047AB5C00120847F05C00120847195D000C
:100F1300120847B75D00120847225E001208474EC9
:100F23005E001208472F5F001208474FD9021208CC
:100F33004787D902120847A8D902120847EAD902FB
:100F43001208474EDA0212084758DA0212084768B5
:100F5300DA021208479FDA0212084748DE02120833
:100F63004710E002120847F4E10212084796E20232
:100F730012084720E30212084727C2011208478BD1
:100F8300C201120847E9C20112084734C30112081B
:100F9300474FC30112084776C30112084793C301A1
:100FA3001208479FC30112084730C5011208474979
:100FB300C501120847C5C501120847D8C501120863
:100FC30047E8C5011208478CC601120847F8C70154
:100FD3001208470BC901120847ABC901120847B5EC
:100FE300C90112084734CA0112084745CA01120849
:100FF3004784CA01120847B2CA011208477FCB01CE
:10100300120847D6CB011208470FCC0112084765D7
:10101300CC0112084783CC01120847D1CC01120836
:10102300479CCD01120847EACD0112084737CE018C
:10103300120847BACE01120847E4CE011208471A34
:10104300CF0112084729CF0112084788CF011208A0
:101053004700D00112084741D00112084791D0013F
:10106300120847BCD001120847D6D001120847F036
:10107300D001120847C5D101120847CFD101120888
:10108300470AD2011208471AD20112084723D20194
:1010930012084774D20112084788D201120847AADE
:1010A300D301120847BFD30112084752D4011208D3
:1010B30047C6D4011208476BD50112084776D501FC
:1010C300120847D6D601120847F2D6011208473E46
:1010D300D701120847ACD701120847DED70112081F
:1010E30047F8D7011208473AD8011208478DDA01A9
:1010F30012084725DB011208479CDB01120847F958
:10110300DD0112084711DE0112084714DE0112083F
:101113004720DE0112084734DE011208473CDE0196
:1011230012084773DE0112084767DF01120847F10F
:10113300DF0112084773E001120847F3E0011208C8
:1011430047CAE101120847ECE10112084785E201B1
:10115300120847E2E201120847E5E2011208475488
:10116300E301120847A0E401120847B3E50112089E
:10117300473EE60112084751E70112084716E80106
:1011830012084747E8011208476DE801120847763D
:10119300E801120847A5E80112084755E9011208BA
:1011A3004705EA0112084778EA011208471BEB01D9
:1011B3001208478EEB01120847CDEB0112084716C0
:1011C300EC0112084787CE02120847F4CE02120838
:1011D3004740CF0212084792CF0212084712D002AB
:1011E3001208470FD20212084722D4021208475BA3
:1011F300D7021208478AD702120847A8D702120853
:101203004712D8021208473AD8021208476DD8028B
:10121300120847A2D80212084704D902120847B499
:10122300AD03120847F9AD0312084709AE031208CC
:101233004773AE0312084791AE03120847359A036A
:10124300120847A79A03120847B59B03120847E100
:101253009B03120847579C03120847DB9C031208A1
:101263004728B602120847A4B602120847D2B602AC
:1012730012084717B70212084778B80212084794B2
:10128300B802120847CAB80212084743B902120843
:101293004791B90212084721BA02120847F9BA0264
:1012A3001208474ABB02120847AFBB021208472283
:1012B300BC0212084766BC02120847BEBC021208F1
:1012C30047E0BC0212084770BD0212084701BE0284
:1012D30012084739BE0212084762BE02120847A32A
:1012E300BE0212084744C00212084726C102120870
:1012F3004702C202120847DFB503120847F0B503DD
:10130300120847FD7F001208473EB603120847D173
:10131300B403120847E1B403120847F6B4031208F2
:10132300473FB503120847FDAF03120847BE9802B3
:10133300120847E7B003120847FA7F00120847F282
:10134300FF01120847F5FF01120847F8FF011208D1
:1013530047FBFF011208474B9003120847599003BC
:10136300120847D29003120847A79103120847793E
:101373009303120847C27F001208477CF402120845
:1013830047E9F402120847A1F50212084794F6024E
:1013930012084782A00212084747F802120847A220
:1013A300F802120847ABF802120847BDF802120808
:1013B3004724F90212084737F90212084790FA0145
:1013C300120847BCFA0112084752FD01120847925E
:1013D300FD01120847CEFD01120847E2FD01120884
:1013E30047FBFD01120847ECFE011208479EFF016F
:1013F300120847B2FF01120847AFA903120847D3E7
:10140300A903120847ECA9031208472AAA031208E2
:101413004760AA0312084793AA03120847FFAA03C7
:1014230012084702AB031208470CAB031208471913
:10143300AB03120847F89F031208471BA0031208C7
:101443004766A00312084784A0031208479FA0031E
:1014530012084705A10312084711A1031208476E9A
:10146300A10312084792A10312084758A2031208C6
:101473004765A20312084776A203120847CFB303B6
:10148300120847E7B30312084713B4031208478946
:10149300F902120847EDFA02120847FBFA02120892
:1014A300470FFB021208472CFB0212084741FB02BD
:1014B30012084754FB02120847D6FB021208473BA7
:1014C300FC02120847D1FC02120847AAFD021208C7
:1014D30047BAFD02120847C9FD0212084707B203C3
:1014E3001208472BB20312084753B2031208477B73
:1014F300B2031208477EA703120847A5A7031208E1
:1015030047C3A70312084738A8031208472C9D03B3
:10151300120847459D031208475C9D03120847655F
:101523009D031208477D9D03120847879D031208F8
:1015330047919D03120847A49D031208472A9E035F
:101543001208479F9E03120847CD9E031208471EA9
:101553009F031208476A9F03120847859F031208D7
:10156300478F9F03120847A09F03120847E39F0377
:1015730012084750B503120847CFE302120847FB8E
:10158300E3021208471EE40212084731E40212087C
:10159300474CE402120847B0E402120847DEE402B3
:1015A300120847E7E8021208473CEA021208476EAE
:1015B300EA02120847D9EA0212084740EC0212086D
:1015C3004768EC021208477DEC021208478DEC02D3
:1015D300120847CDEC021208470FED021208471F0D
:1015E300ED0212084723AB0312084733AB0312087B
:1015F3004757AB0312084780AB03120847AAAB0354
:10160300120847CEAB03120847E5AB031208471392
:10161300AC0312084736AC031208479BB503120804
:1016230047A58C03120847B58C03120847D38D03D3
:10163300120847078E03120847298E0312084751E1
:101643008E031208476A8E03120847A68E031208F8
:1016530047088F031208474D8F03120847928F03E1
:10166300120847BF8F03120847F78F03120847FA80
:10167300FD021208470CFE02120847F1FE0212088F
:10168300477EFF02120847A0B203120847DDB203E8
:101693001208471FB3031208472FB3031208474F1B
:1016A300ED0212084759ED0212084793ED021208A2
:1016B30047FCED021208471BEE02120847BDEE027B
:1016C300120847C6EE0212084717EF0212084740F6
:1016D300EF021208474DEF02120847BEEF0212084D
:1016E300474CF0021208479AF002120847D0F00262
:1016F30012084731F10212084759F102120847D084
:10170300F1021208472CF2021208476FF202120884
:1017130047ACF202120847BEF202120847D0F202A7
:10172300120847EFF202120847F8F202120847C6FE
:10173300F30212084712F40212084750F402120887
:10174300476EAC0312084739A5031208476FA50378
:10175300120847BEA50312084717A703120847FA42
:10176300A1021208472BA30212084767A30212081B
:101773004721A5021208474BA502120847C4A70236
:1017830012084704A80212084799A9021208473809
:10179300AA0212084790AA0212084716AB021208BF
:1017A300474EAB0212084790AB0212084701AD0245
:1017B30012084781AE02120847C2B002120847F06E
:1017C300B0021208471CB10212084725B1021208E1
:1017D300477BB1021208470BB20212084749B50210
:1017E300120847CBB50212084728B603120847AEC2
:1017F300FF021208478B8803120847A088031208C8
:1018030047538903120847938903120847AC890396
:10181300120847DF89031208472C8A03120847601E
:101823008A03120847A28A03120847988C031208F6
:101833004700B1031208475FB1031208479DB10384
:10184300120847DEB103120847F05F00120847355C
:101853006000120847BB6000120847C3610012080A
:10186300470B62001208477D6200120847CE6200F0
:10187300120847046300120847B06500120847487E
:1018830066001208477F6600120847B76600120811
:1018930047F868001208474869001208478A690038
:1018A300120847646A001208479D6A00120847BC81
:1018B3006A00120847076B00120847276B001208DB
:1018C30047CE6B00120847536C00120847AE6C00FA
:1018D300120847EE6C00120847046E0012084776A0
:1018E3007000120847887100120847CE7100120871
:1018F30047967200120847DB7200120847DE720037
:10190300120847E87200120847EB72001208476F8B
:101913007300120847A87300120847D57300120812
:1019230047FC7300120847207400120847BB740079
:10193300120847C77400120847F4740012084714CA
:1019430075001208475775001208478E7500120874
:10195300478D7600120847BC770012084754B4033A
:1019630012084760B4031208479CB403120847F4F3
:10197300AE031208474BEC011208476EEC01120844
:101983004765ED01120847B7ED0112084719EE014B
:101993001208476BEE01120847B3EE011208471C09
:1019A300EF01120847A1EF011208471DF0011208C9
:1019B3004763F0011208478DF401120847E0F6016E
:1019C300120847EAF70112084771F801120847DCC9
:1019D300C2021208477CC302120847E8C302120876
:1019E30047A7C4021208470BC5021208474EC60296
:1019F3001208475DC702120847DFC702120847B73C
:101A0300C90212084759CA0212084799CB021208A1
:101A1300472CCC0212084749CD02120847E577004C
:101A23001208474E7800120847967800120847E9D3
:101A330078001208474679001208479C790012087B
:101A4300471F7A00120847537A001208477E7A002C
:101A5300120847907A00120847EA7A00120847AE44
:101A63007B00120847D27B00120847DF7B00120875
:101A730047D97C00120847C47D00120847667E00E0
:101A8300120847D67E00120847EB7E001208478CE7
:101A93007F00120847DE9303120847999503120843
:101AA30047589603120847AD960312084733970326
:101AB3001208474E9703120847929703120847B834
:101AC3009703120847DF9703120847F79703120893
:101AD300479A9803120847AF9803120847D199030E
:101AE300120847DA9903120847E39903120847ECEF
:101AF3009903120847008003120847F4830312086E
:101B030047F98303120847FB8303120847C6A3035D
:101B1300120847C6FF0112084762840312084739B7
:101B2300B30312084763B3031208470AB603120844
:101B330047F3960212084772960212084734960238
:101B4300120847EB95021208479F95021208472E89
:101B53009502120847129502120847C99402120807
:101B6300475794021208473394021208470F94020E
:101B7300120847049402120847D69302120847A793
:101B830093021208479D9302120847949302120886
:101B9300478B9302120847819302120847719302FD
:101BA3001208475D9302120847928F02120847B842
:101BB3008D02120847478D02120847268C0212082D
:101BC300474DA0021208473D8A02120847A89F0208
:101BD300120847FA9E02120847A59E0212084760A0
:101BE3009E021208472D9D02120847059D02120806
:101BF30047348A02120847278A021208472A8902B1
:101C0300120847B09C0212084705890212084715BB
:101C13008802120847AB870212084712870212088C
:101C230047259A02120847A08602120847F1F702D5
:101C33001208478F86021208476A8502120847EE88
:101C430084021208474684021208479F830212083F
:101C530047418302120847168302120847C78202CC
:101C63001208478982021208476682021208474D0A
:101C730082021208470582021208474F81021208A6
:101C830047C380021208475D990212084757800232
:101C930012084700800212084781B0030000008049
:101CA300FB000136360101000102010001030100BE
:101CB30001040106060502000007010034080100C3
:101CC3000F090401010D0100FF0E080000170200B7
:101CD30000190100FF1A0100011B0100FE1C010095
:101CE300081D0200001F0100012001000121020064
:101CF300002301000F240200002601000127010038
:101D030008280200FF2A0100072B0102402C0100D2
:101D1300002D0100012E0100012F0100FF30010BF6
:101D23001D310800003A0100083B01000F3C01008F
:101D3300013D0100FF3E0400004204000046040090
:101D4300004A0400004E0400005204000056040040
:101D5300005A04000001037103010301030103019D
:101D63000301032203020301031003000300030022
:101D730003000300030003000342030003240306DC
:101D83000300030003040312032503230325032392
:101D930003040304030003000300034403000300DC
:101DA30003230300036503210035038103000305B7
:101DB300030003000300030003250323030302714D
:101DC300023001600211027002010202020202806B
:101DD30002100261023A004100630273027202625E
:101DE300024302000213023800000200020402123E
:101DF300020002000200020002040204023700375C
:101E0300003C0244020002390000020002650200A5
:101E130002350281020002050282028302000203EC
:101E23000071003001600011007000310220035086
:101E3300048000100061000000140063007300724E
:101E430000620043000000130006000000000004CD
:101E5300001200000000000000000004000400372E
:101E63000037003C02440000000000000000006551
:101E73000000003500810000000500000083000021
:101E83000001017101010101011101010131010190
:101E93000101018001100161013B00140063017322
:101EA300017201620143010001130106013D013585
:101EB30000040112010001000100010001040104FA
:101EC30001330133013C01440132013600000100BA
:101ED30001650100013500810100010501820183D3
:101EE30001000136000100060000000F00000000A1
:101EF30000000000000000000003FFFF00000403D7
:101F0300FFFF0000FFFF0FF4010005C404032000DE
:101F13000100000B000000000000000003010F009F
:101F230000000000000000000000000000000000AE
:101F3300000000000000000000000000000000009E
:101F4300000A000000020000000400000008000076
:101F5300001000000020000000400000008000008E
:101F6300000001000000020000000400000008005F
:101F73000000100000002000000040000007ECFDFE
:101F8300FDFDECDCDCCCBCACAC9C9C8C7C7C6C6C3C
:101F93005C5C5C4C4C3C3C2C2C1C1C03EAF5E5D5EE
:101FA300D5C5B5A59595858575756565555545451E
:101FB300353525251515050100E719020093190389
:101FC30000991904009F190500A5190600B119FF0E
:101FD300FF00000A810D02510D05630D07570D0C1B
:101FE300390D0D450DFF000000160F00000B150BFA
:101FF300020002220F3300000E01030507090B0D37
:102003000F00020406080A0C0D5A69674265654110
:102013006C6C69616E636530393030171819213083
:102023001B1D1F3000393D3F373C3C362C442D0CE3
:102033000E020B040B0A0708000F00034A49434E24
:10204300181A25050200011916181616182303007D
:10205300303016181920231A1C1E30020402010105
:1020630001010902000000000000E803000000BEB7
:10207300040A0E00E803032804030A1E1E0C0C04C2
:1020830004FF050804090874F712036EE99003C0FE
:10209300F0900375E4F012166F9003C9E4F0A3F017
:1020A3009003C1F0A3F0120ECB121675900305E452
:1020B300F0A3F0121ADD023BF574EC12036E74D731
:1020C300120910EAFEEBFF548060689003C0E0F948
:1020D3001216DB8A088B09EA4509604F7C008001F0
:1020E3000CEC75F003A4F8A9F074D628F582741FDC
:1020F30039F583E493F4602CE493F88508828B83A9
:10210300E06870DCAA08EC75F003A4F874D728F52E
:1021130082741F39F583E493C0E0740193F583D08F
:10212300821204E6AA08AB091216C9EEFAEF64801C
:1021330002251EEF5420601E120DDB8A088B09EA6C
:102143004509600A120D45AA08AB091216C9EEFA31
:10215300EF642002251EEEA2E0501F90037AE06494
:102163000F70117900120D1BE9600990162F120BE5
:1021730011120D33EE64010224F3EF5440604F90CB
:10218300161FE064067028740BF0901647E0F9758B
:102193000801750900750A00750B00900368E07863
:1021A30008120800AA08AB09AC0AAD0B121BFD907C
:1021B30015D61206A27A007B409003C0E0F91218EC
:1021C300137404120877EEFAEF644002251EEE54EE
:1021D3002070030224F77A207B009003C0E0F912F9
:1021E300181FEA4B4C4D701A9003C5120AF9E849BF
:1021F3004A4B700E750C01750D00750E00750F00BE
:102203008061750C00750D00750E00750F001218B6
:102213002B8A088B098C0A8D0B9003C5120AF9E8E7
:10222300494A4B602A9003C578081207E1400E75AE
:102233000CFF750DFF750EFF750FFF801285080CDF
:1022430085090D8C0E8D0F9003C5780C1208F87458
:1022530001780C1208C7E50C450D450E450F7003B8
:102263000224247C0079047A007B00120DB78A08CB
:102273008B0902234B85188285198374FFF074013F
:10228300120B2874FFF07402120B2874FF1230E44F
:10229300FAA3E0FB74031208F0124FAC124A0112C6
:1022A3000DF9E96401600302232DE508123FED12E5
:1022B30038344480F8A3E0F97424120B28E8F0A31F
:1022C300E912496CA3A3A3E0C0E07426120B28D043
:1022D300E0124D9EA3E0540860167424120B28A349
:1022E300E04401122536C0E07428120B28D0E0F038
:1022F300125B9735091250AA6018125B9712492294
:10230300A3E0C8125EAEE0F87412120B28E8F0A343
:10231300E4F09081DC1206A274041208F074071230
:1023230008E8121BA97404120877850882850983BB
:10233300A3A3A3A3A3A3A3A3A37406122536F912ED
:102343000D99850A08850B09E508450970030224E0
:10235300247C007904AA08AB09120DB78A0A8B0BF7
:10236300850882850983A3A3A3A3E0F510A3E0F561
:1023730011E4F512F513780C7910120A834029E55C
:10238300082404F8E43509F9850C10850D118882B9
:102393008983C3E09510F0A3E0951112287FF8A379
:1023A300E0F9E849709C800E850882850983A3A320
:1023B300A3A3E4F0A3F0850882850983A3A3A3A3C1
:1023C300A3A3A3A3A3A3E06401850882850983A330
:1023D300A3A3A3A3A3702BE0540460030222788574
:1023E3000882850983A3A3A3A3A3A3A3A3A374061A
:1023F300F07AB785088285098312266B120D2D02A8
:102403002345A3A3A3A3E060030222788508828562
:102413000983A3A3A3A3A3A3A3A3A37401F00223E8
:1024230045120D877C0079017A007B00120DB78B72
:1024330009EA4509600C7A207B009003C0E0F91299
:102443001705850C0A850D0B7C0079047A007B0047
:10245300120DB7EA4B701580538A828B83A3A3A313
:10246300A3125942E50898E5099940078A828B83AC
:10247300123C607C007904120DB78B0DA90DEA495B
:1024830070D7C3E50A9508E50B95095013C3E50812
:10249300950AF508E509950BF509E5084509701650
:1024A3007A207B009003C0E0F91217059003C51250
:1024B300252FA3F08037E50825E0F508E50933F576
:1024C30009E4F50AF50B780812085C7A207B009082
:1024D30003C0E0F912180D740412087712182BEADE
:1024E300F8EBF9ECFAEDFB9003C5120AEDEE64206C
:1024F300FAEF8027EF5402600A120EC5EEFAEF647A
:10250300028018EF54046016124C5F790190037334
:10251300124A03121B97EEFAEF6404FB80047A005D
:102523007B0074291208777F0C0205D7E4F0A3F02F
:10253300A3F022124970A3E022C082C08374EA127E
:1025430009107C167D007900AA18AB191216B17414
:1025530008120B287402F0900369124FBD12257FF5
:102563007409120B28124ECB7413120B28E4124B6E
:10257300AF121AD174161208770249E3E8F0A3E9FF
:10258300F09003731244802274F712036E74DA120C
:102593000910EAFEEBFFEE4F602DAC18AD19120DDA
:1025A300F97406120B28E0601E7417120B28E0FD65
:1025B3007401120B28E0FCEEFAEFFB7900120D0315
:1025C300E9600479A4800279007426023BF274F76F
:1025D30012036EEAFEEBFF8E828F83A3A3A3A3A352
:1025E300A3E054406017125906124A03120E71E910
:1025F30060067AFF7BFF80151259068003900369FA
:10260300124A0374FE6A700374FF6B604712590623
:102613001254D5120E71E98E828F83600E124129F6
:10262300123FED38F583E4F0A38003125ED9F07C0A
:10263300217D0D8E828F83124A03121AD7E9F50882
:102643007015EE4F60097901EEFAEFFB120D93A9B5
:1026530008023BF57508CDAA08122667120D2DE96D
:1026630060E080EB8E828F8312412D125E91E0F940
:102673002274F612036EE9FEEAFF7A0F7B0012164C
:10268300C3EA4B601F8A828B83740CF0EEA3A3F022
:10269300EF8A828B831239D29003C0E0F91216CFEE
:1026A3007900802FEEF9120DBD8A088B09A808A9BD
:1026B30009E849601C88828983A3A3A3A3A3A3A3D6
:1026C300A3A37406125B9FE0F9121BDFEEF9120D50
:1026D300997910024B6D74F412036E8A088B098C7E
:1026E3000A8D0B90037AE0640F702CEA4509450AC2
:1026F300450B6023900375E064086005E064047093
:1027030016780812085C7A017B009003C0E0F91286
:10271300180D74041208770229AB74F412036E7453
:10272300FC120910EAFEEBFF8E828F83A3A3E0F96C
:10273300120DBD8A088B09EA4509700302285A8ED7
:10274300828F83A3A882A983E0C0E0EA240B124905
:102753001FD0E012287F64F160288E828F83A3E06C
:1027630064CD601E8E828F83A3E0641A60148E8210
:102773008F83A3E064E9600A8E828F83A3E064E120
:1027830070367900120D93E9602EE5082404F50AEA
:10279300E43509F50B85088285098312286BA3E0CC
:1027A300F9850A82850B83124A03121681850A82F0
:1027B300850B831254D5806E8E828F83A3E0C0E095
:1027C3007402120B28D0E012338D125F1B12337F79
:1027D300C0E07403120B28D0E0F0E508240C123893
:1027E30031AA18AB197005121BAF8003120E59746E
:1027F30002120B28E064E9702D8508828509831293
:1028030030F9750A01780A120868750AE9780A121C
:10281300086812382712336F123C34124A03120E1F
:102823002F7402120877850882850983A3A3A3A3C3
:10283300A3A3A3A3A3E0640270128508828509837E
:10284300A3A3A3A3A3A3A3A3A37406F08E828F833E
:10285300A3A3E0F9120D99120D87901635122D9B43
:10286300120D3374040229A8A3A3A3A3A3A31228BC
:102873007522E0FCA3E0FD8E828F8322125BAFE022
:102883002274F412036EEAFEEBFF7508008E828F4A
:1028930083A3A3A3A3A3E060487508088E828F8354
:1028A300A3A3A3A3A3A3A3A3A3124A0379FF120B76
:1028B300FB8B0BEA450B601075082C8E828F83A36C
:1028C300A3A3A3A3E0D2E0F08E828F83A3A3A3A349
:1028D300A3E05403640160030229A44308110229FD
:1028E300A4EE2418123EE96038EE241A123EE96081
:1028F30003F4701312582C7003A3E06960030229D8
:10290300A47508220229A4EE241B125714EE241ADC
:10291300123EE9FAEE2419123EE9F9121C030229C8
:10292300A48E828F83A3A3A3A3A3A3A3A3A3124AC7
:1029330003120E71E96402700375080112582C70BA
:1029430003A3E0697006E508D2E1F508E508601520
:102953008E828F83A3A3E07006E508D2E58004E5A9
:1029630008D2E6F5088E828F83A3A3A3A3A3A3A310
:10297300A3A3124A03120E71E964017006E508D29B
:10298300E0F5088E828F83A3A3E06015EE241D1269
:102993003D47F9120E5FE964016006E508C2E0F500
:1029A30008A90880031208777F040205D774F01280
:1029B300036E74D7120910EAFEEBFF8E828F83A396
:1029C300A3A3A3E060119016331250AC60099016D4
:1029D30033122D9B120D3374031208F08E828F83F2
:1029E300A3A3A3A3123360124A03120DF9E97003E0
:1029F300022B4978017405120B28E0C394024002AC
:102A030078007407120B28E0C39402400278007424
:102A13000C120B28E064F87003A3E0F47003022B9C
:102A230049740C120B28E064F97003A3E0F47003FB
:102A3300022B49740C120B28E064FA7003A3E0F430
:102A43007003022B49740C120B28E064FB7003A380
:102A5300E0F47003022B497406120B28E0F990038B
:102A630063E0696003022B49E8A2E04003022B49BB
:102A73007427120B28E06003022B49EE241312443F
:102A8300767422120B28124D86241C12447674107D
:102A9300120B28124ECB7409120B28E0601F741A14
:102AA300120B28E0FD7404120B28E0FC8E828F8346
:102AB300A3A3124A037901120D03E9703D740312B3
:102AC30008E8120D3FE9F5087409120B28E0702E8F
:102AD30090035DE0602874225508642260207442EC
:102AE3005508644270147420120B28122DA7600E2F
:102AF3007420120B28122D8460047ACF804AE9A235
:102B0300E6504D7420120B28123D4D24FD600F1426
:102B1300600C24FD600824FD600424FE70287420EA
:102B2300120B28122D7D700E7420120B28124B6885
:102B3300A3E0640D601A74031208E8120E89E964B5
:102B430001700D022D707AD37B0012196F022D7064
:102B5300EE242DF582E43FF5831230D77003A3E012
:102B630069702275090078091208687809120868E3
:102B7300EE242F123EE9F9122D8B1249FD120E2F6E
:102B830074021208777409120B28E07003022C2CCC
:102B9300122D8B1249FD120EEF8A0A8B0BEA450B9D
:102BA3007003022CC97404120B28E0F88E828F8301
:102BB300A3A3E028F8A3E03400F9E8240D122D754F
:102BC300F88A828B83A3A3A3E068600EE88A828BD2
:102BD30083A3A3A31239CB1225307904E9120B285E
:102BE300123357E02AF8A3E034008882F583A3AABE
:102BF30082AB831216B78A0C8B0D8C0E8D0F850A50
:102C030082850B83A3A3A3A3780C1207E1400302DD
:102C13002D709081F4780C120A29850A82850B8322
:102C2300A3A3A3A3780C120AB3900375E064046012
:102C330008E064096003022D70E508A2E540030281
:102C43002D03EE242F123EE9851882851983F0EEB9
:102C53002430123EE9C0E07401120B28D0E0F0EEFC
:102C63002431123EE9C0E07402120B28D0E0F07464
:102C730014120B28E06401702C740E120B28123806
:102C8300412413123EE9687003A3E0697017740CC2
:102C9300120B28124A03120E71E9640270077414AE
:102CA300120B28E4F0EE2425F582E43FF5831206A7
:102CB300A274041208F074071208E8121BA9740422
:102CC300120877022D709003BAE064016003022CAE
:102CD3002C7420120B28122DA77009E508A2E650C8
:102CE30003022C2C7410120B28E0F47003A3E0F4FD
:102CF300607BEEFCEFFD74031208E8120D4B806D50
:102D0300A2E650697420120B28124F937016741A9E
:102D1300120B28E06402705574031208E87900125C
:102D23000E5380497420120B28122D847014741AC8
:102D3300120B28E06404703574031208E8120E477E
:102D4300802B7420120B28122D7D700C79007403D4
:102D53001208E8120E9580157420120B28124B6886
:102D6300E0640C700874031208E8120EAD742902B3
:102D73003858F582E439F583E022125910E06403F0
:102D830022125910E0640722EE242BF582E43FF56A
:102D93008312571EEE241322E0F508A3E0AA08FBD2
:102DA300E4FCFD22123C5064062274F412036EEA22
:102DB300FEEBFF8C088D099015D1E0600F12582CA3
:102DC3007003A3E069700512132D805A79008E8277
:102DD3008F83A3A3A3A3A3A3A3A3A3124A03121B97
:102DE300D38A828B83E58245836033A3A3A3A3A302
:102DF300A3E054186028E508241C12491F1206A6F4
:102E0300E508241312491F1206A6EE2418123EE900
:102E1300F91249EA121393740412087780087900AF
:102E23001249EA121C870229AB74F712036E74F776
:102E3300120910EAFEEBFF900375E06403600DE0F6
:102E430064016008E064096003022F448E828F836B
:102E5300A3E06003022F0A7C007D007A027B00124C
:102E6300167B12594C8A828B8312447C9003661220
:102E73004ECB7953121ABF900375E0640960099031
:102E83000373124A03120EE98518828519837401AC
:102E9300124BAF7942121ABF9003757404F0740198
:102EA3001208E8794A121AB974011208F07A6B7B96
:102EB3000312184390161FE0640B70057406F0802C
:102EC3000B7900900373124A03121B979003661247
:102ED300571A7A037B0012167B90036912571A7AEA
:102EE300047B0012167B900360E0A2E35004D2F04F
:102EF3008002C2F0124BA57952121ABF90162F12FC
:102F03000B11120D338037FC7D007A037B101216F0
:102F13007B90161FE0640B7003740AF09015D4E4E1
:102F2300F0FA7B409003C0E0F91218198E828F8368
:102F3300122F4B124A03121B97900375E4F0120DE4
:102F4300757409023BF2E0F8A3E0F990037322C021
:102F530082C0839003051250AC701F900375E01478
:102F6300600924FC600A14600C800F90030F803406
:102F730090030B802F90030D802AE849600890038B
:102F830006123369700C8A828B83A3E0F9121BA3A8
:102F9300801D900305124F9964027005120EB980CB
:102FA3000E9003E41250AC6006124B691204E60261
:102FB30049E374F412036E74FE1209108A088B0934
:102FC3007A007B049003C0E0F9121819AA18AB1910
:102FD3007950121AB97A0F7B001216C38A0A8B0B27
:102FE300AE0AAF0BEE4F6020850882850983A3E00C
:102FF3007016900373E0F47003A3E0F4603B1230A7
:10300300D17003A3E0696031850882850983A374C5
:10301300EA123385121ABF7A697B03794B121ABFFE
:103023007A737B037950121ABF7A687B0379E112B2
:103033001ABFEE4F70030230C58E828F837402F085
:10304300900373E0F47003A3E0F4600A1230D170CC
:1030530003A3E069704F851882851983122F49E80D
:10306300F0A3E9123385121AB99003661238461297
:103073004ECB7A697B03794B121AB97A687B037951
:10308300E1121AB9750A00780A120868780A120858
:1030930068901619122F4C1235A6124A03120E2FDE
:1030A30074021208778508828509831230CAA3F057
:1030B3009003757403F0EEFAEFFB9003C0E0F9128E
:1030C30016CF74020229A8A3E08E828F832285186B
:1030D30082851983124480900373E06822E8F0A389
:1030E300E91230E822F0850882850983E022F5821F
:1030F300E43BF583E022124480E8FAE9FB2274F50D
:1031030012036E74D11209108A088B098A828B8389
:10311300123D3F741C1208F08A828B83A3A3A3A3DE
:10312300A3A3A3A312336F124A03120D7B741C12C1
:103133000B28E0702C850882850983A3A3A3A3A38E
:10314300A3A3A3E0C3940B40188E828F83A3A3A3EE
:10315300A3A3A3A3A3E064027007124EB7E0F46035
:1031630003023352900375E064027003023239E0C4
:10317300640670030232399003051250AC600812E2
:1031830033697003023269900375E064086008E0F4
:1031930064046003023352741E120B28123357A3C4
:1031A300A3A3A3123D3F900305E0F8496007124F24
:1031B3009F64026077900373E06E7003A3E06F6017
:1031C3000302335274016A60167423120B28AC8213
:1031D300AD837A877B0312183DE960030233527A89
:1031E300007B029003C0E0F912181FEA4B4C4D60BC
:1031F30003023352900376120AF9851882851983E4
:10320300120AED90037CE0C0E07404120B28D0E0B6
:10321300F07405120B287401F07406120B28740263
:10322300124BAF121C0FE9600302334FEEFAEFFBB0
:10323300120EB30233529003051250AC7028750876
:103243000078081208687808120868EE2410F582DE
:10325300E43FF583123360A312286B124A03120E64
:103263002F74021208778E828F8312447C740712A4
:103273000B28E8F0A3E912384C12447C7409120BB2
:1032830028124D86124415C0E0740B120B28D0E0AF
:1032930012337FF508A3E0F509740F7808120AC208
:1032A300740C120B28E508F07420120B28E0C0E020
:1032B300740D120B28D0E0F07422120B28E0C0E04A
:1032C300740E120B28D0E0F0741D120B28E0C0E03E
:1032D3007410120B28D0E0F0741E120B28E0C0E02B
:1032E300740F120B28D0E0F0EE2410123EE9C0E078
:1032F3007411120B28D0E0F07421120B28E0C0E007
:103303007412120B28D0E0F0742E120B28E0C0E0E8
:103313007413120B28D0E0F07423120B28A982AA8D
:103323008389088A09750A0078081208607C087D79
:10333300007417120B28AA82AB831216A57403120A
:10334300087774071208E8121B9D8003121C097486
:103353002F023D51E0FA8E828F83A3A322E0F98EE0
:10336300828F83A3A322124FA0640122E0F98A82F1
:103373008B83A3A3A3A3A3A3A3A3A322F0124EBB54
:10338300E022F07A667B0379532212339122F0858F
:1033930018828519832274F212036E74F8120910CD
:1033A300EAFEEBFF8C0A8D0B890D90817FAC18AD83
:1033B3001974081207C0750C00EEFCEFFDAA18ABD8
:1033C3001912183DE97003750C019003C1801AEEC0
:1033D300FCEFFDE508240BFAE43509FB12183DE97F
:1033E3007023E508241412491F12341E6024E50CCF
:1033F300A2E040DB850882850983E0650A7004A3A7
:10340300E0650B70DD850882850983A3A3E0650D64
:1034130070D0AA08AB0974080239E6123C68E508C3
:10342300450922C082C0839003C10249E074F712A8
:10343300036E9003C1125BBD800C12530A123D420E
:10344300121759EEFAEFFBEA4B70EF9003C1E4F069
:10345300A3F0023BF574F112036EEAFEEBFF890A57
:103463008C088D098E828F83E08C828D8312444475
:10347300AE82AF83E0124789124990C41247891282
:103483003517E012479012498EA2E2E4338C828D05
:103493008312498D131313541F12478912498CA2A7
:1034A300E7E4338C828D83A3A3A3A31235178E0C79
:1034B3008F0D750E00780C1208607C087D00E508FE
:1034C3002407FAE43509FB1216A57403120877EEF4
:1034D3002408FE50010F8E0C8F0D780C1208607CAF
:1034E300037D00E508240FFAE43509FB1216A574E1
:1034F30003120877E50AC3940F40118E828F83A3CA
:10350300A3A3E0C0E012491BD0E0800412491BE4EE
:10351300F0025947A3A31244480EAF832274F51255
:10352300036E8A088B098A828B83A3AE82AF83E002
:10353300F9121B7F8E828F83E064EB6024850882FF
:10354300850983A3E064E16018850882850983A364
:10355300E064F1600C850882850983A3E0641A7036
:1035630009850882850983A3E4F090162F120B11B5
:10357300120D33750A01780A1208688508828509D5
:1035830083A3E0F5087808120868790090037312A2
:1035930035A6124A03120E2F7402120877120D87F2
:1035A300023D5412571E90036922EAF0A3EBF00286
:1035B30049E374F612036E9003C4E0701B7C007938
:1035C300017A007B00120DB7EA4B600C8A828B8371
:1035D3001250AC6003120D27024B6DC082C0837979
:1035E30004120DB1E9F8902085E493C39840107953
:1035F300FF120DB1E9F8902080E493C39850047949
:1036030001800279000249E374F012036E8A088B89
:1036130009890B750C008A828B83A3A3A3A3A3A39D
:10362300A3A3E0F9120DBD8A0E8B0FAE0EAF0F757B
:103633000A01EE4F6003023705850882850983A3DB
:10364300A3A3A3A3A312571A850882850983A3A35F
:10365300A3A3A3A3A3A3E0F9850882850983124A40
:1036630003120DA58A0C8B0DAE0CAF0DEE4F70033C
:103673000238208E828F83A3A3A3A3E4F0A3F0E5F3
:1036830008240CFAE43509FB8A828B83E0C0E0123C
:103693003827D0E0F0E508240D12383A240D124EF5
:1036A300C5120E77EE240F1254CFE50824111238F9
:1036B3003A2411124EC5E5082413123831C0E01222
:1036C3004D6FD0E0F0750C01EE2406124409547FCF
:1036D300F0A3E054FC12287F5404600302377A906D
:1036E3001641E0F508750900740778081209CA8EB7
:1036F300828F83A3A3A3A3A3A3E04508F0A3E0457C
:1037030009F08E828F83A3A3123C6074077808129A
:103713000AC2E5085407FCE50B606C8E828F83A315
:10372300A3A3A3A3A3A3A3A37402124991123B0BC4
:10373300600B900361123846A3A3124ECBEC7003C7
:103743000237EEEE2406125E9A547FF508A3E05486
:10375300FCF509EC24FFF50EE434FFF50F7407784C
:103763000E1209CAE508450EF8E509450FF98A82E4
:103773008B83124ECB80748E828F83A3A3A3A3A3C8
:10378300A3E04480023704EC7005750A00805C8E68
:10379300828F83A3A3A3A3A3A3E05420600C1216D8
:1037A300BDEA547F7900245F80198E828F83A3A39F
:1037B300A3A3A3A3E05410601A1216BDEA540F7911
:1037C30000240A5001098E828F83A3A3A3A3F0A32D
:1037D300E9800D8E828F83A3A3A3A37401F0A3E4D6
:1037E30012384C7404123A8E121705E50CA2E050FD
:1037F3002F8E828F83A3A3A3A3125290E0F9EEFA34
:10380300EFFB120DABE960181250A36009EE240F11
:103813001249FD121759EEFAEFFB121759750A00F8
:10382300A90A8034EE240CF582E43FF58322F58265
:10383300E43509F583E022F582E43509F583124482
:1038430080EE22125970A3A322123850221246CCC2
:10385300A3A3A3A3221208777F080205D774F41247
:10386300036E74F71209107E00120DBDEA4B70034C
:103873000239268A828B83A3A3A3A3A3A3A3A3A30F
:10388300E0640660030239268A828B83A3A3A3A381
:10389300A3A3A3E0FF8A828B83125EBEE0C0E07421
:1038A30008120B28D0E0123C47F8A3E0F9851882F0
:1038B300851983124ECB120DCFEF54086063851820
:1038C3008285198312571A7A007B00120D9F8B0B86
:1038D300EA450B704C125F0D121AE97C007D007AE9
:1038E300007B0080288E828F83123D4DF47003A3EA
:1038F300E0F4602D900373122871124A03121AE345
:10390300E9641A601C7C007D00EEFAEFFB120D9F48
:103913008A0A8B0BAE0AAF0BEE4F70C97900121AED
:10392300EF7E01EEF974090229A8C082C083EA4B35
:1039330070059003C980068A828B83A3A3123B433D
:1039430060208A828B83A3A3A3A3A3A3A3E0540829
:1039530060E5EC4D6010123B4A7003A3E06D70D735
:1039630080047A007B000249E374F212036EEAFEDC
:10397300EBFF890A8C088D097A147B00121753EA2E
:103983004B603A8A828B83A3A3A3A3A3A3A3A3A37A
:10399300E4123C3CA3E50A125917A3125F1912392A
:1039A300CB123C5A1239D28A828B83125934EA12CF
:1039B3005B993BF583E4F01239C2F0A3F08027A3AF
:1039C300F08A828B83A3A32212592BE4F0A322A3B0
:1039D300F01239DD3BF583E4F022EA124B9422A97D
:1039E3000A74031208777F060205D774F412036E74
:1039F300EAFEEBFF89088C0A8D0BEE4F7003023A47
:103A0300897401650870127901120DB1E9F89020EB
:103A130086E493C398502280167404650870147961
:103A230004120DB1E9F8902085E493C398500A7904
:103A330011805574026508704D8E828F83A3A3A3F2
:103A4300A3A3A3A3A3A3E508124444A312556EE4BE
:103A5300F0A3F09003C91250AC601A8003E0F8A3FE
:103A6300E0F988828983A3A3123B4388828983A3D5
:103A7300A370EA80039003C9EEF0A3EF123A8E120B
:103A830017057900800279C10229ABF07A207B0007
:103A93009003C0E0F922C082C083E9F87900900363
:103AA300C9801D8A828B83A3A3A3A3A3A3A3A3A3D8
:103AB300E068600574FF687001098A828B83A3A3A1
:103AC300123B4370DE0249E374F712036EEA4B7054
:103AD300059003C980068A828B83A3A3123B4360AC
:103AE300208A828B83A3A3A3A3A3A3A3A3A3E06995
:103AF30070E4EC60108A828B83E0123B0B70D780FA
:103B0300047A007B00023BF5F8A3E0C8125EE5E00F
:103B1300540422C082C0839003C980068A828B83A7
:103B2300A3A3123B4360128A828B83A3A3A3A3A301
:103B3300A3A3A3E06970E580047A007B000249E354
:103B4300125BBDFBEA4B22123C4C6C2274F2120353
:103B53006E8A0A8B0B8C0C8D0D750800750900EAB3
:103B6300450B60309003C980068E828F83A3A31216
:103B73003D42EE4F601EAC0CAD0DEEFAEFFB850A35
:103B830082850B831204E6E9640170DDEEF8EFF938
:103B930088088909AA08AB090239E974F712036E88
:103BA3009003C912447C7C007D00800DE8FCE9FD94
:103BB30088828983A3A312447CE8496030EA687051
:103BC30002EB6970E79003C9124A03E86A7002E9DD
:103BD3006B88828983A3A3700812447C9003C980F5
:103BE3000912447C8C828D83A3A3124ECB800312D3
:103BF30008777F010205D774F712036EEAFEEBFF25
:103C0300EE4F602B120DC9123C70124A0112175964
:103C13008E828F83124A031217591250A36009EE42
:103C2300240F1249FD121759EEFAEFFB12175980B0
:103C3300C112571E8A828B8322123C402212592FB3
:103C4300A3A3A322F0123C4C228A828B83E0F8A325
:103C5300E0F5838882E022123C40A3A322A3A3A31E
:103C6300A3123C6822E0F508A3E0F509228E828FB7
:103C73008312412D1241233822C082C083EAFCEB18
:103C8300FDEC4D6017EC24FBF582ED34FF1250AAD6
:103C93007007123CD6E0F460071216C9790580302C
:103CA3009003C0E0C0E0123CD6D0E0F090207DE469
:103CB30093F97ACB7B031216FFE9640170107A0043
:103CC3007B209003C0E0F912170579008002790484
:103CD3000249E3EC24FFF582ED34FFF5832274F40B
:103CE30012036EA2AFE433F508C2AF9003CB123DCB
:103CF30042EE4F603AEE24FBF582EF34FF1250AAF6
:103D03007A007B209003C06007E0F9121705800555
:103D1300E0F912170BE4F50AF50B780A120864EEC2
:103D2300FCEFFD7ACB7B031216F97402120877E5D8
:103D330008A2E092AFEEFAEFFB0229ABA3A3A31212
:103D43005586FF22F582E43FF583123C5022120888
:103D5300777F030205D774F212036E74FA12091007
:103D6300EAFEEBFF750AFE750BFF120D8DE9600588
:103D73007911023EE1EE2415123EE96035901657A3
:103D8300E0C43354E0F8E0333354FC48C0E0124657
:103D930092D0E0125EEEFAA3E0FB79FF120BFB8BED
:103DA30009EA4509600C750AFF124D73124C59D28A
:103DB300E0F08E828F83A3A3124A03120E71E9608F
:103DC30006EE2412124B7CEE2413123EE9700D9082
:103DD300207FE493C0E0124D6FD0E0F08E828F839A
:103DE300E0A2E7500454038019EE2414123EE97054
:103DF30012900352E0C0E01243FFD0E0F090035270
:103E0300E004F0123EE66401701690164AE0600D7D
:103E130090035DE0700A8E828F83E07003124B790A
:103E23008E828F83E064017011EE240B123D476490
:103E3300027007123EFDE04440F0AC18AD19EEFAF3
:103E4300EFFB120DF38A088B0974FE650A70037485
:103E5300FFF4700D8E828F83A3A3E0F50AA3E0F530
:103E63000BEA450960748E828F83E0C0E07401120F
:103E73000B28D0E0F07404120B28125934EE241EE0
:103E83001244767402120B28124ECB74011208E00E
:103E9300880C890D780C120864EE2420123EF1126E
:103EA3000868123EFD1206A6EE240E123EF1120819
:103EB300689003661206A67408120B28E0F9AC0A90
:103EC300AD0B120DED7408120877E9FE74106E70D5
:103ED3000BAA08AB0912175980027E10EEF974067B
:103EE3000239E6EE2411F582E43FF583E022F58200
:103EF300E43FF583E0F50C780C22EE124D7B22C0F3
:103F030082C08374D712091090800074031208F0E2
:103F130074261207C08A828B83A3A3A3A312447CB3
:103F2300740E120B28E8F0A3E91239C312447C740F
:103F33000C120B28123FF3123FED1230F4C0E07461
:103F43001A120B28D0E0F012531412447A74201280
:103F53000B28123FF324151230F1C0E07408120B42
:103F630028D0E0F0EA241CF582E43B12447A741270
:103F7300120B28123FF324111230F1C0E07409121E
:103F83000B28D0E0F0EA24121230F1C0E0740712DB
:103F93000B28D0E0F0EA241EF582E43B12447A7445
:103FA30024120B28123FF324201230F1C0E07426B0
:103FB300120B28D0E012338D74FFF07401120B281A
:103FC30074FFF07402120B2874FFF09081DC120668
:103FD300A274041208F074071208E8121BA97404EF
:103FE30012087779007429022579240DF582E422D9
:103FF300E8F0A3E9F0EA2274F412036E74EC1209F8
:1040030010EAFEEBFF8C0A8D0B89097508107A21E3
:104013007B001217538518828519831254D585188E
:10402300828519831250AC700302411C7C217D00F0
:104033007900851882851983E0FA1216B19003730B
:10404300124A038518828519831241292409F582AE
:10405300E4381254D37420120B2812447C741112C6
:104063000B28E8F0A3E9124133125EA81241331280
:104073005EC57402124486F8124B68E50AF0A3E5A4
:104083000B124133125EB5E509F07422120B28E0DE
:10409300F8851882851983E0F9A3E0C9240CF58219
:1040A300E439F583E8124486F9A3E0C912412339C0
:1040B300F5831259347423120B28124A037406121F
:1040C3000B281254D57408120B28E8F07426120B2F
:1040D3002812590AC082C083740C120B28AC82AD1B
:1040E30083D083D08274051207C07425120B28E095
:1040F300C0E07413120B28D0E0F07900AA18AB19B2
:10410300120D93E964017005750800800C8518820F
:10411300851983124A03121759A90874140229A88E
:10412300241FF582E42212412D22E0F8A3E0C822E5
:1041330012448AF8A3E0C82274EE12036EEAFEEB7F
:10414300FF8C088D098E828F83A37408124B9AE02B
:1041530060088E828F83A37410F0EE2417123EE959
:1041630060098E828F83A3E02408F0EE2415123EAB
:10417300E960088E828F83A3E004F08E828F83A38D
:10418300A3A3A3A3A3E060198E828F83A3A3A3A3F6
:10419300A3A3A3E0C3332402F88E828F83A3E02872
:1041A300F0123EE66005750B0E8003750B0090154B
:1041B300DAE0640170168E828F83E06401600D90F3
:1041C30015D4E060071243F5740180041243F5E44B
:1041D300124444E012441328250B8C828D83F01281
:1041E3003EE6601390035EE0F9120D09E9F88508D5
:1041F30082850983E029F0850882850983E0C394D9
:104203007540097508007509000243EEE0FA7B006A
:104213001217538A088B09EA450970030243EE8E8D
:10422300828F83E0FA90036312443D7402780C1288
:1042330009CAEA450CFAAB0DEE2412123EE9540307
:10424300F50C750D007406780C1209CAEA450CFCCE
:10425300EBFDEE2415123EE960047801800278003C
:10426300EE2416FAE43FFBE8F9ED49FD123EE6F5CC
:104273000C7409780C1209CAED450DFD8A828B83F3
:1042830012443D740B780C1209CAED450DFDEE2462
:1042930017124437740C780C1209CAED450DFD8EC4
:1042A300828F83A3A3A3A3A3A312443D740A780C10
:1042B3001209CAED450DFDEE2423124437740D781F
:1042C3000C1209CAECF8ED450DF9E8850882850959
:1042D30083F0E9A3F0EE24021244098508828509DC
:1042E3008312445FF0EE2404F8E43FF98882898363
:1042F300124933A312445FA3A3125EF4124430F0B5
:104303001243FF124430A3F0750A088A828B83E0BC
:104313006015EE2418125714E5082408FAE4350949
:10432300FB121843750A10EE2417123EE96019EECA
:10433300241A125714A80AE50828FAE43509FB12CF
:1043430018437408250AF50A8E828F83A3A3A3A3B7
:10435300A3A3E06058EE2407F510E43FF5118510A0
:1043630082F583E0C0E012441AD0E012444FE0C06B
:10437300E00812441CD0E012444FA3124427120851
:1043830060851082851183E025E0FCE433FDA80AF3
:10439300E50828FAE43509FB1216A5740312087719
:1043A300851082851183E0C333250AF50AEE2415AF
:1043B300123EE96008C0E012441AD0E0F0124EB792
:1043C300124427120860124414FC7D00A80B8E824D
:1043D3008F83A3E0FAE5082AFAE43509FBEA28FA11
:1043E300E43BFB1216A57403120877AA08AB090273
:1043F30046E6EE2423F582E43FF58322EE2414F50A
:1044030082E43FF58322F8E43FF988828983E0223E
:10441300F8EE125D99E022A80AE50828F582E43552
:1044230009F5832212593A750E00780C221244685A
:10443300A3A3A322F582E43FF583E0F50C750D00F9
:104443002212444822F08E828F83A322F0050A8E23
:10445300828F83A3A3A3A3A3A3A3A322A3A3125BD8
:10446300AA12446822124937A3A32274030229A87B
:10447300EE240BF582E43FF58312448022E0F8A397
:10448300E0F92212448A22123391E02274EE1203DD
:104493006E8A0A8B0B8910ECFEEDFF750F017C26EB
:1044A3007D007900EEFAEFFB1216B1E510C3940814
:1044B30050030246268E828F83E510F0EEFCEFFD5B
:1044C300850A82850B8312495E120DFFE96003752D
:1044D3000F001249408E828F83124998124B8E121D
:1044E3004982C0E0EE2411F582E43FF583D0E01267
:1044F300497AC0E0EE2412F582E43FF583D0E0125E
:10450300444474081246C4A3A3E06018E50A2408CF
:10451300F8E4350BF9EE2413124EC58E828F83A374
:10452300E02408F08E828F83A3A3A3A3A3A3A3A352
:10453300E060178E828F83A38582088583091249E1
:10454300531246921230E02408F0EE2419124B7CE9
:10455300EE241B124B7CA31246C4E0600F1246AB41
:104563008E828F83A3A3A3A3A31246D7EE2418128C
:104573003EE970030246161246ABFAEE2419F582A1
:10458300E43FF583EA1246D7F8E50A28F582E412F8
:104593005F07F8EE241AF582E43FF583E81246D765
:1045A300E8C39AEE50682419123EE9F8902081E49A
:1045B30093C398500575110C8008EE2419123EE937
:1045C300F5118E828F83A3E0F8E50A28F50CE43514
:1045D3000BF50D750E00780C120860AC11EC2CFC79
:1045E300E433FD7A537B0B1216A57403120877EE9E
:1045F300241BF582E43FF5837453F0A3740BF0E5B9
:1046030011C333F8850882850983E0288004124B9F
:1046130072E4F08E828F83A3E0F88E828F83E0C3EF
:1046230098500479008066A3E0FAE50A28F8E43597
:104633000B1246A0E8F0A3E9124991C39AC0E0EE39
:104643002417F582E43FF583D0E01246DD603CEEAB
:104653002417F8E43FF9880889098882F583E02460
:10466300F2F0EE241D124409240EFAA3E03400FBF9
:10467300888289831254D590035EE0F9120D09E90B
:10468300F8850882850983E0C398F0A90F80541246
:10469300469622EE2415F582E43FF58322F9EE24B3
:1046A3001DF582E43FF583228E828F83A3858208E2
:1046B300858309E0F8E50A28F582E4350BF583E004
:1046C300221246C8221246CC22F08E828F83A3A3E5
:1046D300A3A3A3221230E804F0221246C8A3E022C7
:1046E3001208777F0A0205D774F412036E8A088BC7
:1046F30009EA124790A3A3F0EA1313543F12478920
:10470300A3A3A3F0EAC4131312479012479A7409A0
:10471300780A120AC2124780A3A3A3A3A3A3F0EBB0
:10472300124782124799740A780A120AC2E50A5498
:1047330001C0E0EC1254B63DF583D0E012479E74FD
:104743000B780A120AC2124780124797740C780A30
:10475300120AC2124780A3124797740D780A120AED
:10476300C2E50A5401C0E0EC2424F582E43DF5835C
:10477300D0E0F0740E7808120AC20229A4E50A54A4
:10478300018C828D8322540F8C828D832254038C5F
:10479300828D8322A3A3A3A3A3A3A3F08A0A8B0BD3
:1047A30022C082C08379008A828B83A3A3A3A3A39D
:1047B300A3E090035D600EE0702C8A828B83A3A339
:1047C300E07023801FE0601E8A828B83A3A3A3A3D0
:1047D300A3A3A3A3A3124A03900366E06A7003A3EF
:1047E300E06B600279010249E374F212036E8A0AF4
:1047F3008B0B890C8C088D098A828B8312495E127C
:104803000DFF124940850882850983124998124990
:1048130013124982C0E0E508241112491FD0E012A7
:10482300497AC0E012491BD0E0124D8D7408124939
:104833006CE06017E50A2408F8E4350BF9E5082471
:1048430013124927124D8DE02408F085088285094B
:1048530083A3A3A3A3A3A3A3A3E0601785088285CF
:104863000983A312494FE5082415124927124991D8
:104873002408F0850882850983A3A3A3A3A3E0608A
:1048830019850882850983A3AE82AF831246B68554
:10489300088285098312498C04F0AA08AB09120E19
:1048A30005E9F50D705B850882850983A3A3A3A39E
:1048B300A3A31249337016E0FAE50A2AF8E4350B8C
:1048C300F9124909124EC9E50CC39A802812494FBF
:1048D300E8240EF8500109124909124EC990035EEB
:1048E300E0F9120D09E9F88E828F83E0F9E50CC334
:1048F3009924F2C398C0E0E508241712491FD0E0B9
:10490300F0A90D0239E9E508241DF582E4350922F1
:10491300E5081239DE350922E5082412F582E4356B
:1049230009F58322F582E43509F583E8F0A3E9224A
:1049330012493722E0850882850983A322850A82EA
:10494300850B83A3A31249AEE0F9EA22AE82AF83BB
:10495300E0F8E50A28F8E4350BF922E0FAA3E0F8D9
:10496300E4C8F9EA28E439FB2212497022124D9572
:10497300A3A3A3A3A3A3221249C1A3A3A3E022F544
:1049830083E81249BAA3A3E022A3A3A3A3A3F08EAF
:10499300828F83E022A3A3A3A3A3A3A3A3A3124968
:1049A300BA1249AEA3A3E0F9EAF822E0FA850A8233
:1049B300850B83A3A3A322F0A3E91249C122F085A7
:1049C3000A82850B83A3A3A3A322C082C0837AD9BF
:1049D3007B0379E2121AB97AD97B038003124A0363
:1049E300D083D0820208448E828F83A3A3A3A3A380
:1049F300A3A3A3A312571EEE240BF582E43FF58372
:104A0300125BBDFB22C082C08390036680CFC0824D
:104A1300C08390036980C6C082C083794A121AB9E1
:104A230080BE74F612036E9003E1E0FE04F0EEF92B
:104A3300120DBD8B09EA450970EDEE60EAF9024BF0
:104A43006D74F212036EEAFEEBFF8C088D09890A7E
:104A5300120EEF8A0C8B0DAC0CAD0D740E120B28DD
:104A6300E0F9740F120B28E0F8EC4D7012E8701B9C
:104A7300A90AAC08AD09EEFAEFFB120F0D8072E83C
:104A83006017E970068C828D83E4F07401687061AD
:104A9300E99003E67028E48022E97055EC2402F5DE
:104AA30082E43DF583E0A80A28F8E4340013E81310
:104AB300F0703E8C828D83A3A37401F08033E004F5
:104AC300F0901642E0F89003E6E0C3984023E4F048
:104AD300900369E06E7003A3E06F7015EEFAEFFBCD
:104AE3007901121B857A017B009003C0E0F912184B
:104AF300190239E974F412036E8A088B098C0A8D42
:104B03000B9081F47808120951700E7A017B0090A2
:104B130003C0E0F9121705803590162F7808120AA2
:104B2300B3EA4509450A450B6018780812085C7A10
:104B3300017B009003C0E0F912180D74041208778A
:104B4300800C7A017B009003C0E0F9121819022946
:104B5300ABC082C0839016330235ADC082C0839050
:104B630016350235ADA3125911227F020205D71261
:104B730054B63FF58322EE2411F582E43FF583E436
:104B8300F022124B8EF583124C4F22124B933F228D
:104B9300EE240BF582E422F0EE2416F582E43FF5D1
:104BA3008322A2F0E433851882851983F0AA18AB17
:104BB300192274F412036EEAFEEBFF7A007B049071
:104BC30003C0E0F9121819124C5F9003757409F0D1
:104BD300120E118A088B09AC08AD09EE2413124991
:104BE300FD12183DE9640170587A0F7B001216C359
:104BF3008A088B09EA450960488A828B837402F02C
:104C03001259543F124C47FC88828983A3A3E0FBCB
:104C1300EC8A82850983A3A31254D688828983A34D
:104C2300A3A3E08A82850983A3124C59FAA3E0FB6C
:104C3300794A121ABFAA08AB099003C0E0F9121609
:104C4300CF0229AB124C4DA3E022F583E0F8A3E099
:104C5300F98882898322F0124696E0229003071294
:104C63004480901635E8F0A3E9F0900309124480DC
:104C7300901633E8F0A3E9F02274F412036E74FD86
:104C83001209108A088B097401120B287402124B43
:104C9300AF120E658A0A8B0BAE0AAF0BEE4F700391
:104CA300024D6A125ECEE4124D8DA3A3A3E064010C
:104CB300700888828983A37420F08508828509831C
:104CC300A3A3A3A3A3E06401700988828983A3E05B
:104CD300D2E6F0850882850983A3A3A3A3A3A3E057
:104CE3006401700A88828983A3E0D2E78005124DAC
:104CF3006F7401124D9EE06401701E850882850960
:104D030083A3A31250AC600312595B850882850903
:104D130083A3A312447C124EC2850882850983A310
:104D2300A3A3A3A3A3A3E064017007125D8CF0A364
:104D3300E4F0850882850983124A03120E71E96043
:104D430004124D73F0EE241712595E120E11125411
:104D5300CC85088285098312596C124D84FAEFFBC6
:104D6300121C27E9F98002791002446E125EFD22BB
:104D7300124D7AE0440422EE240FF582E43FF583DA
:104D830022A3A3E8F0A3E9F0EE22124D9122124DE3
:104D93009522F0850882850983A322124D91A3A34E
:104DA300A3A32274F512036E74F3120910890AEA9D
:104DB300FEEBFF7508007509007C0D7D007900AAE4
:104DC30018AB191216B11246A1124F8C741F5860FA
:104DD3000C7AD37B0012196F7900024EB2E8A2E578
:104DE3005008740C120B287401F0E8A2E750087401
:104DF3000B120B287401F0E8A2E6740A5008120B98
:104E0300287401F08008120B28E0640170138E826D
:104E13008F83A3A3A3A3A3A3A3E06032EE241380F1
:104E2300128E828F83A3A3A3A3A3A3A3A3E0601ED5
:104E3300EE2415F582E43FF58312341E6010AC08AE
:104E4300AD097402120B28AA82AB83121843124EC7
:104E5300B7124FBD124ECB740A120B28E0640170D7
:104E6300458E828F83A3A3A3A3A3A3A3A3A3124AC1
:104E730003120E71E97036124473900369E068708F
:104E830003A3E0697027E5084509601A120E118A29
:104E9300088B09AC08AD097402120B28AA82AB83F4
:104EA30012183DE96007AA18AB19121B8BA90A74E3
:104EB3000D023D51124EBB22124B933FF58322EE5E
:104EC3002418F582E43FF583E8F0A3E9F02274F7B0
:104ED30012036E74CD120910EAFEEBFF8E828F83EC
:104EE300124F99A2E04003024F878E828F83124BA9
:104EF3008AA3A3A3A3A3A3E054FE125BB5740D126C
:104F030008F0124FAC124A01120E0BE97076742AA4
:104F1300120B28124F93706C7C0D7D007900AA1838
:104F2300AB191216B17416120B28124FBD124ECBC9
:104F3300742A120B28124F8CA2E55008740B120B23
:104F4300287401F0E8A2E75008740A120B287401D0
:104F5300F0E8A2E65004742080027422120B281297
:104F6300571A7402120B28AA82AB831218438E823B
:104F73008F83A3A3E0C0E0740C120B28D0E0124B84
:104F8300AF121B917433023BF212590EA3E0F822C5
:104F9300123C50640422E0F8124F9F22A3E0C8247D
:104FA30006F582E438F583E022EA241EF582E43B29
:104FB300F583E0F9EA1241233B22124480851882EB
:104FC30085198322E9F87900740468600A740A6811
:104FD30060057403687002790102084474F61203D1
:104FE3006E8A828B837424F0A3A37401F0121C1BBA
:104FF3008A088B09AE08AF09EE4F600D8E828F834E
:1050030012562D120E111254CCEEFAEFFB024B6D19
:10501300C082C0839003CD7401F0E9A2E35003740E
:1050230003F0E9A2E15004E0D2E2F00249E374F6AE
:1050330012036E79007C008A088B09780812061D1A
:10504300F8FF07665064506450645064505C5060CD
:1050530050665058507C01800A7C0480067C028094
:10506300027C089003CDE05C600479028005EC606B
:10507300027901024B6D74F612036E8A828B83E010
:105083007017A3A3A31250AC600F8A828B83A3A3D0
:10509300A3124A03120C4380047A007B00024B6D77
:1050A300EE240FF582E43FF583124480E84922C0E1
:1050B30082C0837C00EC75F003A4F8ADF0EDF91227
:1050C300515C7003A3E06B701890207BE493C0E005
:1050D30074D028F58274033DF583D0E0F079C58060
:1050E300620CECC3940340CD7C00EC75F003A4F890
:1050F300A9F074D128F5827403122D7864FE70032D
:10510300A3E0F4600F0CECC3940340DE7C00EC12CC
:1051130051497026EC75F003A4FCADF074D02CF863
:1051230074033DF988828983A31254D590207BE4CC
:105133009388828983F0790080090CECC39403403F
:10514300CD79C70249E375F003A4F8A9F074D02818
:10515300F582740339F583E02274D128F582740350
:1051630039F583E06A2274F412036E74F3120910A2
:105173008A088B09ECFEEDFF750A12EA45097005F2
:105183007900025225900366E065087004A3E06588
:1051930009701D120E118A0A8B0BAC0AAD0BEEFAC5
:1051A300EFFB12183DE97005750A018003750A00CB
:1051B300851882851983E4F004120B28125F1B12F1
:1051C3004BAF121C4BE9602A7403120B28AA82AB63
:1051D30083121C69E964017019750A017403120BC7
:1051E30028AC82AD83EEFAEFFB12183DE96003753C
:1051F3000A00EEFCEFFDAA08AB09120EF5E9F874FC
:105203000A687005750A01801774A0687012EEFCB5
:10521300EFFDAA08AB09120F01AA08AB09120F137D
:10522300A90A740D0229A874F712036EEAFEEBFFB4
:105233008E828F83A3A3A3A3A3A3A3A3E0601312CC
:1052430046921249F7120E83E964017005124EB7B4
:10525300802C8E828F83A3A3A3A3A3A3A3E06028A0
:10526300124D6F125290124A03120E83E9640170B9
:10527300178E828F83A3A3A3A3A3A3A3A3A3124ADB
:1052830003120E7D790180027900023BF512287525
:10529300A3A3A3A3A3A3A3A3A32274F212036E74D1
:1052A300FD1209108A088B09ECFEEDFF890B750AC4
:1052B300017401120B287404124BAF120E65EA4BF2
:1052C30060427411120B28E06014125618E412594C
:1052D300248A828B83E0D2E7F012530AE4F012535C
:1052E30014124B8874031254C6EE88828983A3A3D5
:1052F300F0EF88828983A3A31239C2125F14121CB0
:1053030027E9F50A0239E2EA2414F582E43BF5833E
:10531300221239DD3B2274F412036EEAFEEBFF899D
:105323000A1246A112590AA3E0F50BEE2417123E06
:10533300E9640460097AD37B0012196F806FE50B6F
:1053430012072B01000E5153004E53750A001246EB
:10535300A1A3E0F9EE2409F508E43FF50988828961
:1053630083A3A3E0FA88828983A3A3A3E0F8E4C814
:10537300F9EA28FCE439FDA90B8508828509831223
:105383004A03121B73850882850983124A03120E8E
:1053930071E96019123EE6C394024011124EB7122E
:1053A30058397003A3E0696004A90A8002790002F6
:1053B30029AB74EE12036E74F51209108A0A8B0B73
:1053C300890D8C0E8D0F7E01EE120B28740AF0747A
:1053D3001D120B28E0F50CE9700FE50CC333240A0A
:1053E300C0E0EE120B28D0E0F0AA18AB19120E653C
:1053F3008A088B09EA450970030254AFEA1249157A
:1054030012557B7409F0A3E50DC43354E0450C1227
:105413005590AC0EAD0FEEFAEFFB121843EE2408D5
:10542300FE50010FE50D702F7C00741E120B281225
:1054330030F9801D1254BCEA28F8EB39F9888289C7
:105443008312558B888289831230CAF0A30EAF83EF
:105453000CECC3950C40DDE508241712491F7401B9
:10546300F0120E11E508241AF582E435091254D31B
:1054730074031208F0AA0AAB0B121C63E96019E566
:1054830008241612491F7401F074031208E0E5089A
:105493001254B63509124EC9850882850983A3A320
:1054A3001254C4AA08AB09121C27E9FEEEF9740BC7
:1054B3000246E32418F582E422EC25E0F8E433F90C
:1054C30022E50AF0A3E50BF022EE241AF582E43F6D
:1054D300F583EAF0A3EBF02274F012036E8A0A8BD1
:1054E3000B890D8C088D099015271250AC607974C7
:1054F30010120B28E0F50C1254BDE8240EFAE4391F
:10550300FB1216C38A0E8B0FAE0EAF0FEE4F605811
:105513008E828F8374D4F012556EA3A3E50DF0AC85
:1055230008AD09EE2405FAE43FFB121843EE123FDF
:10553300ED3FF583E50CF07411120B281258FF7838
:1055430008120860AC0CEC2CFCE433FDEE240EFADC
:10555300E43FFB1216A57403120877EEFAEFFB90F3
:10556300152712590A1204E602385BA3A3E50AF0D1
:10557300A3E50B124448A322F583125586FF8E82BE
:105583008F8322E0FEA3E022E08E828F83F0A3AE1E
:1055930082AF832274F012036E74FD1209108A0A1B
:1055A3008B0B8C088D09890D750C017401120B2866
:1055B3007403124BAF120E658A0E8B0FAE0EAF0F34
:1055C300EE4F603D124B85740BF0A3E50D1256119F
:1055D3007413120B2812560B12562F120E1112545B
:1055E300CC12595BEE1254B63F125F128E828F8338
:1055F300A3A3E50AF0A3E50B125622121C27E9F533
:105603000CA90C7403023858E08882898322F0A322
:10561300A882A98322EA2417F582E43BF5832212A8
:105623005EF87401F0EEFAEFFB227401F0EE24173A
:105633001259622274F012036EEA1259553B125743
:1056430003F8A3E0FEE8600302570074016E6008EC
:1056530074026E6003025700EE9015D4F07508D4FF
:10566300750915780812086475080175090078082A
:105673001208647C007D007A517B001217D77404F2
:1056830012087774026E7075901651E0700A901FBD
:105693004478081209DD8028F50874027808120995
:1056A300CA74442508F582741F1249227808120926
:1056B300DD9081D4780C120AD17808790C12027F1C
:1056C300908204780C120AD17808790C1202FF90A8
:1056D30081F8780C120AD17808790C12027F9015A0
:1056E300D67808120AB39015D61206A27A007B4028
:1056F3009003C0E0F9121813740412087702385BA0
:10570300F583E02401F8A3E03400F988828983E07B
:1057130022F582E43FF58312571E22E0FCA3E0FD4D
:105723002274F612036EEAFEEBFF9003CE80138819
:10573300828983E06E7003A3E06F603A8882898375
:10574300A3A31250AC70E87A047B001217538A08A3
:105753008B09A808A909E849601C88828983125922
:10576300349003CE124A0388828983A3A31254D5AB
:105773009003CE124ECB024B6D74F412036E7E0077
:105783009003CE80070E8A828B83A3A3123B4370C0
:10579300F4EE25E0FAE433FB1217538A088B09EA87
:1057A3004509607F7C009003CE80228A828B83E050
:1057B300F50AA3E0F50B1254BCE50828F582E509C8
:1057C30039F5831254C40C8A828B83A3A3123B43FF
:1057D30070D99003BB1258397003A3E0697808703D
:1057E3001C120864EEF50A780A1208687C877D03A8
:1057F30079009003BB124A03120EA1801A120864A7
:10580300EEF50A780A1208687C877D037900900315
:10581300BB124A03120E9B7403120877AA08AB0942
:10582300121759121C090229AB8E828F83A3A3A3DB
:10583300A3A3A3A3A3A3124480900366E06822C09A
:1058430082C08380128A828B83A3A312447C900339
:10585300CE124ECB1217599003CE123B4370E60281
:1058630049E374F512036E900373123D429003E211
:10587300122F49124ECB7AE27B037950121ABF9052
:1058830003E21258FF8013125B047004A3E065095E
:105893006006125B11120EE3050A902087E493F869
:1058A300E50AC3985020E50A75F017A4F8A9F01289
:1058B3005A016E7003A3E06F70CD74E928F582740A
:1058C30009125F1180D29003E2123D429015291212
:1058D30050AC60257A067B001216C3EA4B601A8A25
:1058E300828B8374D5F0A3A3E412591704125924AD
:1058F30090152912590A1204E6023D54123C6875A8
:105903000A00228E828F8312590E22E0F8A3E0F55B
:105913008388822212591B22F08A828B83A3A3A33A
:105923002212592B1259342212592F2212591BA316
:1059330022EEF0A3EFF022E0F50CA3E0F50D221226
:105943004480C3227F070205D7EE2402FAE43FFB1B
:1059530022EE241DF582E422EE241612596222F56A
:1059630082E43FF5837401F02212597022E0F8A318
:10597300E0F98E828F832274F712036E7E00800813
:10598300EE125B0A120EE30E1259BB40F37E00EED9
:1059930075F003A4F8A9F074D028F8740339F988D2
:1059A300828983A374FEF0A304125BAFE4F00EEECE
:1059B300C3940340DA023BF5902087E493F8EEC3E7
:1059C300982274F712036E7E0080010E1259BB50A9
:1059D30026EE125A116A7003A3E06B70EE125A019D
:1059E3006C7003A3E06D600A74FF6C700374FF6D49
:1059F30070D9125B1180047A007B00023BF5125AC6
:105A0300052274E928F582740939F583E02275F0DB
:105A130017A4F8A9F0125A1C22125C94E02274F61F
:105A230012036E7CFF7DFF7AFE7BFF120ED1EA4BE1
:105A3300703C7508008032E50875F017A4F8A9F0EA
:105A430074EE28F5827409122D786005125C9F703C
:105A53001674DF28FE740939FF8E828F83124A037E
:105A6300120B3BEEFAEFFB0508125A7440C9024BC6
:105A73006D902087E493F8E508C39822902087E48B
:105A830093F8ECC3982274F412036E8A088B09EC22
:105A9300FEEDFF800B120EE3EEFCEFFDAA08AB094F
:105AA300120ED1EA4B70EE0229AB74F712036EEAC1
:105AB300FEEBFFEE4F60187C177D0079001216B1E4
:105AC3008E828F8374FEF0A304125DB2F0A3F00202
:105AD3003BF574F612036E8A088B097E00801AEE7A
:105AE30075F017A4F8A9F0125B047004A3E065092C
:105AF3006006125B11120EE30E1259BB40E1024B1A
:105B03006D125A0565082275F017A4F8A9F074DF21
:105B130028FA740939FB2274F612036E120ED18A25
:105B2300088B09A808A909E8496009E8240DFAE4E3
:105B330039FB80047A007B00024B6D74F412036E10
