:020000040000FA
:06000000020AAF0201CF6D
:03002B0002076168
:030043000207872A
:03005300020104A3
:03006B0002054546
:10008300020163010105030101FF0F10FEFF1C23A1
:1000930000000000F02100000000FF000000FF004E
:1000A300010124341201000004CF8103DF81002009
:1000B300FD000206FFFF0101010400ED1C0000002A
:1000C300E8030000FFFFB81DE803000064006400BC
:1000D300B801A0BB0D00A0BB0D0002000800000585
:1000E30002070101051E02051E020A0A0102080396
:1000F300B80B02803E0102E8030A050001FFFF017D
:1001030014C0E074F11203E6A2AFE433F509D2AFF1
:1001130085A708AFA1EF5508FE74105E600612179D
:100123009B75A1EF74085E60081217A175A1F78093
:1001330024EFA2E092F0E508A2E082F0501790616C
:1001430098E0F89009B1E0C398A2D265D033500289
:10015300E8F075A1FEE509A2E092AF7F0202044533
:10016300C0E074F21203E6A2AFE433FED2AF9061B3
:10017300A4E0F8759B00E59158540860087591F761
:100183001217E98023E59158541060087591EF1216
:1001930017EF8014E591A2E092F0E8A2E082F0501C
:1001A30007E0C2E0F01219399061A3E0F8E5E958DD
:1001B3005404600E12190F75E9FB906193E0A2E6F7
:1001C30040F2EEA2E092AF7F01020445C0E074F278
:1001D3001203E6A2AFE433FED2AF9061A5E0F8E5E7
:1001E300BF585404600675BFFB12195180D4C3E491
:1001F30098F8E499F91202328026C3E49AFAE49B50
:10020300FBE920E7E9120232E498F8E499F922C302
:10021300E498F8E499F9120232E498F8E499F9C3FE
:10022300E49AFAE49BFB22EB20E7CFE920E7E0B96D
:100233000010BB0008E88AF084F8AAF022E4FBC8A7
:10024300FA22EB70227B10C833C8C933C933500775
:10025300C39AC3DBF280069A50012ADBEAC833F45F
:10026300C8C933F4C9FA2275F008E4C833C8C933DE
:10027300C933C99AC99B5004C92AC93BD5F0ECFBC1
:10028300C833F4C8E4C9FA22080808EAC0E0EBC09E
:10029300E086F0E7A4FA180986F0E7A42AFA180919
:1002A30086F0E7A42AFA180986F0E7A42AFA198641
:1002B300F0E7A4FBE5F02AFA190886F0E7A42BFB84
:1002C300E5F03AFA190886F0E7A42BFBE5F03AFAD1
:1002D30018180986F0E7A4C5F02BFBE43AFA1908CD
:1002E300E7C5F0C6A426F6E5F03BFBE43AFA188628
:1002F300F0E7A4F6E5F00826F6E43B08F6E43A084E
:10030300F6D0E0FBD0E0FA22E4CFC0E0E4CEC0E0D8
:10031300E4CDC0E0E4CCC0E075F020E626F608E6C4
:1003230033F608E633F608E633F6181818EC33FC10
:10033300ED33FDEE33FEEF33FFC3EC9709ED970981
:10034300EE9709EF97191919400FFFEC97FC09ED88
:1003530097FD09EE97FE191906D5F0BFECF709EDE5
:10036300F709EEF709EFF7191919D0E0FCD0E0FD12
:10037300D0E0FED0E0FF222518C582C0E0E51934A5
:10038300FFC583C0E0E518C3958224F810AF088544
:1003930083198582188008858319858218D2AFCE88
:1003A300F0A3E520F0A37808E608F0A3DEFAEFF067
:1003B300A3E58124FAF8E608F0A3E608F0A3E6082B
:1003C300F0A30808E608F0A3E608F0A31581158159
:1003D300D0E0FED0E0F8158115811581E8C0E0EE8C
:1003E300C0E022C0D02518C582C0E0E51934FFC59E
:1003F30083C0E0E518C3958224F310AF0885831901
:100403008582188008858319858218D2AFC8F0A326
:10041300E9F0A3EAF0A3EBF0A37908E709F0A3D886
:10042300FAECF0A3EDF0A3EEF0A3EFF0A3D0E0F02D
:10043300A3D0E0F0A3D0E0F0A3E520F0A3E5F0F033
:10044300A322851983851882E0C0E0A3E0F9A3E025
:10045300FAA3E0FBA37808E0F608A3DFFAE0FCA325
:10046300E0FDA3E0FEA3E0FFA3E0C0E0A3E0C0E063
:10047300A3E0F5D0A3E0F520A3E0A3F5F010AF08C7
:100483008583198582188008858319858218D2AFE0
:10049300D082D083D0E0F8D0E032120B41B9000310
:1004A3000204DCE49003017840791C8002F0A3D8B5
:1004B300FCD9FA7A407B1E900086787F79018015FB
:1004C300E493A3AD82AE838A828B83F0A3AA82AB2B
:1004D300838D828E83D8E9D9E775823C7583B174A5
:1004E3000412084A758237758321740012084AE49E
:1004F3007375F0108E1A8F1B85821F85831E8518D6
:1005030082851983E0CEA3E0CF851F82851E83EB0E
:10051300C9EAC8EDCBECCAC3E833C8E933C9EA3347
:10052300CAEB33CBC3EA9EF51DEB9FF51CB3500416
:10053300AB1CAA1DEC33CCED33CDD5F0DAAE1AAF3C
:100543001B22C0E074EF1203E6A2AFE433FED2AF86
:1005530090052CE0F8A3E0F9E849602990052EE026
:10056300F508A3E0F509E4F50AF50B780812086825
:1005730090052CE0FAA3E0FB90052BE0F9121B9108
:100583007404120883758900C2C5EEA2E092AF7F9E
:1005930004020445D083D082ECC0E0EDC0E0E493D4
:1005A300A3FCE493A3FDED4C600D12066FEC24FF56
:1005B300FCED34FFFD80EFE493A3FCE493A3FDED96
:1005C3004C600D12070CEC24FFFCED34FFFD80EFB3
:1005D300D0E0FDD0E0FCE493A3C0E0E493C0E022CC
:1005E300851983851882E0A3FEE0A3F5207808E04F
:1005F300A3F608DFFAE0A3FFE0A3C0E0E0A3C0E0B6
:10060300E0A3C0E0E0A3C0E0E0A3C0E010AF088532
:1006130082188583198008858218858319D2AFD003
:1006230083D082020850D083D082E9C0E0E493A350
:10063300C386F0C5F095F0F908E493A386F0C5F0FE
:1006430095F0700BE493A3C3994005E9048002A3DA
:10065300E475F002A42582F582E5F03583F583D0B5
:10066300E0F9E493A3C0E0E493C0E022C0E0C3E474
:100673009396087401939618400FE49366700808E4
:10068300740193661870007019A3A3C3E4939608CA
:100693007401939618A3A3400DD0E0D0E0D0E002FC
:1006A30005D3A3A3A3A3A3A3D0E02274048004745B
:1006B300028000CCC0E0EDC0E0E518C39CCCAD19CE
:1006C30050011D10AF068C188D1980068C188D19DA
:1006D300D2AF1207CCD0E0FDD0E0FC227402800040
:1006E300CCC0E0EDC0E0E518C39CCCAD1950011DB2
:1006F30010AF068C188D1980068C188D19D2AF1285
:1007030007AAD0E0FDD0E0FC22C0E0C0F088F0E40E
:10071300936670080874019366187000A8F0A3A389
:10072300700BD0F0D0E0D0E0D0E00205D3A3A3D08B
:10073300F0D0E022D083D082CCC0E0E493A3600663
:1007430012082B1470FAE493A36006120932147092
:10075300FAD0E0FCE493A3C0E0E493C0E022C0E05D
:10076300C0D0E8C0E0E9C0E0A9A8D2AFC2C7E9A2FF
:10077300E7E433F8E9A2E792AFD0E0F9D0E0F8D0AC
:10078300D0D0E032C0E074F21203E6A2AFE433FE4D
:10079300D2AFC2C0E5D1A2E45003121711EEA2E01A
:1007A30092AF7F01020445CAC0E0E493A3C582CCA3
:1007B300C582C583CDC583F0A3C582CCC582C5835D
:1007C300CDC583DAE5D0E0CA22CAC0E0E0A3C58282
:1007D300CCC582C583CDC583F0A3C582CCC582C5F4
:1007E30083CDC583DAE6D0E0CA22C008C3E096F51C
:1007F3000808A3E096420808A3E096420808A3E08D
:100803009645087001D3D0082270090808082260B1
:1008130016181818C6C333C608C633C608C633C667
:1008230008C633C6D5E0EA22C0E0E493A3D39C50C4
:1008330010E493A3C39C400AD0E0D0E0D0E00207C9
:1008430054A3A3A3D0E022C09FF59FE473D09F22BB
:10085300D083D082C09FE493C0E0740193C0E0745E
:100863000293F59F227404800A7403800674028045
:10087300027401C0E0F40412089ED0E0120AEC22D4
:1008830000C0D0251810AF08F518500C05198008C2
:10089300F51850020519D2AFD0D0222518F58210D1
:1008A300AF08F518400C15198008F5184002151902
:1008B300D2AF85198322BB0102E722C082C083899C
:1008C300828A83BB0003E08002E493D083D0822238
:1008D3006016080808C6C313C618C613C618C6137D
:1008E300C618C613C6D5E0EA222518F8E43519F967
:1008F300222518FAE43519FB222518FCE43519FDE5
:1009030022C3E0C696F608A3E0C696F608A3E0C69F
:1009130096F608A3E0C696F622251810AF08F51838
:10092300400C15198008F51840021519D2AF22C0E2
:10093300E0E493A36C7009D0E0D0E0D0E002075468
:10094300A3A3D0E022C3E09608A3E09608A3E09611
:1009530008A3E096A2D265D03322E066701008A304
:10096300E066700A08A3E066700408A3E06622E765
:100973006670100809E766700A0809E766700408DC
:1009830009E76622C3E096F008A3E096F008A3E027
:1009930096F008A3E096F022C3E697F60809E697D7
:1009A300F60809E697F60809E697F622C3E4939654
:1009B300087401939608740293960874039396221D
:1009C300E627F60809E637F60809E637F60809E6E2
:1009D30037F622700422600D18C6C333C608C63327
:1009E300C6D5E0F41822E493F608740193F608746C
:1009F3000293F608740393F622E657F60809E657BE
:100A0300F60809E657F60809E657F622E056F6080F
:100A1300A3E056F608A3E056F608A3E056F622E054
:100A230056F008A3E056F008A3E056F008A3E056FA
:100A3300F022E026F608A3E036F608A3E036F6082F
:100A4300A3E036F622E647F60809E647F60809E684
:100A530047F60809E647F622E026F008A3E036F059
:100A630008A3E036F008A3E036F022E4C396F608C4
:100A7300E496F608E496F608E496F622C6F4C60869
:100A8300C6F4C608C6F4C608C6F4C622C3E7960869
:100A930009E7960809E7960809E79622C3E096084E
:100AA300A3E09608A3E09608A3E0962275D000750C
:100AB300813F7518017519030002049DE6F008A330
:100AC300E6F008A3E6F008A3E6F022600C08C6C32C
:100AD30013C618C613C6D5E0F422E0F608A3E0F661
:100AE30008A3E0F608A3E0F622CAC0E0E6F0A308F4
:100AF300DAFAD0E0FA22E8F0A3E9F0A3EAF0A3EBF4
:100B0300F022E0F8A3E0F9A3E0FAA3E0FB22ECF083
:100B1300A3EDF0A3EEF0A3EFF022E0FCA3E0FDA32E
:100B2300E0FEA3E0FF22EAF0A3EBF0A3ECF0A3EDD9
:100B3300F022E0FAA3E0FBA3E0FCA3E0FD22E5C77B
:100B430054F84401F5C77901222518F582E43519D3
:100B5300F58322C2AF75D69F020000221208537B91
:100B63004600120853864600120853AE4600120888
:100B730053B946001208531E470012085329470071
:100B83001208534D4700120853714700120853E3EC
:100B930047001208532C4800120853484800120813
:100BA30053B948001208530549001208534E49002F
:100BB3001208538C49001208530D4A00120853B40B
:100BC3004A00120853834C00120853E84C001208E1
:100BD30053164E001208533C4E00120853844F0024
:100BE300120853BE5200120853BC54001208538714
:100BF30056001208532057001208532159001208B7
:100C030053D659001208530F5A00120853755A004D
:100C13001208537F5A00120853A85C00120853E7C6
:100C23005D001208533E5E00120853E95E0012088D
:100C330053996000120853E66100120853066200DC
:100C43001208535B62001208535C6300120853845A
:100C53006300120853E36300120853DB64001208B5
:100C630053526500120853656600120853D3660099
:100C7300120853D267001208532C6A001208535506
:100C83006A00120853BB6B001208533D6D00120833
:100C930053946D00120853426E00120853E76E001E
:100CA300120853406F00120853FE6F00120853904E
:100CB3007000120853EF70001208533171001208CC
:100CC30053627100120853B9720012085300800274
:100CD3001208533280021208536B80021208532900
:100CE3008202120853FF82021208535E8302120823
:100CF30053748402120853C084021208534E8702AD
:100D0300120853288A021208536F8B0212085307E2
:100D13008C02120853138C021208535C8C021208C3
:100D2300539E8D02120853948E02120853BE8E02F4
:100D3300120853148F021208536D8F02120853E0E6
:100D43008F02120853169202120853989302120844
:100D530053819402120853CB95021208530398024D
:100D6300120853009B021208530F9B02120853A34D
:100D73009B02120853E69B02120853659C02120859
:100D830053E29E0212085314A002120853ECA0026D
:100D93001208536EA102120853A3A502120853D2DC
:100DA300A5021208532DA60212085360A6021208C8
:100DB30053D8A60212085310A70212085360A702C1
:100DC300120853CFA802120853F3A8021208532D96
:100DD300A9021208533AA9021208533DA9021208A4
:100DE300536CA90212085364AB0212085323AC02DA
:100DF30012085352AC0212085370AD021208533852
:100E0300AE02120853F6AF0212085328B0021208BA
:100E1300538EB002120853BBB0021208532EB10214
:100E230012085352B302120853B1B3021208530506
:100E3300B40212085334B60212085317B702120849
:100E430053D3B702120853E7B702120853FBB70292
:100E530012085328B80212085358B8021208531341
:100E6300BA0212085325BB021208537ABB021208B6
:100E730053C3BB021208533FBC0212085386BC0281
:100E8300120853F8BC021208534DBE02120853F65F
:100E9300BE021208530EBF02120853B1BF0212085A
:100EA300532DC202120853D5C302120853F3C302CF
:100EB300120853748201120853AC8201120853AC16
:100EC3008701120853F28701120853288901120877
:100ED300538D8901120853028B011208530C8E01A2
:100EE300120853358F01120853489901120853D839
:100EF3009901120853C29C01120853CF9D01120895
:100F030053329E011208537A9F01120853E8A1013C
:100F13001208537AA30112085307A4011208532697
:100F2300A501120853B3A501120853BDA501120868
:100F330053E5A50112085385A60112085370A701B2
:100F43001208533DA8011208535AA80112085383EB
:100F5300A801120853B0A801120853F7AA011208F6
:100F630053C6AB0112085305AC0112085387AC01F9
:100F730012085328AD011208535AAD01120853A1A8
:100F8300AD01120853D4AD0112085318AE01120873
:100F93005367AE011208536CAE01120853C8AE0179
:100FA3001208530CAF01120853E6AF011208534B5A
:100FB300B001120853B1B0011208532CB101120849
:100FC3005394B40112085397B50112085315B7018E
:100FD3001208532BBA01120853CDBA011208531643
:100FE300BD01120853D1BD0112085310BE011208EE
:100FF30053E8BF0112085305C0011208530EC00184
:1010030012085317C00112085322C001120853419A
:10101300C001120853E5C10112085342C20112086C
:10102300534CC20112085364C20112085375C30121
:10103300120853BEC30112085378C4011208538F18
:10104300C50112085364C601120853ABC701120845
:1010530053AFC801120853A8C901120853C0C901EC
:10106300120853F7C90112085301CA011208530C9D
:10107300CA011208532ACA0112085372CA0112087C
:1010830053D0CA01120853F7CA0112085309CB01FE
:10109300120853BECB01120853F7CB0112085319A0
:1010A300CD011208536CCD0112085352CE01120820
:1010B3005379CE01120853E9CE0112085365CF01CB
:1010C300120853C1D001120853E8D101120853AAE0
:1010D300D20112085378D30112085336D4011208EF
:1010E300531ED501120853C8D50112085330D60137
:1010F300120853E5D60112085341D7011208539938
:10110300D7011208535FD80112085382D80112087D
:10111300533DD9011208535FD901120853C0D901B5
:10112300120853F0DB01120853E9DC01120853954E
:10113300DD01120853B6DF01120853FFDF01120865
:10114300534AE001120853A6E00112085304E101D7
:1011530012085328E1011208534CE101120853818C
:10116300E101120853A9E101120853EEE10112084B
:101173005342E2011208539BE20112085395E30123
:1011830012085333E50112085378E501120853A1FD
:10119300E5011208532AE6011208539DE6011208DD
:1011A30053ABE601120853CFE60112085325E701BA
:1011B30012085340E701120853FBE70112085327B3
:1011C300E8011208536AE801120853CDE801120836
:1011D30053DBEA0112085307EB01120853C2EB0178
:1011E300120853A6EC011208533AED011208537981
:1011F300DD03120853B1DD03120853D2DD031208D5
:101203005314DE0312085378DE0312085382DE03FD
:1012130012085392DE03120853C9DE0312085372F5
:10122300E2031208533AE4031208531EE6031208BA
:1012330053C0E6031208534AE70312085383C40258
:101243001208532CC5021208530BC6021208531777
:10125300C70212085337C70212085359C8021208AB
:101263005309CA0212085376CA0212085347CB0223
:101273001208534DCC02120853C5CC021208530076
:10128300CD0212085359CD0212085394CD0212080D
:1012930053DDCD0212085371CE0212085307CF0259
:1012A300120853DCCF02120853AFD0021208533D89
:1012B300D10212085363D10212085390D1021208CB
:1012C30053C1D1021208538ED2021208539ED20286
:1012D300120853F1D202120853FED2021208530B22
:1012E300D30212085314D30212085378D3021208FC
:1012F30053D6D30212085321D4021208533CD4020A
:1013030012085363D40212085380D4021208538C78
:10131300D4021208531DD60212085336D6021208FD
:1013230053B2D602120853C5D602120853D5D602B9
:1013330012085379D702120853E5D802120853F85A
:10134300D90212085398DA02120853A2DA021208D9
:101353005321DB0212085332DB0212085371DB0202
:101363001208539FDB021208536CDC02120853C3AA
:10137300DC02120853FCDC0212085352DD0212088D
:101383005370DD02120853BEDD0212085389DE02D8
:10139300120853D7DE0212085324DF02120853A7A0
:1013A300DF02120853D1DF0212085307E0021208CA
:1013B3005316E00212085375E002120853EDE002DF
:1013C3001208532EE1021208537EE102120853A9B8
:1013D300E102120853C3E102120853DDE1021208CD
:1013E30053B2E202120853BCE202120853F7E202BC
:1013F30012085307E30212085358E3021208536C0E
:10140300E3021208538EE402120853A3E402120803
:101413005336E502120853AAE5021208534FE602B7
:101423001208535AE602120853BDE702120853D9B1
:10143300E70212085325E80212085393E802120840
:1014430053C5E802120853DFE8021208533FE902CA
:10145300120853DEE90212085329EA021208537CE8
:10146300EC0212085314ED021208538BED0212081A
:1014730053E8EF0212085300F00212085303F0027C
:101483001208530FF00212085323F0021208532BD1
:10149300F00212085362F00212085356F1021208C6
:1014A30053E0F10212085362F202120853E2F2020D
:1014B300120853B9F302120853DBF30212085374F0
:1014C300F402120853D1F402120853D4F40212089E
:1014D3005343F5021208538FF602120853A2F70280
:1014E3001208532DF80212085340F9021208530749
:1014F300FA0212085338FA021208535EFA0212086B
:101503005367FA0212085396FA0212085346FB0273
:10151300120853F6FB0212085369FC021208530C1B
:10152300FD021208537FFD02120853BEFD0212088A
:101533005307FE02120853B1D2031208531ED303FA
:101543001208536AD303120853BCD3031208533C43
:10155300D40312085339D6031208534CD803120884
:101563005385DB03120853B4DB03120853D2DB03A6
:101573001208533CDC0312085364DC03120853972C
:10158300DC03120853023D001208532EDD03120838
:1015930053ABBB04120853F0BB0412085300BC0442
:1015A3001208536ABC0412085388BC04120853F28D
:1015B300FC0112085364FD0112085372FE01120864
:1015C300539EFE0112085314FF0112085398FF01A2
:1015D300120853157300120853917300120853BF76
:1015E30073001208530474001208530E46001208C5
:1015F30053817500120853B77500120853307600F3
:101603001208537E76001208530E7700120853E631
:1016130077001208533778001208539C7800120899
:10162300530F7900120853537900120853AB790012
:10163300120853CD79001208535D7A00120853EE55
:101643007A00120853267B001208534F7B001208BE
:1016530053907B00120853317D00120853137E0010
:10166300120853EF7E001208533FC304120853506D
:10167300C304120853F87F00120853E9FF0112084C
:1016830053AEC104120853BEC104120853D3C1049C
:101693001208531CC204120853F4BD0412085378F1
:1016A300BE04120853DEBE04120853F57F0012086D
:1016B30053A8C304120853ABC304120853AEC304A4
:1016C300120853B1C304120853B4C304120853DC01
:1016D300A404120853EAA40412085363A5041208CD
:1016E3005338A6041208530AA80412085307C30464
:1016F3001208532D87041208539A87041208535271
:101703008804120853458904120853A28A04120854
:1017130053F88A04120853538B041208535C8B0446
:101723001208536E8B04120853D58B04120853E826
:101733008B04120853D6F80312085302F903120854
:101743005398FB03120853D8FB0312085314FC03EA
:1017530012085328FC0312085341FC0312085332A6
:10176300FD03120853E4FD03120853F8FD031208A6
:10177300533CFE0212085360FE0212085379FE0224
:10178300120853B7FE02120853EDFE02120853204B
:10179300FF021208538CFF021208538FFF02120834
:1017A3005399FF02120853A6FF0212085390AE0486
:1017B300120853B3AE04120853FEAE041208531CAE
:1017C300AF0412085337AF041208539DAF04120835
:1017D30053A9AF0412085306B0041208532AB004E5
:1017E300120853F0B004120853FDB0041208530E4C
:1017F300B10412085329C10412085341C104120849
:10180300536DC1041208533A8C041208539E8D047D
:10181300120853AC8D04120853C08D04120853DD13
:101823008D04120853F28D04120853058E04120816
:1018330053878E04120853EC8E04120853828F04CC
:101843001208535B90041208536B90041208537AE6
:1018530090041208535EFF0312085382FF03120819
:1018630053AAFF03120853D2FF0312085316B604F8
:101873001208533DB6041208535BB604120853D042
:10188300B604120853C4AB04120853DDAB041208A8
:1018930053F4AB04120853FDAB0412085315AC0404
:1018A3001208531FAC0412085329AC041208533C0A
:1018B300AC04120853C2AC0412085337AD04120827
:1018C3005365AD04120853B6AD0412085302AE04B7
:1018D3001208531DAE0412085327AE0412085338DE
:1018E300AE041208537BAE041208532DC20412082F
:1018F30053F9E70312085325E80312085348E80392
:101903001208535BE80312085376E803120853DA0C
:10191300E80312085308E90312085311ED031208F0
:101923005366EE0312085398EE0312085303EF03B2
:101933001208536AF00312085392F003120853A7D4
:10194300F003120853B7F003120853F7F003120819
:101953005339F10312085349F1031208530CFE03E0
:101963001208531CFE0312085340FE031208536966
:10197300FE0312085393FE03120853B7FE03120823
:1019830053CEFE03120853FCFE031208531FFF033A
:10199300120853C3C20412085336A1041208534653
:1019A300A10412085364A20412085398A204120853
:1019B30053BAA204120853E2A204120853FBA2046E
:1019C30012085337A30412085399A304120853DED1
:1019D300A30412085323A40412085350A4041208A6
:1019E3005388A40412085347B80412085367B80471
:1019F3001208534CB90412085335BA04120853F7AA
:101A0300BF0412085334C00412085376C0041208EA
:101A13005386C00412085390C00412085300800474
:101A23001208530A8004120853448004120853AD69
:101A33008004120853CC80041208536E81041208E8
:101A430053778104120853C88104120853F18104A7
:101A5300120853FE81041208536F8204120853FDC7
:101A630082041208534B830412085381830412081F
:101A730053E283041208530A840412085381840432
:101A8300120853DD84041208532085041208535DA1
:101A930085041208536F85041208538185041208C4
:101AA30053A08504120853A98504120853778604AA
:101AB300120853C38604120853018704120853659E
:101AC300BA04120853D1B30412085307B40412081A
:101AD3005356B404120853AFB504120853AFB003FE
:101AE300120853E0B1031208531CB203120853D671
:101AF300B30312085300B40312085379B603120850
:101B030053B9B6031208534EB803120853EDB80382
:101B130012085345B903120853CBB90312085303F0
:101B2300BA0312085345BA03120853B6BB0312088B
:101B33005336BD0312085377BF03120853A5BF03DF
:101B4300120853D1BF03120853DABF0312085330EC
:101B5300C003120853C0C003120853FEC303120884
:101B63005380C4031208536AC30412085380C30486
:101B730012085378C20412085342990412085357A7
:101B830099041208530A9A041208534A9A04120831
:101B930053639A04120853969A04120853E39A045F
:101BA300120853179B04120853599B041208534FEE
:101BB3009D04120853F7BE0412085356BF041208BB
:101BC3005394BF04120853D5BF0412085300800373
:101BD300120853458003120853D580031208533A61
:101BE30082031208531783031208539283031208C4
:101BF30053E3830312085354840312085398840352
:101C03001208535B8703120853F187031208532802
:101C13008803120853718803120853778A03120842
:101C230053C78A03120853A18B03120853DA8B0399
:101C3300120853F98B03120853448C03120853649C
:101C43008C03120853278D03120853108E031208B6
:101C5300536B8E03120853AB8E03120853E28F03A8
:101C63001208535A9203120853769203120853E749
:101C730092031208530C93031208538D9303120813
:101C830053729403120853BF94031208532395030A
:101C9300120853D79503120853DA9503120853E435
:101CA3009503120853EE9503120853F19503120896
:101CB300536396031208539C9603120853AF96037B
:101CC300120853DC96031208530397031208532791
:101CD3009703120853629703120853D59703120808
:101CE30053D89703120853199803120853429803C1
:101CF300120853629803120853AB9803120853E275
:101D03009803120853E29903120853119B03120814
:101D130053309B03120853B0FF02120853C8FF024B
:101D2300120853EBBC0412085379F103120853C889
:101D3300F10312085386F30312085341F503120803
:101D4300537FF503120853AEF603120853B9F70392
:101D5300120853DBF70312085325F803120853A69E
:101D6300F803120853639B03120853869B0312085C
:101D730053969C03120853E89C031208534A9D038D
:101D83001208539C9D03120853E49D031208534DFC
:101D93009E03120853D29E031208534E9F03120848
:101DA30053949F03120853BEA30312085311A603AF
:101DB300120853AEA6031208530EA7031208533E8C
:101DC300A7031208530EA90312085324AB031208E6
:101DD3005316AC031208539DAC03120853D2AD0340
:101DE3001208530FAF031208534EAF0312085302E6
:101DF300B003120853FBED011208539BEE011208C6
:101E03005308EF01120853C7EF0112085326F001DC
:101E1300120853D4F00112085396F301120853AE7B
:101E2300F40112085324F50112085306F7011208AE
:101E330053A8F701120853F9F80112085307FA01DE
:101E430012085394FA01120853B4FB01120853DD2C
:101E5300C40312085346C5031208538EC503120860
:101E630053E1C5031208533EC60312085394C60335
:101E73001208530FC70312085320C803120853480C
:101E8300C8031208533AC9031208534BC903120873
:101E93005363C90312085368CA0312085393CA034E
:101EA30012085359CB031208537DCB0312085394E2
:101EB300CB03120853AECB03120853D2CB03120841
:101EC30053B7CC0312085311CD03120853F8CD03B3
:101ED3001208534FCE0312085385CE031208538AB8
:101EE300CE03120853D1CE03120853D3CF031208E3
:101EF30053BED00312085360D103120853D0D10349
:101F0300120853E5D1031208537BD2031208536F0F
:101F1300A8041208532AAA04120853E9AA041208AF
:101F2300533EAB041208535C9D041208537A9D047C
:101F3300120853BE9D04120853E49D041208530B68
:101F43009E04120853239E041208533B9E04120856
:101F530053539E04120853F69E04120853389F04E9
:101F63001208535AA00412085363A0041208536CB6
:101F7300A00412085375A0041208537FA00412088A
:101F830053AB90041208539F9404120853AD940466
:101F9300120853B294041208535EB204120853C9D0
:101FA3007F0012085319950412085393C0041208B2
:101FB30053BDC0041208538AC304120853203B00C4
:101FC300120853173B001208530A3B001208530D23
:101FD3003A001208539A39001208537E3900120846
:101FE300536039001208533B39001208534B380031
:101FF300120853E637001208534F3700120853DD17
:102003003600120853CC3600120853E83500120884
:1020130053C634001208537134001208539E330020
:10202300120853D832001208539C32001208532F5F
:1020330032001208532732001208539C3100120851
:10204300532C31001208537D30001208530446000C
:10205300120853723000120853EB4500120853E183
:102063004500120853D74500120853CD4500120806
:1020730053B94500120853FC410012085322400093
:10208300120853E63F00120853633000120853420C
:1020930030001208530E3000120853623F0012083A
:1020A30053E22F00120853B42E00120853A82C0039
:1020B300120853792C00120853343E001208535D62
:1020C3002C00120853657500120853ED2B001208FB
:1020D30053202B00120853A42A00120853FC290092
:1020E300120853552900120853F72800120853CC3D
:1020F30028001208537D28001208533F28001208B5
:10210300531C2800120853032800120853BB27004E
:102113001208530527001208537926001208532486
:102123003E001208530D2600120853B6250012086C
:1021330053CCDC0300000080FB00013636010100B4
:10214300010201000103010001040106060502006A
:1021530000070100340801000F090401010D01000B
:10216300FF0E08000017020000190100FF1A01000A
:10217300011B0100FE1C0100081D0200001F0100DD
:102183000120010001210200002301000F240200AD
:10219300002601000127010008280200FF2A010090
:1021A300072B0102402C0100002D0100012E01002C
:1021B300012F0100FF30010B1D310800003A01001F
:1021C300083B01000F3C0100013D0100FF3E0400FC
:1021D3000042040000460400004A0400004E0400CC
:1021E3000052040000560400005A04000001037169
:1021F300030103010301030103010322030203019A
:1022030003100300030003000300030003000300A3
:102213000342030003240306030003000304031221
:1022230003250323032503230304030403000300FB
:102233000300034403000300032303000365032196
:1022430000350381030003050300030003000300BB
:1022530003250323030304710402046004110470BF
:1022630004020402040104020410046104000414BF
:102273000463047304720462044304000413040635
:102283000400040004040412040004000400040015
:102293000451046400000400040004440400040026
:1022A300040004000465040004350481046400058B
:1022B300040004830400040302710230016002116C
:1022C3000270020102020202028002100261023A5B
:1022D30000410063027302720262024302000213AE
:1022E300023800000200020402120200020002008F
:1022F30002000204020402370037003C02440200D9
:102303000239000002000265020002350281020068
:1023130002050282028302000203007100300160A1
:10232300001100700031022003500480001000618E
:102333000000001400630073007200620043000099
:10234300001300060000000000040012000000005B
:10235300000000000004000400370037003C024482
:10236300000000000000000000650000003500814F
:10237300000000050000008300000001017101015D
:10238300010101110101013101010101018001106C
:102393000161013B00140063017301720162014397
:1023A300010001130106013D013500040112010082
:1023B3000100010001000104010401330133013C68
:1023C30001440132013600000100016501000135BD
:1023D3000081010001050182018301000136000132
:1023E30000060000000F00000000000000000000D5
:1023F30000000003FFFF00000403FFFF0000FFFFD6
:102403000FF4010005C4040320000100000B0000C9
:1024130000000000000003010F00000000000000A6
:1024230000000000000000000000000000000000A9
:1024330000000000000000000000000A000000028D
:10244300000000040000000800000010000000204D
:1024530000000040000000800000000001000000B8
:10246300020000000400000008000000100000004B
:10247300200000004000000000131E1300BF1D1FBA
:1024830000C51D1F80CB1D0100131E0200831D0309
:1024930000891D04008F1D0500951D0600A11D3632
:1024A30000B31DFFFF000001EF0E06190F08130F05
:1024B3000B310F107F0C02F50E05070F07FB0E0CF7
:1024C300D70E0DE30E641120FF000007ECFDFDFDA8
:1024D300ECDCDCCCBCACAC9C9C8C7C7C6C6C5C5C29
:1024E3005C4C4C3C3C2C2C1C1C03EAF5E5D5D5C5B7
:1024F300B5A59595858575756565555545453535F9
:10250300252515150500160F00000B150B020002FB
:10251300220F3300000E01030507090B0D0F000204
:102523000406080A0C0D5A6967426565416C6C69BB
:10253300616E63653039303017181921301B1D1F48
:102543003000393D3F373C3C362C442D0C0E020BFA
:10255300040B0A0708000F00034A49434E181A25C3
:102563000502000119161816161823030030301639
:10257300181920231A1C1E3002040201010101094B
:1025830002000000000000E803000000BE040A008F
:102593000000007F00E8030E00100C0A030C08097A
:1025A30008040001FF1E1E28050509040400081580
:1025B30003030CC082C08379001267C2C082C08348
:1025C300900301126076D083D082C3E09CA3E09D88
:1025D300500DEA240B1226051225E560027901024B
:1025E3003993EA75F00BA4FAA8F075F00BEBA42865
:1025F300FB900303E02AF8A3E03B8882F583E054D1
:102603000F22F582E43B1252B62274F712037A8941
:10261300081249C512294BACF075F00BE9A42CF94B
:10262300900303E028F8A3E039F9E8FEE9FF740119
:10263300650860067402650870228A828B83122BF8
:1026430001740265087021EA2403FA50010B122178
:1026530001E970148E828F83E4F0800CEA2403FC7A
:10266300E43B122AF81221078E828F83E0D2E7F02F
:10267300121CA50245C874F412037A122BD27900F6
:102683008E828F83E06078890A890B8063E50A75FF
:10269300F00BA4FAA8F075F00BE50B1225F17048C6
:1026A300E50A75F00BA4F8AAF075F00BE50B122BF5
:1026B300158E828F83E0850882850983123FCC12B1
:1026C3002A76EE2403FCE43F1227B01221071247B7
:1026D300C9E50AF0A3E50B1237D7D2E7F0121CA520
:1026E300790190030112356A050AE50A7002050BA8
:1026F3009003011259B9C3E50A9AE50B9B408E0278
:1027030037E174F512037AEAFEEBFF750A01740BE5
:10271300120B4C1264D3EC4D6015EC1256833D1230
:102723002BE07901122125E508450960758023E531
:1027330008450960441256813509122BE01227B16E
:10274300122101E96401701BEEFAEFFB122119E972
:10275300F50A850882850983122A6E7902AA08ABD5
:10276300098011122AF9122101E9640170347903F5
:10277300EEFAEFFB12212580298E828F83A3E0647A
:10278300FE7003A3E0F4700B122AF9122101E9642D
:1027930001700CEEFAEFFB122119E9F50A800375BB
:1027A3000A00023125E50A2403FCE4350BFDE508A4
:1027B3002403FAE43509FB2274F712037A90030128
:1027C3001248F9EA4B602FEA75F00BA4FAA8F075EA
:1027D300F00BEBA428FBEAFEEBFF121AD1900303E4
:1027E3001248F99003031247186012EEFCEFFD79CB
:1027F30000121A2F8007900303E4F0A3F00245C8E8
:10280300C082C083EC4D6005121BC780097C087D24
:10281300007900121A2F023993C082C0837900EA2B
:102823004B60167800E8FCEA2C1249D16004790168
:10283300780808E8C3940840EC02399374F712034C
:102843007A74F312091CECFEEDFF85188285198357
:10285300E4F004120B4CEAF0A3EB124C691220E3F0
:102863007403120B4CAC82AD83EEFAEFFB1221071B
:10287300EEFAEFFB1221010245C374F712037A74D7
:10288300F312091CECFEEDFF851882851983E4F031
:10289300EAFCEBFD7403120B4CAA82AB83122107F3
:1028A300AA18AB191220DD7401120B4C123FDD8EF6
:1028B300828F831248B574FE68700374FF696004E5
:1028C3007901800279000245C374F712037AEAFEA4
:1028D300EBFF12212BE9F508740165087011122929
:1028E30036F4FA88828983E05A4480F0121CA5A941
:1028F300080245C874F712037AEAFEEBFF75080075
:102903008E828F83E0602A12212BE9F5087401651A
:1029130008701E122936FA88828983E05A70128E53
:10292300828F83E04480FA88828983E04AF0121C14
:10293300A580BC124676F812294B122C42F8A3E06C
:1029430039F98E828F83E022A3E0F9E875F00BA4B6
:10295300F82274F412037A8A088B097C007D00EA5A
:102963001227B3122107E508122A907900850882FD
:10297300850983A3E064FE7003A3E0F460787E001E
:102983007F008065EEFAEFFB1225E56057EEFAEF64
:10299300FBEA75F00BA4FAA8F075F00BEBA428FB87
:1029A300900303E02AF50AA3E03BF50B8508828533
:1029B30009831259B8850A82850B83A3E06A7003E1
:1029C300A3E06B701FE50A2403FAE4350BFB122125
:1029D30001E9640170061227A8122107122A8579DA
:1029E300011261DD0EEE70010F9003011259B9C39C
:1029F300EE9AEF9B408E0237E174F312037A8A0852
:102A03008B098A828B83122A6EEA122A90750C0034
:102A1300EA1227B3122101E9640170477E007F00A7
:102A2300803C122C34FAA3E0398A82F583E0540FF8
:102A33006027122C34F50AA3E039F50B1227A812EC
:102A43001BC1E964017012850A82850B83122A7601
:102A5300122A85750C011261DD0EEE70010F122C26
:102A63005140BFA90C7F050205E3A3A374FEF0A3A5
:102A730004F022A31245B4850882850983A3123C7E
:102A8300FC22E508122A9AEEF0A3EFF022122A9A0A
:102A930074FEF0A304F022240BF582E43509F583D8
:102AA3002274F512037AEAFEEBFF8E828F83122AD9
:102AB3006E7C007D00122AF9122107EEFAEFFB1259
:102AC300212BE9F50A7401650A70271245AD122B13
:102AD30009850882F583122B011227B1122101E91E
:102AE3006401700EE5082403FCE43509122AF81288
:102AF3002107023125FDEE2403FAE43FFB22A31252
:102B030059C7123CFC22E875F00BA4F8AAF075F043
:102B13000BE9122C48F508A3E039F5092274F212E7
:102B2300037A74E612091C122BD2750A0175080088
:102B3300750900750C00750D00851882851983E4ED
:102B4300F0EE2403FCE43FFD7403120B4CAA82ABAA
:102B530083122107AA18AB191220DDE96401701F43
:102B6300740B120B4C122BE27401120B4C1259C151
:102B73007003A3E069604AA818A919880889097431
:102B83000D120B4C123FCBA3123FDD740E120B4CF4
:102B93001248B5740D1208F41220E3E964017009B8
:102BA300740D1208EC880C890D780C120870AC08AF
:102BB300AD09EEFAEFFB1221137402120883E9F553
:102BC3000AEEFAEFFB1220E9A90A741A0247DBEABC
:102BD300FEEBFF1247CD74FEF0A304F022F583123F
:102BE30059A7F91247CD123CFC22C082C08378005A
:102BF3007900800508E87001099003011235C8E9DE
:102C03009B5029E8FAE9FBEA75F00BA4FAACF075DE
:102C1300F00BEBA42CFB900303E02AFCA3E03B8C1A
:102C230082F583E0540F70CC790080027901023978
:102C330093EEF8EFF9E875F00BA4F8122C4222AAF0
:102C4300F075F00BE9A42AF9900303E0282290031E
:102C5300011245B4C3EE98EF9922C082C083902538
:102C6300B2E49375F01CA4FCADF079FF7A417B0AC2
:102C7300121A2F02399374F712037AE9FCEAFD7AE8
:102C8300007B008010EB1232D39C4008E0F8EDC3C8
:102C93009840010A0B9025B2E493F8EBC39840E502
:102CA3007B000245C874EC12037A74F312091C8A80
:102CB3000C8B0D8C088D09890AEC45096016AA084E
:102CC300AB091220538A0E8B0FAE0EAF0FEE4F607F
:102CD30003022DA67A0080010A9025B21258FE50F5
:102CE3000F122E9B70F2744128FE740A39FF800480
:102CF3007E007F00EE4F7003022E4F902594122E1C
:102D03006C60257403650A60067404650A70197A99
:102D13000479031220B38A0E8B0F9025B2E493F843
:102D2300902594122E85502D902592122E6C602C96
:102D33007401650A60067402650A70207A027901DB
:102D43001220B38A0E8B0F9025B2E493F89025924C
:102D5300122E8540077A007B00022E678518828534
:102D630019837401F0120B4CE50CF0A3E50DF0ACE4
:102D730008AD097403120B4CAA82AB83122107AA74
:102D830018AB191220D1740B120B4C123CF58E8226
:102D93008F83A3A3A3A3A3A3E4126072AA0CAB0D16
:102DA3001211537800E50A6007C3940550027804B2
:102DB3008E828F83E50CF0A3E50D123196A3A3E574
:102DC3000AF0E88E828F83A3A3A3A3A3125C84508B
:102DD30001097A027B0012022A1235A3A312392AAF
:102DE3001235CFE50A605BC394035056901EABE0E7
:102DF300701890243E780C1209E912357A120ABF32
:102E030090243E780C1209E98027F50875090074AF
:102E13000278081209D6122E761209E990822478D4
:102E230010120ADD780C791012028B12357A120A0D
:102E3300BFEE241312357D120ABFEE241B125C7BF6
:102E43008009123586122A71A3F0A3F07A0479005F
:102E53001220B31231874005901E41E4F01210276F
:102E6300EEFAEFFB740D023B02E493F8740193F95D
:102E7300E84922743E2508F58274243509F58378E0
:102E83000C22E493FA740193FBE8C39AF8E49BF9E8
:102E9300C3E50E98E50F9922EA122EA1F42275F0EC
:102EA3001CA4F8A9F0744528F582740A39F583E067
:102EB3002274EE12037A74F312091CEAFEEBFF8C00
:102EC300108D11750800AA10AB11122053EA4B7034
:102ED30003022FCF8A828B83E06E7003A3E06F70AF
:102EE30003022FCF8A828B83A3A3A3A3E0C39405FA
:102EF3004003022FCF8A828B831261CBE060728AF8
:102F0300828B83A3A3A3A3E0C394035064901EAB5B
:102F1300E0702190243E78081209E9122FD6120A94
:102F2300BF90243E78081209E9EA2413122FD9121C
:102F33000ABF8030F508750900740278081209D6B3
:102F4300122E761209E99082247808120ADD780C91
:102F5300790812028B1236C0120ABFEA2413123602
:102F6300C3120ABFEA241BF582E43BF583E4F08035
:102F73001B7508FE7509FF750AFF750BFF122FD627
:102F8300120ABFEA2413122FD9120ABF750800755B
:102F93000900750A00750B00EA240C122FD9120AD6
:102FA300BF8518828519837401F0120B4CEEF0A3D0
:102FB300EFF0AC10AD117403120B4CAA82AB831269
:102FC3002107AA18AB191220D1750801A908740D9D
:102FD3000261C3EA2417F582E43BF583780822747F
:102FE300F612037A1220898A088B09A808A909E82E
:102FF30049601488828983A3A3A3A3E06009C394CF
:10300300055004790180027900802F74F612037A47
:103013001220898A088B09A808A909E8496014883D
:10302300828983A3A3A3A3E06009C3940350047913
:10303300018002790080031208837F020205E37492
:10304300F612037A1220898A828B83E58245836094
:103053000BA3A3A3A3E0700479018002790080DAB3
:10306300C082C083EAFCEBFD7A007B00023990C08A
:1030730082C0837C007D0002399074F512037A7458
:10308300F312091CEAFEEBFF8C088D09C3EC94F8DC
:10309300ED94FF4004EE4F6065750A00801974FFDC
:1030A3006508700474FF6509600B1267BC7004A3A4
:1030B300E06509603B050A9025B2E493F8E50AC38D
:1030C30098503BE50A122E9C60EBEE4F60D0123114
:1030D3000C120B4C124C651220D7E960D874031202
:1030E3000B4CAC82AD83EEFAEFFB121BC1E960C55A
:1030F300E50A75F01CA4F8A9F01232CA80047A001C
:103103007B00740D120883801B85188285198374D4
:1031130001F0744328F582740A39F5831245B474B7
:103123000B22A90A7F030205E374F412037A74F3F2
:1031330012091C7508001220538A0A8B0BAE0AAFC2
:103143000BEE4F6025851882851983123194123155
:103153001F120B4C124C651220EF7C1C7D0079FF73
:10316300EEFAEFFB121A2F7508017A047900122088
:10317300B31231875009901E417401F0121027A930
:10318300080237DC9025B2E493F8C3EA98EB940085
:10319300227401123FD0A3A32274F712037AE9FE2B
:1031A30074FE6A700374FF6B7C00700380240C123E
:1031B30031FF501EEC122E9C60F41233997003A35E
:1031C300E06B70EA800BEC1232146019E064036068
:1031D300140C1231FF501EEE60ECEC12320960F158
:1031E300C3940550ECEC75F01CA4FCADF0126D32E9
:1031F3001259B980047AFE7BFF0245C89025B2E4D8
:1032030093F8ECC3982275F01CA4F8A9F0122EA829
:103213002275F01CA4F8A9F0122EA8640122122032
:103223003B023993C082C083790180F274F01203A8
:103233007A8A0A8B0B7A0479011220B38A0C8B0DDC
:10324300EA450D6040EA2AFAEB33FB121AD18A08E9
:103253008B09AE08AF09EE4F60267AFE7BFF122082
:103263003574FE6A700374FF6B601E8508828509DE
:10327300831248F9E5082402F50850E2050980DEC7
:10328300750C0080047E007F00850A82850B83E530
:103293000CF0EEFAEFFB023560C082C0837C008045
:1032A30009EA24FF1AEB34FFFB0C1231FF5011EC37
:1032B3001232D3940550F2EA4B70E61232CA8004FC
:1032C3007A007B00023993744128FA740A39FB228D
:1032D300122EA1C32274F712037A74F312091C7E0F
:1032E30000807DEF75F017A4F8A9F012338A125904
:1032F300B9EE75F01CA4F8A9F01233997003A3E09A
:103303006B603DEF75F017A4F8AAF0EAF912338A5F
:10331300123FDD7401120B4CE0687003A3E0696097
:103323001FEF75F017A4F8EAF9748F28FC740C39B1
:10333300FD7403120B4CAA82AB83121BC1E9601309
:10334300EF75F017A4F8A9F0748D28FA740C39FB03
:1033530012115F0F90259CE493F8EFC39840840EFD
:10336300126D1F501FEE127293F47003A3E0F4600A
:10337300EE12310C120B4C124C651220D7E960DFB0
:103383007F0080D00245C312338E22748D28F582CC
:10339300740C39F5832212729E6A2274F412037A32
:1033A30074F312091C7E0080389082607808120A38
:1033B300DDEE75F01CA4F8A9F0745428F582740AA4
:1033C30039F583780812095D6016908240780812F7
:1033D3000ADDEE75F01CA4F81234667808120A5B55
:1033E3000E126D1F507AEE12320960F4C39403502B
:1033F300EF123466120B05E8494A4B70AC901EAAD3
:10340300E06401702D9004091247186025EE75F0F1
:103413001CA4F8A9F0744128F8740A39F91234BCD1
:103423001206AE888289831235511204F274041293
:1034330008838518828519837401F0EE75F01CA446
:10344300F8A9F0123115120B4C124C651220D7E972
:10345300608E7403120B4CAA82AB831220418080CE
:103463000237DC745828F582740A39F5832274F61E
:1034730012037A1220898A088B09A808A909E84946
:10348300603288828983A3A3A3A3E06023C3940348
:10349300501E1234BC120B1DE82417F582E439F5D3
:1034A30083120B11E8241BF582E439F5837401F0D0
:1034B30079018002790002303DE82413F582E43972
:1034C300F5832274F012037AEAFEEBFF90040312F1
:1034D30047186072900409124718606A90040D122D
:1034E30047186062126BAB1204F2E97059901EAB7D
:1034F300E0700A90243E78081209E98028F50875DF
:103503000900740278081209D6126D8D7424126BA7
:103513008C78081209E9908224780C120ADD780865
:10352300790C12028B780812086812354B1204F2D8
:103533007404120883E96401700C8E828F83A3A341
:10354300126B991204F280158E828F83A3A31252F9
:10355300B8900409126BA322740D1208837F08022A
:1035630005E312607AEC22E0F50AA3E0F50B22E40E
:1035730093F8E508C39822EE2417F582E43FF58318
:10358300780C2212359974FEF0A304F0A3F0A3F093
:103593001241DA74FE22EE2417F582E43FF583220A
:1035A300E88E828F83A3A3A3A3A3A3A3A312458817
:1035B3007401124588A374AAF0EE2410F582E43F47
:1035C300F583E4F0221252B8C3E89A22A3F012471B
:1035D300CDE4F0EE240CF582E43FF583E4F0A3F0B0
:1035E300A3F0A3F02274F012037A74F312091CEA15
:1035F300FEEBFF7A0279011220B3EA8E828F83F009
:1036030070030236B375F00CA4FAABF0121AD18A28
:10361300088B09EA450970030236B9AE08AF09758C
:103623000A00801C9082401206AEEEFAEFFB121ADB
:10363300AD74041208838A0C8B0DAE0CAF0D050A12
:103643009025B2E493F8E50AC398506AE50A12326A
:10365300146005E0640270E612310C120B4C124C3C
:10366300651220D7E960187403120B4CAC82AD834A
:10367300EEFAEFFB121BC78A0C8B0DAE0CAF0DE5F8
:103683000A75F01CA4F8A9F0745C28F582740A1278
:103693006A0A6401708E1232CAEA24131236C31204
:1036A3000ADD1236C0120904780C12086802362D9E
:1036B300750800750900AA08AB0902355BEA2417EF
:1036C300F582E43BF583780C22C082C0839003101B
:1036D3007401F0A3740FF002399374F712037AEABA
:1036E300FEEBFF90037DE06408601FE06404601A52
:1036F3008E828F83E0540364017044124672F8A3F0
:10370300E0F5838882E0640670358E828F83A3A3FD
:10371300E064FE7003A3E0F460258E828F83A3A38D
:103723001260837003A3E0697008EE241512606AC7
:103733006005120FBB8003120FC1E9F50880037502
:1037430008C2EEFAEFFB121AD70228F274F412033E
:103753007A8A088B098A828B83E0FAA3E0F8EA2845
:10376300FAE43400FB121AD18A0A8B0BAE0AAF0BB0
:10377300EE4F605A850882850983E0FC7D0079005D
:10378300121A2F8E828F83122A6D120FF78E828F59
:1037930083A3A3A3A3EAF0A3EB1237D7F8EE28F889
:1037A300E43F122BE5850882850983A3E0C0E0127C
:1037B3005C6ED0E0F0121009EE240EF582E43FF5C2
:1037C30083E9123F58E0C0E0123CC7D0E0F0EEFAC4
:1037D300EFFB800A123F50E022740D1208837F042E
:1037E3000205E374F412037A74E812091C8A088B45
:1037F300098C0A8D0BE9FE90037DE064046005E00B
:103803006408700479C2803CA37808120ABFEE9062
:10381300038412392F121A2F851882851983780889
:10382300120ABF7405120B4CEEF07404120B4C74A5
:1038330001F07407120B4CE4F090037D7402124CF8
:1038430069121F517418809374F412037A74E81286
:10385300091CEAFEEBFF90030512471860030239C7
:10386300257A077B00121AD19003051248F99003B9
:103873000512471870030239218E828F83120B05BC
:10388300900305E0FCA3E0F5838C82120AF9EE2491
:1038930004F50AE43FF50B850A82F583E0C0E09066
:1038A300030512528DA3A3A3D0E0F0EE2405F5087F
:1038B300E43FF509850882F583E0C0E09003051233
:1038C300529ED0E012392AE0C0E09003051259A7B6
:1038D300C82406F582E438F583D0E012392F121A92
:1038E3002F8E828F83120B05851882851983120A06
:1038F300F9850A82850B83E0C0E07405120B4CD076
:10390300E01237D7C0E07404120B4CD0E0F0740718
:10391300120B4CE4124C69121F51E9F9800679101D
:103923008002790102384712664DA322F07C187D8C
:10393300007900AA18AB1922C082C0839003051234
:10394300471860109003051259B9121AD79003054E
:10395300E4F0A3F0120F2B12110502399374F7123E
:10396300037AE990030BF07A807B009003C8E0F9B7
:10397300121B9D121FD579000245C8C082C08390D7
:10398300030BE07003121DB9121FD58003122047E9
:10399300D083D08202085074F012037A90030BE0B4
:1039A300901E40700FE060057900121C6F901E405E
:1039B300E4F0804AE06401600890030BE0F9121C14
:1039C3006F901E407401F090030BE0F46030E0F55B
:1039D3000CE4F50DF50EF50FF09082287808120A25
:1039E300DD780C790812028B780C1208687A807BD8
:1039F300009003C8E0F9121B9174041208837A4003
:103A03007B1E7941121F3902356074EC12037A74FC
:103A1300E712091C8A0C8B0D8C0E8D0FE9FF7E00BB
:103A23007508018E098E0A8E0B90037D7401F07C5C
:103A3300187D0079001208F4121A2F7401120B4C2E
:103A4300780C120ABF7406120B4CEFF07405120BBC
:103A53004C7403F07408120B4CE4F0850C10850DC4
:103A630011850E12850F13781079081209FCE510E1
:103A730045114512451360010E7401780812080CB4
:103A8300E5084509450A450B70D1AA18AB19795ABF
:103A9300121F33851882851983E0F508E4F509F5CB
:103AA3000AF50B8E0CF50DF50EF50F7808790C124F
:103AB300028B90826C780C120ADD7808790C120262
:103AC3008B908228780C120ADD7808790C12030B8C
:103AD300123CE87A007B049003C8E0F9121B9D783E
:103AE300081208687A007B049003C8E0F9121B915E
:103AF300740412088374011208F4121F517419120A
:103B030008837F0C0205E374F712037A7C01121F0A
:103B1300BD0245C874F712037A7C0080F174F01279
:103B2300037A74FD12091CEAFEEBFF890A8C0B125F
:103B33006073120F1F8A088B09EA4509700579CA59
:103B4300023CC28A828B83A3A3A3A3A3A3A3E0649F
:103B5300FE7003A3E0F4700579C3023CC2120FF7B1
:103B63008A0C8B0DA80CA90D850882850983A3A354
:103B7300A3A3A3A3A3E0687003A3E069700579C2BC
:103B8300023CC290037B123FDD850882850983E0F6
:103B9300687003A3E0696009850882850983123E82
:103BA3001D90037B1259B91211658508828509831B
:103BB300A3A3A3A3A3A3A3A3A3A3E00490038E128D
:103BC3003E09121BC77401120B4C7402124C69128A
:103BD300105D8A0C8B0DAE0CAF0DEE4F7003023CE3
:103BE300B9124C6F7406F0A3A882A98390036812DC
:103BF3005DA4125C78F0120FF11248F0EE24131258
:103C03005C7B1245947440F0A3E4123CD1123CF562
:103C1300123CC7E50BF0EEFAEFFB121FFFE9FE6063
:103C230003023CBB90037D7409123CD1123E1390F6
:103C33000370E0650A6003E50AF07A717B03794B50
:103C4300121F397A7B7B037950121F397A707B03F9
:103C530079E1121F397A6E7B037953121F39123CB3
:103C6300E8901E8D1259B9121021123CDAE4F50EB8
:103C7300F50F780C1208687A017B009003C8E0F90D
:103C8300121B9774041208837A007B049003C8E024
:103C9300F9121B9D123CDA7402780C12080C780C92
:103CA3001208687A007B049003C8E0F9121B917430
:103CB3000412088380027E10901CCCE4F0EEF974A9
:103CC3000302355DEE2411F582E43FF58322123FB2
:103CD3005CA3A3A3A3A322901E8DE0F508A3E08514
:103CE300080CF50D22901E8B1245B4900307123C6D
:103CF300FC22125CA3123CFC22E8F0A3E9F022743C
:103D0300F612037A74E512091C851882851983EC6F
:103D1300F0A3EDF0EAFEEBFF890990037DE0640474
:103D23006005E06408700579C2023E047426120B34
:103D33004CE064FE7003A3E0F4700579C3023E0413
:103D43007C197D00790074021208F4121A2F900373
:103D53007D7403124C697950121F3974261208F4CA
:103D6300794B121F39851882851983123E1DE50987
:103D7300900370F07426120B4C123E137425120B31
:103D83004CE0F508900368123E09121BC774CE5528
:103D9300084480C0E0741A120B4CD0E0F07428126F
:103DA3000B4CE00490038EF07417120B4C7402F06A
:103DB3007426120B4C123FDD740F120B4CE8F0A368
:103DC300E9123FD67418120B4C1248B5740D120B3E
:103DD3004CE509F0740A120B4CE4F0900383740F62
:103DE300F07A837B037954121F39900382740FF0A6
:103DF3007A827B037947121F3974021208F4121F67
:103E03003F741B02303AF0EEFCEFFD7A8F7B032206
:103E13001245B4900371123CFC22126A24123CFC3A
:103E23002274F712037AEB900385F0120F0D02450B
:103E3300C874F612037A74E912091C8A088B097E86
:103E4300008A828B83A3A3A3E0C0E07406120B4C09
:103E5300D0E0F08A828B83A3A3E0C0E07408120B46
:103E63004CD0E0F07409120B4C7401F08A828B83FE
:103E7300124718600D8A828B831259B9122101E906
:103E830070357407120B4CE4F0120FF17404120B2B
:103E93004C1248F990037DE06404700E120FFD7418
:103EA30002120B4CEAF0A3EB804E7402120B4C741B
:103EB300FDF0A374FF8041AC18AD19850882850914
:103EC300831259B91220F5850882850983A3A3A318
:103ED300A3E070317407120B4C7401123FD67402C5
:103EE300120B4C1248B5850882850983123FDD7495
:103EF30004120B4CE8F0A3E9F074021208F4121058
:103F030045E9FE8041123FD7740A120B4C1248B5A3
:103F13007414120B4C7401123F58A3E0C0E07415E3
:103F2300120B4CD0E0F07416120B4CE4123F5012FB
:103F33006076740C120B4CAA82AB83121BC7740AF3
:103F43001208F4121C87EEF9741702303AF0850850
:103F53008285098322123F5C22123F50A3A322745D
:103F6300F712037A74F812091CEAFEEBFF7900904A
:103F7300037DE064086005E064047047851882856A
:103F8300198374FDF0A374FFF0120FF17402120B86
:103F93004C1248F97405120B4C123FCBA3E0C0E05E
:103FA3007404120B4CD0E0123FCCE0C0E074061254
:103FB3000B4CD0E0F07407120B4CE4124C69121056
:103FC30045E9F974080245C5E4123FD022F08E8218
:103FD3008F8322F08518828519831245B4227F07C7
:103FE3000205E374F412037A74F912091C8A088B2C
:103FF300098C0A8D0B8518828519837808120ABFEC
:104003007404120B4CE9F07405120B4CE4F07406C3
:10401300120B4CE4124C69121FED74070237DE7465
:10402300F512037A8A088B098A828B831261E0EE88
:104033004F70030241D390032C12471860178A82F2
:104043008B83A3A3E0F9EEFAEFFB90032DE0F58356
:1040530088821204F28E828F83A3A3A3A3A3A3A3B4
:10406300A3A3E06402600302413D8E828F83A3A376
:10407300A3A3A3A3E05402700302416185088285D0
:104083000983A3A3E064E970030241618508828583
:104093000983A3A3E064CD7003024161850882858F
:1040A3000983A3A3E064F07003024161EE240D12BF
:1040B30045696028EE241312606A60208E828F8324
:1040C300A3A3A3A3A3A3A3A3A3A31241F2121075B3
:1040D300E9701D7A307B01121D238014901EACE021
:1040E300048E828F83A3A3A3A3A3A3A3A3A3A3F059
:1040F300850882850983A3A3E0701F750A008009E0
:104103007A367B01121D23050A850882850983A35C
:10411300A3A3E0F8E50AC39840E6EE240A12590582
:10412300C0E01241D6D0E01245847404F0901EAD75
:10413300125C9DE81241E4121A838E828F83A3A33B
:10414300A3A3A3A3A3A3A3E0640260128E828F831D
:10415300A3A3A3A3A3A3A3A3A3E0640670728E8265
:104163008F83A3A3A3A3A3A3E0A2E0506385088244
:10417300850983A3A3E0F9EEFAEFFB120E4D8E82BD
:104183008F83A3A3A3A3A3A3E054FE1241F21210AF
:1041930075E9850882850983A3A3702AE070237AD1
:1041A3002F7B01121D237E00850882850983A3A32B
:1041B300A3E0F8EEC39850187A367B01121D230E44
:1041C30080E67A318005E070077A2D7B01121D238A
:1041D3000231271241DA22EE2413F582E43FF583FC
:1041E30022F0A3E9F07A207B009003C8E0F92212C1
:1041F3003FD0126BA31252B82274EC12037A74BD2F
:1042030012091CEAFEEBFF8C108D11750C00750E64
:1042130000AC18AD19120D7B740D120B4CE0700835
:104223007410120B4CE06014851882851983E0A288
:10423300E6500E1259AC121075E960057A35024347
:104243005D851882851983E0540C64047005750D2F
:10425300018003750D00E0A2E5503D750E01E50DEB
:10426300A2E04034120FF712459F7003A3E0697078
:1042730005124566706B120FF712459F7003A3E09A
:104283006960151245667010126090AC18AD191272
:104293000E29E9600302435B124566702C85188280
:1042A300851983E0A2E650217401120B4CE05403FC
:1042B3007017851882851983E0540C640C600AE03A
:1042C300540C64086003750C01851882851983E01A
:1042D3005403F8740268701912608C120D8D024534
:1042E300611259AC1245AD7415120B4C1248B580CE
:1042F3009A7401687047E50CA2E0500B1245667092
:104303000612608C120D81741A120B4CE518F0A37F
:10431300E5191245AC7417120B4C1248B58E828FF7
:1043230083A3A3A3A3A3A3E0C0E07419120B4CD0EF
:10433300E0F074171208F4120CDF024561E8600321
:10434300024561900365E0640170178E828F83A339
:10435300A3A3A3A3A3E0700A7A347B01121D230253
:1043630045617442120B4C74021245AC743A120B41
:104373004C124573E05480700302447D7424120B85
:104383004C7402124584123FDD741C120B4C12480C
:10439300B57403120B4CE0C0E07425120B4CD0E053
:1043A300F07402120B4CE0C0E07426120B4CD0E008
:1043B300F090037B123FDD7427120B4C1248B57447
:1043C30006120B4C123FDD7429120B4C1248B574C4
:1043D30008120B4C123FDD742B120B4C1248B574B0
:1043E30010120B4CE0F8742D120B4CE8F0A3E4F020
:1043F300740E120B4C123FDD742F120B4C124573CB
:10440300123FDD7431120B4C124590E0C0E074335F
:10441300120B4CD0E012665CC0E07434120B4CD02B
:10442300E0F0126067C0E07435120B4CD0E0F0741A
:1044330011120B4CE0C0E07436120B4CD0E0F07458
:1044430013120B4CE0C0E07437120B4CD0E0F0EECB
:10445300242312606AC0E07438120B4CD0E0F0EEF3
:10446300242512606AC0E07439120B4CD0E0F0745A
:104473001C1208F4120D930245617457120B4C7809
:1044830008120ADDE50DA2E04003024519EE240FF0
:1044930012606AC0E07412120B4CD0E0F090032E4D
:1044A3001247187003024561120FF78A128B13A883
:1044B30012A913743A120B4CE0687003A3E069600D
:1044C30003024561EE242312606AF50D780D12088C
:1044D3007412457A1206B27808120868E50EF508D8
:1044E30078081208748E828F83A3A3A3A3E0F50830
:1044F30078081208747810120870A90C740B12084B
:10450300FC74451208F490032E1259BD1204F27480
:104513000B1208838048E50CA2E0500612608C124F
:104523000D81126067F50C780C1208747808120874
:1045330068E50EF508780812087478101208709070
:10454300037B1206B2EE241212606AF97444120855
:10455300FC740A1208F4120E59740A120883744385
:10456300023B02EE2421F582E43FF583E0548022EE
:10457300123CFC12457A22EE2421F582E43FF583B6
:104583002212458822126651A3A3A3A322E8F0A313
:10459300E9F0EE240FF582E43FF583228A088B09C4
:1045A300A808A9091246766822F01247CD1245B42D
:1045B300221259A7F92274F712037A121C518005AB
:1045C300740D1208837F010205E374F712037A1254
:1045D3001C6380F1C082C083121C5D02399374F79F
:1045E30012037A121C6980DD74F712037A740912BC
:1045F3000B4CE0F5087808120874121C7B740180D8
:10460300C1C082C083121C8702399374F612037AE5
:10461300EAFEEBFF900368E0A2E150498E828F83AC
:10462300A3A3A3A3A3A3A3A3A3A3E064016036123C
:104633000FFD8A088B09A808A9098E828F83E06879
:104643007003A3E069601E124672640160178E82D4
:104653008F831259B9122095E9600A8E828F8312D3
:1046630059B9120FB5EEFAEFFB121C8D02303D1251
:104673004676221247D1E02274F712037A121C9372
:104683000245C874F712037AEAFEEBFF8908740146
:10469300650870147900120C499025A8E493FC79FD
:1046A30000EEFAEFFB120BBF0245C874F712037A50
:1046B300121C810245C874F412037A74F912091C9E
:1046C300E9FE8A088B098C0A8D0B901D7812471816
:1046D300602BEE851882851983F07401120B4C78D8
:1046E30008120ABF7413120B4C123FDD7405120B30
:1046F3004C124C65901D781259BD1204F202401DF4
:10470300E50E75F006A4F8AAF0EAF9741928F58203
:10471300740F39F5831245B4E8492274F712037A0A
:10472300121C9F0245C874F712037A901E43E0F9E6
:104733007800800B1249D9540D64017001190812D5
:1047430049465003E970ED0245C874F712037A90A5
:104753001E44E0F97800800B1249D9548D648170AE
:104763000119081249465003E970ED0245C874F275
:1047730012037A890BE975F006A4A9F0240FF50852
:10478300E439F509E5082AFAE43509FB121AD18A56
:104793000C8B0DAE0CAF0DEE4F6025AC08AD097957
:1047A30000121A2F1247C9E50BF0EE2508F8EF3572
:1047B30009F98E828F83A3A3A3A3A3A3A31248B350
:1047C300EEFAEFFB80151247CD221247D122EE24D9
:1047D3000BF582E43FF583221208837F060205E38B
:1047E30074F612037AEAFEEBFF120B95E9F8901EBA
:1047F30042E0F9E8C39940099003141259B9120B26
:104803009BEE2402F8E43FF9880889099003161205
:104813005DA4900316E004F0EEFAEFFB120BA18502
:104823000882850983E0025ED3C082C08379009049
:1048330003148001091259B98A828B83E582458367
:1048430070F202399374F712037AEAFEEBFFEE4F2C
:10485300605B9003141247186053888289837A003F
:104863007B00EE65827003EF65836013AA82AB83DE
:10487300123FDD88828983E5824583603080E3903F
:104883000314123FDDEE687002EF698E828F83702E
:1048930008123FDD9003148003126B911248B5EEAA
:1048A300FAEFFB120D0FEEFAEFFB121AD70245C80F
:1048B300A3A3123CFC22C082C0839003148004880B
:1048C300828983124718600A888289831235654D6D
:1048D30070ED8A828B83E4F0A3F0E8496006888256
:1048E300898380039003141248F9023993EE241A42
:1048F300F582E43FF583EAF0A3EBF0221252B8EA23
:104903004B2274F712037A90031480048A828B83F8
:104913001248FF6027780080010812494650EDE8ED
:1049230075F006A4FCADF0EA2CFCEB3DFDEC241382
:10493300F582E43DF583E06970DF80047A007B0053
:104943000245C81249CAFCE8C39C2274F712037AD1
:10495300E9FE7D0080010D1249C5EDC3985023ED9A
:1049630075F006A4F8AFF0EFF91249BB70E8ED75E6
:10497300F006A4F81249FC4CF0E8240FFAE439FBE2
:1049830080047A007B000245C874F612037AE9FEBC
:10499300EAFF120BA7EA4B601C7C008010EC75F059
:1049A30006A4F8A9F01249BB7002EFF00C1249C536
:1049B300ECC39840E802303D1249F42413124A052F
:1049C3006E221249CAF822EA240B1249D122F58237
:1049D300E43BF583E022E875F006A4FCADF0EA2C95
:1049E300FCEB3DFDEC2414F582E43DF583E022EF7E
:1049F300F9EA28F8EB39F9E8221249F22414124AA9
:104A03000522F582E439F583E02274F612037A1263
:104A13000CB57A008016EA75F006A4F8A9F0125DC9
:104A2300D4E4125ED7F0A31264BDF00A9025B51248
:104A330058FE40E27A00801C8A08750900740378E6
:104A4300081209D6124AA5A374FEF0A304125C94BB
:104A5300A3E4F00A9025A31258FE40DC7900801AE3
:104A63008908750900740378081209D674B5126DA4
:104A73008F740F126B8C122A6F099025A21264B6E1
:104A830040DE9025A6E493900318F0908228120646
:104A9300AE7A107B009003C8E0F9121B97740402EE
:104AA300303A74752508F8740F3509F988828983BB
:104AB3002274F012037A74F512091C8A088B09898F
:104AC3000A8C0BE9A2E050147508FC7509FFA2E1FA
:104AD3005005D2E4024B75D2E3024B75120C9D8A4A
:104AE3000C8B0DA80CA90D90036EE0687003A3E076
:104AF30069600EAC0A7902AA08AB09120C97E97037
:104B0300057900024C45E50AF50C780C1208747916
:104B1300027CFE7DFFAA08AB09120C137401120874
:104B230083E96003024C43E50AC2E5F50AA2E640C5
:104B33004374031208FCAA08AB091220FBE9702E88
:104B43001252971211418A0C8B0DAE0CAF0DEE4F22
:104B53006022EE2402FAE43FFB122101E96015EE24
:104B63002402FCE43FFD74031208F4121BC7E50A98
:104B7300D2E5F50A900317E0F50C90036E124E0E82
:104B8300780E1208707D017C00900317E0F9AA0EDD
:104B9300AB0F120C557402120883E9F8900317E067
:104BA30004F0E86003024C43E50AA2E55004740EE6
:104BB30080027406C0E07401120B4CD0E0124C6901
:104BC30012105D8A0E8B0FAE0EAF0FEE4F606D129B
:104BD3005C78F0120FF11248F0124C6F7401F0740C
:104BE30078550AA3125D76A3E50C125D76A3A3E5BF
:104BF30008F0E509124C4AE4F0E50AA2E5500F7407
:104C0300031208FCE82406FAE439FB121BC78E8260
:104C13008F83A3A374FDF0A374FFF0E50B601290E0
:104C230025A9E493F8E50BC39850061241D6E50B8A
:104C3300F0EEFAEFFB121FFFE9F98006791080020C
:104C430079C7740B02355D88828983A3A3A3A3125A
:104C53004C5622124C5A22F088828983A3A3A3A321
:104C6300A322E8F0A3E9F0AA18AB1922EE1267CC4D
:104C73003F124C7822F5831259A7F988828983223F
:104C830074F412037A7A007B109003C8E0F9121BC4
:104C9300A3EA4B4C4D60089003DA7401F080439013
:104CA3001E29E06401901EA77006E0FC79018004D0
:104CB300E0FC79037A007B00120BBF902598E49304
:104CC300F508740193F509E4F50AF50B7808120861
:104CD300687A007B109003C8E0F9121B91740412E8
:104CE30008830237E174F012037AEAFEEBFF8C0AC1
:104CF3008D0B890C121075E960057AFF024DDE9069
:104D03001EA6E064026003024E049025B4E493F906
:104D1300EEFAEFFB120CC7E96003024DFE7900EED9
:104D2300FAEFFB120C9DA90C120C918A088B09EA6D
:104D330045097003024E048A828B83A3A3A3A3A312
:104D43001263D9707E1259B9850882850983A3A39A
:104D5300A3A3A3A3E05418604F9025A7E493850869
:104D630082850983A3A3A3A3F07410120B4C1260D2
:104D7300767412120B4C124E0EEA650A7003EB6541
:104D83000B6012EA6C7002EB6D600AEA650E700349
:104D9300EB650F7022780E120870AA0AAB0B121182
:104DA3007D7402120883800F90036DE0850882856D
:104DB3000983A3A3A3A3F074FE6A700374FF6B605B
:104DC3001E8045A3A3A3E0640360248A828B83A38C
:104DD300A3A3A3A3E0640470067AFE7BFF80298566
:104DE3000882850983A3A3A3A3A3E06402601279C5
:104DF30007EEFAEFFB120CC7E96006EEFAEFFB8051
:104E030007EEFAEFFB120BD1023560E0F50EA3E0DB
:104E1300F50F2274F712037AEAFEEBFF1220A1E9E1
:104E2300700AEEFAEFFB12208FE96006EEFAEFFB51
:104E330080047AFE7BFF0245C874EE12037AEAFE11
:104E4300EBFF8C0C8D0D890E750800121075E97936
:104E5300006003024F81EEFAEFFB120C9DA90E12C4
:104E63000C918A0A8B0BEA450B607D8A828B83A3A4
:104E7300A3A3A3A3E0640360238A828B83A3A3A3D6
:104E8300A3A3E064016003024F7F79078A828B83C7
:104E93001259B7120CC7E96003024F7F75090285E7
:104EA3000A82850B83A3A3A3A3A3A3E054186003DF
:104EB300024F367900AA0CAB0D120C9D8A0A8B0B9C
:104EC300A80AA90B90036EE0687003A3E06960036E
:104ED300024F639025A8E493FCA90EEEFAEFFB12B0
:104EE3000BBF750801024F7FEEFAEFFB120BD112D5
:104EF30020898A0A8B0BA80AA90BE849607E88825D
:104F03008983A3A3A3A3A3E0A2E05070750901A220
:104F1300E150127901EEFCEFFDAA0CAB0D120BEF81
:104F2300E97090805788828983A3A3A3A3A3D2E1C6
:104F3300F08080750801850A82850B83A3A312067E
:104F4300B2750AFE750BFF780A1208707900EEFC41
:104F5300EFFDAA0CAB0D120CA97404120883801C7C
:104F6300A909EEFCEFFDAA0CAB0D120BEFE9700CD7
:104F7300750801A90EEEFAEFFB120C49A9080261AC
:104F8300C674E912037A74F012091C8A0C8B0D8C17
:104F9300088D09750B0612529712116B8A108B112B
:104FA300EA4511600B8A828B83A3E0700302512BC5
:104FB300E50C241DF50EE4350DF50F850E82125414
:104FC30096F51688828983A3A3A3E0FA888289834E
:104FD300A3A3A3A3E0F8E4C8F9EA28FEE439FFAAEF
:104FE30008AB09120C4FE9F9850E82850F83125223
:104FF3009EE029F50EE50AA2E55003750B0E7487B2
:10500300550A700F7418550A6418600712547B65AB
:105013000B600A7AD37B00121D2302512B530A78AB
:1050230078081208707D00AC0EA9161252AD120C4E
:10503300557402120883E9F8740368700302512B54
:105043007427120B4CE0F512A3E0F513E86003029A
:10505300511C7418550A7003025130E50AD2E0F569
:105063000AA2E45004D2E1F50AA90A1252AD120CC5
:10507300918A148B15A814A915E849605788828969
:1050830083A3A3A3A3A3A3E05418604888828983BE
:10509300A3A3A3A3A3E06401703AE5104511603410
:1050A300126073888289831259B712116B8A148B29
:1050B30015A814A915E849601B88828983A3E060B9
:1050C30013851082851183A3E0FA88828983A3E084
:1050D300C39A4054E50AF50B780B1208741252A7D1
:1050E300120C137401120883E9702E7C007D008575
:1050F300128285138374FFF0A3125D84A3A3A3A379
:10510300A3A3A3A3E0600AE50C2415125283126043
:1051130076A90E1252AD120B6B851282851383E0B2
:10512300F47003A3E0F460487900025275900367BA
:10513300E06014E50AF50B780B1208741252A712FB
:105143000C137401120883E50AF50B780B1208742B
:1051530079027CFE7DFFEEFAEFFB120C1374011251
:105163000883E970B485128285138374FFF0A3F07A
:1051730078081208707D01AC0EA9161252AD120CFC
:10518300557402120883A90AEEFAEFFB120C9D8AEA
:10519300088B09A808A90990036EE0687003A3E0CF
:1051A300696003025269EEFAEFFB1220898A088BC9
:1051B30009A808A909E849602788828983A3A3A3CA
:1051C300A3E06401600D88828983A3A3A3A3E064A1
:1051D30002700DAC18AD19EEFAEFFB1220FB801232
:1051E300120FF18A088B09AC08AD09AA18AB191282
:1051F3001BC7850C82850D83A3A3A3A3A3A3A3A38A
:10520300E064017012E50C24151252831260767467
:10521300081208F4121BC7E50C241DF582E4350DB2
:1052230012528BE04430F5087808120874740112A6
:1052330008EC880889097808120870740B1208ECC6
:10524300880889097808120870E516F508780812A5
:1052530008747900EEFCEFFD1252AD120BE97406EF
:1052630012088302512B12527F12529EE50EF01246
:10527300100974101208837F0F0205E3E50C241D47
:10528300F582E4350DF58322F583E0F8A3E0F58399
:105293008882A32290037B1254B222126BA3A3A38E
:1052A300A3A3A3227901AC08AD091267CA350D1275
:1052B30052B622F583E0FAA3E0FB2274EC12037AE0
:1052C30074F012091C8A0C8B0DECFAEDFB750F08B8
:1052D30012607312116B8A088B09AC08AD09EC4D8F
:1052E300601F8C828D83A3E07017125C89500109C3
:1052F3007A027B0012022AE88C828D83F0A3740762
:10530300F0E50C241DF582E4350D125496F50E8854
:10531300828983125488E0FAE4CAFBEC2AFEE43B58
:10532300FF88828983A3A3125488A3A3E0FBECF52F
:1053330008E43BF50988828983A3A3A3A3A3A3A3BA
:10534300E0F50BE50AA2E45003750F10A2E5500641
:105353007408250FF50F748F550A700712547B6577
:105363000F600A7AD37B00121D23025476530A700E
:105373007800E50AA2E4501C12527FE02408FCA343
:10538300E03400FD74081208F4121BC77808E50A1C
:10539300C2E4F50AE50AA2E5501F12527FE028F89D
:1053A300A3E03400F9E82408FCE439FDAA18AB199A
:1053B300121BC7E50AC2E5F50AA90EEEFAEFFB12C6
:1053C3000C8BE9F5109025A31264B6502989127548
:1053D3001300740378121209D6747A2512F58274B5
:1053E3000F3513F583E0F8E50BC3985007E50BF091
:1053F30078008004807D780490036EE06E7003A3D0
:10540300E06F605FE87019E50AF50F780F12087412
:105413001254A5120C137401120883E97055800508
:10542300740468704E780A12087474011208EC88C8
:105433000C890D780C120870740B1208EC880C8917
:105443000D780C120870E50EF50A780A120874A993
:105453000BAC08AD09EEFAEFFB120BE97406120868
:10546300838010780A1208741254A5120C13740165
:105473001208837410023B02E50C2417F582E4350D
:105483000DF583E022A3A3A3E0FC88828983A3A371
:10549300A3A322124C78A3E0F50A88828983A3A3ED
:1054A300E02279011267CA350DF5831254B222E066
:1054B300FCA3E0FDAA08AB092274EB12037A74F58E
:1054C30012091CEAFEEBFF8C088D09891474201263
:1054D3000B4CE0F511F9120C8BE9F50A9025A31298
:1054E30064B6501B750B007403780A1209D67478DE
:1054F300250AF582740F350BF583124E0E8006755F
:105503000EFE750FFF7401120B4C7408F074251214
:105513000B4CE0F510A2E450087401120B4C74100C
:10552300F0E510A2E550097401120B4CE02408F0D9
:10553300AA18AB1912105D8A0C8B0DEA450D700386
:1055430002565EEA241712566C120FF1E50C241A68
:10555300F582E4350D1248F77421120B4CE0F51275
:10556300A3E0F51374031208FCAA0EAB0F1220FB81
:10557300E9601512566874031208ECE50C2418123E
:105583005283E8F0A3E98020E510A2E4501BE50E66
:105593006E7003E50F6F7011125668E50C24181234
:1055A3005283E512F0A3E513F0E50C125683125271
:1055B3008612356A850A82F5837402F0A3E5101218
:1055C3005677E511F0EE850A82850B83A3A3A3F03A
:1055D300EF850A82850B83A3A3A3A3125677A3A304
:1055E300A3E508F0E509850A82850B83A3A3A3A39A
:1055F300A3A3F0AA0EAB0F120C4FE92514850A8260
:10560300850B83A3A3A3A3A3A3A3F07800E510A210
:10561300E45012AC12AD13E50A2408FAE4350BFB8F
:10562300121BC77808E510A2E5501A7423120B4C1D
:10563300126076E50A28F8E4350BF9E82408FAE461
:1056430039FB121BC7850C82850D83A3A3E50EF0DE
:10565300A3E50FF0AA0CAB0D121FFF740B12088306
:105663007F0D0205E3E50C2416F582E4350DF58381
:105673007401F022F0850A82850B83A3A322E50837
:105683001267CC2274F412037A8A088B09ECFEEDBC
:10569300FF750B0190036EE065087004A3E06509D4
:1056A3006013750B00780B1208741210B774011293
:1056B3000883E9F50B7900AA08AB09120C9D8A0847
:1056C3008B09A808A90990036EE0687003A3E06939
:1056D30070467900EEFAEFFB120C91EA4B60308AC8
:1056E300828B83A3A3A3A3A3A3E05418602175080B
:1056F300FE7509FF78081208708A828B83A3A312B0
:1057030006B2126FEE120CA9740412088380097991
:1057130001EEFAEFFB120B65A90B0237E174F212EB
:10572300037A7EFD7F0D7A107B009003C8E0F912A7
:105733001BA3EA4B4C4D70179082281206AE7A10C9
:105743007B009003C8E0F9121B977404120883903E
:105753000318E014F060030258029025A6E4939026
:105763000318F07C0079057A007B00120F798A0810
:105773008B090257F97C007905AA08AB09120F7946
:105783008A0A8B0B850882850983A3A3A3A31247E7
:1057930018605DE5082404F8E4124AACE024FFF045
:1057A300A3E034FF1264BD12471870448508828554
:1057B3000983A3A3A3A3A3A3E054046013850882CE
:1057C300850983A3A3A3A3A3A3A3A3E0F9120C793D
:1057D300850882850983A3A3A3A3A3A3A3A3A37477
:1057E30006F07AF0850882850983126543120ECB91
:1057F300850A08850B09E508450960030257787592
:10580300080080668E828F83A3A3A3A3E06052F473
:10581300604FEE240412590570478E828F83A3A331
:10582300A3A3A3E06403701379028E828F831260B3
:10583300768E828F831259B7120BEF8E828F83A3DA
:10584300A3A3A3A3E0640160188E828F8374FEF088
:10585300A30412319614F0A304126649E412392A00
:10586300F00508EE2407FE50010F9025AA123572A9
:1058730040927E00803D120F9D8E087509007403CF
:1058830078081209D674752508FC740F3509FD7A5A
:10589300FB7B0B120F8BEA4B70DC8E0875090074CF
:1058A3000378081209D6124AA5122A6E88828983C0
:1058B300E4F00E9025A3126D2250258E0875090081
:1058C300740378081209D674752508F8740F35091E
:1058D300F9E82407F582E4126A0A14F070D4809977
:1058E3007A008009EA12590F600214F00A9025B574
:1058F3001258FE40EF0247DE9025A2E493F8EAC374
:105903009822F582E43FF583E014F02275F006A4B3
:10591300F8A9F0741528F582740F124A082274F757
:1059230012037A74DA12091CECFEEDFF750800EE1F
:105933004F606A8A828B831259A7C8241FF582E4B9
:105943003812471660578A828B831259B9AC18AD47
:1059530019EA241E1249D1F9EA241F122605120F4F
:10596300D9740B120B4C1259C17003A3E069702D4B
:105973007402120B4CE064017023741D120B4C1261
:1059830059BDE064017016741D120B4C12528FA3A3
:10599300E0F88E828F83E0687003750801A90874AC
:1059A300260245C5E0F8A3E0228E828F83A3A3A33A
:1059B300A3A3A3A3A3A31252B822126BA322125927
:1059C300C7E068221259CB22E0F8A3E0F98E828F58
:1059D30083A32274F412037AE9701E7900120C0770
:1059E3008A0A8B0BAE0AAF0B74FE6E700374FF6FE3
:1059F30070149025B0E493600D7901120C078A0AA4
:105A03008B0BAE0AAF0B1210270237D174F61203B9
:105A13007A74F312091C121A3B8A088B09AE08AF79
:105A23000990036EE06E7003A3E06F60E9120FFD4F
:105A3300EA6E7002EB6F60DEEEFAEFFB121075E9AF
:105A430070D4EE4F60D0851882851983E4F0041278
:105A53000B4CEEF0A3EF124C691220E3E970B7741C
:105A6300FE6E700374FF6F60ADEEFAEFFB740D0210
:105A7300303AC082C08312102702399374F21203A2
:105A83007AEAFEEBFF8C0A8D0B890874FC6E7003B7
:105A930074FF6F7003025C697900120C9D8A0C8B92
:105AA3000DAE0CAF0D740E120B4CE0F50990036EA6
:105AB300E06E7003A3E06F7009E509A2E6400302FC
:105AC3005C69A909120C918A0C8B0DA80CA90DE82D
:105AD30049704579007AFE7BFF120C918A0C8B0D7D
:105AE300A80CA90DE8497030741855097003025BBE
:105AF300997A0080010A9025AA1258FE4003025B9E
:105B030099EA75F007A4F8A9F0126E37541870E5F6
:105B130074FD28F8740D39F988828983EEF0A3EFB8
:105B2300F074FE650A700474FF650B600D8882894A
:105B330083A3A3E50AF0A3E50BF088828983A3A3DB
