:020000040000FA
:06000000020AAF0201CF6D
:03002B0002076168
:030043000207872A
:03005300020104A3
:03006B0002054546
:10008300020163010105030101FF0F10FEFF282395
:1000930000000000FC2100000000FF000000FF0042
:1000A300010124341201000004CF8103DF81002009
:1000B300FD000206FFFF0101010400EF1C00000028
:1000C300E8030000FFFFBA1DE803000064006400BA
:1000D300B801A0BB0D00A0BB0D0002000800000585
:1000E30002070101051E02051E020A0A0102080396
:1000F300B80B02803E0102E8030A050001FFFF017D
:1001030014C0E074F11203E6A2AFE433F509D2AFF1
:1001130085A708AFA1EF5508FE74105E600612179D
:100123009B75A1EF74085E60081217A175A1F78093
:1001330024EFA2E092F0E508A2E082F0501790616C
:1001430098E0F89009B1E0C398A2D265D033500289
:10015300E8F075A1FEE509A2E092AF7F0202044533
:10016300C0E074F21203E6A2AFE433FED2AF9061B3
:10017300A4E0F8759B00E59158540860087591F761
:100183001217E98023E59158541060087591EF1216
:1001930017EF8014E591A2E092F0E8A2E082F0501C
:1001A30007E0C2E0F01219459061A3E0F8E5E958D1
:1001B3005404600E12191B75E9FB906193E0A2E6EB
:1001C30040F2EEA2E092AF7F01020445C0E074F278
:1001D3001203E6A2AFE433FED2AF9061A5E0F8E5E7
:1001E300BF585404600675BFFB12195D80D4C3E485
:1001F30098F8E499F91202328026C3E49AFAE49B50
:10020300FBE920E7E9120232E498F8E499F922C302
:10021300E498F8E499F9120232E498F8E499F9C3FE
:10022300E49AFAE49BFB22EB20E7CFE920E7E0B96D
:100233000010BB0008E88AF084F8AAF022E4FBC8A7
:10024300FA22EB70227B10C833C8C933C933500775
:10025300C39AC3DBF280069A50012ADBEAC833F45F
:10026300C8C933F4C9FA2275F008E4C833C8C933DE
:10027300C933C99AC99B5004C92AC93BD5F0ECFBC1
:10028300C833F4C8E4C9FA22080808EAC0E0EBC09E
:10029300E086F0E7A4FA180986F0E7A42AFA180919
:1002A30086F0E7A42AFA180986F0E7A42AFA198641
:1002B300F0E7A4FBE5F02AFA190886F0E7A42BFB84
:1002C300E5F03AFA190886F0E7A42BFBE5F03AFAD1
:1002D30018180986F0E7A4C5F02BFBE43AFA1908CD
:1002E300E7C5F0C6A426F6E5F03BFBE43AFA188628
:1002F300F0E7A4F6E5F00826F6E43B08F6E43A084E
:10030300F6D0E0FBD0E0FA22E4CFC0E0E4CEC0E0D8
:10031300E4CDC0E0E4CCC0E075F020E626F608E6C4
:1003230033F608E633F608E633F6181818EC33FC10
:10033300ED33FDEE33FEEF33FFC3EC9709ED970981
:10034300EE9709EF97191919400FFFEC97FC09ED88
:1003530097FD09EE97FE191906D5F0BFECF709EDE5
:10036300F709EEF709EFF7191919D0E0FCD0E0FD12
:10037300D0E0FED0E0FF222518C582C0E0E51934A5
:10038300FFC583C0E0E518C3958224F810AF088544
:1003930083198582188008858319858218D2AFCE88
:1003A300F0A3E520F0A37808E608F0A3DEFAEFF067
:1003B300A3E58124FAF8E608F0A3E608F0A3E6082B
:1003C300F0A30808E608F0A3E608F0A31581158159
:1003D300D0E0FED0E0F8158115811581E8C0E0EE8C
:1003E300C0E022C0D02518C582C0E0E51934FFC59E
:1003F30083C0E0E518C3958224F310AF0885831901
:100403008582188008858319858218D2AFC8F0A326
:10041300E9F0A3EAF0A3EBF0A37908E709F0A3D886
:10042300FAECF0A3EDF0A3EEF0A3EFF0A3D0E0F02D
:10043300A3D0E0F0A3D0E0F0A3E520F0A3E5F0F033
:10044300A322851983851882E0C0E0A3E0F9A3E025
:10045300FAA3E0FBA37808E0F608A3DFFAE0FCA325
:10046300E0FDA3E0FEA3E0FFA3E0C0E0A3E0C0E063
:10047300A3E0F5D0A3E0F520A3E0A3F5F010AF08C7
:100483008583198582188008858319858218D2AFE0
:10049300D082D083D0E0F8D0E032120B41B9000310
:1004A3000204DCE49003017842791C8002F0A3D8B3
:1004B300FCD9FA7A427B1E900086787F79018015F9
:1004C300E493A3AD82AE838A828B83F0A3AA82AB2B
:1004D300838D828E83D8E9D9E775826B7583B17476
:1004E3000412084A758243758321740012084AE492
:1004F3007375F0108E1A8F1B85821F85831E8518D6
:1005030082851983E0CEA3E0CF851F82851E83EB0E
:10051300C9EAC8EDCBECCAC3E833C8E933C9EA3347
:10052300CAEB33CBC3EA9EF51DEB9FF51CB3500416
:10053300AB1CAA1DEC33CCED33CDD5F0DAAE1AAF3C
:100543001B22C0E074EF1203E6A2AFE433FED2AF86
:1005530090052CE0F8A3E0F9E849602990052EE026
:10056300F508A3E0F509E4F50AF50B780812086825
:1005730090052CE0FAA3E0FB90052BE0F9121B9DFC
:100583007404120883758900C2C5EEA2E092AF7F9E
:1005930004020445D083D082ECC0E0EDC0E0E493D4
:1005A300A3FCE493A3FDED4C600D12066FEC24FF56
:1005B300FCED34FFFD80EFE493A3FCE493A3FDED96
:1005C3004C600D12070CEC24FFFCED34FFFD80EFB3
:1005D300D0E0FDD0E0FCE493A3C0E0E493C0E022CC
:1005E300851983851882E0A3FEE0A3F5207808E04F
:1005F300A3F608DFFAE0A3FFE0A3C0E0E0A3C0E0B6
:10060300E0A3C0E0E0A3C0E0E0A3C0E010AF088532
:1006130082188583198008858218858319D2AFD003
:1006230083D082020850D083D082E9C0E0E493A350
:10063300C386F0C5F095F0F908E493A386F0C5F0FE
:1006430095F0700BE493A3C3994005E9048002A3DA
:10065300E475F002A42582F582E5F03583F583D0B5
:10066300E0F9E493A3C0E0E493C0E022C0E0C3E474
:100673009396087401939618400FE49366700808E4
:10068300740193661870007019A3A3C3E4939608CA
:100693007401939618A3A3400DD0E0D0E0D0E002FC
:1006A30005D3A3A3A3A3A3A3D0E02274048004745B
:1006B300028000CCC0E0EDC0E0E518C39CCCAD19CE
:1006C30050011D10AF068C188D1980068C188D19DA
:1006D300D2AF1207CCD0E0FDD0E0FC227402800040
:1006E300CCC0E0EDC0E0E518C39CCCAD1950011DB2
:1006F30010AF068C188D1980068C188D19D2AF1285
:1007030007AAD0E0FDD0E0FC22C0E0C0F088F0E40E
:10071300936670080874019366187000A8F0A3A389
:10072300700BD0F0D0E0D0E0D0E00205D3A3A3D08B
:10073300F0D0E022D083D082CCC0E0E493A3600663
:1007430012082B1470FAE493A36006120932147092
:10075300FAD0E0FCE493A3C0E0E493C0E022C0E05D
:10076300C0D0E8C0E0E9C0E0A9A8D2AFC2C7E9A2FF
:10077300E7E433F8E9A2E792AFD0E0F9D0E0F8D0AC
:10078300D0D0E032C0E074F21203E6A2AFE433FE4D
:10079300D2AFC2C0E5D1A2E45003121711EEA2E01A
:1007A30092AF7F01020445CAC0E0E493A3C582CCA3
:1007B300C582C583CDC583F0A3C582CCC582C5835D
:1007C300CDC583DAE5D0E0CA22CAC0E0E0A3C58282
:1007D300CCC582C583CDC583F0A3C582CCC582C5F4
:1007E30083CDC583DAE6D0E0CA22C008C3E096F51C
:1007F3000808A3E096420808A3E096420808A3E08D
:100803009645087001D3D0082270090808082260B1
:1008130016181818C6C333C608C633C608C633C667
:1008230008C633C6D5E0EA22C0E0E493A3D39C50C4
:1008330010E493A3C39C400AD0E0D0E0D0E00207C9
:1008430054A3A3A3D0E022C09FF59FE473D09F22BB
:10085300D083D082C09FE493C0E0740193C0E0745E
:100863000293F59F227404800A7403800674028045
:10087300027401C0E0F40412089ED0E0120AEC22D4
:1008830000C0D0251810AF08F518500C05198008C2
:10089300F51850020519D2AFD0D0222518F58210D1
:1008A300AF08F518400C15198008F5184002151902
:1008B300D2AF85198322BB0102E722C082C083899C
:1008C300828A83BB0003E08002E493D083D0822238
:1008D3006016080808C6C313C618C613C618C6137D
:1008E300C618C613C6D5E0EA222518F8E43519F967
:1008F300222518FAE43519FB222518FCE43519FDE5
:1009030022C3E0C696F608A3E0C696F608A3E0C69F
:1009130096F608A3E0C696F622251810AF08F51838
:10092300400C15198008F51840021519D2AF22C0E2
:10093300E0E493A36C7009D0E0D0E0D0E002075468
:10094300A3A3D0E022C3E09608A3E09608A3E09611
:1009530008A3E096A2D265D03322E066701008A304
:10096300E066700A08A3E066700408A3E06622E765
:100973006670100809E766700A0809E766700408DC
:1009830009E76622C3E096F008A3E096F008A3E027
:1009930096F008A3E096F022C3E697F60809E697D7
:1009A300F60809E697F60809E697F622C3E4939654
:1009B300087401939608740293960874039396221D
:1009C300E627F60809E637F60809E637F60809E6E2
:1009D30037F622700422600D18C6C333C608C63327
:1009E300C6D5E0F41822E493F608740193F608746C
:1009F3000293F608740393F622E657F60809E657BE
:100A0300F60809E657F60809E657F622E056F6080F
:100A1300A3E056F608A3E056F608A3E056F622E054
:100A230056F008A3E056F008A3E056F008A3E056FA
:100A3300F022E026F608A3E036F608A3E036F6082F
:100A4300A3E036F622E647F60809E647F60809E684
:100A530047F60809E647F622E026F008A3E036F059
:100A630008A3E036F008A3E036F022E4C396F608C4
:100A7300E496F608E496F608E496F622C6F4C60869
:100A8300C6F4C608C6F4C608C6F4C622C3E7960869
:100A930009E7960809E7960809E79622C3E096084E
:100AA300A3E09608A3E09608A3E0962275D000750C
:100AB300813F7518017519030002049DE6F008A330
:100AC300E6F008A3E6F008A3E6F022600C08C6C32C
:100AD30013C618C613C6D5E0F422E0F608A3E0F661
:100AE30008A3E0F608A3E0F622CAC0E0E6F0A308F4
:100AF300DAFAD0E0FA22E8F0A3E9F0A3EAF0A3EBF4
:100B0300F022E0F8A3E0F9A3E0FAA3E0FB22ECF083
:100B1300A3EDF0A3EEF0A3EFF022E0FCA3E0FDA32E
:100B2300E0FEA3E0FF22EAF0A3EBF0A3ECF0A3EDD9
:100B3300F022E0FAA3E0FBA3E0FCA3E0FD22E5C77B
:100B430054F84401F5C77901222518F582E43519D3
:100B5300F58322C2AF75D69F02000022120853808C
:100B630046001208538B4600120853B3460012087E
:100B730053BE46001208532347001208532E470062
:100B8300120853524700120853764700120853E8DD
:100B930047001208533148001208534D4800120809
:100BA30053BE48001208530A490012085353490020
:100BB300120853914900120853124A00120853B9FC
:100BC3004A00120853884C00120853ED4C001208D7
:100BD300531B4E00120853414E00120853894F0015
:100BE300120853C35200120853C154001208538C05
:100BF30056001208532557001208532659001208AD
:100C030053DB5900120853145A001208537A5A003E
:100C1300120853845A00120853AD5C00120853ECB7
:100C23005D00120853435E00120853EE5E00120883
:100C3300539E6000120853EB61001208530B6200CD
:100C4300120853606200120853616300120853894B
:100C53006300120853E86300120853E064001208AB
:100C6300535765001208536A6600120853D866008A
:100C7300120853D76700120853316A001208535AF7
:100C83006A00120853C06B00120853426D00120829
:100C930053996D00120853476E00120853EC6E000F
:100CA300120853456F00120853037000120853953E
:100CB3007000120853F470001208533671001208C2
:100CC30053677100120853BE72001208530080026A
:100CD3001208533280021208536B80021208532900
:100CE3008202120853FF82021208535E8302120823
:100CF30053748402120853C084021208534E8702AD
:100D0300120853288A021208536F8B0212085307E2
:100D13008C02120853138C021208535C8C021208C3
:100D2300539E8D02120853948E02120853BE8E02F4
:100D3300120853148F021208536D8F02120853E0E6
:100D43008F02120853169202120853989302120844
:100D530053819402120853CB95021208530398024D
:100D6300120853009B021208530F9B02120853A34D
:100D73009B02120853E69B02120853659C02120859
:100D830053E29E0212085314A002120853ECA0026D
:100D93001208536EA102120853A3A502120853D2DC
:100DA300A5021208532DA60212085360A6021208C8
:100DB30053D8A60212085310A70212085360A702C1
:100DC300120853CFA802120853F3A8021208532D96
:100DD300A9021208533AA9021208533DA9021208A4
:100DE300536CA90212085364AB0212085323AC02DA
:100DF30012085352AC0212085370AD021208533852
:100E0300AE02120853F6AF0212085328B0021208BA
:100E1300538EB002120853BBB0021208532EB10214
:100E230012085352B302120853B1B3021208530506
:100E3300B40212085334B60212085317B702120849
:100E430053D3B702120853E7B702120853FBB70292
:100E530012085328B80212085358B8021208531341
:100E6300BA0212085325BB021208537ABB021208B6
:100E730053C3BB021208533FBC0212085386BC0281
:100E8300120853F8BC021208534DBE02120853F65F
:100E9300BE021208530EBF02120853B1BF0212085A
:100EA300532DC202120853D5C302120853F3C302CF
:100EB300120853718201120853A98201120853A91F
:100EC3008701120853EF870112085325890112087D
:100ED300538A8901120853FF8A01120853098E01AC
:100EE300120853328F01120853459901120853D542
:100EF3009901120853BF9C01120853CC9D0112089B
:100F0300532F9E01120853779F01120853E5A10145
:100F130012085377A30112085304A40112085323A0
:100F2300A501120853B0A501120853BAA50112086E
:100F330053E2A50112085382A6011208536DA701BB
:100F43001208533AA80112085357A80112085380F4
:100F5300A801120853ADA801120853F4AA011208FC
:100F630053C3AB0112085302AC0112085384AC0102
:100F730012085325AD0112085357AD011208539EB1
:100F8300AD01120853D1AD0112085315AE01120879
:100F93005364AE0112085369AE01120853C5AE0182
:100FA30012085309AF01120853E3AF011208534863
:100FB300B001120853AEB00112085329B10112084F
:100FC3005391B40112085394B50112085312B70197
:100FD30012085328BA01120853CABA01120853134C
:100FE300BD01120853CEBD011208530DBE011208F4
:100FF30053E5BF0112085302C0011208530BC0018D
:1010030012085314C0011208531FC0011208533EA3
:10101300C001120853E2C1011208533FC201120872
:101023005349C20112085361C20112085372C3012A
:10103300120853BBC30112085375C4011208538C21
:10104300C50112085361C601120853A8C70112084B
:1010530053ACC801120853A5C901120853BDC901F5
:10106300120853F4C901120853FEC90112085309A7
:10107300CA0112085327CA011208536FCA01120882
:1010830053CDCA01120853F4CA0112085306CB0107
:10109300120853BBCB01120853F4CB0112085316A9
:1010A300CD0112085369CD011208534FCE01120826
:1010B3005376CE01120853E6CE0112085362CF01D4
:1010C300120853BED001120853E5D101120853A7E9
:1010D300D20112085375D30112085333D4011208F5
:1010E300531BD501120853C5D5011208532DD60140
:1010F300120853E2D6011208533ED7011208539641
:10110300D7011208535CD8011208537FD801120883
:10111300533AD9011208535CD901120853BDD901BE
:10112300120853EDDB01120853E6DC011208539257
:10113300DD01120853B3DF01120853FCDF0112086B
:101143005347E001120853A3E00112085301E101E0
:1011530012085325E10112085349E1011208537E95
:10116300E101120853A6E101120853EBE101120851
:10117300533FE20112085398E20112085392E3012C
:1011830012085330E50112085375E5011208539E06
:10119300E50112085327E6011208539AE6011208E3
:1011A30053A8E601120853CCE60112085322E701C3
:1011B3001208533DE701120853F8E70112085324BC
:1011C300E80112085367E801120853CAE80112083C
:1011D30053D8EA0112085304EB01120853BFEB0181
:1011E300120853A3EC0112085337ED011208537987
:1011F300DD03120853B1DD03120853D2DD031208D5
:101203005314DE0312085378DE0312085382DE03FD
:1012130012085392DE03120853C9DE0312085372F5
:10122300E2031208533AE4031208531EE6031208BA
:1012330053C0E6031208534AE70312085383C40258
:101243001208532CC5021208530BC6021208531777
:10125300C70212085337C70212085359C8021208AB
:101263005309CA0212085376CA0212085347CB0223
:101273001208534DCC02120853C5CC021208530076
:10128300CD0212085359CD0212085394CD0212080D
:1012930053DDCD0212085371CE0212085307CF0259
:1012A300120853DCCF02120853AFD0021208533D89
:1012B300D10212085363D10212085390D1021208CB
:1012C30053C1D1021208538ED2021208539ED20286
:1012D300120853F1D202120853FED2021208530B22
:1012E300D30212085314D30212085378D3021208FC
:1012F30053D6D30212085321D4021208533CD4020A
:1013030012085363D40212085380D4021208538C78
:10131300D4021208531DD60212085336D6021208FD
:1013230053B2D602120853C5D602120853D5D602B9
:1013330012085379D702120853E5D802120853F85A
:10134300D90212085398DA02120853A2DA021208D9
:101353005321DB0212085332DB0212085371DB0202
:101363001208539FDB021208536CDC02120853C3AA
:10137300DC02120853FCDC0212085352DD0212088D
:101383005370DD02120853BEDD0212085389DE02D8
:10139300120853D7DE0212085324DF02120853A7A0
:1013A300DF02120853D1DF0212085307E0021208CA
:1013B3005316E00212085375E002120853EDE002DF
:1013C3001208532EE1021208537EE102120853A9B8
:1013D300E102120853C3E102120853DDE1021208CD
:1013E30053B2E202120853BCE202120853F7E202BC
:1013F30012085307E30212085358E3021208536C0E
:10140300E3021208538EE402120853A3E402120803
:101413005336E502120853AAE5021208534FE602B7
:101423001208535AE602120853BDE702120853D9B1
:10143300E70212085325E80212085393E802120840
:1014430053C5E802120853DFE8021208533FE902CA
:10145300120853DEE90212085329EA021208537CE8
:10146300EC0212085314ED021208538BED0212081A
:1014730053E8EF0212085300F00212085303F0027C
:101483001208530FF00212085323F0021208532BD1
:10149300F00212085362F00212085356F1021208C6
:1014A30053E0F10212085362F202120853E2F2020D
:1014B300120853B9F302120853DBF30212085374F0
:1014C300F402120853D1F402120853D4F40212089E
:1014D3005343F5021208538FF602120853A2F70280
:1014E3001208532DF80212085340F9021208530749
:1014F300FA0212085338FA021208535EFA0212086B
:101503005367FA0212085396FA0212085346FB0273
:10151300120853F6FB0212085369FC021208530C1B
:10152300FD021208537FFD02120853BEFD0212088A
:101533005307FE02120853B1D2031208531ED303FA
:101543001208536AD303120853BCD3031208533C43
:10155300D40312085339D6031208534CD803120884
:101563005385DB03120853B4DB03120853D2DB03A6
:101573001208533CDC0312085364DC03120853972C
:10158300DC03120853CCDC03120853073D00120896
:1015930053D9BB041208531EBC041208532EBC04B7
:1015A30012085398BC04120853B6BC04120853BE65
:1015B300AB0412085330AC041208533EAD041208B6
:1015C300536AAD04120853E0AD0412085364AE0429
:1015D3001208531A7300120853967300120853C467
:1015E30073001208530974001208536A7500120835
:1015F30053134600120853BC750012085335760086
:10160300120853837600120853137700120853EB22
:1016130077001208533C7800120853A1780012088F
:1016230053147900120853587900120853B0790003
:10163300120853D27900120853627A00120853F346
:101643007A001208532B7B00120853547B001208B4
:1016530053957B00120853367D00120853187E0001
:10166300120853F47E00120853E5C304120853F61C
:10167300C304120853FA7F0012085368C404120803
:1016830053A7C204120853B7C204120853CCC204AE
:1016930012085315C30412085322BE04120853A69A
:1016A300BE041208530CBF04120853FD7F00120836
:1016B30053EFFF01120853F2FF01120853F5FF0124
:1016C300120853F8FF01120853FBFF01120853D607
:1016D300A404120853E4A4041208535DA5041208D9
:1016E3005332A60412085304A804120853ADC304CA
:1016F3001208532D87041208539A87041208535271
:101703008804120853458904120853A28A04120854
:1017130053F88A04120853538B041208535C8B0446
:101723001208536E8B04120853D58B04120853E826
:101733008B04120853F3F8031208531FF90312081A
:1017430053B5FB03120853F5FB0312085331FC0393
:1017530012085345FC031208535EFC031208534F4F
:10176300FD0312085301FE0312085315FE0312086A
:10177300533CFE0212085360FE0212085379FE0224
:10178300120853B7FE02120853EDFE02120853204B
:10179300FF021208538CFF021208538FFF02120834
:1017A3005399FF02120853A6FF02120853BFAE0457
:1017B300120853E2AE041208532DAF041208534B20
:1017C300AF0412085366AF04120853CCAF041208D7
:1017D30053D8AF0412085335B00412085359B00458
:1017E3001208531FB1041208532CB1041208533DBD
:1017F300B10412085374FF031208538CFF03120839
:1018030053B8FF031208533A8C04120853988D04FB
:10181300120853A68D04120853BA8D04120853D725
:101823008D04120853EC8D04120853FF8D04120823
:1018330053818E04120853E68E041208537C8F04DE
:1018430012085355900412085365900412085374F8
:101853009004120853DCC00412085300C104120898
:101863005328C10412085350C10412085344B60448
:101873001208536BB60412085389B604120853FEB8
:10188300B604120853EFFC0112085308FD011208B5
:10189300531FFD0112085328FD0112085340FD0197
:1018A3001208534AFD0112085354FD0112085367ED
:1018B300FD01120853F1FD0112085366FE011208DF
:1018C3005394FE01120853E8FE0112085334FF013A
:1018D3001208534FFF0112085359FF011208537F97
:1018E300FF01120853E4FF0112085325C004120834
:1018F3005347C0041208534EC404120853F9E703B4
:1019030012085325E80312085348E8031208535BEF
:10191300E80312085376E803120853DAE8031208BF
:101923005308E90312085315ED031208536AEE0333
:101933001208539CEE0312085307EF031208538750
:10194300F003120853AFF003120853C4F003120854
:1019530053D4F00312085314F10312085356F1033E
:1019630012085366F10312085329FE031208533970
:10197300FE031208535DFE0312085386FE0312088A
:1019830053B0FE03120853D4FE03120853EBFE03B5
:1019930012085319FF031208533CFF03120853693B
:1019A300C30412085330A10412085340A1041208BF
:1019B300535EA20412085392A204120853B4A20461
:1019C300120853DCA204120853F5A204120853317F
:1019D300A30412085393A304120853D8A3041208B0
:1019E300531DA4041208534AA40412085382A404E6
:1019F30012085375B80412085395B8041208537AA1
:101A0300B90412085363BA0412085375C1041208C7
:101A130053B2C104120853F4C10412085304C2049C
:101A23001208530EC2041208530080041208530A0A
:101A33008004120853448004120853AD8004120832
:101A430053CC80041208536E810412085377810427
:101A5300120853C88104120853F18104120853FE7B
:101A630081041208536F8204120853FD8204120882
:101A7300534B8304120853818304120853E28304F3
:101A83001208530A8404120853818404120853DD94
:101A930084041208532085041208535D8504120838
:101AA300536F8504120853818504120853A08504DB
:101AB300120853A98504120853778604120853C3E6
:101AC300860412085301870412085393BA041208B8
:101AD30053FFB30412085335B40412085384B404F7
:101AE300120853DDB504120853AFB003120853E0D4
:101AF300B1031208531CB203120853D6B3031208DE
:101B03005300B40312085379B603120853B9B6034A
:101B13001208534EB803120853EDB8031208534585
:101B2300B903120853CBB90312085303BA031208BB
:101B33005345BA03120853B6BB0312085336BD0309
:101B430012085377BF03120853A5BF03120853D1DA
:101B5300BF03120853DABF0312085330C00312083D
:101B630053C0C003120853FEC30312085380C403B7
:101B730012085310C40412085326C4041208531E37
:101B8300C3041208533C99041208535199041208D0
:101B930053049A04120853449A041208535D9A0496
:101BA300120853909A04120853DD9A041208531131
:101BB3009B04120853539B04120853499D041208B3
:101BC3005325BF0412085384BF04120853C2BF0431
:101BD30012085303C004120853008003120853452C
:101BE3008003120853D580031208533A8203120864
:101BF30053178303120853928303120853E3830397
:101C03001208535484031208539884031208535B35
:101C13008703120853F18703120853288803120815
:101C230053718803120853778A03120853C78A0330
:101C3300120853A18B03120853DA8B03120853F9CA
:101C43008B03120853448C03120853648C03120849
:101C530053278D03120853108E031208536B8E0300
:101C6300120853AB8E03120853E28F031208535A20
:101C73009203120853769203120853E79203120851
:101C8300530C93031208538D930312085372940356
:101C9300120853BF9403120853239503120853D712
:101CA3009503120853DA9503120853E495031208B7
:101CB30053EE9503120853F19503120853639603E9
:101CC3001208539C9603120853AF9603120853DC71
:101CD3009603120853039703120853279703120816
:101CE30053629703120853D59703120853D89703E7
:101CF30012085319980312085342980312085362A7
:101D03009803120853AB9803120853E2980312087E
:101D130053E29903120853119B03120853309B0398
:101D2300120853B0FF02120853C8FF0212085319D6
:101D3300BD0412085396F103120853E5F103120888
:101D430053A3F3031208535EF5031208539CF503E0
:101D5300120853CBF603120853D6F703120853F8AD
:101D6300F70312085342F803120853C3F803120887
:101D730053639B03120853869B03120853969C03D9
:101D8300120853E89C031208534A9D031208539CFC
:101D93009D03120853E49D031208534D9E0312083A
:101DA30053D29E031208534E9F03120853949F036A
:101DB300120853BEA30312085311A603120853AE0D
:101DC300A6031208530EA7031208533EA7031208D3
:101DD300530EA90312085324AB0312085316AC0382
:101DE3001208539DAC03120853D2AD031208530FCC
:101DF300AF031208534EAF0312085302B003120885
:101E030053F8ED0112085398EE0112085305EF0140
:101E1300120853C4EF0112085323F001120853D1DF
:101E2300F00112085393F301120853ABF4011208A3
:101E33005321F50112085303F701120853A5F701C3
:101E4300120853F6F80112085304FA0112085391C9
:101E5300FA01120853B1FB01120853DDC40312083F
:101E63005346C5031208538EC503120853E1C50335
:101E73001208533EC60312085394C6031208530FA5
:101E8300C70312085320C80312085348C803120893
:101E9300533AC9031208534BC90312085363C903C6
:101EA30012085368CA0312085393CA0312085359FA
:101EB300CB031208537DCB0312085394CB031208B0
:101EC30053AECB03120853D2CB03120853B7CC0340
:101ED30012085311CD03120853F8CD031208534FC0
:101EE300CE0312085385CE031208538ACE03120879
:101EF30053D1CE03120853D3CF03120853BED003DA
:101F030012085360D103120853D0D103120853E5CA
:101F1300D1031208537BD20312085369A804120891
:101F23005324AA04120853E3AA0412085338AB0437
:101F3300120853569D04120853749D04120853B893
:101F43009D04120853DE9D04120853059E041208D3
:101F5300531D9E04120853359E041208534D9E04CC
:101F6300120853F09E04120853329F04120853546C
:101F7300A0041208535DA00412085366A0041208BB
:101F8300536FA00412085379A004120853A59004B8
:101F9300120853999404120853A79404120853ACDB
:101FA30094041208538CB204120853CE7F00120813
:101FB3005313950412085311C2041208533BC2046D
:101FC30012085330C404120853253B001208531C53
:101FD3003B001208530F3B00120853123A00120839
:101FE300539F39001208538339001208536539008F
:101FF300120853403900120853503800120853EBAB
:102003003700120853543700120853E236001208FF
:1020130053D13600120853ED3500120853CB340068
:10202300120853763400120853A33300120853DD09
:102033003200120853A1320012085334320012083E
:10204300532C3200120853A13100120853313100CE
:1020530012085382300012085309460012085377BE
:102063003000120853F04500120853E645001208E9
:1020730053DC4500120853D24500120853BE4500F5
:10208300120853014200120853274000120853EB71
:102093003F001208536830001208534730001208FB
:1020A30053133000120853673F00120853E72F0001
:1020B300120853B92E00120853AD2C001208537E98
:1020C3002C00120853393E00120853622C001208E8
:1020D30053867500120853F22B00120853252B0068
:1020E300120853A92A00120853012A001208535A4E
:1020F3002900120853FC2800120853D128001208A3
:102103005382280012085344280012085321280040
:10211300120853082800120853C027001208530A54
:1021230027001208537E2600120853293E00120886
:1021330053122600120853BB25001208532EDD0349
:1021430000000080FB00013636010100010201009E
:102153000103010001040106060502000007010056
:10216300340801000F090401010D0100FF0E0800EE
:102173000017020000190100FF1A0100011B0100F2
:10218300FE1C0100081D0200001F010001200100C8
:1021930001210200002301000F2402000026010098
:1021A3000127010008280200FF2A0100072B010272
:1021B300402C0100002D0100012E0100012F010020
:1021C300FF30010B1D310800003A0100083B0100FC
:1021D3000F3C0100013D0100FF3E040000420400EA
:1021E30000460400004A0400004E040000520400AC
:1021F30000560400005A04000001037103010301A7
:10220300030103010301032203020301031003007B
:102213000300030003000300030003000342030061
:10222300032403060300030003040312032503230B
:1022330003250323030403040300030003000344EF
:102243000300030003230300036503210035038117
:102253000300030503000300030003000325032316
:1022630003030471040204600411047004020402F1
:1022730004010402041004610400041404630473DD
:1022830004720462044304000413040604000400FB
:102293000404041204000400040004000451046450
:1022A30000000400040004440400040004000400CB
:1022B30004650400043504810464000504000483F8
:1022C3000400040302710230016002110270020172
:1022D30002020202028002100261023A004100631C
:1022E3000273027202620243020002130238000008
:1022F30002000204021202000200020002000204B1
:10230300020402370037003C024402000239000095
:102313000200026502000235028102000205028208
:10232300028302000203007100300160001100709B
:1023330000310220035004800010006100000014EB
:102343000063007300720062004300000013000684
:102353000000000000040012000000000000000064
:102363000004000400370037003C02440000000072
:10237300000000000065000000350081000000053A
:10238300000000830000000101710101010101113E
:102393000101013101010101018001100161013BD2
:1023A3000014006301730172016201430100011310
:1023B3000106013D01350004011201000100010085
:1023C30001000104010401330133013C01440132E2
:1023D30001360000010001650100013500810100A3
:1023E300010501820183010001360001000600009E
:1023F300000F0000000000000000000000000003C8
:10240300FFFF00000403FFFF0000FFFF0FF40100C4
:1024130005C4040320000100000B000000000000BD
:10242300000003010F000000000000000000000096
:102433000000000000000000000000000000000099
:10244300000000000000000A000000020000000479
:102453000000000800000010000000200000004001
:1024630000000080000000000100000002000000E6
:10247300040000000800000010000000200000001D
:1024830040000000001F1E1300CB1D1F00D11D1FA5
:1024930080D71D01001F1E02008F1D0300951D0420
:1024A300009B1D0500A11D0600AD1D3600BF1DFFCD
:1024B300FF000001EF0E06190F08130F0B310F1069
:1024C3007F0C02F50E05070F07FB0E0CD70E0DE36D
:1024D3000E641D20FF000007ECFDFDFDECDCDCCCF1
:1024E300BCACAC9C9C8C7C7C6C6C5C5C5C4C4C3C59
:1024F3003C2C2C1C1C00160F00000B150B020002B9
:10250300220F3300000E01030507090B0D0F000214
:102513000406080A0C0D5A6967426565416C6C69CB
:10252300616E63653039140AE5D5C5B5A5A59585F2
:10253300857565303017181921301B1D1F300003B6
:102543004A49434E181A2505020001191618161692
:10255300182303000C0E020B040B0A0708000F00DC
:10256300393D3F373C3C362C442D3030161819206A
:10257300231A1C1E3002040201010101090200009A
:102583000000000000BE040AE80300002925FA0643
:102593007F00E8030E00DA24000000000C08102876
:1025A3000A0303080900040009FF1E1E0305010CAA
:1025B300040405081500FF0CC082C083790012676C
:1025C300C7C082C08390030112607BD083D082C3D3
:1025D300E09CA3E09D500DEA240B12260A1225EA83
:1025E30060027901023998EA75F00BA4FAA8F07534
:1025F300F00BEBA428FB900303E02AF8A3E03B884D
:1026030082F583E0540F22F582E43B1252BB22741D
:10261300F712037A89081249CA122950ACF075F0EF
:102623000BE9A42CF9900303E028F8A3E039F9E8B7
:10263300FEE9FF7401650860067402650870228A6A
:10264300828B83122B06740265087021EA2403FA35
:1026530050010B12210DE970148E828F83E4F080F8
:102663000CEA2403FCE43B122AFD1221138E828F11
:1026730083E0D2E7F0121CB10245CD74F412037A61
:10268300122BD779008E828F83E06078890A890BB9
:102693008063E50A75F00BA4FAA8F075F00BE50B5F
:1026A3001225F67048E50A75F00BA4F8AAF075F048
:1026B3000BE50B122B1A8E828F83E0850882850926
:1026C30083123FD1122A7BEE2403FCE43F1227B589
:1026D3001221131247CEE50AF0A3E50B1237DCD221
:1026E300E7F0121CB1790190030112356F050AE579
:1026F3000A7002050B9003011259BEC3E50A9AE55D
:102703000B9B408E0237E674F512037AEAFEEBFF69
:10271300750A01740B120B4C1264D8EC4D6015EC66
:102723001256883D122BE57901122131E50845093E
:1027330060758023E5084509604412568635091201
:102743002BE51227B612210DE96401701BEEFAEF97
:10275300FB122125E9F50A850882850983122A736C
:102763007902AA08AB098011122AFE12210DE9642D
:102773000170347903EEFAEFFB12213180298E8246
:102783008F83A3E064FE7003A3E0F4700B122AFEB0
:1027930012210DE96401700CEEFAEFFB122125E919
:1027A300F50A8003750A0002312AE50A2403FCE4D2
:1027B300350BFDE5082403FAE43509FB2274F7120F
:1027C300037A9003011248FEEA4B602FEA75F00B7F
:1027D300A4FAA8F075F00BEBA428FBEAFEEBFF12BA
:1027E3001ADD9003031248FE90030312471D601283
:1027F300EEFCEFFD7900121A3B8007900303E4F02F
:10280300A3F00245CDC082C083EC4D6005121BD3FB
:1028130080097C087D007900121A3B023998C08236
:10282300C0837900EA4B60167800E8FCEA2C124971
:10283300D660047901780808E8C3940840EC0239AB
:102843009874F712037A74F312091CECFEEDFF85FA
:102853001882851983E4F004120B4CEAF0A3EB12FF
:102863004C6E1220EF7403120B4CAC82AD83EEFA64
:10287300EFFB122113EEFAEFFB12210D0245C87490
:10288300F712037A74F312091CECFEEDFF8518822C
:10289300851983E4F0EAFCEBFD7403120B4CAA8266
:1028A300AB83122113AA18AB191220E97401120B7E
:1028B3004C123FE28E828F831248BA74FE68700313
:1028C30074FF6960047901800279000245C874F7D6
:1028D30012037AEAFEEBFF122137E9F5087401656A
:1028E30008701112293BF4FA88828983E05A4480E4
:1028F300F0121CB1A9080245CD74F712037AEAFE5F
:10290300EBFF7508008E828F83E0602A122137E97E
:10291300F50874016508701E12293BFA88828983C1
:10292300E05A70128E828F83E04480FA8882898312
:10293300E04AF0121CB180BC12467BF812295012F7
:102943002C47F8A3E039F98E828F83E022A3E0F9C4
:10295300E875F00BA4F82274F412037A8A088B0941
:102963007C007D00EA1227B8122113E508122A958C
:102973007900850882850983A3E064FE7003A3E0E0
:10298300F460787E007F008065EEFAEFFB1225EAA3
:102993006057EEFAEFFBEA75F00BA4FAA8F075F0B6
:1029A3000BEBA428FB900303E02AF50AA3E03BF515
:1029B3000B8508828509831259BD850A82850B839D
:1029C300A3E06A7003A3E06B701FE50A2403FAE433
:1029D300350BFB12210DE9640170061227AD12219C
:1029E30013122A8A79011261E20EEE70010F90032D
:1029F300011259BEC3EE9AEF9B408E0237E674F381
:102A030012037A8A088B098A828B83122A73EA1249
:102A13002A95750C00EA1227B812210DE96401709A
:102A2300477E007F00803C122C39FAA3E0398A826A
:102A3300F583E0540F6027122C39F50AA3E039F52A
:102A43000B1227AD121BCDE964017012850A828532
:102A53000B83122A7B122A8A750C011261E20EEE95
:102A630070010F122C5640BFA90C7F050205E3A38A
:102A7300A374FEF0A304F022A31245B9850882854E
:102A83000983A3123D0122E508122A9FEEF0A3EF6A
:102A9300F022122A9F74FEF0A304F022240BF58285
:102AA300E43509F5832274F512037AEAFEEBFF8E0F
:102AB300828F83122A737C007D00122AFE12211357
:102AC300EEFAEFFB122137E9F50A7401650A702764
:102AD3001245B2122B0E850882F583122B0612279C
:102AE300B612210DE96401700EE5082403FCE435F8
:102AF30009122AFD12211302312AFDEE2403FAE4FE
:102B03003FFB22A31259CC123D0122E875F00BA41E
:102B1300F8AAF075F00BE9122C4DF508A3E039F58E
:102B2300092274F212037A74E612091C122BD77568
:102B33000A01750800750900750C00750D008518EC
:102B430082851983E4F0EE2403FCE43FFD74031251
:102B53000B4CAA82AB83122113AA18AB191220E9DA
:102B6300E96401701F740B120B4C122BE7740112F2
:102B73000B4C1259C67003A3E069604AA818A9193F
:102B830088088909740D120B4C123FD0A3123FE23F
:102B9300740E120B4C1248BA740D1208F41220EF83
:102BA300E964017009740D1208EC880C890D780C26
:102BB300120870AC08AD09EEFAEFFB12211F740284
:102BC300120883E9F50AEEFAEFFB1220F5A90A745D
:102BD3001A0247E0EAFEEBFF1247D274FEF0A304A9
:102BE300F022F5831259ACF91247D2123D0122C0EB
:102BF30082C08378007900800508E870010990039A
:102C0300011235CDE99B5029E8FAE9FBEA75F00B8F
:102C1300A4FAACF075F00BEBA42CFB900303E02AB1
:102C2300FCA3E03B8C82F583E0540F70CC790080E9
:102C3300027901023998EEF8EFF9E875F00BA4F880
:102C4300122C4722AAF075F00BE9A42AF99003038A
:102C5300E028229003011245B9C3EE98EF9922C0F0
:102C630082C0839025B7E49375F01CA4FCADF07982
:102C7300FF7A437B0A121A3B02399874F712037ADC
:102C8300E9FCEAFD7A007B008010EB1232D89C400D
:102C930008E0F8EDC39840010A0B9025B7E493F8D8
:102CA300EBC39840E57B000245CD74EC12037A74C4
:102CB300F312091C8A0C8B0D8C088D09890AEC45CB
:102CC300096016AA08AB0912205F8A0E8B0FAE0E9D
:102CD300AF0FEE4F6003022DAB7A0080010A9025FF
:102CE300B7125903500F122EA070F2744328FE74CA
:102CF3000A39FF80047E007F00EE4F7003022E54DA
:102D030090259B122E7160257403650A6006740476
:102D1300650A70197A0479031220BF8A0E8B0F900B
:102D230025B7E493F890259B122E8A502D90259D6C
:102D3300122E71602C7401650A60067402650A70B4
:102D4300207A0279011220BF8A0E8B0F9025B7E4F7
:102D530093F890259D122E8A40077A007B00022E5D
:102D63006C8518828519837401F0120B4CE50CF005
:102D7300A3E50DF0AC08AD097403120B4CAA82ABAA
:102D830083122113AA18AB191220DD740B120B4CFA
:102D9300123CFA8E828F83A3A3A3A3A3A3E412609E
:102DA30077AA0CAB0D1211537800E50A6007C394A0
:102DB30005500278048E828F83E50CF0A3E50D1293
:102DC300319BA3A3E50AF0E88E828F83A3A3A3A379
:102DD300A3125C895001097A027B0012022A123580
:102DE300A8A312392F1235D4E50A605BC3940350AC
:102DF30056901EADE0701890244A780C1209E9121F
:102E0300357F120ABF90244A780C1209E98027F50E
:102E130008750900740278081209D6122E7B12096C
:102E2300E99082217810120ADD780C791012028B56
:102E330012357F120ABFEE2413123582120ABFEE37
:102E4300241B125C80800912358B122A76A3F0A30F
:102E5300F07A0479001220BF12318C4005901E4392
:102E6300E4F0121027EEFAEFFB740D023B07E49334
:102E7300F8740193F9E84922744A2508F582742409
:102E83003509F583780C22E493FA740193FBE8C3C4
:102E93009AF8E49BF9C3E50E98E50F9922EA122EFE
:102EA300A6F42275F01CA4F8A9F0744728F58274DF
:102EB3000A39F583E02274EE12037A74F312091CC3
:102EC300EAFEEBFF8C108D11750800AA10AB1112EE
:102ED300205FEA4B7003022FD48A828B83E06E70EB
:102EE30003A3E06F7003022FD48A828B83A3A3A36F
:102EF300A3E0C394054003022FD48A828B8312611B
:102F0300D0E060728A828B83A3A3A3A3E0C394035C
:102F13005064901EADE0702190244A78081209E9AC
:102F2300122FDB120ABF90244A78081209E9EA2417
:102F330013122FDE120ABF8030F5087509007402E0
:102F430078081209D6122E7B1209E990822178089B
:102F5300120ADD780C790812028B1236C5120ABFE9
:102F6300EA24131236C8120ABFEA241BF582E43B93
:102F7300F583E4F0801B7508FE7509FF750AFF757C
:102F83000BFF122FDB120ABFEA2413122FDE120AE1
:102F9300BF750800750900750A00750B00EA240C5B
:102FA300122FDE120ABF8518828519837401F0126D
:102FB3000B4CEEF0A3EFF0AC10AD117403120B4CFD
:102FC300AA82AB83122113AA18AB191220DD75084C
:102FD30001A908740D0261C8EA2417F582E43BF5E0
:102FE3008378082274F612037A1220958A088B09D3
:102FF300A808A909E849601488828983A3A3A3A325
:10300300E06009C394055004790180027900802FA0
:1030130074F612037A1220958A088B09A808A90965
:10302300E849601488828983A3A3A3A3E06009C34A
:103033009403500479018002790080031208837F8E
:10304300020205E374F612037A1220958A828B83B7
:10305300E5824583600BA3A3A3A3E07004790180F9
:1030630002790080DAC082C083EAFCEBFD7A007B40
:1030730000023995C082C0837C007D0002399574BB
:10308300F512037A74F312091CEAFEEBFF8C088D28
:1030930009C3EC94F8ED94FF4004EE4F6065750AA4
:1030A30000801974FF6508700474FF6509600B12D2
:1030B30067C17004A3E06509603B050A9025B7E486
:1030C30093F8E50AC398503BE50A122EA160EBEE94
:1030D3004F60D0123111120B4C124C6A1220E3E9EB
:1030E30060D87403120B4CAC82AD83EEFAEFFB1283
:1030F3001BCDE960C5E50A75F01CA4F8A9F01232EE
:10310300CF80047A007B00740D120883801B85181E
:10311300828519837401F0744528F582740A39F5A0
:10312300831245B9740B22A90A7F030205E374F4E1
:1031330012037A74F312091C75080012205F8A0ABD
:103143008B0BAE0AAF0BEE4F602585188285198372
:10315300123199123124120B4C124C6A1220FB7C4F
:103163001C7D0079FFEEFAEFFB121A3B7508017A1A
:103173000479001220BF12318C5009901E43740150
:10318300F0121027A9080237E19025B7E493F8C39A
:10319300EA98EB9400227401123FD5A3A32274F79B
:1031A30012037AE9FE74FE6A700374FF6B7C00708D
:1031B3000380240C123204501EEC122EA160F41270
:1031C300339E7003A3E06B70EA800BEC123219603C
:1031D30019E0640360140C123204501EEE60ECEC30
:1031E30012320E60F1C3940550ECEC75F01CA4FC94
:1031F300ADF0126D371259BE80047AFE7BFF024593
:10320300CD9025B7E493F8ECC3982275F01CA4F88D
:10321300A9F0122EAD2275F01CA4F8A9F0122EAD60
:10322300640122122047023998C082C08379018049
:10323300F274F012037A8A0A8B0B7A047901122052
:10324300BF8A0C8B0DEA450D6040EA2AFAEB33FB8B
:10325300121ADD8A088B09AE08AF09EE4F60267A91
:10326300FE7BFF12204174FE6A700374FF6B601EC5
:103273008508828509831248FEE5082402F5085073
:10328300E2050980DE750C0080047E007F00850A5C
:1032930082850B83E50CF0EEFAEFFB023565C08205
:1032A300C0837C008009EA24FF1AEB34FFFB0C1275
:1032B30032045011EC1232D8940550F2EA4B70E606
:1032C3001232CF80047A007B00023998744328FAC3
:1032D300740A39FB22122EA6C32274F712037A74DE
:1032E300F312091C7E00807DEF75F017A4F8A9F096
:1032F30012338F1259BEEE75F01CA4F8A9F01233E5
:103303009E7003A3E06B603DEF75F017A4F8AAF07D
:10331300EAF912338F123FE27401120B4CE068702A
:1033230003A3E069601FEF75F017A4F8EAF974913D
:1033330028FC740C39FD7403120B4CAA82AB831264
:103343001BCDE96013EF75F017A4F8A9F0748F286B
:10335300FA740C39FB12115F0F9025A1E493F8EF77
:10336300C39840840E126D24501FEE127298F470AD
:1033730003A3E0F460EE123111120B4C124C6A12EB
:1033830020E3E960DF7F0080D00245C81233932237
:10339300748F28F582740C39F583221272A36A2282
:1033A30074F412037A74F312091C7E00803890823D
:1033B3005D7808120ADDEE75F01CA4F8A9F07456C6
:1033C30028F582740A39F583780812095D6016902E
:1033D300823D7808120ADDEE75F01CA4F812346BF6
:1033E3007808120A5B0E126D24507AEE12320E60C8
:1033F300F4C3940350EF12346B120B05E8494A4BA4
:1034030070AC901EACE06401702D90040912471D4E
:103413006025EE75F01CA4F8A9F0744328F8740A2B
:1034230039F91234C11206AE8882898312355612D5
:1034330004F274041208838518828519837401F0D9
:10344300EE75F01CA4F8A9F012311A120B4C124CB1
:103453006A1220E3E9608E7403120B4CAA82AB83D9
:1034630012204D80800237E1745A28F582740A399C
:10347300F5832274F612037A1220958A088B09A821
:1034830008A909E849603288828983A3A3A3A3E03A
:103493006023C39403501E1234C1120B1DE824177A
:1034A300F582E439F583120B11E8241BF582E43924
:1034B300F5837401F0790180027900023042E82437
:1034C30013F582E439F5832274F012037AEAFEEBF2
:1034D300FF90040312471D607290040912471D6098
:1034E3006A90040D12471D6062126BB01204F2E978
:1034F3007059901EADE0700A90244A78081209E9C9
:103503008028F508750900740278081209D6126D2F
:10351300927424126B9178081209E9908221780C35
:10352300120ADD7808790C12028B780812086812E7
:1035330035501204F27404120883E96401700C8E8E
:10354300828F83A3A3126B9E1204F280158E828F47
:1035530083A3A31252BD900409126BA822740D1207
:1035630008837F080205E312607FEC22E0F50AA3DB
:10357300E0F50B22E493F8E508C39822EE2417F54F
:1035830082E43FF583780C2212359E74FEF0A30487
:10359300F0A3F0A3F01241DF74FE22EE2417F582AC
:1035A300E43FF58322E88E828F83A3A3A3A3A3A37F
:1035B300A3A312458D740112458DA374AAF0EE24C2
:1035C30010F582E43FF583E4F0221252BDC3E89A7A
:1035D30022A3F01247D2E4F0EE240CF582E43FF587
:1035E30083E4F0A3F0A3F0A3F02274F012037A743F
:1035F300F312091CEAFEEBFF7A0279011220BFEAFB
:103603008E828F83F070030236B875F00CA4FAAB88
:10361300F0121ADD8A088B09EA450970030236BEE7
:10362300AE08AF09750A00801C90823D1206AEEE0B
:10363300FAEFFB121AB974041208838A0C8B0DAECD
:103643000CAF0D050A9025B7E493F8E50AC398502B
:103653006AE50A1232196005E0640270E61231115C
:10366300120B4C124C6A1220E3E960187403120B1C
:103673004CAC82AD83EEFAEFFB121BD38A0C8B0D9D
:10368300AE0CAF0DE50A75F01CA4F8A9F0745E2822
:10369300F582740A126A0F6401708E1232CFEA2423
:1036A300131236C8120ADD1236C5120904780C1239
:1036B3000868023632750800750900AA08AB0902CA
:1036C3003560EA2417F582E43BF583780C22C08247
:1036D300C0839003107401F0A3740FF0023998743F
:1036E300F712037AEAFEEBFF90037DE06408601FA4
:1036F300E06404601A8E828F83E054036401704493
:10370300124677F8A3E0F5838882E0640670358E6D
:10371300828F83A3A3E064FE7003A3E0F460258E8D
:10372300828F83A3A31260887003A3E0697008EEFD
:10373300241512606F6005120FBB8003120FC1E9DD
:10374300F50880037508C2EEFAEFFB121AE30228AC
:10375300F774F412037A8A088B098A828B83E0FA5E
:10376300A3E0F8EA28FAE43400FB121ADD8A0A8B94
:103773000BAE0AAF0BEE4F605A850882850983E0D2
:10378300FC7D007900121A3B8E828F83122A7212FB
:103793000FF78E828F83A3A3A3A3EAF0A3EB1237C1
:1037A300DCF8EE28F8E43F122BEA850882850983CA
:1037B300A3E0C0E0125C73D0E0F0121009EE240E17
:1037C300F582E43FF583E9123F5DE0C0E0123CCCB3
:1037D300D0E0F0EEFAEFFB800A123F55E022740DC1
:1037E3001208837F040205E374F412037A74E81267
:1037F300091C8A088B098C0A8D0BE9FE90037DE076
:1038030064046005E06408700479C2803CA378080E
:10381300120ABFEE900384123934121A3B851882C0
:103823008519837808120ABF7405120B4CEEF074E5
:1038330004120B4C7401F07407120B4CE4F0900368
:103843007D7402124C6E121F5D7418809374F4120F
:10385300037A74E812091CEAFEEBFF900305124792
:103863001D600302392A7A077B00121ADD900305D3
:103873001248FE90030512471D70030239268E82FB
:103883008F83120B05900305E0FCA3E0F5838C8284
:10389300120AF9EE2404F50AE43FF50B850A82F5D2
:1038A30083E0C0E0900305125292A3A3A3D0E0F0FB
:1038B300EE2405F508E43FF509850882F583E0C0A9
:1038C300E09003051252A3D0E012392FE0C0E0903C
:1038D30003051259ACC82406F582E438F583D0E019
:1038E300123934121A3B8E828F83120B058518828C
:1038F300851983120AF9850A82850B83E0C0E07477
:1039030005120B4CD0E01237DCC0E07404120B4CF0
:10391300D0E0F07407120B4CE4124C6E121F5DE9F9
:10392300F9800679108002790102384C126652A39D
:1039330022F07C187D007900AA18AB1922C082C03E
:103943008390030512471D60109003051259BE12A0
:103953001AE3900305E4F0A3F0120F2B12110502F2
:10396300399874F712037AE990030BF07A807B009D
:103973009003C8E0F9121BA9121FE179000245CD9B
:10398300C082C08390030BE07003121DC5121FE1B8
:103993008003122053D083D08202085074F01203A4
:1039A3007A90030BE0901E42700FE06005790012DD
:1039B3001C7B901E42E4F0804AE06401600890039F
:1039C3000BE0F9121C7B901E427401F090030BE094
:1039D300F46030E0F50CE4F50DF50EF50FF0908290
:1039E3000D7808120ADD780C790812028B780C1214
:1039F30008687A807B009003C8E0F9121B9D740469
:103A03001208837A427B1E7941121F450235657481
:103A1300EC12037A74E712091C8A0C8B0D8C0E8D41
:103A23000FE9FF7E007508018E098E0A8E0B900345
:103A33007D7401F07C187D0079001208F4121A3BA2
:103A43007401120B4C780C120ABF7406120B4CEF64
:103A5300F07405120B4C7403F07408120B4CE4F071
:103A6300850C10850D11850E12850F1378107908BA
:103A73001209FCE51045114512451360010E74014E
:103A8300780812080CE5084509450A450B70D1AAC8
:103A930018AB19795A121F3F851882851983E0F5EF
:103AA30008E4F509F50AF50B8E0CF50DF50EF50F87
:103AB3007808790C12028B908269780C120ADD78EF
:103AC30008790C12028B90820D780C120ADD7808AB
:103AD300790C12030B123CED7A007B049003C8E0CF
:103AE300F9121BA978081208687A007B049003C8AE
:103AF300E0F9121B9D740412088374011208F41276
:103B03001F5D74191208837F0C0205E374F7120317
:103B13007A7C01121FC90245CD74F712037A7C0027
:103B230080F174F012037A74FD12091CEAFEEBFFB4
:103B3300890A8C0B126078120F1F8A088B09EA45D9
:103B430009700579CA023CC78A828B83A3A3A3A306
:103B5300A3A3A3E064FE7003A3E0F4700579C3029A
:103B63003CC7120FF78A0C8B0DA80CA90D85088290
:103B7300850983A3A3A3A3A3A3A3E0687003A3E07E
:103B830069700579C2023CC790037B123FE2850846
:103B930082850983E0687003A3E069600985088270
:103BA300850983123E2290037B1259BE121165854B
:103BB3000882850983A3A3A3A3A3A3A3A3A3A3E029
:103BC3000490038E123E0E121BD37401120B4C741D
:103BD30002124C6E12105D8A0C8B0DAE0CAF0DEE03
:103BE3004F7003023CBE124C747406F0A3A882A962
:103BF30083900368125DA9125C7DF0120FF11248E5
:103C0300F5EE2413125C801245997440F0A3E4127C
:103C13003CD6123CFA123CCCE50BF0EEFAEFFB1269
:103C2300200BE9FE6003023CC090037D7409123C43
:103C3300D6123E18900370E0650A6003E50AF07A35
:103C4300717B03794B121F457A7B7B037950121FDB
:103C5300457A707B0379E1121F457A6E7B037953B2
:103C6300121F45123CED901E8F1259BE12102112E5
:103C73003CDFE4F50EF50F780C1208687A017B003F
:103C83009003C8E0F9121BA374041208837A007B23
:103C9300049003C8E0F9121BA9123CDF7402780CEC
:103CA30012080C780C1208687A007B049003C8E0B1
:103CB300F9121B9D740412088380027E10901CCE9F
:103CC300E4F0EEF97403023562EE2411F582E43F69
:103CD300F58322123F61A3A3A3A3A322901E8FE027
:103CE300F508A3E085080CF50D22901E8D1245B949
:103CF300900307123D0122125CA8123D0122E8F055
:103D0300A3E9F02274F612037A74E512091C8518EC
:103D130082851983ECF0A3EDF0EAFEEBFF890990AD
:103D2300037DE064046005E06408700579C2023E27
:103D3300097426120B4CE064FE7003A3E0F47005D3
:103D430079C3023E097C197D00790074021208F4DC
:103D5300121A3B90037D7403124C6E7950121F4567
:103D630074261208F4794B121F458518828519832E
:103D7300123E22E509900370F07426120B4C123E9A
:103D8300187425120B4CE0F508900368123E0E12CE
:103D93001BD374CE55084480C0E0741A120B4CD068
:103DA300E0F07428120B4CE00490038EF0741712A9
:103DB3000B4C7402F07426120B4C123FE2740F1278
:103DC3000B4CE8F0A3E9123FDB7418120B4C1248BA
:103DD300BA740D120B4CE509F0740A120B4CE4F0A3
:103DE300900383740FF07A837B037954121F4590F9
:103DF3000382740FF07A827B037947121F457402A2
:103E03001208F4121F4B741B02303FF0EEFCEFFD5F
:103E13007A8F7B03221245B9900371123D0122125E
:103E23006A29123D012274F712037AEB900385F09D
:103E3300120F0D0245CD74F612037A74E912091CB0
:103E43008A088B097E008A828B83A3A3A3E0C0E048
:103E53007406120B4CD0E0F08A828B83A3A3E0C0DC
:103E6300E07408120B4CD0E0F07409120B4C74018F
:103E7300F08A828B8312471D600D8A828B831259CD
:103E8300BE12210DE970357407120B4CE4F0120FCA
:103E9300F17404120B4C1248FE90037DE06404702D
:103EA3000E120FFD7402120B4CEAF0A3EB804E745A
:103EB30002120B4C74FDF0A374FF8041AC18AD19D2
:103EC3008508828509831259BE12210185088285DE
:103ED3000983A3A3A3A3E070317407120B4C7401ED
:103EE300123FDB7402120B4C1248BA850882850913
:103EF30083123FE27404120B4CE8F0A3E9F074025E
:103F03001208F4121045E9FE8041123FDC740A12D4
:103F13000B4C1248BA7414120B4C7401123F5DA37C
:103F2300E0C0E07415120B4CD0E0F07416120B4C89
:103F3300E4123F5512607B740C120B4CAA82AB83C4
:103F4300121BD3740A1208F4121C93EEF9741702AD
:103F5300303FF085088285098322123F6122123F98
:103F630055A3A32274F712037A74F812091CEAFE0C
:103F7300EBFF790090037DE064086005E064047062
:103F83004785188285198374FDF0A374FFF0120F1F
:103F9300F17402120B4C1248FE7405120B4C123FC3
:103FA300D0A3E0C0E07404120B4CD0E0123FD1E088
:103FB300C0E07406120B4CD0E0F07407120B4CE413
:103FC300124C6E121045E9F974080245CAE4123F17
:103FD300D522F08E828F8322F08518828519831271
:103FE30045B9227F070205E374F412037A74F912C8
:103FF300091C8A088B098C0A8D0B85188285198305
:104003007808120ABF7404120B4CE9F07405120B02
:104013004CE4F07406120B4CE4124C6E121FF9744C
:10402300070237E374F512037A8A088B098A828BB5
:10403300831261E5EE4F70030241D890032C1247BF
:104043001D60178A828B83A3A3E0F9EEFAEFFB903E
:10405300032DE0F58388821204F28E828F83A3A35B
:10406300A3A3A3A3A3A3A3E0640260030241428E1C
:10407300828F83A3A3A3A3A3A3E0540270030241EB
:1040830066850882850983A3A3E064E9700302417E
:1040930066850882850983A3A3E064CD700302418A
:1040A30066850882850983A3A3E064F07003024157
:1040B30066EE240D12456E6028EE241312606F60C5
:1040C300208E828F83A3A3A3A3A3A3A3A3A3A3123B
:1040D30041F7121075E9701D7A307B01121D2F8094
:1040E30014901EAEE0048E828F83A3A3A3A3A3A385
:1040F300A3A3A3A3F0850882850983A3A3E0701F6C
:10410300750A0080097A367B01121D2F050A85087E
:1041130082850983A3A3A3E0F8E50AC39840E6EEEA
:10412300240A12590AC0E01241DBD0E01245897417
:1041330004F0901EAF125CA2E81241E9121A8F8EAE
:10414300828F83A3A3A3A3A3A3A3A3A3E064026077
:10415300128E828F83A3A3A3A3A3A3A3A3A3E06429
:104163000670728E828F83A3A3A3A3A3A3E0A2E00E
:104173005063850882850983A3A3E0F9EEFAEFFB78
:10418300120E4D8E828F83A3A3A3A3A3A3E054FE99
:104193001241F7121075E9850882850983A3A3707C
:1041A3002AE070237A2F7B01121D2F7E008508825F
:1041B300850983A3A3A3E0F8EEC39850187A367B4E
:1041C30001121D2F0E80E67A318005E070077A2DEB
:1041D3007B01121D2F02312C1241DF22EE2413F535
:1041E30082E43FF58322F0A3E9F07A207B00900379
:1041F300C8E0F922123FD5126BA81252BD2274EC0B
:1042030012037A74BD12091CEAFEEBFF8C108D11A8
:10421300750C00750E00AC18AD19120D7B740D12E0
:104223000B4CE070087410120B4CE060148518827C
:10423300851983E0A2E6500E1259B1121075E96098
:10424300057A35024362851882851983E0540C642C
:10425300047005750D018003750D00E0A2E5503D66
:10426300750E01E50DA2E04034120FF71245A4705C
:1042730003A3E069700512456B706B120FF71245CB
:10428300A47003A3E069601512456B70101260956A
:10429300AC18AD19120E29E9600302436012456B95
:1042A300702C851882851983E0A2E65021740112CF
:1042B3000B4CE054037017851882851983E0540C66
:1042C300640C600AE0540C64086003750C018518E3
:1042D30082851983E05403F874026870191260919F
:1042E300120D8D0245661259B11245B27415120BA7
:1042F3004C1248BA809A7401687047E50CA2E050EA
:104303000B12456B7006126091120D81741A120B19
:104313004CE518F0A3E5191245B17417120B4C12B2
:1043230048BA8E828F83A3A3A3A3A3A3E0C0E074A0
:1043330019120B4CD0E0F074171208F4120CDF02C0
:104343004566E86003024566900365E06401701703
:104353008E828F83A3A3A3A3A3A3E0700A7A347BE3
:1043630001121D2F0245667442120B4C7402124552
:10437300B1743A120B4C124578E054807003024436
:10438300827424120B4C7402124589123FE2741C8E
:10439300120B4C1248BA7403120B4CE0C0E07425A4
:1043A300120B4CD0E0F07402120B4CE0C0E0742608
:1043B300120B4CD0E0F090037B123FE27427120BF8
:1043C3004C1248BA7406120B4C123FE27429120BBA
:1043D3004C1248BA7408120B4C123FE2742B120BA6
:1043E3004C1248BA7410120B4CE0F8742D120B4C9B
:1043F300E8F0A3E4F0740E120B4C123FE2742F1298
:104403000B4C124578123FE27431120B4C12459556
:10441300E0C0E07433120B4CD0E0126661C0E0746C
:1044230034120B4CD0E0F012606CC0E07435120B08
:104433004CD0E0F07411120B4CE0C0E07436120B58
:104443004CD0E0F07413120B4CE0C0E07437120B45
:104453004CD0E0F0EE242312606FC0E07438120BEE
:104463004CD0E0F0EE242512606FC0E07439120BDB
:104473004CD0E0F0741C1208F4120D9302456674DC
:1044830057120B4C7808120ADDE50DA2E040030237
:10449300451EEE240F12606FC0E07412120B4CD055
:1044A300E0F090032E12471D7003024566120FF7CA
:1044B3008A128B13A812A913743A120B4CE068707A
:1044C30003A3E0696003024566EE242312606FF5DF
:1044D3000D780D12087412457F1206B2780812087F
:1044E30068E50EF50878081208748E828F83A3A3FB
:1044F300A3A3E0F50878081208747810120870A9CD
:104503000C740B1208FC74451208F490032E125914
:10451300C21204F2740B1208838048E50CA2E05027
:1045230006126091120D8112606CF50C780C120862
:10453300747808120868E50EF5087808120874788C
:104543001012087090037B1206B2EE241212606FF1
:10455300F974441208FC740A1208F4120E59740A0E
:104563001208837443023B07EE2421F582E43FF5EE
:1045730083E0548022123D0112457F22EE2421F56F
:1045830082E43FF5832212458D22126656A3A3A32C
:10459300A322E8F0A3E9F0EE240FF582E43FF583CC
:1045A300228A088B09A808A90912467B6822F012FF
:1045B30047D21245B9221259ACF92274F712037A81
:1045C300121C5D8005740D1208837F010205E374DC
:1045D300F712037A121C6F80F1C082C083121C6928
:1045E30002399874F712037A121C7580DD74F7127E
:1045F300037A7409120B4CE0F50878081208741258
:104603001C87740180C1C082C083121C9302399835
:1046130074F612037AEAFEEBFF900368E0A2E1501E
:10462300498E828F83A3A3A3A3A3A3A3A3A3A3E0DE
:1046330064016036120FFD8A088B09A808A9098E48
:10464300828F83E0687003A3E069601E124677647B
:104653000160178E828F831259BE1220A1E9600A6E
:104663008E828F831259BE120FB5EEFAEFFB121C26
:104673009902304212467B221247D6E02274F71287
:10468300037A121C9F0245CD74F712037AEAFEEBFC
:10469300FF89087401650870147900120C4990258C
:1046A300ADE493FC7900EEFAEFFB120BBF0245CDAC
:1046B30074F712037A121C8D0245CD74F412037A37
:1046C30074F912091CE9FE8A088B098C0A8D0B9078
:1046D3001D7A12471D602BEE851882851983F074AD
:1046E30001120B4C7808120ABF7413120B4C123FC1
:1046F300E27405120B4C124C6A901D7A1259C212C5
:1047030004F2024022E50E75F006A4F8AAF0EAF9D5
:10471300741B28F582740F39F5831245B9E84922D1
:1047230074F712037A121CAB0245CD74F712037AA5
:10473300901E45E0F97800800B1249DE540D6401A8
:104743007001190812494B5003E970ED0245CD740D
:10475300F712037A901E46E0F97800800B1249DEC7
:10476300548D64817001190812494B5003E970EDAF
:104773000245CD74F212037A890BE975F006A4A9F8
:10478300F0240FF508E439F509E5082AFAE43509B8
:10479300FB121ADD8A0C8B0DAE0CAF0DEE4F6025AC
:1047A300AC08AD097900121A3B1247CEE50BF0EEC7
:1047B3002508F8EF3509F98E828F83A3A3A3A3A35A
:1047C300A3A31248B8EEFAEFFB80151247D22212C8
:1047D30047D622EE240BF582E43FF58322120883A9
:1047E3007F060205E374F612037AEAFEEBFF120B6F
:1047F30095E9F8901E44E0F9E8C399400990031441
:104803001259BE120B9BEE2402F8E43FF988088983
:1048130009900316125DA9900316E004F0EEFAEF77
:10482300FB120BA1850882850983E0025ED8C08252
:10483300C08379009003148001091259BE8A828BC8
:1048430083E582458370F202399874F712037AEA9A
:10485300FEEBFFEE4F605B90031412471D6053881D
:104863008289837A007B00EE65827003EF65836043
:1048730013AA82AB83123FE288828983E582458350
:10488300603080E3900314123FE2EE687002EF6938
:104893008E828F837008123FE29003148003126BA1
:1048A300961248BAEEFAEFFB120D0FEEFAEFFB1277
:1048B3001AE30245CDA3A3123D0122C082C0839017
:1048C300031480048882898312471D600A888289C1
:1048D3008312356A4D70ED8A828B83E4F0A3F0E88E
:1048E3004960068882898380039003141248FE027C
:1048F3003998EE241AF582E43FF583EAF0A3EBF04E
:10490300221252BDEA4B2274F712037A90031480E9
:10491300048A828B8312490460277800800108127D
:10492300494B50EDE875F006A4FCADF0EA2CFCEB26
:104933003DFDEC2413F582E43DF583E06970DF80EF
:10494300047A007B000245CD1249CFFCE8C39C22C8
:1049530074F712037AE9FE7D0080010D1249CAED56
:10496300C3985023ED75F006A4F8AFF0EFF91249A0
:10497300C070E8ED75F006A4F8124A014CF0E82483
:104983000FFAE439FB80047A007B000245CD74F60C
:1049930012037AE9FEEAFF120BA7EA4B601C7C00C4
:1049A3008010EC75F006A4F8A9F01249C07002EF6C
:1049B300F00C1249CAECC39840E80230421249F99C
:1049C3002413124A0A6E221249CFF822EA240B1248
:1049D30049D622F582E43BF583E022E875F006A48C
:1049E300FCADF0EA2CFCEB3DFDEC2414F582E43D38
:1049F300F583E022EFF9EA28F8EB39F9E8221249C6
:104A0300F72414124A0A22F582E439F583E022746A
:104A1300F612037A120CB57A008016EA75F006A432
:104A2300F8A9F0125DD9E4125EDCF0A31264C2F0BF
:104A33000A90259F12590340E27A00801C8A087568
:104A43000900740378081209D6124AAAA374FEF067
:104A5300A304125C99A3E4F00A9025A01259034021
:104A6300DC7900801A890875090074037808120933
:104A7300D674B7126D94740F126B91122A74099045
:104A830025A71264BB40DE9025B1E493900318F090
:104A930090820D1206AE7A107B009003C8E0F912E3
:104AA3001BA3740402303F74772508F8740F35098B
:104AB300F9888289832274F012037A74F512091C2F
:104AC3008A088B09890A8C0BE9A2E050147508FC4B
:104AD3007509FFA2E15005D2E4024B7AD2E3024BFF
:104AE3007A120C9D8A0C8B0DA80CA90D90036EE015
:104AF300687003A3E069600EAC0A7902AA08AB09E7
:104B0300120C97E970057900024C4AE50AF50C7816
:104B13000C12087479027CFE7DFFAA08AB09120C03
:104B2300137401120883E96003024C48E50AC2E5E5
:104B3300F50AA2E6404374031208FCAA08AB091263
:104B43002107E9702E12529C1211418A0C8B0DAE73
:104B53000CAF0DEE4F6022EE2402FAE43FFB12216C
:104B63000DE96015EE2402FCE43FFD74031208F422
:104B7300121BD3E50AD2E5F50A900317E0F50C9072
:104B8300036E124E13780E1208707D017C009003A1
:104B930017E0F9AA0EAB0F120C557402120883E941
:104BA300F8900317E004F0E86003024C48E50AA21A
:104BB300E55004740E80027406C0E07401120B4CBD
:104BC300D0E0124C6E12105D8A0E8B0FAE0EAF0F3B
:104BD300EE4F606D125C7DF0120FF11248F5124C2E
:104BE300747401F07478550AA3125D7BA3E50C126B
:104BF3005D7BA3A3E508F0E509124C4FE4F0E50A59
:104C0300A2E5500F74031208FCE82406FAE439FB0A
:104C1300121BD38E828F83A3A374FDF0A374FFF0C2
:104C2300E50B60129025AEE493F8E50BC3985006AC
:104C33001241DBE50BF0EEFAEFFB12200BE9F980F2
:104C4300067910800279C7740B02356288828983E2
:104C5300A3A3A3A3124C5B22124C5F22F088828988
:104C630083A3A3A3A3A322E8F0A3E9F0AA18AB1993
:104C730022EE1267D13F124C7D22F5831259ACF913
:104C8300888289832274F412037A7A007B1090035A
:104C9300C8E0F9121BAFEA4B4C4D60089003DA747D
:104CA30001F08043901E2BE06401901EA97006E082
:104CB300FC79018004E0FC79037A007B00120BBFCE
:104CC300902595E493F508740193F509E4F50AF545
:104CD3000B78081208687A007B109003C8E0F91279
:104CE3001B9D74041208830237E674F012037AEAF8
:104CF300FEEBFF8C0A8D0B890C121075E960057AA7
:104D0300FF024DE3901EA8E064026003024E099087
:104D130025A5E493F9EEFAEFFB120CC7E960030251
:104D23004E037900EEFAEFFB120C9DA90C120C91C5
:104D33008A088B09EA45097003024E098A828B832C
:104D4300A3A3A3A3A31263DE707E1259BE850882B8
:104D5300850983A3A3A3A3A3A3E05418604F9025BD
:104D6300ACE493850882850983A3A3A3A3F07410FD
:104D7300120B4C12607B7412120B4C124E13EA6529
:104D83000A7003EB650B6012EA6C7002EB6D600A4C
:104D9300EA650E7003EB650F7022780E120870AA95
:104DA3000AAB0B12117D7402120883800F90036DFE
:104DB300E0850882850983A3A3A3A3F074FE6A7028
:104DC3000374FF6B601E8045A3A3A3E06403602408
:104DD3008A828B83A3A3A3A3A3E0640470067AFE51
:104DE3007BFF8029850882850983A3A3A3A3A3E06E
:104DF300640260127907EEFAEFFB120CC7E9600652
:104E0300EEFAEFFB8007EEFAEFFB120BD1023565EA
:104E1300E0F50EA3E0F50F2274F712037AEAFEEB36
:104E2300FF1220ADE9700AEEFAEFFB12209BE96056
:104E330006EEFAEFFB80047AFE7BFF0245CD74EEAB
:104E430012037AEAFEEBFF8C0C8D0D890E750800B8
:104E5300121075E979006003024F86EEFAEFFB1238
:104E63000C9DA90E120C918A0A8B0BEA450B607DEF
:104E73008A828B83A3A3A3A3A3E0640360238A8210
:104E83008B83A3A3A3A3A3E064016003024F8479EC
:104E9300078A828B831259BC120CC7E96003024F45
:104EA30084750902850A82850B83A3A3A3A3A3A305
:104EB300E054186003024F3B7900AA0CAB0D120CAF
:104EC3009D8A0A8B0BA80AA90B90036EE0687003F6
:104ED300A3E0696003024F689025ADE493FCA90E3B
:104EE300EEFAEFFB120BBF750801024F84EEFAEFE7
:104EF300FB120BD11220958A0A8B0BA80AA90BE887
:104F030049607E88828983A3A3A3A3A3E0A2E05080
:104F130070750901A2E150127901EEFCEFFDAA0CB4
:104F2300AB0D120BEFE97090805788828983A3A39E
:104F3300A3A3A3D2E1F08080750801850A82850BC3
:104F430083A3A31206B2750AFE750BFF780A120833
:104F5300707900EEFCEFFDAA0CAB0D120CA97404E2
:104F6300120883801CA909EEFCEFFDAA0CAB0D12FD
:104F73000BEFE9700C750801A90EEEFAEFFB120CAA
:104F830049A9080261CB74E912037A74F012091C6F
:104F93008A0C8B0D8C088D09750B0612529C12110D
:104FA3006B8A108B11EA4511600B8A828B83A3E015
:104FB3007003025130E50C241DF50EE4350DF50F99
:104FC300850E8212549BF51688828983A3A3A3E0DE
:104FD300FA88828983A3A3A3A3E0F8E4C8F9EA28A3
:104FE300FEE439FFAA08AB09120C4FE9F9850E82DA
:104FF300850F831252A3E029F50EE50AA2E55003BB
:10500300750B0E7487550A700F7418550A6418606F
:1050130007125480650B600A7AD37B00121D2F029E
:105023005130530A7878081208707D00AC0EA91627
:105033001252B2120C557402120883E9F874036811
:1050430070030251307427120B4CE0F512A3E0F504
:1050530013E860030251217418550A700302513595
:10506300E50AD2E0F50AA2E45004D2E1F50AA90A5E
:105073001252B2120C918A148B15A814A915E8497F
:10508300605788828983A3A3A3A3A3A3E0541860D2
:105093004888828983A3A3A3A3A3E06401703AE5AC
:1050A3001045116034126078888289831259BC12CA
:1050B300116B8A148B15A814A915E849601B888203
:1050C3008983A3E06013851082851183A3E0FA88A6
:1050D300828983A3E0C39A4054E50AF50B780B1247
:1050E30008741252AC120C137401120883E9702E67
:1050F3007C007D0085128285138374FFF0A3125D0B
:1051030089A3A3A3A3A3A3A3A3E0600AE50C241587
:1051130012528812607BA90E1252B2120B6B8512C7
:1051230082851383E0F47003A3E0F46048790002FE
:10513300527A900367E06014E50AF50B780B1208C6
:10514300741252AC120C137401120883E50AF50BA6
:10515300780B12087479027CFE7DFFEEFAEFFB12E6
:105163000C137401120883E970B4851282851383CA
:1051730074FFF0A3F078081208707D01AC0EA91635
:105183001252B2120C557402120883A90AEEFAEFF6
:10519300FB120C9D8A088B09A808A90990036EE0ED
:1051A300687003A3E069600302526EEEFAEFFB122C
:1051B30020958A088B09A808A909E84960278882ED
:1051C3008983A3A3A3A3E06401600D88828983A3D9
:1051D300A3A3A3E06402700DAC18AD19EEFAEFFBC4
:1051E3001221078012120FF18A088B09AC08AD094E
:1051F300AA18AB19121BD3850C82850D83A3A3A315
:10520300A3A3A3A3A3E064017012E50C2415125217
:105213008812607B74081208F4121BD3E50C241D5A
:10522300F582E4350D125290E04430F50878081207
:10523300087474011208EC88088909780812087048
:10524300740B1208EC880889097808120870E516AF
:10525300F50878081208747900EEFCEFFD1252B2DB
:10526300120BE9740612088302513012528412524F
:10527300A3E50EF012100974101208837F0F0205C4
:10528300E3E50C241DF582E4350DF58322F583E077
:10529300F8A3E0F5838882A32290037B1254B722FC
:1052A300126BA8A3A3A3A3A3227901AC08AD09128F
:1052B30067CF350D1252BB22F583E0FAA3E0FB2240
:1052C30074EC12037A74F012091C8A0C8B0DECFA3D
:1052D300EDFB750F0812607812116B8A088B09AC0D
:1052E30008AD09EC4D601F8C828D83A3E07017120B
:1052F3005C8E5001097A027B0012022AE88C828DAF
:1053030083F0A37407F0E50C241DF582E4350D1238
:10531300549BF50E8882898312548DE0FAE4CAFB0C
:10532300EC2AFEE43BFF88828983A3A312548DA356
:10533300A3E0FBECF508E43BF50988828983A3A38A
:10534300A3A3A3A3A3E0F50BE50AA2E45003750FFF
:1053530010A2E550067408250FF50F748F550A70D7
:1053630007125480650F600A7AD37B00121D2F0247
:10537300547B530A707800E50AA2E4501C1252844D
:10538300E02408FCA3E03400FD74081208F4121BA7
:10539300D37808E50AC2E4F50AE50AA2E5501F122C
:1053A3005284E028F8A3E03400F9E82408FCE43947
:1053B300FDAA18AB19121BD3E50AC2E5F50AA90E1B
:1053C300EEFAEFFB120C8BE9F5109025A01264BBEB
:1053D30050298912751300740378121209D6747C4C
:1053E3002512F582740F3513F583E0F8E50BC398A6
:1053F3005007E50BF078008004807D780490036EFD
:10540300E06E7003A3E06F605FE87019E50AF50FC3
:10541300780F1208741254AA120C13740112088321
:10542300E970558005740468704E780A1208747424
:10543300011208EC880C890D780C120870740B1299
:1054430008EC880C890D780C120870E50EF50A78C3
:105453000A120874A90BAC08AD09EEFAEFFB120BA4
:10546300E974061208838010780A1208741254AA89
:10547300120C1374011208837410023B07E50C2409
:1054830017F582E4350DF583E022A3A3A3E0FC889E
:10549300828983A3A3A3A322124C7DA3E0F50A88E8
:1054A300828983A3A3E02279011267CF350DF583A7
:1054B3001254B722E0FCA3E0FDAA08AB092274EB67
:1054C30012037A74F512091CEAFEEBFF8C088D09AE
:1054D30089147420120B4CE0F511F9120C8BE9F5C9
:1054E3000A9025A01264BB501B750B007403780A45
:1054F3001209D6747A250AF582740F350BF58312D7
:105503004E138006750EFE750FFF7401120B4C745B
:1055130008F07425120B4CE0F510A2E45008740156
:10552300120B4C7410F0E510A2E550097401120B34
:105533004CE02408F0AA18AB1912105D8A0C8B0DED
:10554300EA450D7003025663EA2417125671120FCF
:10555300F1E50C241AF582E4350D1248FC7421128E
:105563000B4CE0F512A3E0F51374031208FCAA0E2A
:10557300AB0F122107E9601512566D74031208EC84
:10558300E50C2418125288E8F0A3E98020E510A264
:10559300E4501BE50E6E7003E50F6F701112566D2C
:1055A300E50C2418125288E512F0A3E513F0E50C7C
:1055B30012568812528B12356F850A82F583740254
:1055C300F0A3E51012567CE511F0EE850A82850BF7
:1055D30083A3A3A3F0EF850A82850B83A3A3A3A3CD
:1055E30012567CA3A3A3E508F0E509850A82850B7F
:1055F30083A3A3A3A3A3A3F0AA0EAB0F120C4FE99B
:105603002514850A82850B83A3A3A3A3A3A3A3F0D5
:105613007800E510A2E45012AC12AD13E50A240899
:10562300FAE4350BFB121BD37808E510A2E5501AF8
:105633007423120B4C12607BE50A28F8E4350BF94E
:10564300E82408FAE439FB121BD3850C82850D8309
:10565300A3A3E50EF0A3E50FF0AA0CAB0D12200BEC
:10566300740B1208837F0D0205E3E50C2416F58203
:10567300E4350DF5837401F022F0850A82850B83EE
:10568300A3A322E5081267D12274F412037A8A08CD
:105693008B09ECFEEDFF750B0190036EE06508705E
:1056A30004A3E065096013750B00780B12087412EC
:1056B30010B77401120883E9F50B7900AA08AB0946
:1056C300120C9D8A088B09A808A90990036EE0684B
:1056D3007003A3E06970467900EEFAEFFB120C91B8
:1056E300EA4B60308A828B83A3A3A3A3A3A3E054D2
:1056F3001860217508FE7509FF78081208708A8200
:105703008B83A3A31206B2126FF3120CA9740412B3
:10571300088380097901EEFAEFFB120B65A90B02EE
:1057230037E674F212037A7EFF7F0D7A107B0090C6
:1057330003C8E0F9121BAFEA4B4C4D701790820D72
:105743001206AE7A107B009003C8E0F9121BA37413
:1057530004120883900318E014F0600302580790C2
:1057630025B1E493900318F07C0079057A007B005F
:10577300120F798A088B090257FE7C007905AA0863
:10578300AB09120F798A0A8B0B850882850983A3DB
:10579300A3A3A312471D605DE5082404F8E4124A9D
:1057A300B1E024FFF0A3E034FF1264C212471D707E
:1057B30044850882850983A3A3A3A3A3A3E0540478
:1057C3006013850882850983A3A3A3A3A3A3A3A32B
:1057D300E0F9120C79850882850983A3A3A3A3A307
:1057E300A3A3A3A37406F07AF08508828509831224
:1057F3006548120ECB850A08850B09E50845096043
:105803000302577D75080080668E828F83A3A3A34E
:10581300A3E06052F4604FEE240412590A70478EDD
:10582300828F83A3A3A3A3A3E06403701379028EDF
:10583300828F8312607B8E828F831259BC120BEF8F
:105843008E828F83A3A3A3A3A3E0640160188E8237
:105853008F8374FEF0A30412319B14F0A304126629
:105863004EE412392FF00508EE2407FE50010F9085
:1058730025A212357740927E00803D120F9D8E083F
:10588300750900740378081209D674772508FC7427
:105893000F3509FD7AFB7B0B120F8BEA4B70DC8E05
:1058A30008750900740378081209D6124AAA122A45
:1058B3007388828983E4F00E9025A0126D2750250A
:1058C3008E08750900740378081209D674772508C1
:1058D300F8740F3509F9E82407F582E4126A0F1406
:1058E300F070D480997A008009EA12591460021486
:1058F300F00A90259F12590340EF0247E39025A732
:10590300E493F8EAC39822F582E43FF583E014F0C8
:105913002275F006A4F8A9F0741728F582740F1203
:105923004A0D2274F712037A74DA12091CECFEEDA5
:10593300FF750800EE4F606A8A828B831259ACC8E8
:10594300241FF582E43812471B60578A828B831227
:1059530059BEAC18AD19EA241E1249D6F9EA241F20
:1059630012260A120FD9740B120B4C1259C670036C
:10597300A3E069702D7402120B4CE0640170237470
:105983001D120B4C1259C2E064017016741D120BE8
:105993004C125294A3E0F88E828F83E068700375F3
:1059A3000801A90874260245CAE0F8A3E0228E8202
:1059B3008F83A3A3A3A3A3A3A3A3A31252BD2212C2
:1059C3006BA8221259CCE068221259D022E0F8A326
:1059D300E0F98E828F83A32274F412037AE9701E96
:1059E3007900120C078A0A8B0BAE0AAF0B74FE6E9A
:1059F300700374FF6F70149025A8E493600D790110
:105A0300120C078A0A8B0BAE0AAF0B121027023750
:105A1300D674F612037A74F312091C121A478A0811
:105A23008B09AE08AF0990036EE06E7003A3E06FBD
:105A330060E9120FFDEA6E7002EB6F60DEEEFAEFC3
:105A4300FB121075E970D4EE4F60D085188285196A
:105A530083E4F004120B4CEEF0A3EF124C6E122011
:105A6300EFE970B774FE6E700374FF6F60ADEEFA0A
:105A7300EFFB740D02303FC082C08312102702393E
:105A83009874F212037AEAFEEBFF8C0A8D0B8908F5
:105A930074FC6E700374FF6F7003025C6E79001206
:105AA3000C9D8A0C8B0DAE0CAF0D740E120B4CE0DB
:105AB300F50990036EE06E7003A3E06F7009E509CA
:105AC300A2E64003025C6EA909120C918A0C8B0DAD
:105AD300A80CA90DE849704579007AFE7BFF120CEA
:105AE300918A0C8B0DA80CA90DE8497030741855D8
:105AF300097003025B9E7A0080010A9025A2125965
:105B0300034003025B9EEA75F007A4F8A9F0126E46
:105B13003C541870E574FF28F8740D39F9888289AC
:105B230083EEF0A3EFF074FE650A700474FF650B57
:105B3300600D88828983A3A3E50AF0A3E50BF088AF
